:020000040800F2
:10000000E09900209D01000897120008CF11000818
:10001000951200088F0A0008ED5E0008000000003D
:10002000000000000000000000000000151700089C
:10003000B10E0008000000006D130008F117000861
:10004000B7010008B7010008B7010008B7010008B0
:10005000B701000801150008B50E0008E90E0008F8
:10006000B7010008B7010008B7010008B701000890
:10007000B7010008B7010008B7010008B701000880
:10008000B7010008B7010008B7010008B701000870
:10009000B7010008B7010008B7010008B701000860
:1000A000B7010008B7010008B7010008B701000850
:1000B000112E0008B7010008152E0008B70100082E
:1000C000B7010008B7010008B7010008B701000830
:1000D000B7010008B70100081D310008B70100088A
:1000E000B7010008B7010008B7010008B701000810
:1000F000B7010008B7010008B7010008B701000800
:10010000B7010008B7010008B7010008B7010008EF
:10011000B7010008B7010008592E0008B701000810
:10012000B7010008B7010008B7010008B7010008CF
:10013000B7010008B7010008B7010008B7010008BF
:10014000B7010008B7010008B701000861130008F3
:10015000B7010008B7010008B7010008B70100089F
:10016000B7010008B7010008B7010008B70100088F
:10017000B7010008B7010008B7010008B70100087F
:10018000B7010008B7010008DFF80CD000F0E2FA70
:10019000004800474D790008E09900200648804754
:1001A00006480047FEE7FEE7FEE7FEE7FEE7FEE75C
:1001B000FEE7FEE7FEE7FEE7C12D00088901000823
:1001C000F0B480EA0102D40F4200B2EB410F02D238
:1001D0000246084611464A0042D0C30DDDB2C1F3C3
:1001E000C752AD1A202D35DAC1F3160141F40002D1
:1001F00004B15242C5F1200602FA06F12A41104428
:10020000B3EBD05F23D0C4B1012DA0EBC35009DC08
:10021000F0BC4FF0004202EAC35200F50000DBB22E
:1002200000F00BBA400000F1807000EBC350A0F169
:10023000807040EAD170490009E0490841EAC07184
:10024000A0EBC35000F50000400800EBC350F0BC29
:1002500000F0EAB96142012202EB4101001BF6E71E
:10026000F0BC704781F00041AAE780F00040A7E7AA
:1002700080EA010210B502F00043400026D04A0097
:1002800023D04FEA106101EB1261C0F35600C2F3B4
:10029000560240F4000042F40002A0FB0220A1F14B
:1002A0007F014FEA0040140401D000F1010050EA40
:1002B000124001D44000491EC2B20C0604EBD0101B
:1002C000401C4008802A02D003E0002010BD20F02E
:1002D0000100002900DA0020184310BD30B480EA84
:1002E000010202F0004530F0004221F0004015D03C
:1002F000A0B1C0F3C753C2F3C754C2F31601C0F391
:100300001600E41A41F4000140F400027D349142E9
:1003100001D3641C00E04900002C02DA30BC00204C
:1003200070474FF400000023914201D3891A034320
:1003300040084FEA4101F7D151B1914202D14FF04B
:10034000004105E002D24FF0010101E06FF0010130
:1003500003EBC450284430BC00F066B92DE9FE4FD1
:10036000804681EA0300C00F0C46009021F0004156
:1003700023F00045B8EB0200A94105D240462146D2
:1003800090461C460B46024623F00040104304D121
:100390004046214603B0BDE8F08F270DC7F30A00A1
:1003A000C3F30A510290401A0190402866DAC3F361
:1003B000130040F4801B0098924620B10023D2EB3A
:1003C000030A63EB0B0B01985946C0F140025046FB
:1003D00000F0F9F806460D4650465946019A00F0DD
:1003E00011F910EB08006141002487EA115284EAF8
:1003F000E7731A433BD0009A3AB3019A012A4FEAB5
:10040000075210DC001B61EB02014FF0004202EAD0
:100410000752CDE90042001C41F5801132462B46BF
:1004200000F045F9B6E7001B61EB0201001C41F545
:10043000801300185B412018A2F5001747EB030159
:1004400040EAD570B6196D4111E06D084FEA3606E5
:1004500045EAC0754FEA0752001B61EB0201001C20
:1004600041F5801149084FEA3000001951413246E8
:100470002B4603B0BDE8F04F00F00CB90098012204
:1004800040000023D0EB020263EBE07300982146AA
:100490004FEAE074B8EB000061EB0401E9E783F098
:1004A00000435BE781F0004158E7C10F80EAE0704C
:1004B0000844CA079623002100F0BFB89623002203
:1004C000114600F0BAB80EB5C10F80EAE0700844DA
:1004D000CA07002140F233438DE80E000A460B465E
:1004E00000F0E5F803B000BD0EB540F233410291D3
:1004F0000021CDE900110A460B4600F0D8F803B000
:1005000000BD00F0004220F00040C10DC0F3160015
:1005100040F400007F2901DA00207047962903DCAF
:10052000C1F19601C84001E096398840002AF4D014
:100530004042704720F00040C10DC0F3160040F467
:1005400000007F2901DA00207047962903DCC1F101
:100550009601C8407047963988407047C1F30A52E7
:1005600010B5C1F3130140F2FF3341F480119A42F8
:1005700001DA002010BD40F233439A42A2F2334226
:1005800003DC524200F02EF810BD904010BD01F087
:10059000004330B421F0004150EA010206D00A0DB8
:1005A000A2F56072C1F31301002A02DC30BC002006
:1005B0007047440F44EAC104C100E01830BC00EBAE
:1005C000C25000F031B8202A04DB203A00FA02F1D0
:1005D000002070479140C2F1200320FA03F3194331
:1005E00090407047202A04DB203A21FA02F00021D3
:1005F000704721FA02F3D040C2F120029140084333
:1006000019467047202A06DBCB17203A41FA02F040
:1006100043EAE07306E041FA02F3D040C2F120025F
:1006200091400843194670470029A8BF7047401CF5
:10063000490008BF20F00100704710B4B0FA80FCF8
:1006400000FA0CF050EA010404BF10BC704749B135
:10065000CCF1200421FA04F411FA0CF118BF0121A5
:1006600021430843A3EB0C01CB1D0106000A002B1C
:10067000BEBF002010BC704700EBC35010440029DF
:10068000A4BF10BC7047401C490008BF20F0010007
:1006900010BC704710B5002B08DA401C41F1000176
:1006A00092185B411A4301D120F0010010BD2DE9E1
:1006B000F04D92469B4611B1B1FA81F202E0B0FAD8
:1006C00080F220329046FFF77EFF04460F4640EA54
:1006D0000A0041EA0B0153465A46084303D120461B
:1006E0003946BDE8F08D114653EA010015D0C8F136
:1006F00040025046FFF776FF05460E4650465946E3
:100700004246FFF760FF084301D0012000E00020CF
:10071000054346EAE0762C4337430A984FEA4453B0
:10072000A0EB08004FEAD4240A304FF0000244EA5C
:1007300047544FEAD72502D500200146D1E70105ED
:1007400010196941DDE9084500196941BDE8F04D1E
:10075000A0E70000064C074D06E0E06840F001030A
:1007600094E8070098471034AC42F6D3FFF710FD29
:10077000F08F00081090000870B501EB020410F82B
:10078000015B15F0070301D110F8013B2A1106D1D6
:1007900010F8012B03E010F8016B01F8016B5B1EF0
:1007A000F9D12B0705D40023521E0FD401F8013BC9
:1007B000FAE710F8013B02F10202A1EB030303E0A8
:1007C00013F8015B01F8015B521EF9D5A142D6D3A3
:1007D000002070BD2DE9F0419CB00121374800F0A8
:1007E000C7FD01210E02304600F0F2FD344800241E
:1007F000CDE90040334802A9022531C16802CDE9A4
:100800000540400007908000CDE908060AA90001D4
:10081000012651C12C4F0D94694638460E9400F0C4
:100820001DFB0121384600F00FFB04200327DFF8F1
:100830009C8015908DF858708DF85B4015A9404646
:1008400000F017FC8DF8587015958DF85B4015A9D0
:10085000404600F00EFC17944FF470601894CDE9F8
:10086000194017A800F03EF80F9411941394144CFB
:100870008DF840604C3C8DF841608DF850500FA9C8
:10088000204600F057F8072301220B21204600F0F4
:1008900077F8072302220C21204600F071F801218D
:1008A000204600F03DF80121204600F02FF80121FC
:1008B000204600F00DF81CB0BDE8F08104004000B7
:1008C0004C20014048000020106402400008024013
:1008D0000029816802D041F0010101E021F001010D
:1008E00081607047074B10B51A6807490A40D0E984
:1008F00000142143D0E9024004432143114319600D
:1009000010BD000004230140E030FCFF0029816895
:1009100002D041F4807101E021F480718160704760
:100920000029816802D041F4007101E021F40071D6
:100930008160704730B542680F4B0C791A400B68E4
:1009400042EA04221343436082680C4B4D791A40FB
:10095000D1E9034323438C6844EA4504234313430A
:100960008360C26A097D22F47002491EC9B242EA5C
:100970000151C16230BD0000FFFEFFFCFDF7FFC06A
:1009800070B5072609290AD9C568A1F10A0404EB44
:100990004404A640B543A3401D43C56007E0056974
:1009A00001EB4104A640B543A3401D4305611F234D
:1009B000072A09D2446B521E02EB820293409C43E9
:1009C00091400C43446370BD0D2A09D2046BD21FC1
:1009D00002EB820293409C4391400C43046370BD40
:1009E000C46A0D3A02EB820293409C4391400C434F
:1009F000C46270BD816841F0804181607047000031
:100A000010B5074C2060084600F00CF8206800285C
:100A1000FCD1BDE8104000214FF0804002F041BA07
:100A2000AC0000203EB504464FF08045002128462A
:100A300002F037FA00220121284602F04AFA022C7D
:100A400002D0012C02D004E00B2001E042F6DF606E
:100A500001900520ADF800000020ADF80800ADF8C9
:100A600002006946284602F0D3FA0121284602F026
:100A700015FA0121284602F007FA012211462846FC
:100A800002F027FA0121284602F00BFA3EBDFEE7EC
:100A90002DE9F05FD448007800287DD0D448D349B0
:100AA00005790E7943798279632E77D04FF00A0B5E
:100AB0005846B6FBF0F7CF4C0BFB176607F1300C2E
:100AC00084F800C0303666704FF03A0884F802802F
:100AD0004F79B7FBF0F606F1300C0BFB167684F875
:100AE00003C03036267184F805808F794FF00008F6
:100AF000B7FBF0F60BFB167006F1300C84F806C05D
:100B00003030E0710D714B71BB4D8A710820BB49CB
:100B10002870BB4FBB48A1F80080A7F8008002787E
:100B20003B260D21CAB3DFF8E0A2894638882A782F
:100B300000EB4001C1EB4011114466542144491CB3
:100B40003AF8100005F06EFC38882A7800EB400176
:100B5000C1EB401111442144AC4ACE71083132F846
:100B6000100005F05FFC38882A7800EB4001C1EBEB
:100B7000401111442144A64A8E730F3132F81000FF
:100B800005F050FC38882A7800EB4001C1EB401199
:100B9000114421444E7502E023E11BE016E09D4A1A
:100BA000163132F8100005F03DFC3888401C80B248
:100BB000388000EB40022B78C2EB40121A442244EA
:100BC000B0F5167F02F8019CB0D351E00D714B7166
:100BD0008A7103E1DFF840A2894638882A7800EB61
:100BE0004001C1EB4011114466542144491C3AF8BC
:100BF000100005F017FC38882A7800EB4001C1EBA3
:100C0000401111442144854ACE71083132F8100058
:100C100005F008FC38882A7800EB4001C1EB401150
:100C2000114421447E4A8E730F3132F8100005F0D2
:100C3000F9FB38882A7800EB4001C1EB40111144E0
:100C40002144784A4E75163132F8100005F0EAFB5F
:100C50003888401C80B2388000EB40022B78C2EB11
:100C600040121A442244B0F5167F02F8019CB4D316
:100C70006D4800F09AFADFF8B49110266C4C4FF0F2
:100C8000200A012805D06B4880F8008089F8008090
:100C900010E002226849694805F066FE70B108223A
:100CA0006549664805F060FEE8B3022000F026FDC5
:100CB00089F800806683A4F818A08FE0002000F077
:100CC0001DFD5E48C16805F096FD38885C4B00EB61
:100CD0004001C1EB4010297842184649574805F0B9
:100CE0003AFF564805F07EFDDFF85881594698F8DE
:100CF0000400B0FBF1F30BFB13054F48303542798C
:100D000095421CD098F80670B7FBF1F202F1300C56
:100D100001FB127280F800C03032427098F8057002
:100D2000B7FBF1F200E011E00BFB127102F1300CA5
:100D3000303180F802C0C17030330371457100203A
:100D400000F0D0FC3B490120087042E0002000F098
:100D5000D5FC3A48C16805F04EFD3888384B00EBA9
:100D60004001C1EB4010297842182249334805F070
:100D7000F2FE324805F036FDDFF8C880594698F893
:100D80000400B0FBF1F30BFB13052B48303542791F
:100D900095421AD098F80670B7FBF1F202F1300CC8
:100DA00001FB127280F800C03032427098F8057072
:100DB000B7FBF1F20BFB127102F1300C303180F80D
:100DC00002C0C170303303714571002000F08AFC0D
:100DD000012089F800002683A4F81AA00249002007
:100DE0000870BDE8F09F000087000020530000203D
:100DF0004C000020CC3C002081000020820000201C
:100E000084000020780000205C0C0020EC260020EC
:100E1000FC1B0020DC3100202C140020642C00205E
:100E20007421002054370020AC0100200A0000206B
:100E30000010024086000020B10000201C8F00201E
:100E400096000020340C00200029016802D041F0F7
:100E5000010101E021F001010160704730B5036834
:100E6000124ACC6813400A682243D1E905452C4355
:100E70002243CC6922430C6A22434C6A22438C6A87
:100E800022434C6B22438C6B22431A43026042691B
:100E900022F00703D1E90B2422431A4342610A6975
:100EA00042604A6882608968C16030BD3F801CF042
:100EB0007047000010B5012000F036F858B108481E
:100EC00003780021074A012B01D003780BB1117080
:100ED00000E001210170BDE81040012000F01EB8C3
:100EE000BB0000200600002010B5022000F01CF816
:100EF00000280FD00848437B00220121012B06D097
:100F000002734173BDE81040022000F007B801737E
:100F10004273F7E710BD000004010020014908609A
:100F200070470000143C0140064A01460020126848
:100F3000044B0A4014331B680B4202D0002A00D035
:100F400001207047003C014070B50646002529B1DC
:100F5000012927D0022928D04FF4407500F07AF8F3
:100F600008281ED1124C206820F4407020602068B0
:100F700028432060206820F0F8002060206846F0B8
:100F8000020108432060206840F48030206000F0B7
:100F900061F8216821F002012160216821F0F80147
:100FA000216070BD4FF48075D8E74FF40075D5E728
:100FB000103C02400B4908200A68D20301D50120E9
:100FC00070470A68D20601D5052070470A6812F0FA
:100FD000EF0F01D00620704709688907FBD507206D
:100FE000704700000C3C02400248016841F000419B
:100FF00001607047103C024070B50D46064600F097
:1010000029F8082811D1094C206820F4407020608C
:1010100020682060206840F001002060357000F0FA
:1010200019F8216821F00101216070BD103C0240D7
:1010300005480068002805DA034804490C380160B7
:101040000349016070470000103C024023016745DE
:10105000AB89EFCD08B508208DF80000FFF7AAFF97
:101060008DF800009DF800000128F7D09DF80000E1
:1010700008BDF0B5002201274FF0030C0B6807FAFA
:1010800002F52B40AB422CD1066853000CFA03F456
:10109000A64306600E79D0F800E09E4046EA0E06B0
:1010A00006600E79012E01D0022E12D18668A64369
:1010B00086604E79D0F808E09E4046EA0E068660CB
:1010C0004668AE43466045688E799640B6B2354371
:1010D0004560C568A543C560CC799C40C3681C4386
:1010E000C460521C102AC9D3F0BD4B07DB0E9A40D6
:1010F000C90810B500EB8100016A0F249C40A14390
:101100000162016A1143016210BD4183704701838E
:1011100070474FF6FF7101600021017141718171CB
:10112000C17170470AB101837047418370474069BC
:10113000806880B27047D0F8CC000068C0F34140AE
:101140007047084490F89B02704700EB8100D0F88C
:101150005002704710B5002204461346C0F8102212
:1011600004EB8200C0F81432C0F85032A01880F8A6
:101170008C32521CD2B20F2AF2D30820A4F8B20249
:10118000204603F075FF204603F072FD204603F071
:101190008BFC0121204603F0CBFF204603F0F1FC3D
:1011A000204603F08BFD002010BDD0F810027047E0
:1011B00010B503F047FF002010BD0022431883F84C
:1011C0009B2200EB4113C3F8C02203F08ABEFEE766
:1011D00000B500224FF48071012805D01448018029
:1011E000032007F0E7FB15E01148801E0180032073
:1011F00007F0E0FB00E0521C07F03CF9012800D0AA
:101200000020022A01D2012100E000210842F2D18F
:1012100000BD521C07F02EF920B10020022A03D293
:10122000012102E00120F9E700210842F1D100BDCF
:101230001A04024000B500228021012805D014487C
:101240000180032007F0B6FB15E01148801E0180E5
:10125000032007F0AFFB00E0521C07F015F901284E
:1012600000D00020022A01D2012100E00021084222
:10127000F2D100BD521C07F007F9012800D0002070
:10128000022A01D2012100E000210842F2D100BD72
:101290001A040240FEE710B5802000F01FF9002874
:1012A0000BD0012000F024F90121182000F04AF9A8
:1012B000BDE81040802000F0A3B810BD00F01F0270
:1012C0000121914040094FF0E02202EB8000C0F87C
:1012D0000011704770B50F23C278017801254FF0D7
:1012E000E026E2B1124A126802F4E062C2F5E0625E
:1012F000C2F30722C2F10404D3404278A2408478AA
:101300001C400C4B14432201CA54007800F01F010A
:101310008D40400906EB8000C0F8005170BD01F01F
:101320001F008540480906EB8000C0F8805170BD61
:101330000CED00E000E400E00249084302490860C7
:10134000704700000000FA050CED00E0024A114071
:10135000014302480160704780FFFF1F08ED00E075
:10136000014803F02CB80000AC01002070470000D9
:10137000044A0029116801D0014300E08143116053
:101380007047000030380240044A0029116801D03B
:10139000014300E08143116070470000343802408F
:1013A000044A0029116801D0014300E08143116023
:1013B0007047000040380240044A0029116801D0FB
:1013C000014300E081431160704700002038024073
:1013D000044A0029116801D0014300E081431160F3
:1013E0007047000044380240044A0029116801D0C7
:1013F000014300E08143116070470000243802403F
:1014000001490870704700000E3802400149C86465
:10141000704700000000474270B5204B1968204C0F
:1014200011F00C0104D06610042903D0082903D060
:1014300004601BE0066019E0184A121F1168C1F32E
:101440008055116801F03F0115B1B6FBF1F101E0E3
:10145000B4FBF1F114681268C4F388146143C2F359
:101460000142521C5200B1FBF2F1016019680F22D7
:1014700002EA11110B4A545C0168E14041601C68AA
:10148000072505EA9424145D21FA04F484601B689E
:1014900005EA5333D25CD140C16070BD08380240C8
:1014A0000024F4005C0100200246002051090129BB
:1014B0000BD002290CD00849096802F01F02012351
:1014C00093400B4200D00120704703497439F3E781
:1014D0000149091FF0E7000074380240034A014641
:1014E000002012680A4200D0012070470C380240E8
:1014F000024900220A70087070470000023802405A
:1015000010B50820FFF7EAFF48B10820FFF778FF81
:101510003120FFF7C9FF10B1012000F029F8102099
:10152000FFF7DCFF00280CD01020FFF769FF3920FF
:10153000FFF7BAFF002804D0BDE81040022000F0F9
:101540001DB810BD044A0029117801D0014300E004
:1015500081431170704700000D380240034B1A6838
:10156000084322F078421043186070470838024060
:10157000014908667047000000004742034A1168AD
:1015800021F0030101431160704700000838024058
:1015900008B5034901EB80000090006808BD000019
:1015A0005028004008B5034A02EB8000009001601B
:1015B00008BD0000502800400029018802D041F0F9
:1015C000400101E021F0400101807047114910B550
:1015D00088420AD1841401212046FFF705FF2046E6
:1015E000BDE810400021FFF7FFBE0B49884202D141
:1015F0000121041404E0094988420AD10121C413DD
:101600002046FFF7D9FE2046BDE810400021FFF735
:10161000D3BE10BD0030014000380040003C004007
:101620000246002012890A4200D0012070478181C1
:10163000704730B502884C8802F441530A88CD883F
:1016400022438C882C4322430C8922434C89224319
:101650008C892243CC8922431A430280828B22F454
:1016600000628283098A018230BDA1F57E42018831
:10167000FF3A02D041F4807101E021F480710180D1
:1016800070470021018041808180C18001814181BA
:101690008181C18107210182704700001CB5044689
:1016A0000E48012150F82400FFF762FE0B4800218C
:1016B000083830F81400009001208DF804008DF8EF
:1016C00006108DF8070002208DF8050004486946D1
:1016D00050F82400FFF7CDFC1CBD00001C8F000853
:1016E0004C0100200349044A31F8101052F8200040
:1016F00041837047148F00084C0100200349044ABD
:1017000031F8101052F8200001837047148F000840
:101710004C010020704700000CB500222E490092B9
:101720000192086840F4803008604FF4A0630868B4
:1017300000F4003001900098401C0090019810B90E
:1017400000989842F3D108688303244841D50122C8
:101750000192224A3832136843F080531360204AC2
:10176000136843F48043136002680260026842F425
:1017700000420260026842F4A0520260031F194A4C
:101780001A600A6842F080720A600A689201FCD509
:10179000154A40F205631360026822F003020260FA
:1017A000026842F0020202600268C2F38102022A69
:1017B000FAD1026822F400020260084A0B487C3227
:1017C0001060086840F08060086008680001FCD57F
:1017D0000CBD0192EDE700000038024008380240DD
:1017E0000070004008544007003C02408040003038
:1017F0002DE9F04FFE4F8BB038690006FD4804D448
:10180000018A01F10101018203E0418A01F1010134
:101810004182F94E30680005F64803D4818A491C9C
:10182000818202E0C18A491CC182F44910200880EB
:10183000F448F54BF24D0188491C8AB21988AC79FD
:10184000491C002C346889B24FEA846403D0002C10
:1018500003DA028002E0002CFBDA19802979B3F860
:1018600000C008220125002461450CD8DFF89CC384
:101870008CF800507A83DFF898834FF4807CA8F8C6
:1018800018C01C800480B0F800C061450AD8DFF899
:101890007CC38CF800403A83DD4F4FF480727A832A
:1018A0001C80048030680206DA48DA4A008806D4D0
:1018B000814202D300F1010004E0148003E010B182
:1018C000A0F10100108030688205D348008807D459
:1018D000D14A814202D3401C108005E0148003E00D
:1018E000CD4908B1401E0880CC4ACD4950880988AE
:1018F000084487B2104647800188C9484088C94BD0
:101900000844114680B2088019781E46491CC9B2A5
:101910003170C54E0A297DD1B0FBF1F0B7FBF1F172
:10192000DFF808A3DFF8D892DFF80483AAF80000F4
:10193000AAF802101C701480548099F8032099F8BA
:1019400005108A42B149097806D10029494601D0DB
:10195000463105E01E3103E00029A94967D09631E0
:1019600005F0CCF9A34FA8F80000797AB972BAF85B
:101970000200B04905F0C2F9A8F80200797AF972BC
:10198000B8F80000002107F071F9B8F80200002152
:1019900007F098F99A484189B88C814202D8A64844
:1019A0000480BC84DFF88CB2F88BABF1120BB94623
:1019B000BBF80410814203D89F48A9F81E40448018
:1019C0009D4FB8F800003988884202D93880A9F8BC
:1019D0002440B8F802107A88914202D97980A9F897
:1019E0001E40002106F02EFCDFF850A20021AAF8CC
:1019F0000000B8F8020006F05BFCDFF80482DFF8B4
:101A000014C2AAF8020098F80400BCF8001040F2D2
:101A1000DE3200E0CCE3884240D899F801104B4612
:101A200039B11C70012910D0022928D032E06E3162
:101A300096E7834988F803406F4B0D7040210833C7
:101A4000198089009B1C198024E099F8071001294E
:101A500006D0B8F80C1091420DD1A8F80C4019E04E
:101A6000BBF80610914202D1ABF8064012E00A31F1
:101A7000ABF806100EE00A31A8F80C100AE099F84D
:101A8000071001291AD0B8F80A10632921D0491C7F
:101A9000A8F80A106049ACF800400C80DFF878E143
:101AA000BEF80010884249D899F801104B4699B108
:101AB0001C7001291CD0022932D03BE0BBF8041075
:101AC000632903D0491CABF80410E3E7ABF80440EA
:101AD000E0E7A8F80A40DDE7594988F80350464A8C
:101AE0000D7040210A3211808900921E118021E080
:101AF00099F80710012906D0B8F80C1069B10A3915
:101B0000A8F80C1016E0BBF8061019B10A39ABF8AA
:101B100006100FE0ABF806200CE0A8F80C2009E056
:101B200099F80710012930D0B8F80A10A1B3491E5E
:101B3000A8F80A10ACF80040AEF80040B9F8103030
:101B40004946984205D8CB788B70CD700C710C82C9
:101B50004C824B8A984205D8CB788B70CC700D7133
:101B60000C824C828B8A984203D84D718C718C8286
:101B7000CC82CA8A904203D84C718D718C82CC82FF
:101B800099F8030001280CD00FE0BBF8041021B134
:101B9000491EABF80410CDE701E06321F9E76321AA
:101BA000C6E799F80200494620B199F800000A28D2
:101BB0000AD060E04878401CC0B248700C7003281E
:101BC00059D10A2089F8000089F8004089F80140BD
:101BD00006F06EFFD02007F07CF90E2007F079F9AF
:101BE000DFF81C800A20B8F80C10B1FBF0F029E0F7
:101BF000001002400401002010080240180C0240AE
:101C00003C0B00208A0000208C000020880000206F
:101C1000000002408E00002090000020EC0A00200E
:101C200048000020070000207C000020D80A002087
:101C3000000B00200C0C0020280B0020140B0020AF
:101C40008900002007F045F9B8F80A0007F041F9CB
:101C5000BBF806100A20B1FBF0F007F03AF9BBF828
:101C6000040007F036F9122007F033F9342007F0AA
:101C700030F906F026FF9BF80E0099F8051008B120
:101C800009B104E019B189F80750FD4802E0FD48A8
:101C900089F807404FF4004B0178FB480170007849
:101CA000FA490028584601D0088300E04883DFF84D
:101CB000E0E399F80B009EF80020E2B30128F54913
:101CC000DFF8D483BAF802000FD03388C0F30E00D7
:101CD00021F813007888C0F30E0028F8130099F853
:101CE0000A00EE49DFF8B8C354E040F400433088FE
:101CF00021F81030798841F4004128F81010EEE7FF
:101D000040F40043308821F81030401C80B230800D
:101D1000398841F400410AE0C0F30E03308821F80D
:101D20001030401C80B230803988C1F30E012CF88D
:101D30001010318800E017E040F2E730814200D116
:101D40003080B9F80E004F46401C80B2A9F80E0052
:101D5000B0F57A7F00D9FC81D2480188491C89B24C
:101D600001800A2926D021E20128CF49DFF83C83EF
:101D7000BAF8020013D03388C0F30E0021F8130024
:101D80007888C0F30E0028F8130099F80A00C849B3
:101D9000DFF820C30128BAF80000BDD1B0E740F455
:101DA0000043308821F81030798841F4004128F848
:101DB0001010EAE7B98C491CB984F98B491CF983E6
:101DC000BD49BC6304800868401C08607B7813B17F
:101DD0003B785B1C3B70B94B984200D10C60B84813
:101DE000DFF8E0920B68038099F800004946401C38
:101DF000C0B289F800003C2821D30C704878401C00
:101E0000C0B248703C281BD34C708878401CC0B2CC
:101E10008870182814D18C700879401CC0B20871E1
:101E200020280DD10D714879401CC0B248710D2891
:101E300006D14D718879401C89F8060000E070B920
:101E4000A14882F001018EF8001005709F4834808F
:101E500099F80210017199F8011041718471D80745
:101E600003D00120FFF74AFCA0E14FF00008012059
:101E7000FFF738FC99F800004A46322803D00021C9
:101E800033281CD000E001210020014301D04FF095
:101E900001088F4B1878012800D000204146B8F186
:101EA000010F00D000210843DED0DFF828A29046C1
:101EB0008AF800401C709078172802D00CE00120AE
:101EC000E3E798F801003B2806D18348408A18B11F
:101ED000584501D03D720DE0387A01280AD008201B
:101EE00006F0FAFA7A487B4900780978084303D06B
:101EF000774857E10E20F3E77849B946087800F0B3
:101F00000F02C0F3021000EB800002EB400288F8E1
:101F1000002000924A78404602F00F03C2F30212FA
:101F200002EB820203EB420288F8012096468A788F
:101F300002F00F03C2F3011202EB820203EB420232
:101F400088F8022002920A7902F00F03C2F301120C
:101F500002EB820203EB420202714B7903F00F0C99
:101F6000C3F3001303EB83030CEB43034371984665
:101F70008B7903F00F0C1B0903EB83030CEB43037A
:101F8000DBB283719B463B7A012B78D14B7A03728B
:101F90008F7A4772BC46CF7A8772097BBA46C17284
:101FA000944502D04FF0010C01E04FF0000CC24507
:101FB00001D0012700E000274CEA070C594501D069
:101FC000012000E0002046495CEA000C47F6F87763
:101FD00009D0087800B90D703F48408AB84214D93A
:101FE000A0F5004011E0182B12D0087800B90D7050
:101FF00039484FF0180CC3F11803408AB84201D990
:10200000A0F500404343B3FBFCF0A9F8180001E041
:1020100089F8084008788A46012802D0022819D099
:10202000B0E000984146CDE900E05846029B04F03C
:10203000A7F9294AC9F82800B9F81810528ABA42F3
:1020400001D9401A00E00844401E06F06DFC022150
:102050008AF8001006F02CFDD02006F03AFF002090
:1020600006F037FF174F4FF00A083A78B2FBF8F046
:1020700008FB102101EB001000F07F0032E095E03A
:102080009200002009000020930000200000024080
:102090007800002074210020543700202C140020E8
:1020A000642C002012000020FC1B0020DC310020EA
:1020B0005C0C0020EC26002074000020C0270900E2
:1020C0007A000020340C0020870000204C00002003
:1020D0000B0000200F0000203C0B0020480C0020CB
:1020E0000C00002006F0F5FE7A78B2FBF8F008FB51
:1020F000102101EB001006F0ECFEBA78B2FBF8F00C
:1021000008FB102101EB001006F0E3FE012006F0B1
:10211000E0FE3A79B2FBF8F008FB102101EB001069
:1021200006F0D7FE7A79B2FBF8F008FB102101EB3C
:10213000001006F0CEFEBA79B2FBF8F008FB1021D1
:1021400001EB001006F0C5FE002006F0C2FEFE48BE
:10215000C07800F0010006F0BCFE182006F0B9FEC1
:10216000387906F0B6FE787906F0B3FEB87906F055
:10217000B0FE06F0A6FCF548F54A01781278114346
:1021800005D005709AF80000032803D00EE0032163
:102190008AF80010ED48EE4A89F808400178127874
:1021A000114301D0057001E08AF8004006F0B6FD49
:1021B000DFF8A08398F80000C8B1E54DE34F2C701C
:1021C0003C7006F075FCD02006F083FE082006F077
:1021D00080FEDD48C07800F0010006F07AFE06F0CF
:1021E00070FC38782978084301D188F80040DA4833
:1021F0000078002879D0D94A907877284ED00020EE
:10220000D17872294CD0002108401179742949D025
:102210000021084051795F2946D00021084091797A
:10222000632943D000210840D1796F2940D0002193
:102230000840117A6E293DD000210840C749497AEB
:10224000662939D00021DFF818B3DFF81893DFF8DA
:1022500018A308424FF05F074FF06F087DD00025AC
:102260002A4640F225515846009500F0E6FF01222B
:1022700040F22661584600F0E0FF01220821BB48E9
:10228000FEF750FF72B6FEF7D3FE02215820FEF78C
:102290005BFEFEF7A9FEFEF7CBFE31E00120AFE7C3
:1022A0000121B1E70121B4E70121B7E70121BAE734
:1022B0000121BDE70121C0E70121C4E7A748AC4ADD
:1022C0002844817A1170AB4AC07A39291070AA4A21
:1022D0004FEA0111147001D9A1F55C711170392810
:1022E000C9B2084402D9373801E0FDE33038107034
:1022F000A248117800EB5500FEF77EFEAD1CADB292
:102300009F4800880A388542D8DBFEF76DFE06F04C
:10231000CFFBD02006F0DDFD0E2006F0DAFD012017
:1023200006F0D7FD022006F0D4FD032006F0D1FD13
:10233000042006F0CEFD052006F0CBFD062006F0B9
:10234000C8FD06F0BEFB62B6772100986E226623B8
:102350000028484689F8001000E01BE04FF07201A9
:1023600089F801107ED074258570C77063250571CA
:1023700080F805808271C37107726522427289F804
:102380000A100B217F48AAF800103A210480584611
:1023900000F0CCFF714A907877287DD00020D1786A
:1023A00068297AD00021084011796F2976D0002160
:1023B0000840517915463F2971D0002108423BD091
:1023C000002240F22551584600F037FF012240F22A
:1023D0002661584600F031FF012208216348FEF7CC
:1023E000A1FE752189F80010732189F8011089F880
:1023F000028089F80370612189F80410722189F83C
:1024000005106D2189F8061089F807706B2189F88D
:1024100008106521484689F8091079218172C77230
:10242000322189F80C100D215648AAF800103A21E3
:102430000480584600F07AFFA87872287CD00020EB
:10244000E978652979D0002108402979732975D068
:10245000002108406979742971D000210840A979C8
:10246000612900E0D1E16BD000210840E9797229AF
:1024700067D000210840297A742963D000210842DE
:102480003BD0002240F22551584600F0D6FE0122F2
:1024900040F22661584603E0C5E1C6E1C7E1C8E164
:1024A00000F0CBFE012208213048FEF73BFE7221EE
:1024B00089F80010652289F80120732289F802202A
:1024C000742289F80320612389F8043089F8051003
:1024D00089F8062089F8077089F808806B2189F847
:1024E00009100A212748AAF800103A21048058460A
:1024F00000F01CFF254924480860A87873287DD087
:102500000020E97865297AD00021084029797429CA
:1025100076D00021084069795F2972D000210840F7
:10252000A97974296ED000210840E97969296AD017
:1025300000210840297A2BE07DE17EE17FE180E106
:1025400081E182E183E100003C0B00200B000020D0
:102550000F0000208900002008000020F006002065
:1025600000440040E40800201C000020000C024051
:102570007E0000207F0000208000002000000E0868
:102580001E000020200000200400FA050CED00E0F1
:102590006D297CD000210840FE49497A652977D011
:1025A0000021084275D0002240F225515D46584670
:1025B00000F043FE012240F22661284600F03DFE75
:1025C00001220821F448FEF7ADFD06F0A5F9F34815
:1025D000016841F080010160F04800684006FBD5C9
:1025E000EE4840F20711001D0160ED4901607321C2
:1025F00089F80010652289F8012005E029E12AE127
:102600002BE12CE12DE12EE1742189F8021089F8EB
:10261000037089F80410692189F805106D2189F883
:10262000061089F8072089F80870DA4D89F80980C2
:102630006B2189F80A10287D697D303800EB800015
:102640006FF02F0707EB40000844C2B2A87CE97C7A
:10265000303800EB800007EB40000844C1B2287C12
:102660006B7C303800EB800007EB40001844C0B2B0
:1026700006F01EF9A87BE97B303800EB800007EB01
:1026800040000844C2B2287B697B303802E0ECE0AD
:10269000EDE006E100EB800007EB40000844C1B22A
:1026A000A87AEB7A303800EB800007EB4000184442
:1026B000C0B2012306F0C4F8287D697D303800EBF4
:1026C0008000DFF8E08207EB4000084488F8000053
:1026D000A87CE97C303800EB800007EB4000084420
:1026E00088F80100287C697C303800EB800007EB1B
:1026F0004000084488F80200A87AE97A303800EBF4
:10270000800007EB4000084488F80400287B697BC0
:10271000303800EB800007EB4000084488F80500E3
:10272000A87BE97B303800EB800007EB40000844D1
:1027300088F8060006F0BCF9D02006F0CAFB00209D
:1027400006F0C7FB687D297D00EB0110A0F54C70F9
:1027500000F07F0006F0BDFBE87CA97C00EB0110D7
:10276000A0F54C7006F0B5FB687C297C00EB0110ED
:10277000A0F54C7006F0ADFB012006F0AAFBE97A4B
:10278000A87A01EB0010A0F54C7006F0A2FB697B63
:10279000287B01EB0010A0F54C7006F09AFBE87B5B
:1027A000A97B00EB0110A0F54C7006F092FB002015
:1027B00006F08FFB7C48C07800F0010006F089FB32
:1027C00098F8020006F085FB98F8040006F081FBFB
:1027D00098F8050006F07DFB98F8060006F079FBF6
:1027E00006F06FF96D48001F016841F0400101607B
:1027F000001D016821F08001016006F001F86B48BE
:1028000005F0CAFEDFF8A48136E074218170C7703C
:102810006321017180F805808271C371077280F8AD
:1028200009806B21ABE50120B9E50121BBE5012160
:10283000BEE50121C2E5012002E6012104E60121F5
:1028400007E601210AE601210FE6012112E6012136
:1028500015E6012055E6012157E601215AE601213E
:102860005DE6012160E6012163E6012193E6012195
:1028700097E64E4805F090FEA87AE97A303800EBEA
:10288000800007EB4000014498F802008142F0D13B
:102890000B214748AAF800103A210480584600F05E
:1028A00045FD3C4A9078722872D00020D178652985
:1028B0006FD000210840117961297BD000210840A8
:1028C00034494979642976D00021084274D0002225
:1028D00040F22551584600F0B0FC012240F226613A
:1028E000584600F0AAFC012208212B48FEF71AFCEA
:1028F00031884FF47A73B1FBF3F202F1300589F8B5
:10290000005003FB12116425B1FBF5F202F1300611
:1029100005FB121289F801600A21B2FBF1F601FBF6
:10292000162206F1300789F80270303289F8032048
:102930001C4E202289F8042096F806C04846BCFBAD
:10294000F1F707F1300801FB17C780F80580303731
:10295000877196F805C0BCFBF1F707F1300801FB61
:1029600017C780F807803037077296F804C0BCFBA1
:10297000F1F707F1300880F8098001FB17C70F3025
:10298000303700F8057C00F8042C96F802C014E0FB
:1029900098E199E1F0060020000C02400C2800406C
:1029A00007017F00340C00203C0B00204001002078
:1029B000200000208AE18BE13EE1BCFBF1F707F14A
:1029C000300801FB17C700F8038C303700F8027C91
:1029D00096F801C0BCFBF1F707F1300801FB17C7FF
:1029E00000F8018C30370770377842F21078B7FB67
:1029F000F1F606F1300C01FB167680F801C0303696
:102A00008670DD4EC270367830360671DB4E42710C
:102A10003788B7FBF8FC08FB1C76B6FBF3FC0CF11F
:102A2000300703FB1C66B6FBF5FC0A9787710CF1B7
:102A3000300705FB1C66B6FBF1FC0997C77101FB6B
:102A40001C660CF13007089706F1300E0772CC4E69
:102A500080F809E082723788B7FBF8FC08FB1C7627
:102A6000B6FBF3FC0CF1300703FB1C66B6FBF5FC70
:102A70000797C7720CF1300705FB1C66B6FBF1FC2B
:102A8000069707730CF1300701FB1C660597477327
:102A9000303604968673BB4EC2733788B7FBF8FC9A
:102AA00008FB1C76B6FBF3FC0CF1300703FB1C663D
:102AB000B6FBF5FC039707740CF1300705FB1C66A9
:102AC000B6FBF1FC029747740CF1300701FB1C6662
:102AD0000197877430360096C674AB4E027536780F
:102AE00030364675827500E03FE1A84E36783036C4
:102AF000C675A74E0276F67830364676A54E8276B3
:102B000036783036C67602770A9F4777099F8777EF
:102B1000089FC777994E80F820E080F821207788B9
:102B2000B7FBF8FC08FB1C76B6FBF3F707F1300C9B
:102B300003FB1766B6FBF5F780F822C007F1300CEF
:102B400005FB1766B6FBF1F780F823C001FB17669B
:102B500007F1300C80F824C0303680F8256000F88A
:102B6000262F079F4770069F8770059FC770049E9A
:102B70000671834E42717788B7FBF8FC08FB1C7620
:102B8000B6FBF3F707F1300C03FB1766B6FBF5F75E
:102B900080F806C007F1300C05FB1766B6FBF1F7AD
:102BA00080F807C001FB176607F1300C80F808C0F9
:102BB0003036467200F80A2F039F4770029F8770D5
:102BC000019FC770009E06716E4E42717788B7FBF9
:102BD000F8FC08FB1C76B6FBF3F703FB1763B3FBAB
:102BE000F5F605FB1633B3FBF1F507F1300C06F1F2
:102BF000300780F806C001FB1531C77105F13006BA
:102C00000672303141726449827209783031C17282
:102C100062490273097830314173614982736148B6
:102C20004979303189F84E104F21AAF800100480FC
:102C30003A21584600F07AFB5B4A9078722849D0D6
:102C40000020D178642947D00021084011795F29FC
:102C500044D0002108405179632941D00021084027
:102C600091796F293ED000210840D1796E293BD05F
:102C700000210840117A662938D00021084272D01C
:102C800000252A4640F225515E46584600F0D5FA06
:102C9000012240F22661304600F0CFFA01220821DD
:102CA0004248FEF73FFABE214148AAF800104F46BD
:102CB0002A5C7A556D1CADB28D42F9D30020DFF845
:102CC000F4C021E00120F1E50121F3E50121F6E561
:102CD0000121FAE50120B4E70121B6E70121B9E7B6
:102CE0000121BCE70121BFE70121C2E70121C5E7BE
:102CF00050F80C203B18150EDD70150C9D70150A50
:102D00005D703A54001D80B28842F1D3204A908908
:102D10003873000A78735089B872000AF87200227A
:102D20008B1853F80C00DD19060EEE70060CAE7011
:102D3000060A121D6E7092B2F8543A2AF0D31E4B56
:102D400009EB01003A31DA888271120AC2719A885D
:102D50000271120A42711348AAF800103A21048045
:102D6000584600F0E3FA15480470104910201A3153
:102D700008800BB0BDE8F08F88000020D80A002042
:102D8000140B0020280B0020930000200A000020D4
:102D90003C0B00200B0000200900002092000020C6
:102DA0000401002020000020F0060020000C02405A
:102DB0000040024000000E08FA0B0020080000202E
:102DC0000F4810B5016841F0010101600C4A002173
:102DD0000832116002680B4B1A400260031D0A4A58
:102DE0001A60026822F48022026005480C300160FB
:102DF000FEF792FC05494FF00060086010BD00002E
:102E000000380240FFFFF6FE1030002408ED00E01D
:102E100001F028BE10B50D4C0221204600F04DF8FF
:102E2000002811D00221204600F038F8204600F09A
:102E300042F881B20648C184064800880144204611
:102E4000BDE8104000F0E2B810BD000000080040EE
:102E5000040100201000002010B50A4C012120467A
:102E600000F02BF800280BD005F058FF0121204678
:102E700000F014F82046BDE81040002100F011B821
:102E800010BD0000001000400029018802D041F070
:102E9000800101E021F0800101807047C943018277
:102EA00070470029018802D041F0010101E021F0C2
:102EB000010101807047406B704702460020138A71
:102EC00092890B4202EA010202D0002A00D00120BE
:102ED0007047002A828901D00A4300E08A43828138
:102EE0007047000070B58AB001210420FEF758FA3F
:102EF0004FF4A060FEF720FA1E208DF82000002479
:102F00008DF821408DF8224001258DF8235008A826
:102F1000FEF7E0F90120FEF7C1FB0020FEF7BEFB43
:102F20000320FEF7BBFB1A481A491B4E0068ADF898
:102F30001C40B0FBF1F0401E4FF6FF71ADF81400DD
:102F40000691ADF8164005A9304600F061F8012160
:102F50003046FFF799FF1148ADF80040ADF8025038
:102F600080890290ADF80C406946304600F018F8B0
:102F70000021304600F044F8012202213046FFF7DC
:102F8000A8FF01213046FFF78CFF0AB070BD00009A
:102F90009800002070640800000800400400002031
:102FA00030B5028C22F001020284028C8388048BEB
:102FB00022F0020224F073050C882C438D891543FE
:102FC0004A882A430C4DA84202D00C4DA8420DD18C
:102FD00022F00805CA8923F440732A4322F004052D
:102FE0008A882A430D8A1D434B8A2B43838004839E
:102FF00089684163028430BD000001400004014043
:10300000028B22F008020A43028370474163704733
:1030100030B50288164C174DA0420DD0A8420BD0F7
:10302000B0F1804F08D0144B984205D0134B984212
:1030300002D0134B984203D122F070034A881A43FE
:10304000104B984206D0104B984203D022F44073A4
:103050000A891A4302804A68C2620A880285A0422D
:1030600001D0A84201D1897A01860121818230BD37
:10307000000001400004014000040040000800403E
:10308000000C0040001000400014004070B5012109
:1030900086B04804FEF784F901210820FEF768F99C
:1030A0001C4E072205213046FEF71FF80722062195
:1030B0003046FEF71AF8022520208DF8045000242F
:1030C00000908DF806408DF8055069463046FDF7B2
:1030D000D0FF402000908DF8045069463046FDF73F
:1030E000C8FF4FF41650ADF80C400290ADF80E40FA
:1030F000ADF81040ADF814400C20074CADF81200AC
:1031000002A9204600F0B2F80121204600F06CF838
:1031100006B070BD000C0240004400402DE9F041B3
:10312000294D40F225584146284600F067F8274CC3
:103130000026D0B14146284600F050F820790028FA
:103140003FD1284600F0EEF8C1B23A2902D00D294D
:1031500002D005E0E68303E0E08B6083012020716C
:103160001B4AE08B1154401CE08340F2266739462D
:10317000284600F043F8002823D03946284600F0BE
:103180002DF8208BA18B884202D91248415C02E0C5
:1031900005D14FF00D01284600F0C8F809E00022E3
:1031A00008210D48FDF7BEFF01224146284600F0E8
:1031B00044F8A08BB0F5FA7F00D3A683A08B401C07
:1031C000A083BDE8F081000000440040040000201E
:1031D000F0060020E4080020000C02400A0A012149
:1031E0009140C943018070470029818902D041F490
:1031F000005101E021F400518181704770B501F068
:103200001F0501260024C1F3421306FA05F2012B23
:103210000FD0022B0FD0838A4FEA1121008813426E
:1032200006FA01F600EA060001D000B101242046AA
:1032300070BD8389F0E7038AEEE710B5C1F342134E
:1032400001F01F040121A140012B07D0022B07D060
:103250001430002A026805D00A4304E00C30F8E775
:103260001030F6E78A43026010BD00007FB50446C7
:10327000008A0D46C98820F4405001432182A0896C
:1032800041F20C618843A9882A8911436A89024363
:103290001143A181A08A20F44071A8890843A0822B
:1032A0006846FEF7B9F81D48844202D01C488442A3
:1032B00001D1039800E00298A1890904002900EBDC
:1032C000C00101EB0010296802DA4FEA410101E078
:1032D0004FEA8101B0FBF1F06422B0FBF2F14FEA5A
:1032E00001114FEA11136FF018056B4300EB8300D7
:1032F000A3891D044FF0320306D503EBC000B0FBD9
:10330000F2F000F0070005E003EB0010B0FBF2F074
:1033100000F00F00084320817FBD00000010014035
:10332000001401408088C0F308007047C1F3080111
:103330008180704730B5034600224FF6FF7403EBDF
:103340004205B5F88C542D0404D5521CD2B2082A7B
:10335000F5D32246A24205D003EB420041F40041DE
:10336000A0F88C14D0B230BD70B50C4600EB431100
:10337000012581F8AE52C1E9AE4291F8C42202B1F2
:10338000022281F8B4221946FDF717FF002070BD14
:1033900070B500EB4314002584F8AE52C4E9AE12B8
:1033A00094F8C51239B1022184F8B4121946FDF718
:1033B00004FF002070BD84F8B452F7E730B4022453
:1033C0000C7501244C750024CC820A8315064C83AD
:1033D00000EB431202D582F8C44201E082F8C542F4
:1033E000002330BC1A4600F01BB8D0F8AC240121F1
:1033F0001172D0F8AC0400218172704770B50C4690
:1034000000EB431101F52C71012501F8025C022546
:103410000D71C1E902421946FDF7CFFE002070BDD3
:1034200070B50C461D4616464979FDF78AFE0146E1
:103430000120E2780346012A0AD0022A07D1012995
:1034400010D0032911D0042901D1E370032070BDED
:103450002178617009212170A660A581237702215E
:10346000E17070BDE370002070BDE370022070BD9C
:1034700070B500EB4314002584F8AE52C4E9AE12D7
:103480001AB194F8C51259B102E0012184F8C512AD
:10349000022184F8B4121946FDF78FFE002070BD9A
:1034A00084F8B452F7E70B4610B500EB421101F572
:1034B0002C71002401F8024C03240C718B6008234A
:1034C000CB601146FDF779FEC0B210BD022100228B
:1034D00000EB4103491CC9B2A3F88C240829F7D397
:1034E0000020704770B50C46002121706170A170FA
:1034F00001220546E27022774020A07184F8201056
:1035000084F821202179284600F025F861792846A1
:1035100000F021F8002070BDD0F8AC2401215172D8
:10352000D0F8AC040021C172704770B50C25044678
:1035300005290AD0042908D006290BD12570D0F816
:1035400080000068BDE870400047D4F88000406CFF
:103550008047257070BD082908D200EB410000F2B9
:103560008C41B0F88C04C0F30E0008800020704736
:1035700030B442F08002DDE902540A7506224A7531
:103580000322CB82B2EB132F02D140F2094200E0BA
:1035900000220A834C8323462A4630BCFFF740BFF3
:1035A0000A8803781A440A800178084470472DE994
:1035B000FC41154600F58876CDE900650C464FF4D0
:1035C00000730022FFF7D4FF070009D1334604F14E
:1035D000500204F13E0104F13400009500F06BFF4D
:1035E0003846BDE8FC817CB51646044600F5887077
:1035F000CDE900060D464FF4807300222046FFF708
:10360000B7FF002830D104F58874082E217805F81A
:10361000221F61786970A178E27801EB022169804C
:103620002179297161796971A179A971E179A4F58B
:103630008874E97118D904F58C742178627801EBEB
:1036400002212981A178E27801EB022169812179A7
:10365000627901EB0221A981A179A973E179E9736A
:10366000217A2974617A69747CBD7CB500F588750E
:10367000069E1C46CDE9005642F440730022FFF737
:1036800077FF002814D16978032911D129788A1E7F
:10369000B24200DC1646AD1CB2B2002104E06B5C05
:1036A000891C04F8013B89B29142F8D300212170B2
:1036B0007CBD00002DE9F05F002680468E74087FF7
:1036C0000B250927DFF8B8910C464FF0080B4FF097
:1036D000050A0C2817D2DFE800F0CF060E39415753
:1036E0006879829CADC1627904F114014046FFF70C
:1036F000DAFE022065E061794046FDF722FD0128EF
:1037000002D003281ED0B7E0207D618B00F080003E
:1037100051B141F28832A9F80020802802D084F803
:103720001CA008E0032005E03222A9F80020802830
:1037300006D0072020774046FDF7F9FC20829BE069
:103740002777F8E7257784F812A095E02379227B84
:103750004046A168FFF752FE042032E0217940463E
:10376000FDF7EFFC01280DD0042870D0032873D09A
:103770004046FDF7DCFC218A411AB9F8000081427D
:103780006AD879E02777F3E7617908EB411090F880
:10379000C51281F0010180F8C5126379227B404691
:1037A000A168FFF765FE06200BE061794046FDF752
:1037B000C8FC012804D0042849D0022803D041E0E5
:1037C0000720207758E084F81CA055E000222379D8
:1037D00011464046FFF712FE84F81CB04CE02179F8
:1037E0004046FDF7AEFC0746012830D0032F33D00A
:1037F0004046FDF79CFC218A411AB9F8000081423D
:103800002AD8042F38D1607820700420A0740326B1
:1038100032E06179002208EB411090F8C51281F086
:10382000010180F8C512637911464046FFF720FE7A
:103830000A20C6E761794046FDF783FC012806D0DF
:10384000022807D0032807D016E000E004E06078E3
:10385000207011E027770FE025770DE0A07B401C5A
:10386000C0B2A073022802D80120087704E084F8CF
:1038700012B06078087002263046BDE8F09F000064
:103880006C0100202DE9F0410C4680460125897825
:103890000026FF2092B02F460A2952D2DFE801F01D
:1038A000052332525B6D8097AAB408222146404618
:1038B000FFF799FE002844D194F82900A0714046F2
:1038C000FDF776FCA770A0790023CDE9006061794F
:1038D0001A46404600F05AFDA0790023CDE9006069
:1038E00021791A462AE0122221464046FFF77BFE44
:1038F000002826D1D4F88000C16904F1220088474D
:1039000002207FE001222146404600F01EFF0028F1
:103910007BD1A41CA777D4F87E00006A80470320DF
:10392000207000960196A27FA1780023404600F007
:103930002DFD00960196A27FE1780023404600F01D
:1039400025FD62E0092221464046FFF730FE0028AF
:103950005BD1042056E0E28E21464046FFF727FE69
:10396000A0BBD4F8800004F1500204F13E01436A88
:1039700004F134009847052044E094F830200626EE
:1039800052B1009002AB21464046FFF76EFEE8B907
:10399000D4F88000816A11E0D4F88000816A12E0D6
:1039A00094F8312007265AB1009002AB21464046D8
:1039B000FFF75BFE50B9D4F88000C16A02A803E0AB
:1039C000D4F88000C16A13A08847A6701DE094F85F
:1039D0003220082652B1009002AB21464046FFF744
:1039E00044FE90B9D4F88000016BE7E7D4F880007A
:1039F000016BE8E794F839202146404600F0B1FE1B
:103A000018B90920A07000E0002512B02846BDE8D2
:103A1000F08100004E2F41002DE9F0411E46144672
:103A200088460546069F00F0C1FF002000F072FFA7
:103A300021462846FFF756FD7C340B49C4E9006750
:103A400040F2AC400022C5F8AC140A72405941461D
:103A500042722846FDF77EFB606800688047284672
:103A6000BDE8F04100F082BF7001002070B504464F
:103A70000A4D012012B1012A08D102E02B78EA7820
:103A800001E06B78AA782046FFF798FC044AD168D9
:103A9000491CD160042900D9042070BD8093002006
:103AA0007C010020014900200870704770930020BD
:103AB00070B505460124FDF778FBD8B110480178B0
:103AC0002846FDF742FB0D2813D10E480E4A016827
:103AD00091420ED1A0F1200241685268914209D171
:103AE000007B20B1012805D0022802D002E000248A
:103AF00000E0022403481030C473204670BD00006B
:103B00008093002060930020555342530A490A23B2
:103B1000012802D002280CD07047084A1078401CB7
:103B2000C0B210700A2804D2062008700120C870A4
:103B300070470B7070470000709300208C010020CC
:103B40002DE9F05F0E4681460124FDF72EFB00288B
:103B50002AD0514D0027DFF844B12878DFF84081A2
:103B60004FF0080A0B281FD2DFE800F0060B23599C
:103B7000626D757D824D9100484600F095F90120F7
:103B800013E021223275FF227275F78237830023FA
:103B90004846314677831A46FFF742FC04004FF04F
:103BA000020002D0032C02D072E0287070E068702E
:103BB00027E0A1223275FE227275F7823783012732
:103BC000364A4846314677833B460832FFF728FCA1
:103BD00004004FF0030202D0032C11D058E09BF8F0
:103BE00008008BF8480010B198F8011009B12A704C
:103BF0004EE088F80170D6F88000006C804747E0FE
:103C00006A700920D1E77379002231464846FFF7F0
:103C1000D5FB04003CD18BF848706878C5E748466E
:103C200000F026FB08B9042008E0FFF76FFF2FE043
:103C3000484600F07DFA0028F7D10520287088F862
:103C40000070002424E0484600F0B8F90028ECD1C8
:103C500085F800A0F3E7484600F0BAFA0028E4D15E
:103C600068782870EDE73146484600F01BF80FE011
:103C7000D6F88000C06B804710F0FF0002D001280A
:103C800003D005E085F800A002E0062400E004244B
:103C90002046BDE8F09F0000709300208093002034
:103CA0008C0100202DE9F35F0098FDF77EFA0028D3
:103CB00021D07A4C05277A4A20797A4D00264FF098
:103CC00008094FF0070B4FF002084FF0010A0928CE
:103CD00011D2DFE800F010051233609EB3C9D500A1
:103CE0006E4953781F2230390098FFF751FB84F852
:103CF00005A084F80480BDE8FC9F51780098FDF78A
:103D000020FA012806D002286BD00428F3D185F8C8
:103D100000A0B2E06148EE60303884F80580017B95
:103D2000806801F08001002866D06860A068A86003
:103D3000802901D00420AFE00320ADE09046117847
:103D40000098FDF7FEF9012802D0617903291CD003
:103D50000320EE606071686840280DD998F8003043
:103D60004022A9680098FFF7FFFA68684038686049
:103D7000A8684030A860BEE790B382B298F80030DF
:103D8000A9680098FFF7F0FA34E00428B3D12E7048
:103D900084F804B00EE0904651780098FDF7D1F910
:103DA000012809D0022829D00428A4D185F800A030
:103DB00084F8049067719EE70420EE606071686883
:103DC00040280FD998F801304022A9680098FFF7E1
:103DD000DFFAA8684030A8606868403868608AE701
:103DE0000AE058E040B182B298F80130A968009822
:103DF000FFF7CEFA6E607EE727717CE7A96898F836
:103E00000130009802B04022BDE8F05F4039FFF772
:103E1000BFBA2249677110393F20A160A0810D20EF
:103E20000D462E54401E10F0FF00FAD12E7013786C
:103E30003F220098FFF798FA06202DE011780098AD
:103E4000FDF77FF9012805D0042894D12E7084F85D
:103E500004B050E7EE606771A0782070DDE90001E2
:103E6000FFF726FEE07346E7DDE900010022FFF7D9
:103E7000FDFD58B9287802280DD184F804903AE75E
:103E8000DDE900010122FFF7F1FD20B1042892D104
:103E900084F80F802FE7607920712CE77093002061
:103EA000809300207C01002010B5FDF77EF90021F1
:103EB00048B10848064A0260074A42604173054A11
:103EC00001203032D0700548C1600548017010BD36
:103ED0005553424340930020504030207C01002045
:103EE0008C01002070B50C4C06460025617831B17C
:103EF00000F063FF61783046FFF72DFB6570217895
:103F0000002907D0304600F058FF21783046FFF7EF
:103F100022FB257070BD0000809300202DE9FC413C
:103F2000064691F843000C46082803D194F8450052
:103F3000502806D0D1F88000006C80470020BDE8F2
:103F4000FC8194F852001C4D010604D5E870B4F8C9
:103F50005400A88003E0A870B4F85400E88094F8F6
:103F60005A00010604D5E870B4F85C00A88003E0AC
:103F7000A870B4F85C00E880A9783046FFF7DAF959
:103F80006870E9783046FFF7D5F92870E88802278D
:103F9000CDE900702034697863782278304600F0EB
:103FA00062FAA888CDE900706378227829783046D3
:103FB00000F059FAC2E700008093002070B5032496
:103FC000FDF7F3F830B3214D214E0022E8780123AC
:103FD000012802D0022836D11DE01E493F2480204E
:103FE0008C6008730A2088730520AE60A8701020CA
:103FF0000E18401EF27310F0FF00F9D11A20C8739A
:104000004C74CC742B71072028700320E8730220B5
:10401000E870032417E0E87B20B101280ED00228C5
:104020000FD010E0B07801060948A0F1100001D5CA
:10403000037300E00273EB70002404E0EB700124D2
:1040400001E0EB700224204670BD00007093002058
:10405000DC930020409300202DE9FF4F314D81B0CB
:104060004FF0030985F80090984614460198FDF733
:104070009CF8002852D02C4F01264FF0020BF87804
:104080004FF0000A012802D0022847D12DE027492D
:1040900080205246C1F8088008730A20887302986D
:1040A000B86010200B18401EDA7310F0FF00F9D131
:1040B0002820C873200E4874200C8874200AC87405
:1040C0000C75C8F34F20ADF800009DF8010088750D
:1040D0009DF80000C8753E710720387087F80F9072
:1040E00087F803B085F8009018E0F87B38B901989C
:1040F000FDF75BF818B1FE7085F800A00EE0F87BC4
:10410000012805D10198FDF750F808B1FE7005E0CF
:10411000F87B022802D1FE7085F800B0287805B03F
:10412000BDE8F08FA1010020709300204093002093
:1041300070B50324FDF739F820B3224D012322483E
:10414000E978012902D002293AD11CE01F4908224E
:104150008A6080220A730A228A73A8600420A870E9
:10416000102000220C18401EE27310F0FF00F9D15D
:104170002520C8732B71072028700320E8730220C4
:10418000E87003241CE0E97B21B1012913D0022946
:1041900014D015E00C49027810390024CA70427816
:1041A0008A7082784A70C2780A7082794A72C079BD
:1041B0000872EB7004E0EB70012401E0EB70022464
:1041C000204670BD70930020DC93002040930020B7
:1041D00070B50324FCF7E9FF38B3224D0123224ACE
:1041E000E878012802D0022839D11FE01F493F2476
:1041F00080208C6008730A208873AA60A878687091
:104200000620A870102000220E18401EF27310F035
:10421000FF00F9D10320C8730A74CC742B710721F5
:104220002970E8730220E870032418E0E87B20B1CD
:1042300001280FD0022810D011E00B481178103857
:104240000024C1715178817191784171D1780171E7
:10425000EB7004E0EB70012401E0EB7002242046D7
:1042600070BD000070930020DC930020409300207C
:1042700070B50324FCF799FF10B31A4D0123E878B9
:10428000012802D002282BD11BE01749002206206A
:104290008A600A7388731548A8603F20A8810324A8
:1042A000AC7010200E18401EF27310F0FF00F9D110
:1042B000CA732B7107202870EC730220E870032466
:1042C0000EE0E87B20B1012805D0022806D007E0E7
:1042D000EB70002404E0EB70012401E0EB70022499
:1042E000204670BD70930020409300206093002012
:1042F000F8B51E4615460F460324FCF756FF80B35B
:10430000204B0122D878012802D0022838D129E098
:104310001D4C00210A20A6602173A07310209F600D
:104320002718401EF97310F0FF00F9D12A20E0731E
:10433000280E6074280CA074280AE0742575C6F352
:104340004F20ADF800009DF80100A0759DF8000019
:10435000E0751A71072018700320D8730220D870F6
:1043600003240DE0D87B20B1012805D0022805D018
:1043700006E0DA70002403E0DA7001E0DA7002246B
:104380002046F8BD709300204093002070B500EBEC
:104390004114059D0AB184F8AC22B4F8B222AA42B5
:1043A00002D00DB1A4F8B25294F8AF229A4202D0D2
:1043B0000BB184F8AF3200F01EFD002070BD38B59F
:1043C0000546002400200090284600F016FE002834
:1043D00047D0284600F018FE0090009808B9002049
:1043E00038BD0098C0F3C00018B1284601F05CFD4C
:1043F00004430098C0F3001018B1284601F0A2FC55
:1044000004430098C0F3401018B1284601F0E1FAC7
:1044100004430098C0F3806018B1284601F0FBFB0C
:1044200004430098C0F3406018B1284600F0CFFE66
:1044300004430098C0F3006018B1284601F05FFB08
:1044400004430098C0F3407018B1284600F085FE80
:1044500004430098C0F3405018B1284600F094FE81
:1044600004432046BCE72DE9F04100EB4104DDE9BF
:10447000066704F28C4594F88C4404F07F0C00EB42
:10448000411404F52B7484F801C02D78C5F3C015D0
:10449000A57022706671E780E37000222276627652
:1044A000A4F52B7413B9012284F8B02200F0A3FC08
:1044B0000020BDE8F0812DE9F84390468946064684
:1044C0001978089A3170597871709978DC781846A3
:1044D00001EB04217180197931715C7974719C79D7
:1044E000B471DC79F471037A3372092A15D909227F
:1044F000ADF80020022910D800270BE06946FFF72D
:104500004FF8417804290AD00178BDF80020114401
:10451000ADF800103179B942F0DCBDE8F88307EB63
:10452000C70202EB0904017821704178617081783B
:10453000A170C178E170017921714179617181794E
:10454000A171C179E171017A2172217900250229D5
:104550000CD90EE06946FFF723F8417805290BD006
:104560000178BDF800201144ADF800102179A9426E
:10457000F0DC7F1C7FB2CDE708EBC50102780A7042
:1045800042784A7082788A70C278CA700279437918
:104590006D1C02EB03228A8082798A716DB2E5E795
:1045A0002DE9FC4702270C4605468DF80070097876
:1045B0004FF000084FF0010904F1200A00F2AC4668
:1045C0000D290FD2DFE801F00F07199D9D9D57704F
:1045D000838B629D90002846FCF7EAFD002801D1FC
:1045E00084F800808DE02846FCF7DFFD002803D02A
:1045F0002846FEF76BFF277083E0D4F880008068C0
:104600008047D5F8AC04474680F8098031682846D1
:1046100081F80A900021FEF78DFE60718021284606
:10462000FEF788FE20712846FCF7C2FD002868D1FD
:10463000241DE06FC06880472846FCF77CFDC0B2AF
:104640006077062104F8041CE16F89698847A07827
:10465000CDE90070637F227F21782846FFF703FFB2
:10466000A078CDE90070637F227F6178241F2846FF
:10467000FFF7F9FE45E021462846FFF703F9F8B9B0
:10468000D4F88000406B80470A2018E0D4F88000FE
:10469000806B8047012834D1E06F214602682846AC
:1046A000904768B907200AE0E06F214682682846F3
:1046B00090478DF800009DF8000010B90820207088
:1046C0001FE09DF800102046FEF72FFF19E0E06F75
:1046D0002146C268284690478DF80000F1E7214640
:1046E0002846FEF7E7FF0CE021462846FEF7FAFED3
:1046F000D4F8800040688047E06F51464268284601
:1047000090472846FCF751FD00281CD1D5F8AC0491
:10471000C07A002817D1D4F8800000698047D5F806
:10472000AC14284681F80B902146FEF7DBFED4F846
:10473000800040688047E06F5146426802B02846DA
:10474000BDE8F0471047BDE8FC8730B400230B7587
:1047500005244C75CA820B834B8330BC1A46FEF786
:104760005FBE30B400230B7509244C75CA820B83DD
:104770004B8330BC1A46FEF753BE704701490020F8
:1047800008707047B00000207047000070B51F4CE3
:104790000A211F48A379B3FBF1F202F1300501FBB6
:1047A00012320570303242706379B3FBF1F202F1DC
:1047B000300501FB123285703032C2702379B3FBB1
:1047C000F1F201FB123102F1300404713031417118
:1047D0002E2181716321C171732101727621417291
:1047E0000C49012008700C481021018320214183CD
:1047F0000220FCF777FF0320FCF780FFBDE8704044
:10480000012202210548FEF764BB0000340C0020A1
:10481000B10000200A000020001002400008004003
:104820000D4910B5002008700C481021418320214B
:1048300001830B49632008710320FCF753FF02201A
:10484000FCF750FF0020FCF74DFF0022BDE81040B0
:1048500002210448FEF73DBB0A0000200010024080
:104860004C00002000080040044900200870044863
:104870001021418320210183704700000A0000209D
:10488000001002407047704710B54FF4FA7000F006
:1048900005F9BDE8104000F001B8704770B5144C40
:1048A0000025207810B1012820D11CE011490020FA
:1048B00002F04AF8104A10231049202628B115703A
:1048C0004B830E834FF0FF3070BD0D48007B0128F5
:1048D00002D00120207009E015704B830E83022066
:1048E000FCF70CFFFBE7FCF7D3F82570002070BD48
:1048F000B0000020EC8A00200A00002000100240D6
:10490000CC930020704770477047704770477047DE
:10491000012070471CB501210420FCF729FD02216C
:1049200001208DF8051000908DF8040000208DF80E
:104930000600074C8DF8070069462046FCF799FBF6
:1049400001212046FCF7E3FBC82000F0A7F81CBDBE
:1049500000080240044800294FF0010101D0FCF793
:10496000D4BBFCF7D4BB00000008024038B54FF4BC
:10497000C060FCF7E1FC43208DF8000001248DF8B5
:1049800001408DF802408DF803406846FCF7A2FC18
:1049900017208DF800008DF8014002208DF80200EC
:1049A0008DF803406846FCF795FC38BDFEB5012143
:1049B0000846FCF7DDFC4FF4D050032600908DF83C
:1049C000056002208DF804000025254F8DF8065063
:1049D0008DF8075069463846FCF74BFB0A2209213F
:1049E0003846FCF782FB0A220B213846FCF77DFB98
:1049F0000A220C213846FCF778FB012438158DF883
:104A0000064000908DF807408DF8056069463846ED
:104A1000FCF72FFB0A2211463846FCF766FB012102
:104A20008803FCF7D5FC01218020FCF7ADFC0021B8
:104A3000E006FCF78BFC4FF4A060FCF77DFC1C202B
:104A40008DF808008DF809508DF80A408DF80B405C
:104A500002A8FCF73FFC01210846FCF7A1FCFEBDC3
:104A60000000024010B501218C072046FEF725FA10
:104A7000002809D001212046FEF710FA06490A68ED
:104A80001AB10868401E086010BD2046BDE81040FD
:104A90000021FEF706BA0000AC0000200121FBF760
:104AA000AFBF0221FBF7ACBF70B50446017A002509
:104AB000C06801290CD0C16841F04001C1602046A6
:104AC00000F0AAF8217A4FF4803003291DD01EE0AF
:104AD000816B627A21F480310AB141F480118163E3
:104AE000E068C16821F0401121F0880121F4202103
:104AF00041F01001C160204600F08EF8E0780128F6
:104B00003DD1E1682A2088602EE04FF44030617A80
:104B100040F4301009B140F48010E168886314203B
:104B2000FFF7BCFFE168C868227A032A01D140F48C
:104B30008030C860207A032816D1E068016B21F02C
:104B4000406101F1806121F47F0141F0805606F55A
:104B500034160663C820FFF7A1FFE16846F40000A1
:104B60000863C820FFF79AFFE078012807D1E068C2
:104B7000816821F01E010A3141F020018160284640
:104B800070BD2DE9F041002704463D463E46FFF743
:104B9000C1FED4F80C0106600121204600F021FA84
:104BA0006069016821F004010160E07A012813D1F5
:104BB000E06880214162304661F30F00E2686021C5
:104BC00061F31F409062E022304662F30F0061F310
:104BD0001F40E168C1F800011021204600F0B6F83E
:104BE000204600F095F84FF0FF3107E004EB850018
:104BF00050F8902F91600068C6606D1C2078A84224
:104C0000F4D80121204600F03BF8204600F05EF881
:104C10003846BDE8F0810000F8B500260446374666
:104C20000096124D0320FFF73CFFE06800690090FA
:104C30007F1CAF4201D90020F8BD00980028F1DAAE
:104C40000098002140F0010000900098E268106197
:104C5000E06802690092491CA94202D8009AD20772
:104C6000F7D10320FFF71DFF3046F8BD400D0300CC
:104C7000C0680022816821F0010181601046704700
:104C800070B50C460546FFF765FE284600F0C1F9F1
:104C9000C10408D4012C0CD1D5F8CC1040F48050BC
:104CA0000860C10405D524B9D5F8CC1020F4805093
:104CB0000860BDE87040C820FFF7F0BEC068002261
:104CC000816841F0010181601046704710B5C268EB
:104CD000002319469361C4685A1E6261C468626009
:104CE000C4686261C468094AA261C27802B910212D
:104CF000C06841F00C5141F00801826941F4001193
:104D00008A430A438261184610BD000000080080F3
:104D100038B50024024621460094009840F0100067
:104D200000900098D36818610748D268136900930F
:104D3000491C814202D8009BDB06F7D40320FFF711
:104D4000B0FE204638BD0000400D030038B50024F9
:104D5000034622460094009840F0200000900098FE
:104D600061F38A1000900098D96808610748D968F3
:104D70000B690093521C824202D8009B9B06F7D419
:104D80000320FFF78EFE204638BD0000400D0300D3
:104D900010B500EB8100002350F8901F4FF0004247
:104DA000012464F3DC420A610068016821F080415B
:104DB00041F000410160184610BD10B500EB8101C3
:104DC0000023D1F89020116841F0404111F4402FA8
:104DD00009D0C1F38144022C05D04069006910F468
:104DE0007F0F03D004E0C068C06AF8E721F00041FB
:104DF0001160184610BDF0B500EB81060027D6F80B
:104E000090403D467B1E2A46A360C378012B00D10B
:104E1000042200EB411393F8B14234B1012C1FD0AE
:104E2000022C02D0032C27D10EE042F0890293F825
:104E3000AE4242F4826284B993F8B04242F040023A
:104E4000D4B142F0200217E093F8AEC242F09902CA
:104E500042F4C062BCF1000F0ED042F480720BE04D
:104E600093F8AEC242F0010242F40872BCF1000FA6
:104E700002D042F08002F0E7D6F89040E2600122D2
:104E80008A4041698C6914438C61C068816941F032
:104E90000071816193F8AC0260F39C5593F8AD0208
:104EA00060F3CE2593F8AE0260F3CF3593F8AF02EE
:104EB00002280CD025F4003093F8B112B3F8B222D6
:104EC00061F3934062F30A00032903D004E045F440
:104ED0000030F1E740F00050D6F8901008603846F6
:104EE000F0BDF0B500EB41140026D4F8BC32054605
:104EF0004FF4807C37466BB1B4F8B2229818401E4C
:104F0000B0FBF2F080B2604505D912026046C4F8E9
:104F1000BC2200E0012094F8AE22AAB1B4F8B2227B
:104F20004243C4F8BC2262F3120760F3DC4794F8F2
:104F3000B40205EB810260F35E77D2F8900007615E
:104F4000E878012803D007E0D4F8BC22EBE7D2F8D8
:104F50009030D4F8B802586152F8900F0368284690
:104F600000F045F860F35D73126823F0804040F074
:104F700000401060E87890BB94F8AE0278BBD4F89B
:104F8000BC2262B394F8B10230B1012810D00228DB
:104F900002D0032819D10BE0E868C36AD21CC2F31F
:104FA0008F029BB2934210D2826942F020020BE042
:104FB00068690069D21CC2F38F0280B2904204D2A9
:104FC000E868826942F080628261B4F8BC020A46F5
:104FD00083B2D4F8B8020146284600F073FF304689
:104FE000F0BD4069026861F30102026070474069E8
:104FF000806840F30000401C7047C068406910F0B2
:10500000010000D001207047C068416980690840F4
:105010007047D0F8CC00006820F02E00704740693F
:105020004069704710B504460023D21C9008D4F89C
:10503000D02003E0146841F8044B5B1C8342F9D391
:10504000084610BD70B50546FFF7E3FF40F48074D5
:1050500055F8CC0F04600A20FFF720FD296824F4DE
:10506000807008601420FFF719FD012070BD00005A
:1050700070B500220123C270402683701546144685
:105080008680012901D061B114E0C372082101704A
:1050900004214FF0A04241709115C180022101729C
:1050A00008E0C4720C210170062141701F4A4FF4C0
:1050B000A061C18002F50061C0E9032100210AE07E
:1050C00002EB411303F5106600EB810403F5306336
:1050D000A661491C636543788B42F1D802F5806173
:1050E00041614031C0F8CC10002108E002EB4113CF
:1050F00000EB810403F5A063491CC4F890300378E9
:105100008B42F3D8002108E002EB013300EB81046D
:1051100003F58053491CC4F8D03003788B42F3D890
:1051200002F56062C0F80C21284670BD0000044002
:1051300010B5C3680024D868012920F0C04201D00E
:1051400019B104E042F0005201E042F08042DA601E
:105150003220FFF7A3FC204610BD38B504460021DD
:10516000C4F8101200200090D4F8AC040168204666
:105170008847009820F0005000F1005000900098FF
:10518000E1684861012038BD0CB50146D1F89000B6
:1051900000680090009820F0004000F1004000906E
:1051A000009820F0804000F180400090009AD1F8F3
:1051B0009000026000200190019820F4001000F59A
:1051C000001001900198CA68506101200CBD7CB5A7
:1051D0000546002400262846FFF721FF019000BF66
:1051E0001BE0019880B20121A140084214D005F1D2
:1051F000900050F82400006800900098C0F3C03080
:1052000028B12146284600F00DF8064304E0214667
:10521000284600F01AFA0643641C2878A042E0D819
:1052200030467CBD70B586B005460C4605F1900051
:1052300050F82460B0680590F0680490DDE904102F
:105240000840059005F1900050F824000068039094
:10525000002004900598C0F38000D0B10020019098
:10526000019820F00400001D01900198B06005F144
:10527000900050F82400C0680190019820F00200CE
:10528000801C019005F1900050F824000199C16044
:1052900073E00598C0F3401048B1002001900198D8
:1052A00020F02000203001900198B06065E0059862
:1052B000C0F3C00078B305F1900050F82400C06836
:1052C0000190019820F00200801C019005F19000EF
:1052D00050F824000199C160052105F5237001559E
:1052E00000200190019820F01000103001900198EA
:1052F000B06000200190019820F008000830019073
:105300000198B060059820F010000590E1B22846A1
:10531000FFF753FD31E0FFE70598C0F3802060B34D
:1053200005F1900050F82400C0680190019820F029
:105330000200801C019005F1900050F824000199B2
:10534000C160E1B22846FFF738FD002001900198C6
:1053500020F01000103001900198B060082105F590
:105360002370015500200190019820F4806000F521
:10537000806001900198B06000BF0598C0F34020A4
:10538000F8B105F1900050F82400C0680190019830
:1053900020F00200801C019005F1900050F82400DC
:1053A0000199C160E1B22846FFF707FD0020019096
:1053B000019820F4007000F5007001900198B06031
:1053C00040E1059810F0010F71D0E878012812D162
:1053D00005F1900050F824000069029005F52B704B
:1053E00000EB441000690299C1F31201411A05F55E
:1053F000147040F82410012105F523700155002197
:10540000783840F8241000200190019820F0010025
:10541000401C01900198B0600398C0F3814020B116
:105420000398C0F3814002282AD105F1900050F87A
:105430002400C0680190019820F00200801C0190B7
:1054400005F1900050F824000199C160E1B22846AE
:10545000FFF7B3FC00200190019820F010001030FD
:1054600001900198B06005F52B7000EB4410007EB0
:1054700080F0010105F52B7000EB44100176E1E0AE
:105480000398C0F3814003289AD1039820F000507C
:1054900000F10050039005F1900050F824000399AA
:1054A0000160012105F29B200155CBE0FFE7059843
:1054B000C0F34000002851D005F1900050F82400BE
:1054C000C0680190019820F00200019005F1900061
:1054D00050F824000199C16005F52370005D012892
:1054E00004D1012105F29B2001552DE005F5237023
:1054F000005D052804D1042105F29B20015523E01D
:1055000005F52370005D062804D005F52370005DC5
:10551000082808D1002105F5057040F82410032162
:105520008730015510E00398C0F3814003280BD168
:1055300005F52B7000EB4410007E80F0010105F5AD
:105540002B7000EB4410017600200190019820F0B0
:105550000200801C01900198B06073E00598C0F3D0
:10556000C01040B305F1900050F82400C0680190CD
:10557000019820F00200801C019005F1900050F885
:1055800024000199C16005F5057050F82410491CEC
:1055900040F82410062178300155E1B22846FFF783
:1055A0000CFC00200190019820F0800080300190D8
:1055B0000198B06046E00598C0F30010F0B303987E
:1055C000C0F3814003281ED105F1900050F824005B
:1055D000C0680190019820F00200801C019005F144
:1055E000900050F824000199C160E1B22846FFF70D
:1055F000E4FB00200190019820F010001030019091
:105600000198B06018E00398C0F3814020B103987E
:10561000C0F3814002280FD1039820F0004000F130
:1056200000400390039820F08040039005F1900023
:1056300050F8240003990160032100E002E005F521
:1056400023700155012006B070BD7FB505460C469C
:1056500005F1900050F82460B0680390F068029063
:10566000DDE902100840039005F1900050F8240095
:10567000006801900398C0F38000D0B10020009032
:10568000009820F00400001D00900098B06005F123
:10569000900050F82400C0680090009820F00200AC
:1056A000801C009005F1900050F824000099C16022
:1056B0008CE10398C0F3401048B10020009000989E
:1056C00020F02000203000900098B0607EE1039828
:1056D00010F0010F27D0002105F5057040F82410C7
:1056E00005F1900050F82400C0680090009820F068
:1056F0000200801C009005F1900050F824000099F1
:10570000C160E1B22846FFF758FB002000900098E6
:1057100020F00100401C00900098B060012105F5C8
:105720002370015552E10398C0F3C00010B300206C
:105730000090009820F00800083000900098B060B9
:1057400005F1900050F82400C0680090009820F007
:105750000200801C009005F1900050F82400009990
:10576000C160E1B22846FFF728FB052105F523704B
:1057700001552BE10398C0F3001038B3002105F563
:10578000057040F8241005F1900050F82400C0681E
:105790000090009820F00200801C009005F190001D
:1057A00050F824000099C160E1B22846FFF705FBDC
:1057B00000200090009820F0100010300090009819
:1057C000B060032105F523700155FFE00398C0F395
:1057D000C01040B305F1900050F82400C06800905C
:1057E000009820F00200801C009005F1900050F815
:1057F00024000099C160E1B22846FFF7DEFA05F502
:10580000057050F82410491C40F824100621783007
:10581000015500200090009820F08000803000901A
:105820000098B060D2E00398C0F3801038B3002134
:1058300005F5057040F8241005F1900050F824009B
:10584000C0680090009820F00200801C009005F1D4
:10585000900050F824000099C160E1B22846FFF79B
:10586000ACFA00200090009820F0400040300090FA
:105870000098B060042105F523700155A6E0039857
:10588000C0F3802060B305F1900050F82400C06898
:105890000090009820F00200801C009005F190001C
:1058A00050F824000099C160E1B22846FFF785FA5C
:1058B00000200090009820F0100010300090009818
:1058C000B060082105F52370015500200090009874
:1058D00020F4806000F5806000900098B06075E072
:1058E0000398C0F34000002870D005F1900050F8F4
:1058F0002400C0680090009820F00200009005F19C
:10590000900050F824000099C16005F52370005DF7
:10591000012815D1012105F29B2001550198C0F302
:105920008140022848D105F52B7000EB4410407EE1
:1059300080F0010105F52B7000EB441041763BE04F
:1059400005F52370005D032804D1022105F29B2098
:10595000015531E005F52370005D04280FD105F5F0
:105960002B7000EB44100079012803D1E1B22846E6
:10597000FFF70EFA022105F29B2001551CE005F508
:105980002370005D052804D1042105F29B200155F8
:1059900012E005F52370005D06280DD105F50570B0
:1059A00050F82400032807D1032105F29B2001555C
:1059B0000021873840F8241000200090009820F043
:1059C0000200801C00900098B06000BF012004B06D
:1059D00070BD7CB50446E068C06A00900098C0F3D2
:1059E000417104F52B7000EB41100069C01CC0F33D
:1059F0008F0673E04FF6FF71009801EA800500986A
:105A0000C0F3417104F52B7000EB41100069A8420E
:105A100015D20098C0F3417104F52B7000EB4110D2
:105A2000008A85B200200190019820F020002030EB
:105A30000190E068806901998843E1688861009875
:105A4000C0F3417104F52B7000EB41100069C01CDC
:105A5000C0F38F060098C0F34172C0F3417304F5A0
:105A60002B7000EB43102B46C168204600F02AFA49
:105A70000098C0F3417104F52B7000EB4110C06831
:105A800041190098C0F3417204F52B7000EB4210ED
:105A9000C1600098C0F3417104F52B7000EB411018
:105AA0000069411B0098C0F3417204F52B7000EBB4
:105AB000421001610098C0F3417104F52B7000EBB6
:105AC0004110406941190098C0F3417204F52B70F0
:105AD00000EB42104161E068C06A0090009880B21B
