:020000040800F2
:10000000F84200209D0100088F110008C710000869
:100010008D1100088F0A0008C15900080000000077
:100020000000000000000000000000000D160008A5
:10003000A90D00080000000065120008E91600087C
:10004000B7010008B7010008B7010008B7010008B0
:10005000B7010008F9130008AD0D0008E10D000814
:10006000B7010008B7010008B7010008B701000890
:10007000B7010008B7010008B7010008B701000880
:10008000B7010008B7010008B7010008B701000870
:10009000B7010008B7010008B7010008B701000860
:1000A000B7010008B7010008B7010008B701000850
:1000B000E5280008B7010008E9280008B701000892
:1000C000B7010008B7010008B7010008B701000830
:1000D000B7010008B7010008F12B0008B7010008BC
:1000E000B7010008B7010008B7010008B701000810
:1000F000B7010008B7010008B7010008B701000800
:10010000B7010008B7010008B7010008B7010008EF
:10011000B7010008B70100082D290008B701000841
:10012000B7010008B7010008B7010008B7010008CF
:10013000B7010008B7010008B7010008B7010008BF
:10014000B7010008B7010008B701000859120008FC
:10015000B7010008B7010008B7010008B70100089F
:10016000B7010008B7010008B7010008B70100088F
:10017000B7010008B7010008B7010008B70100087F
:10018000B7010008B7010008DFF80CD000F0E2FA70
:1001900000480047F1730008F842002006488047F5
:1001A00006480047FEE7FEE7FEE7FEE7FEE7FEE75C
:1001B000FEE7FEE7FEE7FEE7952800088901000854
:1001C000F0B480EA0102D40F4200B2EB410F02D238
:1001D0000246084611464A0042D0C30DDDB2C1F3C3
:1001E000C752AD1A202D35DAC1F3160141F40002D1
:1001F00004B15242C5F1200602FA06F12A41104428
:10020000B3EBD05F23D0C4B1012DA0EBC35009DC08
:10021000F0BC4FF0004202EAC35200F50000DBB22E
:1002200000F00BBA400000F1807000EBC350A0F169
:10023000807040EAD170490009E0490841EAC07184
:10024000A0EBC35000F50000400800EBC350F0BC29
:1002500000F0EAB96142012202EB4101001BF6E71E
:10026000F0BC704781F00041AAE780F00040A7E7AA
:1002700080EA010210B502F00043400026D04A0097
:1002800023D04FEA106101EB1261C0F35600C2F3B4
:10029000560240F4000042F40002A0FB0220A1F14B
:1002A0007F014FEA0040140401D000F1010050EA40
:1002B000124001D44000491EC2B20C0604EBD0101B
:1002C000401C4008802A02D003E0002010BD20F02E
:1002D0000100002900DA0020184310BD30B480EA84
:1002E000010202F0004530F0004221F0004015D03C
:1002F000A0B1C0F3C753C2F3C754C2F31601C0F391
:100300001600E41A41F4000140F400027D349142E9
:1003100001D3641C00E04900002C02DA30BC00204C
:1003200070474FF400000023914201D3891A034320
:1003300040084FEA4101F7D151B1914202D14FF04B
:10034000004105E002D24FF0010101E06FF0010130
:1003500003EBC450284430BC00F066B92DE9FE4FD1
:10036000804681EA0300C00F0C46009021F0004156
:1003700023F00045B8EB0200A94105D240462146D2
:1003800090461C460B46024623F00040104304D121
:100390004046214603B0BDE8F08F270DC7F30A00A1
:1003A000C3F30A510290401A0190402866DAC3F361
:1003B000130040F4801B0098924620B10023D2EB3A
:1003C000030A63EB0B0B01985946C0F140025046FB
:1003D00000F0F9F806460D4650465946019A00F0DD
:1003E00011F910EB08006141002487EA115284EAF8
:1003F000E7731A433BD0009A3AB3019A012A4FEAB5
:10040000075210DC001B61EB02014FF0004202EAD0
:100410000752CDE90042001C41F5801132462B46BF
:1004200000F045F9B6E7001B61EB0201001C41F545
:10043000801300185B412018A2F5001747EB030159
:1004400040EAD570B6196D4111E06D084FEA3606E5
:1004500045EAC0754FEA0752001B61EB0201001C20
:1004600041F5801149084FEA3000001951413246E8
:100470002B4603B0BDE8F04F00F00CB90098012204
:1004800040000023D0EB020263EBE07300982146AA
:100490004FEAE074B8EB000061EB0401E9E783F098
:1004A00000435BE781F0004158E7C10F80EAE0704C
:1004B0000844CA079623002100F0BFB89623002203
:1004C000114600F0BAB80EB5C10F80EAE0700844DA
:1004D000CA07002140F233438DE80E000A460B465E
:1004E00000F0E5F803B000BD0EB540F233410291D3
:1004F0000021CDE900110A460B4600F0D8F803B000
:1005000000BD00F0004220F00040C10DC0F3160015
:1005100040F400007F2901DA00207047962903DCAF
:10052000C1F19601C84001E096398840002AF4D014
:100530004042704720F00040C10DC0F3160040F467
:1005400000007F2901DA00207047962903DCC1F101
:100550009601C8407047963988407047C1F30A52E7
:1005600010B5C1F3130140F2FF3341F480119A42F8
:1005700001DA002010BD40F233439A42A2F2334226
:1005800003DC524200F02EF810BD904010BD01F087
:10059000004330B421F0004150EA010206D00A0DB8
:1005A000A2F56072C1F31301002A02DC30BC002006
:1005B0007047440F44EAC104C100E01830BC00EBAE
:1005C000C25000F031B8202A04DB203A00FA02F1D0
:1005D000002070479140C2F1200320FA03F3194331
:1005E00090407047202A04DB203A21FA02F00021D3
:1005F000704721FA02F3D040C2F120029140084333
:1006000019467047202A06DBCB17203A41FA02F040
:1006100043EAE07306E041FA02F3D040C2F120025F
:1006200091400843194670470029A8BF7047401CF5
:10063000490008BF20F00100704710B4B0FA80FCF8
:1006400000FA0CF050EA010404BF10BC704749B135
:10065000CCF1200421FA04F411FA0CF118BF0121A5
:1006600021430843A3EB0C01CB1D0106000A002B1C
:10067000BEBF002010BC704700EBC35010440029DF
:10068000A4BF10BC7047401C490008BF20F0010007
:1006900010BC704710B5002B08DA401C41F1000176
:1006A00092185B411A4301D120F0010010BD2DE9E1
:1006B000F04D92469B4611B1B1FA81F202E0B0FAD8
:1006C00080F220329046FFF77EFF04460F4640EA54
:1006D0000A0041EA0B0153465A46084303D120461B
:1006E0003946BDE8F08D114653EA010015D0C8F136
:1006F00040025046FFF776FF05460E4650465946E3
:100700004246FFF760FF084301D0012000E00020CF
:10071000054346EAE0762C4337430A984FEA4453B0
:10072000A0EB08004FEAD4240A304FF0000244EA5C
:1007300047544FEAD72502D500200146D1E70105ED
:1007400010196941DDE9084500196941BDE8F04D1E
:10075000A0E70000064C074D06E0E06840F001030A
:1007600094E8070098471034AC42F6D3FFF710FD29
:10077000608900088089000870B501EB020410F858
:10078000015B15F0070301D110F8013B2A1106D1D6
:1007900010F8012B03E010F8016B01F8016B5B1EF0
:1007A000F9D12B0705D40023521E0FD401F8013BC9
:1007B000FAE710F8013B02F10202A1EB030303E0A8
:1007C00013F8015B01F8015B521EF9D5A142D6D3A3
:1007D000002070BD2DE9F0419CB00121374800F0A8
:1007E00043FD01218E02304600F06EFD3004009082
:1007F00033480190334802A90024022531C1A802E0
:10080000CDE9066080000890401109900AA905947E
:100810004002012651C12C4F0D94694638460E9472
:1008200000F098FA0121384600F08AFA04200327E4
:10083000DFF8988015908DF858708DF85B4015A9F9
:10084000404600F092FB8DF8587015958DF85B408E
:1008500015A9404600F089FB17941894199417A81D
:100860001A9400F03FF80F9411941394144C8DF8DF
:1008700040604C3C8DF841608DF850500FA92046E7
:1008800000F058F8072301220B21204600F078F8E9
:10089000072302220C21204600F072F80121204695
:1008A00000F03EF80121204600F030F801212046FA
:1008B00000F00EF81CB0BDE8F0810000040040001C
:1008C0004C22014048000020106402400008024011
:1008D0000029816802D041F0010101E021F001010D
:1008E00081607047074B10B51A6807490A40D0E984
:1008F00000142143D0E9024004432143114319600D
:1009000010BD000004230140E030FCFF0029816895
:1009100002D041F4807101E021F480718160704760
:100920000029816802D041F4007101E021F40071D6
:100930008160704730B542680F4B0C791A400B68E4
:1009400042EA04221343436082680C4B4D791A40FB
:10095000D1E9034323438C6844EA4504234313430A
:100960008360C26A097D22F47002491EC9B242EA5C
:100970000151C16230BD0000FFFEFFFCFDF7FFC06A
:1009800070B5072609290AD9C568A1F10A0404EB44
:100990004404A640B543A3401D43C56007E0056974
:1009A00001EB4104A640B543A3401D4305611F234D
:1009B000072A09D2446B521E02EB820293409C43E9
:1009C00091400C43446370BD0D2A09D2046BD21FC1
:1009D00002EB820293409C4391400C43046370BD40
:1009E000C46A0D3A02EB820293409C4391400C434F
:1009F000C46270BD816841F0804181607047000031
:100A000010B5074C2060084600F00CF8206800285C
:100A1000FCD1BDE8104000214FF0804001F0ABBF99
:100A2000AC0000203EB504464FF08045002128462A
:100A300001F0A1FF00220121284601F0B4FF022CA1
:100A400002D0012C02D004E00B2001E042F6DF606E
:100A500001900520ADF800000020ADF80800ADF8C9
:100A600002006946284602F03DF80121284601F0BF
:100A70007FFF0121284601F071FF0122114628461F
:100A800001F091FF0121284601F075FF3EBDFEE710
:100A90002DE9F05F9848007800286ED097490A2029
:100AA000974C0B790027B3FBF0F202F1300500FB05
:100AB00012322570303262703A25A5704B79B3FB43
:100AC000F0F202F1300600FB1232E6703032227191
:100AD00065718B798C4EB3FBF0F200FB123002F1A2
:100AE0003005A5713030E0718648894D02790A7170
:100AF00042794A71807988710820307083483B219F
:100B00000D22078083482F8003784FF416709BB323
:100B1000DFF804A28846914683463278288802EBA3
:100B2000C002111904F80280491C3AF8100005F0BF
:100B3000E3F92888401C80B228803278584502EBBF
:100B4000C002224402F8019CE7D31FE0317801EB98
:100B5000C00104F801902144491C3AF8100005F046
:100B6000CBF92888401C80B22880327802EBC00084
:100B7000204400F8018C06E000E0BBE0DFF89CA117
:100B800089469046834628885845DFD3644800F05C
:100B900088FADFF89091644C4FF0100A4FF0200B68
:100BA000012802D06148077010E0022260496148C4
:100BB00005F03AFCDFF87C8178B108225C494046B8
:100BC00005F032FCF0B3022000F014FD89F800704B
:100BD000A4F81AA0A4F818B08AE0002000F00AFDDA
:100BE0005448D8F80C1005F066FB30782988524B31
:100BF00000EBC10242494F4805F00DFD4D4805F09C
:100C000051FB4E4A0A211079B0FBF1F501FB1506A4
:100C10004748303643799E421CD093799046B3FBC7
:100C2000F1F202F1300C01FB123280F800C03032D8
:100C3000427098F80530B3FBF1F202F1300C80F805
:100C400002C000E00DE001FB12313031C1703035DF
:100C500005714671002000F0C1FC34490120087084
:100C600040E0002000F0C6FC3248D8F80C1005F037
:100C700022FB30782988304B00EBC10220492D48F7
:100C800005F0C9FC2B4805F00DFBDFF8B0800A2108
:100C900098F80400B0FBF1F301FB1305244830354C
:100CA000427995421AD098F80660B6FBF1F202F14B
:100CB000300C01FB126280F800C03032427098F8AC
:100CC0000560B6FBF1F201FB126102F1300C30312C
:100CD00080F802C0C170303303714571002000F00C
:100CE0007DFC012089F80000A4F818A0A4F81AB02F
:100CF00001480770BDE8F09F8700002053000020E6
:100D0000BE1B00204C00002081000020820000203B
:100D100084000020780000201E0C0020EE1300202C
:100D2000A80100200A0000200010024086000020D8
:100D3000B10000203838002094000020F60B00207D
:100D40000029016802D041F0010101E021F0010118
:100D50000160704730B50368124ACC6813400A68D6
:100D60002243D1E905452C432243CC6922430C6A36
:100D700022434C6A22438C6A22434C6B22438C6B85
:100D800022431A430260426922F00703D1E90B248F
:100D900022431A4342610A6942604A688260896854
:100DA000C16030BD3F801CF07047000010B50120CD
:100DB00000F036F858B1084803780021074A012BA3
:100DC00001D003780BB1117000E001210170BDE882
:100DD0001040012000F01EB8BB00002006000020DB
:100DE00010B5022000F01CF800280FD00848C37A84
:100DF00000220121012B06D08272C172BDE8104091
:100E0000022000F007B88172C272F7E710BD00003F
:100E1000040100200149086070470000143C0140B3
:100E2000064A014600201268044B0A4014331B682E
:100E30000B4202D0002A00D001207047003C014044
:100E400070B50646002529B1012927D0022928D0EE
:100E50004FF4407500F07AF808281ED1124C206833
:100E600020F440702060206828432060206820F033
:100E7000F8002060206846F00201084320602068E6
:100E800040F48030206000F061F8216821F0020118
:100E90002160216821F0F801216070BD4FF4807558
:100EA000D8E74FF40075D5E7103C02400B49082005
:100EB0000A68D20301D5012070470A68D20601D51D
:100EC000052070470A6812F0EF0F01D00620704726
:100ED00009688907FBD50720704700000C3C0240D9
:100EE0000248016841F0004101607047103C024037
:100EF00070B50D46064600F029F8082811D1094CB6
:100F0000206820F44070206020682060206840F055
:100F100001002060357000F019F8216821F001010E
:100F2000216070BD103C024005480068002805DAC9
:100F3000034804490C380160034901607047000010
:100F4000103C024023016745AB89EFCD08B508206E
:100F50008DF80000FFF7AAFF8DF800009DF8000053
:100F60000128F7D09DF8000008BDF0B50022012748
:100F70004FF0030C0B6807FA02F52B40AB422CD163
:100F8000066853000CFA03F4A64306600E79D0F805
:100F900000E09E4046EA0E0606600E79012E01D062
:100FA000022E12D18668A64386604E79D0F808E0FA
:100FB0009E4046EA0E0686604668AE434660456837
:100FC0008E799640B6B235434560C568A543C56085
:100FD000CC799C40C3681C43C460521C102AC9D3FE
:100FE000F0BD4B07DB0E9A40C90810B500EB81003D
:100FF000016A0F249C40A1430162016A114301620E
:1010000010BD41837047018370474FF6FF71016047
:101010000021017141718171C17170470AB1018371
:101020007047418370474069806880B27047D0F84C
:10103000CC000068C0F341407047084490F89B0220
:10104000704700EB8100D0F85002704710B50022C5
:1010500004461346C0F8102204EB8200C0F8143294
:10106000C0F85032A01880F88C32521CD2B20F2A2D
:10107000F2D30820A4F8B202204603F063FD204614
:1010800003F060FB204603F079FA0121204603F0CB
:10109000B9FD204603F0DFFA204603F079FB00207B
:1010A00010BDD0F81002704710B503F035FD0020D8
:1010B00010BD0022431883F89B2200EB4113C3F8B4
:1010C000C02203F078BCFEE700B500224FF4807127
:1010D000012805D014480180032007F03DF915E0F0
:1010E0001148801E0180032007F036F900E0521CF1
:1010F00006F0F0FE012800D00020022A01D20121D2
:1011000000E000210842F2D100BD521C06F0E2FED0
:1011100020B10020022A03D2012102E00120F9E7D8
:1011200000210842F1D100BD1A04024000B500229E
:101130008021012805D014480180032007F00CF914
:1011400015E01148801E0180032007F005F900E03A
:10115000521C06F0C9FE012800D00020022A01D24C
:10116000012100E000210842F2D100BD521C06F02E
:10117000BBFE012800D00020022A01D2012100E09C
:1011800000210842F2D100BD1A040240FEE710B56A
:10119000802000F01FF900280BD0012000F024F976
:1011A0000121182000F04AF9BDE81040802000F02D
:1011B000A3B810BD00F01F020121914040094FF07B
:1011C000E02202EB8000C0F80011704770B50F23D9
:1011D000C278017801254FF0E026E2B1124A126888
:1011E00002F4E062C2F5E062C2F30722C2F1040435
:1011F000D3404278A24084781C400C4B1443220117
:10120000CA54007800F01F018D40400906EB8000B1
:10121000C0F8005170BD01F01F008540480906EB81
:101220008000C0F8805170BD0CED00E000E400E0EB
:101230000249084302490860704700000000FA05AF
:101240000CED00E0024A1140014302480160704782
:1012500080FFFF1F08ED00E0014802F01ABE000009
:10126000A801002070470000044A0029116801D03D
:10127000014300E0814311607047000030380240B4
:10128000044A0029116801D0014300E08143116044
:101290007047000034380240044A0029116801D028
:1012A000014300E081431160704700004038024074
:1012B000044A0029116801D0014300E08143116014
:1012C0007047000020380240044A0029116801D00C
:1012D000014300E081431160704700004438024040
:1012E000044A0029116801D0014300E081431160E4
:1012F0007047000024380240014908707047000020
:101300000E3802400149C86470470000000047429F
:1013100070B5204B1968204C11F00C0104D06610F8
:10132000042903D0082903D004601BE0066019E0FB
:10133000184A121F1168C1F38055116801F03F016E
:1013400015B1B6FBF1F101E0B4FBF1F114681268DC
:10135000C4F388146143C2F30142521C5200B1FB32
:10136000F2F1016019680F2202EA11110B4A545C74
:101370000168E14041601C68072505EA9424145D7A
:1013800021FA04F484601B6805EA5333D25CD1402F
:10139000C16070BD083802400024F40058010020EC
:1013A00002460020510901290BD002290CD008491E
:1013B000096802F01F02012393400B4200D0012074
:1013C000704703497439F3E70149091FF0E700004A
:1013D00074380240034A0146002012680A4200D0D5
:1013E000012070470C380240024900220A70087040
:1013F000704700000238024010B50820FFF7EAFFEE
:1014000048B10820FFF778FF3120FFF7C9FF10B17E
:10141000012000F029F81020FFF7DCFF00280CD095
:101420001020FFF769FF3920FFF7BAFF002804D02A
:10143000BDE81040022000F01DB810BD044A00298C
:10144000117801D0014300E0814311707047000022
:101450000D380240034B1A68084322F078421043CB
:10146000186070470838024001490866704700005C
:1014700000004742034A116821F003010143116053
:10148000704700000838024008B5034901EB8000AE
:101490000090006808BD00005028004008B5034ACD
:1014A00002EB80000090016008BD00005028004061
:1014B0000029018802D041F0400101E021F0400103
:1014C00001807047114910B588420AD18414012166
:1014D0002046FFF705FF2046BDE810400021FFF73A
:1014E000FFBE0B49884202D10121041404E00949DE
:1014F00088420AD10121C4132046FFF7D9FE2046B5
:10150000BDE810400021FFF7D3BE10BD0030014000
:1015100000380040003C00400246002012890A4288
:1015200000D0012070478181704730B502884C8817
:1015300002F441530A88CD8822438C882C432243ED
:101540000C8922434C8922438C892243CC89224333
:101550001A430280828B22F400628283098A01820C
:1015600030BDA1F57E420188FF3A02D041F480717E
:1015700001E021F4807101807047002101804180E9
:101580008180C180018141818181C18107210182E6
:10159000704700001CB504460E48012150F8240095
:1015A000FFF762FE0B480021083830F81400009065
:1015B00001208DF804008DF806108DF80700022038
:1015C0008DF805000448694650F82400FFF7CDFC6B
:1015D0001CBD00008C880008480100200349044A13
:1015E00031F8101052F820004183704784880008B9
:1015F000480100200349044A31F8101052F8200035
:10160000018370478488000848010020704700006B
:101610000CB500222E4900920192086840F48030F7
:1016200008604FF4A063086800F40030019000984F
:10163000401C0090019810B900989842F3D10868B6
:101640008303244841D501220192224A383213688B
:1016500043F080531360204A136843F480431360BF
:1016600002680260026842F400420260026842F4CA
:10167000A0520260031F194A1A600A6842F0807281
:101680000A600A689201FCD5154A40F205631360AE
:10169000026822F003020260026842F00202026065
:1016A0000268C2F38102022AFAD1026822F400021F
:1016B0000260084A0B487C321060086840F0806085
:1016C000086008680001FCD50CBD0192EDE7000040
:1016D00000380240083802400070004008544007BB
:1016E000003C0240804000302DE9FF5FDFF8FCA3A2
:1016F000DAF81000FE4E000604D4B08900F10100B3
:10170000B08103E0F08900F10100F081F94B186825
:10171000000503D4308A401C308202E0708A401CED
:101720007082F54910200880F548DFF8D8C3F34DE2
:101730000188BCF80020AC79491C521C002C1C68A4
:1017400089B292B24FEA846403D0002C03DA01809C
:1017500003E0002CFBDAACF8002002212971A94635
:10176000BCF800100822570101250024022906D3E5
:10177000E5490D70AAF81A20E4490F8308E00188B2
:10178000022908D3E0490C70AAF81820DF494F83DA
:10179000ACF8004004801868DD490206088806D4C9
:1017A000022802D800F1010004E00C8003E010B12F
:1017B000A0F1010008801868D64B8205188805D46E
:1017C000022801D8401C03E01C8002E008B1401E42
:1017D00018808B46B1F800C0C849C548DFF814E34B
:1017E0008A89407849890EF1080EBCF1020F05D0B4
:1017F000B3F80080B8F1020F37D020E020B1012803
:101800000CD0022812D017E0C34889F803404021C9
:101810000570AEF80010B7480A3039E0642A01D0EC
:101820000A3239E00A21A9F80C1005E03C2901D060
:10183000491C21E0A9F80A40ABF800401C80B74AD7
:10184000B7485188038819448FB25780118840885F
:10185000B44B084480B210801978DFF8CCB2491C30
:10186000C9B219700A2922D00AE340B1012811D067
:101870000228E1D1B9B1491EA9F80A10DCE7A6484F
:1018800089F80350402105709A480A30018070465B
:101890000780D1E71AB10A3AA9F80C20CCE76420F6
:1018A000A9F80C00C8E73C20A9F80A00C4E7B0FB7F
:1018B000F1F0B7FBF1F1DFF874829D4FA8F800005A
:1018C000A8F802101C701480548099F8032099F82D
:1018D00005108A428C49097806D10029874901D030
:1018E000463105E01E3103E00029844962D096317B
:1018F00004F064FF3880B8F802008E4904F05EFFFF
:10190000DFF830827880A8F1B20898F8AE1000298C
:10191000717951D0F1B33888002106F0A9FE40203A
:1019200051464883B9F80A00F18B884203D88248AF
:101930000480F4834480804A38881188884200D922
:10194000108079885388994200D95180BA46002185
:1019500006F0A8F9794F00213880BAF8020006F0A5
:10196000D7F9788099F80400B289904205D8F278C6
:10197000B270F5703471B481F481F289904205D867
:10198000F278B270F4703571B481F481328A904289
:1019900005D800E01AE07571B47134827482718ADE
:1019A000884203D87471B57134827482F07801284A
:1019B00012D01BE06E319BE719B1002106F058FEF2
:1019C00007E03888002106F023FEA8E7002106F092
:1019D0001FFE10204D49A4E7B07838B97078401C3C
:1019E000C0B27070032800D17470347098F8AE00E3
:1019F0000028707901D008B102E008B1F57100E06B
:101A0000F471DFF83CC1707A9CF80010E1B14D4AE6
:101A10001BE040F4004301E0C0F30E03BBF80000FC
:101A200022F81030401CABF8000083B240F2E730DF
:101A30005A46834200D11080434B1888401C80B224
:101A400018800A2807D019E2404A0128F07937F8AF
:101A50001000E1D1DDE7B2463046F68B761CC68336
:101A60003B4E44631C8033685B1C33600778394805
:101A70007F1C8AF80070834200D134603648DFF85A
:101A8000DC803368038098F80000401CC0B288F8FE
:101A900000003C286AD388F8004098F80100401CF8
:101AA000C0B288F801003C2861D388F8014098F85A
:101AB0000200401CC0B288F80200182857D188F8EC
:101AC000024098F80400401CC0B288F804002028A6
:101AD0004DD188F8045098F80500401CC0B288F831
:101AE00005000D2843D188F8055039E00010024068
:101AF0000401002010080240180C0240380B00209E
:101B00008A0000208C000020880000200000024095
:101B10008E0000209000002089000020E80A0020AC
:101B200048000020070000207C000020D40A00208C
:101B3000FC0A0020E0330020240B0020100B0020C2
:101B400078000020EE130020120000201E0C002060
:101B500074000020C02709007A000020F60B002046
:101B600098F80600401C88F8060000E088B981F06B
:101B700001008CF80000FA480179632901D0F94985
:101B80000D70148098F80210017198F801104171DD
:101B90008471D80703D00120FFF72CFD6EE10026E9
:101BA0000120FFF71BFD98F80000322803D0002128
:101BB000332817D000E001210020014300D0012686
:101BC000E94A1078012800D00020012E0CD0002115
:101BD0000843E3D0E54F3C70147098F802001728D2
:101BE00004D010E00120E8E70121F1E798F80100B6
:101BF0003B2808D1B9F8120028B1B0F5004F02D047
:101C00008AF808500EE09AF8080001280AD0082047
:101C100006F092F9D448D54900780978084303D0F2
:101C2000D14827E10E20F3E7D1495746087800F064
:101C30000F02C0F3021000EB800002EB400088F8B6
:101C400000000090487800F00F02C0F3021000EB93
:101C5000800002EB400088F801000190887800F0D5
:101C60000F02C0F3011000EB800002EB400088F887
:101C700002000290087900F00F02C0F3011000EB9F
:101C8000800002EB400288F80420487900F00F033E
:101C9000C0F3001000EB800003EB400088F8050063
:101CA0000390887900F00F03000900EB800003EB3C
:101CB0004000C0B288F8060086469AF8080001285D
:101CC0007DD1487A88F808008E7A88F80960CB7A46
:101CD00088F80A309C460B7B88F80B30964201D07E
:101CE000012100E000216646DDF80CC0664501D008
:101CF000012600E000263143734501D0012300E0B6
:101D0000002319439B4B47F6F87609D0187800B9A1
:101D10001D70B9F81200B04214D9A0F5004011E0CE
:101D2000182811D0197801B91D70B9F812104FF0A8
:101D3000180CB142C0F1180001D9A1F50041484387
:101D4000B0FBFCF0B88200E03C7218789A4601289B
:101D500002D0022818D07EE0DDE90010CDE90001B4
:101D6000DDE90231704604F075F87862B9F81210B6
:101D7000B142B98A01D9401A00E00844401E06F079
:101D8000A5FA02208AF8000006F064FBD02006F0D5
:101D900058FD002006F055FD464698F800204FF00B
:101DA0000A08B2FBF8F008FB102101EB001000F06C
:101DB0007F0006F046FD7278B2FBF8F000E05DE0CF
:101DC00008FB102101EB001006F03BFDB278B2FBDE
:101DD000F8F008FB102101EB001006F032FD0120A5
:101DE00006F02FFD3279B2FBF8F008FB102101EB71
:101DF000001006F026FD7279B2FBF8F008FB102106
:101E000001EB001006F01DFDB279B2FBF8F008FB03
:101E1000102101EB001006F014FD002006F011FD6A
:101E200099F8030000F0010006F00BFD182006F001
:101E300008FD307906F005FD707906F002FDB079F5
:101E400006F0FFFC06F00FFB474848490278097886
:101E50000A4305D005709AF80000032803D00DE06E
:101E600003218AF800104048404A3C7201781278F9
:101E7000114301D0057001E08AF8004006F030FC03
:101E80003D4D2878C0B1394E374F34703C7006F064
:101E9000E1FAD02006F0D5FC082006F0D2FC99F833
:101EA000030000F0010006F0CCFC06F0DCFA387804
:101EB0003178084300D12C703048007800284ED08B
:101EC0002F4A9078772865D00020D178722963D086
:101ED000002108401179742960D00021084051790F
:101EE0005F295DD000210840917963295AD00021F3
:101EF0000840D1796F2957D000210840117A6E2906
:101F000054D0002108401E49497A662950D000214A
:101F1000DFF870A008424FF05F087DD000251A4E10
:101F20002F462A4640F22551304600F0F0FE0122AD
:101F300040F22661304600F0EAFE012208211348F3
:101F4000FFF76CF872B6FEF7EFFF02215820FEF79C
:101F500077FFFEF7C5FFFEF7E7FF0D4E54E0FCE309
:101F60004C000020870000200B0000200E00002005
:101F70000A0C00200C00002089000020080000202E
:101F8000EC060020E008002000440040000C024065
:101F900080000020012098E701219AE701219DE7B8
:101FA0000121A0E70121A3E70121A6E70121A9E77B
:101FB0000121ADE7FE48FF4A2844817A1170FE4AAC
:101FC000C07A3929107034704FEA011101D9A1F596
:101FD0005C7131703928C9B2084401D9373800E042
:101FE00030383070F548317800EB5500FEF780FF4F
:101FF000F348317800EB5500017000783178884261
:1020000000D00127AD1CADB2EE4800880A388542E9
:10201000D0DBFEF765FF00E023E0772163256E2229
:10202000662362B6002F50468AF800107ED07226D2
:1020300046707421817080F8038005716F254571A9
:102040008271C37180F80880652141728AF80A6044
:10205000DD490B200880DD483A210480DC4800F08F
:10206000CFFED34EB07877287ED00020F178682953
:102070007BD00021084031796F2977D000210840BA
:1020800071793F2973D0002108424FF061074FF06A
:10209000730536D0002240F22551CD4800F037FEBE
:1020A000012240F22661CA4800F031FE01220821D7
:1020B000C848FEF7B3FF75218AF800108AF801506E
:1020C0006F218AF802108AF803808AF8047072225D
:1020D0008AF805206D228AF806208AF807806B218D
:1020E0008AF8081065218AF8091079218AF80A10FF
:1020F000B5490B200880B5483A210480B44800F067
:102100007FFEB07872287DD00020F17865297AD0E2
:10211000002108403179732976D000210840717977
:10212000742972D000210840B17900E0BEE1612934
:102130006CD000210840F179722968D00021084054
:10214000317A74297ED0002108423AD0002240F230
:1021500025519F4800F0DBFD012240F226619C489A
:1021600000F0D5FD012203E0B2E1B3E1B4E1B5E155
:1021700008219848FEF752FF72228AF80020652154
:102180008AF801108AF8025074218AF803108AF83C
:1021900004708AF805208AF806108AF807806F21F3
:1021A0008AF808106B218AF8091087490A200880EC
:1021B00086483A210480864800F022FE87498648F6
:1021C0000860B07873287DD00020F17865297AD036
:1021D000002108403179742976D0002108407179B6
:1021E0005F2972D000210840B17974296ED0002196
:1021F0000840F17969296AD000210840317A6D29B7
:1022000066D005E06CE16DE16EE16FE170E171E1D6
:10221000002108406649497A65297DD0002108429D
:102220007BD06B4E002240F22551304600F06FFD0E
:10223000012240F22661304600F069FD01220821AA
:10224000644800E058E1FEF7E9FE06F037F864481C
:10225000016841F080010160614800684006FBD5DB
:102260005F4840F20711001D01605E4901608AF875
:10227000005065218AF8011074238AF802308AF828
:1022800003808AF8043069238AF805306D238AF8C0
:1022900006308AF807108AF808806F218AF809103A
:1022A000434D6B218AF80A10287D697D303800EB98
:1022B00080006FF02F0606EB40000844C2B2E97CB4
:1022C000A87C06E01AE11BE11CE11DE11EE11FE113
:1022D00020E1303800EB800006EB40000844C1B23A
:1022E000287C6B7C303800EB800006EB4000184403
:1022F000C0B205F0AFFFA87BE97B303800EB80006F
:1023000006EB40000844C2B2287B697B303800EB02
:10231000800006EB400001E0FEE016E10844C1B297
:10232000A87AEB7A303800EB800006EB40001844C6
:10233000C0B2012305F056FF287D697D303800EBDF
:102340008000294F06EB400008443870A87CE97CE7
:10235000303800EB800006EB400008447870287CA1
:10236000697C303800EB800006EB40000844B87010
:10237000A87AE97A303800EB800006EB4000084488
:102380003871287B697B303800EB800006EB400019
:1023900008447871A87BE97B303800EB800006EBBD
:1023A00040000844B87106F055F8D0201EE0000047
:1023B000EC0600207E0000207F00002000000E08B8
:1023C000004002401E0000201C00002020000020D1
:1023D00000440040000C02400400FA050CED00E04F
:1023E0000C28004007017F00F60B002006F029FAB8
:1023F000002006F026FA697D287D01EB0010A0F58B
:102400004C7006F01EFAE97CA87C01EB0010A0F5E8
:102410004C7006F016FA697C287C01EB0010A0F5E0
:102420004C7006F00EFA012006F00BFAE97AA87A51
:1024300001EB0010A0F54C7006F003FA697B287BD5
:1024400001EB0010A0F54C7006F0FBF9E97BA87BCE
:1024500001EB0010A0F54C7006F0F3F9002006F037
:10246000F0F999F8030000F0010006F0EAF9B878F5
:1024700006F0E7F9387906F0E4F9787906F0E1F941
:10248000B87906F0DEF905F0EEFFF148016841F099
:1024900040010160001D016821F08001016005F02C
:1024A00081FEEC4805F0A8FDEA4F3AE07221417048
:1024B0007421817080F8038005716F2141718271F0
:1024C000C37180F8088041726B218AF80A10BFE559
:1024D0000120CBE50121CDE50121D0E50121D3E5A6
:1024E000012012E6012114E6012117E601211AE676
:1024F00001211FE6012122E6012125E6012064E6F3
:10250000012166E6012169E601216CE601216FE601
:10251000012172E601217CE6012180E6CD4805F02B
:102520006BFDA87AE97A303800EB800006EB4000BA
:102530000844B9788842F1D1C7490B200880C748C0
:102540003A210480C64800F05BFCC64A90787228A5
:102550007DD00020D17865297AD0002108401179FA
:10256000612976D000210840BE494979642971D09B
:10257000002108426FD0002240F22551B84800F0F7
:10258000C6FB012240F22661B54800F0C0FB0122E3
:102590000821B548FEF742FDBBF800104FF47A76EB
:1025A000B1FBF6F202F130038AF8003006FB12119B
:1025B0006423B1FBF3F202F1300503FB12128AF837
:1025C00001500A21B2FBF1F501FB152205F130079C
:1025D0008AF8027030328AF80320A44D20228AF84B
:1025E000042095F806C05046BCFBF1F707F130080F
:1025F00001FB17C780F805803037877195F805C053
:10260000BCFBF1F707F1300801FB17C780F8078022
:102610003037077295F804C0BCFBF1F707F13008BA
:1026200001FB17C780F80980303700F80A7F427035
:1026300095F802C0BCFBF1F707F1300801FB17C7A2
:1026400080F802803037C77095F801C004E0CEE012
:10265000CFE0D0E0D1E083E0BCFBF1F707F1300838
:1026600001FB17C780F80480303747712F7842F29A
:10267000107EB7FBF1F505F1300C01FB157580F804
:1026800006C03035C5717A4D02722D7830354572ED
:10269000784D82722F88B7FBFEFC0EFB1C75B5FBD4
:1026A000F6FC0CF1300B06FB1C55B5FBF3FC03FBF1
:1026B0001C55B5FBF1F70CF1300880F80BB001FBAD
:1026C000175580F80C8007F1300C80F80DC03035BC
:1026D0008573C27380F810B080F8118080F812C042
:1026E000C574654D02752F88B7FBFEFC0EFB1C758B
:1026F000B5FBF6F706FB1755B5FBF3F603FB1653D0
:10270000B3FBF1F507F1300C06F1300780F815C086
:1027100001FB1531877505F13006C675303101763C
:10272000564942760978303181765549C276097822
:1027300030310177427799F8031030318177514970
:10274000C2772B20097830318AF82A104249088054
:1027500042483A210480424800E073E000F050FB18
:10276000404A907872284AD00020D178642948D015
:102770000021084011795F2945D000210840517996
:10278000632942D00021084091796F293FD0002170
:102790000840D1796E293CD000210840117A662981
:1027A00039D0002108424BD0DFF8B48000252A46FA
:1027B00040F225514646404600F0A9FA012240F277
:1027C0002661304600F0A3FA012208212648FEF7D0
:1027D00025FC2148BE23564603802B48295C7155B1
:1027E0006D1CADB29D42F9D30020284D20E00120A0
:1027F000B0E60121B2E60121B5E60121B9E60120EA
:10280000B3E70121B5E70121B8E70121BBE70121C9
:10281000BEE70121C1E70121C4E7415932180F0E7B
:10282000D7700F0C97700F0A57703154001D80B28B
:102830009842F2D309483A210480404600F0E0FA79
:1028400013480470084910201A310880BDE8FF9F22
:10285000082800403C0100201C000020200000202F
:1028600000440040EC060020000C0240F60B002063
:1028700088000020100B0020240B002009000020FD
:102880000A0000200B0000200040024000000E085B
:10289000080000200F4810B5016841F001010160F7
:1028A0000C4A00210832116002680B4B1A4002608A
:1028B000031D0A4A1A60026822F480220260054859
:1028C0000C300160FEF7A4FE05494FF0006008607F
:1028D00010BD000000380240FFFFF6FE103000245B
:1028E00008ED00E001F028BE10B50D4C0221204695
:1028F00000F04DF8002811D00221204600F038F8F1
:10290000204600F042F881B206480184064800885B
:1029100001442046BDE8104000F0E2B810BD0000C0
:1029200000080040040100201000002010B50A4CEF
:102930000121204600F02BF800280BD005F0D0FE36
:102940000121204600F014F82046BDE81040002187
:1029500000F011B810BD00000010004000290188EF
:1029600002D041F0800101E021F080010180704738
:10297000C943018270470029018802D041F001015A
:1029800001E021F0010101807047406B7047024671
:102990000020138A92890B4202EA010202D0002A27
:1029A00000D001207047002A828901D00A4300E04C
:1029B0008A4382817047000070B58AB001210420EB
:1029C000FEF76AFC4FF4A060FEF732FC1E208DF883
:1029D000200000248DF821408DF8224001258DF83B
:1029E000235008A8FEF7F2FB0120FEF7D3FD0020DC
:1029F000FEF7D0FD0320FEF7CDFD1A481A491B4E05
:102A00000068ADF81C40B0FBF1F0401E4FF6FF71BE
:102A1000ADF814000691ADF8164005A9304600F057
:102A200061F801213046FFF799FF1148ADF80040E9
:102A3000ADF8025080890290ADF80C4069463046EE
:102A400000F018F80021304600F044F8012202217D
:102A50003046FFF7A8FF01213046FFF78CFF0AB090
:102A600070BD00009800002070640800000800405D
:102A70000400002030B5028C22F001020284028C96
:102A80008388048B22F0020224F073050C882C4307
:102A90008D8915434A882A430C4DA84202D00C4D1B
:102AA000A8420DD122F00805CA8923F440732A43B5
:102AB00022F004058A882A430D8A1D434B8A2B4342
:102AC0008380048389684163028430BD0000014033
:102AD00000040140028B22F008020A43028370477F
:102AE0004163704730B50288164C174DA0420DD097
:102AF000A8420BD0B0F1804F08D0144B984205D0BB
:102B0000134B984202D0134B984203D122F070032A
:102B10004A881A43104B984206D0104B984203D073
:102B200022F440730A891A4302804A68C2620A8802
:102B30000285A04201D0A84201D1897A01860121F3
:102B4000818230BD000001400004014000040040CB
:102B500000080040000C004000100040001400403D
:102B600070B5012186B04804FEF796FB01210820CC
:102B7000FEF77AFB1C4E072205213046FEF731FA9C
:102B8000072206213046FEF72CFA022520208DF878
:102B90000450002400908DF806408DF805506946D9
:102BA0003046FEF7E2F9402000908DF80450694667
:102BB0003046FEF7DAF94FF41650ADF80C400290AB
:102BC000ADF80E40ADF81040ADF814400C20074CA5
:102BD000ADF8120002A9204600F0B2F8012120460B
:102BE00000F06CF806B070BD000C024000440040DC
:102BF0002DE9F041294D40F225584146284600F084
:102C000067F8274C0026D0B14146284600F050F81E
:102C1000207900283FD1284600F0EEF8C1B23A29C9
:102C200002D00D2902D005E0E68303E0E08B60834B
:102C3000012020711B4AE08B1154401CE08340F2BC
:102C400026673946284600F043F8002823D0394645
:102C5000284600F02DF8208BA18B884202D912481B
:102C6000415C02E005D14FF00D01284600F0C8F8A4
:102C700009E0002208210D48FEF7D0F90122414663
:102C8000284600F044F8A08BB0F5FA7F00D3A68365
:102C9000A08B401CA083BDE8F081000000440040F0
:102CA00004000020EC060020E0080020000C024098
:102CB0000A0A01219140C943018070470029818996
:102CC00002D041F4005101E021F4005181817047AC
:102CD00070B501F01F0501260024C1F3421306FA66
:102CE00005F2012B0FD0022B0FD0838A4FEA11215E
:102CF0000088134206FA01F600EA060001D000B18E
:102D00000124204670BD8389F0E7038AEEE710B501
:102D1000C1F3421301F01F040121A140012B07D090
:102D2000022B07D01430002A026805D00A4304E0C1
:102D30000C30F8E71030F6E78A43026010BD00005F
:102D40007FB50446008A0D46C98820F440500143EF
:102D50002182A08941F20C618843A9882A89114304
:102D60006A8902431143A181A08A20F44071A88995
:102D70000843A0826846FEF7CBFA1D48844202D081
:102D80001C48844201D1039800E00298A1890904FB
:102D9000002900EBC00101EB0010296802DA4FEABC
:102DA000410101E04FEA8101B0FBF1F06422B0FB88
:102DB000F2F14FEA01114FEA11136FF018056B435E
:102DC00000EB8300A3891D044FF0320306D503EB0B
:102DD000C000B0FBF2F000F0070005E003EB0010CC
:102DE000B0FBF2F000F00F00084320817FBD00002F
:102DF00000100140001401408088C0F308007047B3
:102E0000C1F308018180704730B5034600224FF6B8
:102E1000FF7403EB4205B5F88C542D0404D5521C05
:102E2000D2B2082AF5D32246A24205D003EB4200D3
:102E300041F40041A0F88C14D0B230BD70B50C46FE
:102E400000EB4311012581F8AE52C1E9AE4291F881
:102E5000C42202B1022281F8B4221946FEF729F9F0
:102E6000002070BD70B500EB4314002584F8AE520D
:102E7000C4E9AE1294F8C51239B1022184F8B41233
:102E80001946FEF716F9002070BD84F8B452F7E732
:102E900030B402240C7501244C750024CC820A83C2
:102EA00015064C8300EB431202D582F8C44201E0C0
:102EB00082F8C542002330BC1A4600F01BB8D0F897
:102EC000AC2401211172D0F8AC040021817270474A
:102ED00070B50C4600EB431101F52C71012501F88A
:102EE000025C02250D71C1E902421946FEF7E1F8C4
:102EF000002070BD70B50C461D4616464979FEF798
:102F00009CF801460120E2780346012A0AD0022AF1
:102F100007D1012910D0032911D0042901D1E37070
:102F2000032070BD2178617009212170A660A58100
:102F300023770221E17070BDE370002070BDE37063
:102F4000022070BD70B500EB4314002584F8AE522A
:102F5000C4E9AE121AB194F8C51259B102E00121C8
:102F600084F8C512022184F8B4121946FEF7A1F8BC
:102F7000002070BD84F8B452F7E70B4610B500EBA3
:102F8000421101F52C71002401F8024C03240C714C
:102F90008B600823CB601146FEF78BF8C0B210BDE2
:102FA0000221002200EB4103491CC9B2A3F88C2482
:102FB0000829F7D30020704770B50C460021217016
:102FC0006170A17001220546E27022774020A07155
:102FD00084F8201084F821202179284600F025F873
:102FE0006179284600F021F8002070BDD0F8AC24AB
:102FF00001215172D0F8AC040021C172704770B544
:103000000C25044605290AD0042908D006290BD12D
:103010002570D0F880000068BDE870400047D4F803
:103020008000406C8047257070BD082908D200EBF5
:10303000410000F28C41B0F88C04C0F30E0008800F
:103040000020704730B442F08002DDE902540A7576
:1030500006224A750322CB82B2EB132F02D140F233
:10306000094200E000220A834C8323462A4630BCF2
:10307000FFF740BF0A8803781A440A8001780844A1
:1030800070472DE9FC41154600F58876CDE90065CD
:103090000C464FF400730022FFF7D4FF070009D15C
:1030A000334604F1500204F13E0104F1340000956E
:1030B00000F06BFF3846BDE8FC817CB5164604463F
:1030C00000F58870CDE900060D464FF480730022AC
:1030D0002046FFF7B7FF002830D104F58874082E8A
:1030E000217805F8221F61786970A178E27801EBF8
:1030F000022169802179297161796971A179A971A8
:10310000E179A4F58874E97118D904F58C742178F3
:10311000627801EB02212981A178E27801EB02219A
:1031200069812179627901EB0221A981A179A973D1
:10313000E179E973217A2974617A69747CBD7CB57F
:1031400000F58875069E1C46CDE9005642F4407392
:103150000022FFF777FF002814D16978032911D1E5
:1031600029788A1EB24200DC1646AD1CB2B200219C
:1031700004E06B5C891C04F8013B89B29142F8D3EE
:10318000002121707CBD00002DE9F05F0026804603
:103190008E74087F0B250927DFF8B8910C464FF095
:1031A000080B4FF0050A0C2817D2DFE800F0CF0615
:1031B0000E3941576879829CADC1627904F11401DE
:1031C0004046FFF7DAFE022065E061794046FDF7F0
:1031D00034FF012802D003281ED0B7E0207D618B88
:1031E00000F0800051B141F28832A9F80020802817
:1031F00002D084F81CA008E0032005E03222A9F8E0
:103200000020802806D0072020774046FDF70BFFDE
:1032100020829BE02777F8E7257784F812A095E0D5
:103220002379227B4046A168FFF752FE042032E05A
:1032300021794046FDF701FF01280DD0042870D008
:10324000032873D04046FDF7EEFE218A411AB9F8F3
:10325000000081426AD879E02777F3E7617908EBCB
:10326000411090F8C51281F0010180F8C512637910
:10327000227B4046A168FFF765FE06200BE06179DE
:103280004046FDF7DAFE012804D0042849D0022880
:1032900003D041E00720207758E084F81CA055E0D7
:1032A0000022237911464046FFF712FE84F81CB035
:1032B0004CE021794046FDF7C0FE0746012830D09A
:1032C000032F33D04046FDF7AEFE218A411AB9F8EC
:1032D000000081422AD8042F38D160782070042061
:1032E000A074032632E06179002208EB411090F8C7
:1032F000C51281F0010180F8C5126379114640467C
:10330000FFF720FE0A20C6E761794046FDF795FEEB
:10331000012806D0022807D0032807D016E000E0D5
:1033200004E06078207011E027770FE025770DE04A
:10333000A07B401CC0B2A073022802D801200877ED
:1033400004E084F812B06078087002263046BDE8C8
:10335000F09F0000680100202DE9F0410C468046F6
:10336000012589780026FF2092B02F460A2952D2E3
:10337000DFE801F0052332525B6D8097AAB4082282
:1033800021464046FFF799FE002844D194F82900D1
:10339000A0714046FDF788FEA770A0790023CDE913
:1033A000006061791A46404600F05AFDA07900237A
:1033B000CDE9006021791A462AE0122221464046D2
:1033C000FFF77BFE002826D1D4F88000C16904F104
:1033D0002200884702207FE001222146404600F07B
:1033E0001EFF00287BD1A41CA777D4F87E00006ABA
:1033F00080470320207000960196A27FA1780023C9
:10340000404600F02DFD00960196A27FE178002352
:10341000404600F025FD62E0092221464046FFF7C4
:1034200030FE00285BD1042056E0E28E2146404663
:10343000FFF727FEA0BBD4F8800004F1500204F18E
:103440003E01436A04F134009847052044E094F8B3
:103450003020062652B1009002AB21464046FFF7CD
:103460006EFEE8B9D4F88000816A11E0D4F88000DB
:10347000816A12E094F8312007265AB1009002AB1D
:1034800021464046FFF75BFE50B9D4F88000C16A80
:1034900002A803E0D4F88000C16A13A08847A67090
:1034A0001DE094F83220082652B1009002AB21466C
:1034B0004046FFF744FE90B9D4F88000016BE7E77F
:1034C000D4F88000016BE8E794F8392021464046A3
:1034D00000F0B1FE18B90920A07000E0002512B07C
:1034E0002846BDE8F08100004E2F41002DE9F04153
:1034F0001E46144688460546069F00F0C1FF002080
:1035000000F072FF21462846FFF756FD7C340B4938
:10351000C4E9006740F2AC400022C5F8AC140A725E
:103520004059414642722846FDF790FD60680068A8
:1035300080472846BDE8F04100F082BF6C010020C2
:1035400070B504460A4D012012B1012A08D102E0EB
:103550002B78EA7801E06B78AA782046FFF798FC90
:10356000044AD168491CD160042900D9042070BDE7
:103570009C3C002078010020014900200870704721
:103580008C3C002070B505460124FDF78AFDD8B1BA
:10359000104801782846FDF754FD0D2813D10E4838
:1035A0000E4A016891420ED1A0F120024168526892
:1035B000914209D1007B20B1012805D0022802D018
:1035C00002E0002400E0022403481030C4732046C7
:1035D00070BD00009C3C00207C3C002055534253B1
:1035E0000A490A23012802D002280CD07047084A51
:1035F0001078401CC0B210700A2804D2062008704F
:103600000120C87070470B70704700008C3C002090
:10361000880100202DE9F05F0E4681460124FDF768
:1036200040FD00282AD0514D0027DFF844B128780A
:10363000DFF840814FF0080A0B281FD2DFE800F0C6
:10364000060B2359626D757D824D9100484600F04E
:1036500095F9012013E021223275FF227275F7825D
:10366000378300234846314677831A46FFF742FCEA
:1036700004004FF0020002D0032C02D072E0287048
:1036800070E0687027E0A1223275FE227275F78221
:1036900037830127364A4846314677833B4608320E
:1036A000FFF728FC04004FF0030202D0032C11D0D6
:1036B00058E09BF808008BF8480010B198F801100A
:1036C00009B12A704EE088F80170D6F88000006CCD
:1036D000804747E06A700920D1E7737900223146BC
:1036E0004846FFF7D5FB04003CD18BF8487068785A
:1036F000C5E7484600F026FB08B9042008E0FFF7BC
:103700006FFF2FE0484600F07DFA0028F7D1052032
:10371000287088F80070002424E0484600F0B8F9CA
:103720000028ECD185F800A0F3E7484600F0BAFA8B
:103730000028E4D168782870EDE73146484600F06B
:103740001BF80FE0D6F88000C06B804710F0FF0038
:1037500002D0012803D005E085F800A002E006248D
:1037600000E004242046BDE8F09F00008C3C0020CF
:103770009C3C0020880100202DE9F35F0098FDF7B4
:1037800090FC002821D07A4C05277A4A20797A4D7E
:1037900000264FF008094FF0070B4FF002084FF0DA
:1037A000010A092811D2DFE800F010051233609EEB
:1037B000B3C9D5006E4953781F2230390098FFF7FE
:1037C00051FB84F805A084F80480BDE8FC9F517883
:1037D0000098FDF732FC012806D002286BD004289F
:1037E000F3D185F800A0B2E06148EE60303884F88B
:1037F0000580017B806801F08001002866D0686048
:10380000A068A860802901D00420AFE00320ADE0CB
:10381000904611780098FDF710FC012802D06179DC
:1038200003291CD00320EE606071686840280DD920
:1038300098F800304022A9680098FFF7FFFA6868FE
:1038400040386860A8684030A860BEE790B382B294
:1038500098F80030A9680098FFF7F0FA34E00428DF
:10386000B3D12E7084F804B00EE0904651780098E1
:10387000FDF7E3FB012809D0022829D00428A4D1B0
:1038800085F800A084F8049067719EE70420EE603C
:103890006071686840280FD998F801304022A96803
:1038A0000098FFF7DFFAA8684030A86068684038E1
:1038B00068608AE70AE058E040B182B298F80130C7
:1038C000A9680098FFF7CEFA6E607EE727717CE763
:1038D000A96898F80130009802B04022BDE8F05F76
:1038E0004039FFF7BFBA2249677110393F20A16004
:1038F000A0810D200D462E54401E10F0FF00FAD17D
:103900002E7013783F220098FFF798FA06202DE0DA
:1039100011780098FDF791FB012805D0042894D177
:103920002E7084F804B050E7EE606771A0782070C4
:10393000DDE90001FFF726FEE07346E7DDE900015F
:103940000022FFF7FDFD58B9287802280DD184F830
:1039500004903AE7DDE900010122FFF7F1FD20B113
:10396000042892D184F80F802FE7607920712CE72A
:103970008C3C00209C3C00207801002010B5FDF715
:1039800090FB002148B10848064A0260074A42609D
:103990004173054A01203032D0700548C1600548A6
:1039A000017010BD555342435C3C00205040302014
:1039B000780100208801002070B50C4C06460025D7
:1039C000617831B100F063FF61783046FFF72DFB7D
:1039D00065702178002907D0304600F058FF217823
:1039E0003046FFF722FB257070BD00009C3C002094
:1039F0002DE9FC41064691F843000C46082803D106
:103A000094F84500502806D0D1F88000006C80471B
:103A10000020BDE8FC8194F852001C4D010604D53D
:103A2000E870B4F85400A88003E0A870B4F854001B
:103A3000E88094F85A00010604D5E870B4F85C00F8
:103A4000A88003E0A870B4F85C00E880A97830464C
:103A5000FFF7DAF96870E9783046FFF7D5F9287092
:103A6000E8880227CDE900702034697863782278ED
:103A7000304600F062FAA888CDE9007063782278B9
:103A80002978304600F059FAC2E700009C3C00203B
:103A900070B50324FDF705FB30B3214D214E002204
:103AA000E8780123012802D0022836D11DE01E4902
:103AB0003F2480208C6008730A2088730520AE6044
:103AC000A87010200E18401EF27310F0FF00F9D1FC
:103AD0001A20C8734C74CC742B71072028700320F3
:103AE000E8730220E870032417E0E87B20B1012886
:103AF0000ED002280FD010E0B07801060948A0F1DE
:103B0000100001D5037300E00273EB70002404E0A1
:103B1000EB70012401E0EB700224204670BD000030
:103B20008C3C0020F83C00205C3C00202DE9FF4F3D
:103B3000314D81B04FF0030985F800909846144646
:103B40000198FDF7AEFA002852D02C4F01264FF015
:103B5000020BF8784FF0000A012802D0022847D162
:103B60002DE0274980205246C1F8088008730A20BA
:103B700088730298B86010200B18401EDA7310F09A
:103B8000FF00F9D12820C873200E4874200C8874D7
:103B9000200AC8740C75C8F34F20ADF800009DF8DA
:103BA000010088759DF80000C8753E7107203870C7
:103BB00087F80F9087F803B085F8009018E0F87B3D
:103BC00038B90198FDF76DFA18B1FE7085F800A0BC
:103BD0000EE0F87B012805D10198FDF762FA08B1E3
:103BE000FE7005E0F87B022802D1FE7085F800B077
:103BF000287805B0BDE8F08F9D0100208C3C0020A6
:103C00005C3C002070B50324FDF74BFA20B3224D35
:103C100001232248E978012902D002293AD11CE087
:103C20001F4908228A6080220A730A228A73A860C8
:103C30000420A870102000220C18401EE27310F01F
:103C4000FF00F9D12520C8732B71072028700320AD
:103C5000E8730220E87003241CE0E97B21B101290C
:103C600013D0022914D015E00C4902781039002431
:103C7000CA7042788A7082784A70C2780A708279F3
:103C80004A72C0790872EB7004E0EB70012401E025
:103C9000EB700224204670BD8C3C0020F83C0020D4
:103CA0005C3C002070B50324FDF7FBF938B3224DCE
:103CB0000123224AE878012802D0022839D11FE0E6
:103CC0001F493F2480208C6008730A208873AA60F3
:103CD000A87868700620A870102000220E18401ED8
:103CE000F27310F0FF00F9D10320C8730A74CC748A
:103CF0002B7107212970E8730220E870032418E073
:103D0000E87B20B101280FD0022810D011E00B4829
:103D1000117810380024C171517881719178417106
:103D2000D1780171EB7004E0EB70012401E0EB70DD
:103D30000224204670BD00008C3C0020F83C00208E
:103D40005C3C002070B50324FDF7ABF910B31A4DAD
:103D50000123E878012802D002282BD11BE0174963
:103D6000002206208A600A7388731548A8603F20E5
:103D7000A8810324AC7010200E18401EF27310F0BE
:103D8000FF00F9D1CA732B7107202870EC73022051
:103D9000E87003240EE0E87B20B1012805D002285A
:103DA00006D007E0EB70002404E0EB70012401E092
:103DB000EB700224204670BD8C3C00205C3C00204F
:103DC0007C3C0020F8B51E4615460F460324FDF73F
:103DD00068F980B3204B0122D878012802D002284C
:103DE00038D129E01D4C00210A20A6602173A07360
:103DF00010209F602718401EF97310F0FF00F9D1C2
:103E00002A20E073280E6074280CA074280AE0743D
:103E10002575C6F34F20ADF800009DF80100A07590
:103E20009DF80000E0751A71072018700320D87300
:103E30000220D87003240DE0D87B20B1012805D0E2
:103E4000022805D006E0DA70002403E0DA7001E011
:103E5000DA7002242046F8BD8C3C00205C3C002037
:103E600070B500EB4114059D0AB184F8AC22B4F89A
:103E7000B222AA4202D00DB1A4F8B25294F8AF22F5
:103E80009A4202D00BB184F8AF3200F01EFD002040
:103E900070BD38B50546002400200090284600F08B
:103EA00016FE002847D0284600F018FE0090009823
:103EB00008B9002038BD0098C0F3C00018B12846EA
:103EC00001F05CFD04430098C0F3001018B12846CF
:103ED00001F0A2FC04430098C0F3401018B128463A
:103EE00001F0E1FA04430098C0F3806018B128465D
:103EF00001F0FBFB04430098C0F3406018B1284672
:103F000000F0CFFE04430098C0F3006018B12846CB
:103F100001F05FFB04430098C0F3407018B12846DD
:103F200000F085FE04430098C0F3405018B12846C5
:103F300000F094FE04432046BCE72DE9F04100EB7D
:103F40004104DDE9066704F28C4594F88C4404F0E2
:103F50007F0C00EB411404F52B7484F801C02D781C
:103F6000C5F3C015A57022706671E780E37000226A
:103F700022766276A4F52B7413B9012284F8B0225C
:103F800000F0A3FC0020BDE8F0812DE9F843904645
:103F9000894606461978089A31705978717099786F
:103FA000DC78184601EB04217180197931715C7954
:103FB00074719C79B471DC79F471037A3372092AD3
:103FC00015D90922ADF80020022910D800270BE0EE
:103FD0006946FFF74FF8417804290AD00178BDF807
:103FE00000201144ADF800103179B942F0DCBDE891
:103FF000F88307EBC70202EB0904017821704178CE
:1040000061708178A170C178E17001792171417985
:1040100061718179A171C179E171017A217221798E
:10402000002502290CD90EE06946FFF723F84178F4
:1040300005290BD00178BDF800201144ADF800101F
:104040002179A942F0DC7F1C7FB2CDE708EBC501E6
:1040500002780A7042784A7082788A70C278CA7090
:10406000027943796D1C02EB03228A8082798A717E
:104070006DB2E5E72DE9FC4702270C4605468DF8B1
:10408000007009784FF000084FF0010904F1200A90
:1040900000F2AC460D290FD2DFE801F00F07199DA1
:1040A0009D9D5770838B629D90002846FCF7FCFF16
:1040B000002801D184F800808DE02846FCF7F1FF4C
:1040C000002803D02846FEF76BFF277083E0D4F862
:1040D000800080688047D5F8AC04474680F80980A6
:1040E0003168284681F80A900021FEF78DFE607144
:1040F00080212846FEF788FE20712846FCF7D4FF71
:10410000002868D1241DE06FC06880472846FCF76E
:104110008EFFC0B26077062104F8041CE16F896944
:104120008847A078CDE90070637F227F21782846F8
:10413000FFF703FFA078CDE90070637F227F6178ED
:10414000241F2846FFF7F9FE45E021462846FFF7E1
:1041500003F9F8B9D4F88000406B80470A2018E0D2
:10416000D4F88000806B8047012834D1E06F21466D
:1041700002682846904768B907200AE0E06F2146A8
:104180008268284690478DF800009DF8000010B91D
:10419000082020701FE09DF800102046FEF72FFF3A
:1041A00019E0E06F2146C268284690478DF800006C
:1041B000F1E721462846FEF7E7FF0CE021462846B6
:1041C000FEF7FAFED4F8800040688047E06F514661
:1041D0004268284690472846FCF763FF00281CD118
:1041E000D5F8AC04C07A002817D1D4F88000006953
:1041F0008047D5F8AC14284681F80B902146FEF78D
:10420000DBFED4F8800040688047E06F514642688A
:1042100002B02846BDE8F0471047BDE8FC8730B43F
:1042200000230B7505244C75CA820B834B8330BC6D
:104230001A46FEF75FBE30B400230B7509244C7597
:10424000CA820B834B8330BC1A46FEF753BE7047BD
:104250000149002008707047B0000020704700003E
:1042600070B51F4C0A211F48A379B3FBF1F202F18C
:10427000300501FB12320570303242706379B3FBB6
:10428000F1F202F1300501FB123285703032C2705A
:104290002379B3FBF1F201FB123102F13004047116
:1042A000303141712E2181716321C17173210172FD
:1042B000762141720C49012008700C4810210183BD
:1042C000202141830220FDF789F90320FDF792F9AF
:1042D000BDE87040012202210548FEF764BB0000E2
:1042E000F60B0020B10000200A0000200010024060
:1042F000000800400D4910B5002008700C4810213E
:104300004183202101830B49632008710320FDF7BD
:1043100065F90220FDF762F90020FDF75FF9002240
:10432000BDE8104002210448FEF73DBB0A00002012
:10433000001002404C00002000080040044900200A
:104340000870044810214183202101837047000038
:104350000A000020001002407047704710B54FF46B
:10436000FA7000F005F9BDE8104000F001B87047A0
:1043700070B5144C0025207810B1012820D11CE024
:104380001149002002F040F8104A1023104920265D
:1043900028B115704B830E834FF0FF3070BD0D4870
:1043A000007B012802D00120207009E015704B83AA
:1043B0000E830220FDF71EF9FBE7FCF769FB257071
:1043C000002070BDB0000020083400200A0000204A
:1043D00000100240E83C002070477047704770476B
:1043E00070477047012070471CB501210420FCF77D
:1043F0003BFF022101208DF8051000908DF804008C
:1044000000208DF80600074C8DF80700694620460D
:10441000FCF7ABFD01212046FCF7F5FDC82000F0BC
:10442000A7F81CBD00080240044800294FF0010114
:1044300001D0FCF7E6BDFCF7E6BD00000008024035
:1044400038B54FF4C060FCF7F3FE43208DF8000050
:1044500001248DF801408DF802408DF80340684634
:10446000FCF7B4FE17208DF800008DF80140022003
:104470008DF802008DF803406846FCF7A7FE38BDB2
:10448000FEB501210846FCF7EFFE4FF4D05003269D
:1044900000908DF8056002208DF804000025254F5E
:1044A0008DF806508DF8075069463846FCF75DFDDB
:1044B0000A2209213846FCF794FD0A220B213846CE
:1044C000FCF78FFD0A220C213846FCF78AFD0124F7
:1044D00038158DF8064000908DF807408DF805607E
:1044E00069463846FCF741FD0A2211463846FCF77A
:1044F00078FD01218803FCF7E7FE01218020FCF70D
:10450000BFFE0021E006FCF79DFE4FF4A060FCF723
:104510008FFE1C208DF808008DF809508DF80A4098
:104520008DF80B4002A8FCF751FE01210846FCF76C
:10453000B3FEFEBD0000024010B501218C072046ED
:10454000FEF725FA002809D001212046FEF710FACF
:1045500006490A681AB10868401E086010BD204666
:10456000BDE810400021FEF706BA0000AC000020B4
:104570000121FCF745BA0221FCF742BA70B50446A6
:10458000017A0025C06801290CD0C16841F04001C2
:10459000C160204600F0AAF8217A4FF48030032948
:1045A0001DD01EE0816B627A21F480310AB141F4A2
:1045B00080118163E068C16821F0401121F0880119
:1045C00021F4202141F01001C160204600F08EF856
:1045D000E07801283DD1E1682A2088602EE04FF480
:1045E0004030617A40F4301009B140F48010E16845
:1045F00088631420FFF7BCFFE168C868227A032AA9
:1046000001D140F48030C860207A032816D1E068D8
:10461000016B21F0406101F1806121F47F0141F0E3
:10462000805606F534160663C820FFF7A1FFE1683F
:1046300046F400000863C820FFF79AFFE0780128DD
:1046400007D1E068816821F01E010A3141F02001A4
:104650008160284670BD2DE9F041002704463D46A3
:104660003E46FFF7C1FED4F80C010660012120464A
:1046700000F021FA6069016821F004010160E07A2C
:10468000012813D1E06880214162304661F30F00B8
:10469000E268602161F31F409062E022304662F3DD
:1046A0000F0061F31F40E168C1F8000110212046AE
:1046B00000F0B6F8204600F095F84FF0FF3107E023
:1046C00004EB850050F8902F91600068C6606D1C67
:1046D0002078A842F4D80121204600F03BF820467B
:1046E00000F05EF83846BDE8F0810000F8B500261D
:1046F000044637460096124D0320FFF73CFFE06862
:10470000006900907F1CAF4201D90020F8BD0098DD
:104710000028F1DA0098002140F001000090009894
:10472000E2681061E06802690092491CA94202D85F
:10473000009AD207F7D10320FFF71DFF3046F8BDDE
:10474000400D0300C0680022816821F001018160F2
:104750001046704770B50C460546FFF765FE2846C3
:1047600000F0C1F9C10408D4012C0CD1D5F8CC104B
:1047700040F480500860C10405D524B9D5F8CC10A8
:1047800020F480500860BDE87040C820FFF7F0BEFC
:10479000C0680022816841F00101816010467047C5
:1047A00010B5C268002319469361C4685A1E62613D
:1047B000C4686260C4686261C468094AA261C27860
:1047C00002B91021C06841F00C5141F00801826922
:1047D00041F400118A430A438261184610BD00006B
:1047E0000008008038B50024024621460094009855
:1047F00040F0100000900098D36818610748D26814
:1048000013690093491C814202D8009BDB06F7D450
:104810000320FFF7B0FE204638BD0000400D030026
:1048200038B50024034622460094009840F020004A
:104830000090009861F38A1000900098D968086190
:104840000748D9680B690093521C824202D8009B2A
:104850009B06F7D40320FFF78EFE204638BD0000EC
:10486000400D030010B500EB8100002350F8901FAD
:104870004FF00042012464F3DC420A6100680168E1
:1048800021F0804141F000410160184610BD10B593
:1048900000EB81010023D1F89020116841F04041E4
:1048A00011F4402F09D0C1F38144022C05D0406996
:1048B000006910F47F0F03D004E0C068C06AF8E715
:1048C00021F000411160184610BDF0B500EB8106E3
:1048D0000027D6F890403D467B1E2A46A360C37849
:1048E000012B00D1042200EB411393F8B14234B103
:1048F000012C1FD0022C02D0032C27D10EE042F055
:10490000890293F8AE4242F4826284B993F8B042CD
:1049100042F04002D4B142F0200217E093F8AEC258
:1049200042F0990242F4C062BCF1000F0ED042F492
:1049300080720BE093F8AEC242F0010242F40872BA
:10494000BCF1000F02D042F08002F0E7D6F89040B0
:10495000E26001228A4041698C6914438C61C0681D
:10496000816941F00071816193F8AC0260F39C555C
:1049700093F8AD0260F3CE2593F8AE0260F3CF3525
:1049800093F8AF0202280CD025F4003093F8B1124E
:10499000B3F8B22261F3934062F30A00032903D013
:1049A00004E045F40030F1E740F00050D6F89010F4
:1049B00008603846F0BDF0B500EB41140026D4F88D
:1049C000BC3205464FF4807C37466BB1B4F8B22256
:1049D0009818401EB0FBF2F080B2604505D9120273
:1049E0006046C4F8BC2200E0012094F8AE22AAB1CF
:1049F000B4F8B2224243C4F8BC2262F3120760F357
:104A0000DC4794F8B40205EB810260F35E77D2F8DC
:104A100090000761E878012803D007E0D4F8BC22B1
:104A2000EBE7D2F89030D4F8B802586152F8900F02
:104A30000368284600F045F860F35D73126823F0C0
:104A4000804040F000401060E87890BB94F8AE02DF
:104A500078BBD4F8BC2262B394F8B10230B101281B
:104A600010D0022802D0032819D10BE0E868C36AED
:104A7000D21CC2F38F029BB2934210D2826942F0E1
:104A800020020BE068690069D21CC2F38F0280B279
:104A9000904204D2E868826942F080628261B4F890
:104AA000BC020A4683B2D4F8B8020146284600F098
:104AB00073FF3046F0BD4069026861F30102026095
:104AC00070474069806840F30000401C7047C06830
:104AD000406910F0010000D001207047C0684169B2
:104AE000806908407047D0F8CC00006820F02E00A4
:104AF000704740694069704710B504460023D21CD6
:104B00009008D4F8D02003E0146841F8044B5B1CF3
:104B10008342F9D3084610BD70B50546FFF7E3FFA1
:104B200040F4807455F8CC0F04600A20FFF720FD94
:104B3000296824F4807008601420FFF719FD012013
:104B400070BD000070B500220123C2704026837042
:104B5000154614468680012901D061B114E0C37264
:104B60000821017004214FF0A04241709115C180CD
:104B70000221017208E0C4720C210170062141700B
:104B80001F4A4FF4A061C18002F50061C0E9032112
:104B900000210AE002EB411303F5106600EB8104EB
:104BA00003F53063A661491C636543788B42F1D8F5
:104BB00002F5806141614031C0F8CC10002108E06D
:104BC00002EB411300EB810403F5A063491CC4F818
:104BD000903003788B42F3D8002108E002EB0133D8
:104BE00000EB810403F58053491CC4F8D0300378EE
:104BF0008B42F3D802F56062C0F80C21284670BDE4
:104C00000000044010B5C3680024D868012920F0D2
:104C1000C04201D019B104E042F0005201E042F07C
:104C20008042DA603220FFF7A3FC204610BD38B581
:104C300004460021C4F8101200200090D4F8AC04FF
:104C4000016820468847009820F0005000F100508D
:104C500000900098E1684861012038BD0CB501461C
:104C6000D1F8900000680090009820F0004000F11A
:104C700000400090009820F0804000F180400090BB
:104C8000009AD1F89000026000200190019820F471
:104C9000001000F5001001900198CA6850610120D1
:104CA0000CBD7CB50546002400262846FFF721FFF1
:104CB000019000BF1BE0019880B20121A140084291
:104CC00014D005F1900050F824000068009000987E
:104CD000C0F3C03028B12146284600F00DF8064345
:104CE00004E02146284600F01AFA0643641C28789E
:104CF000A042E0D830467CBD70B586B005460C4673
:104D000005F1900050F82460B0680590F0680490B8
:104D1000DDE904100840059005F1900050F82400EA
:104D200000680390002004900598C0F38000D0B183
:104D300000200190019820F00400001D01900198CE
:104D4000B06005F1900050F82400C068019001980F
:104D500020F00200801C019005F1900050F8240022
:104D60000199C16073E00598C0F3401048B100207C
:104D70000190019820F02000203001900198B0604F
:104D800065E00598C0F3C00078B305F1900050F8D5
:104D90002400C0680190019820F00200801C01905E
:104DA00005F1900050F824000199C160052105F536
:104DB0002370015500200190019820F01000103060
:104DC00001900198B06000200190019820F0080047
:104DD000083001900198B060059820F0100005900F
:104DE000E1B22846FFF753FD31E0FFE70598C0F335
:104DF000802060B305F1900050F82400C068019055
:104E0000019820F00200801C019005F1900050F8FC
:104E100024000199C160E1B22846FFF738FD002067
:104E20000190019820F01000103001900198B060BE
:104E3000082105F52370015500200190019820F408
:104E4000806000F5806001900198B06000BF059817
:104E5000C0F34020F8B105F1900050F82400C0687C
:104E60000190019820F00200801C019005F1900053
:104E700050F824000199C160E1B22846FFF707FD10
:104E800000200190019820F4007000F5007001905E
:104E90000198B06040E1059810F0010F71D0E878FA
:104EA000012812D105F1900050F824000069029009
:104EB00005F52B7000EB441000690299C1F3120153
:104EC000411A05F5147040F82410012105F52370EE
:104ED00001550021783840F82410002001900198F5
:104EE00020F00100401C01900198B0600398C0F3CD
:104EF000814020B10398C0F3814002282AD105F1F6
:104F0000900050F82400C0680190019820F0020041
:104F1000801C019005F1900050F824000199C160B7
:104F2000E1B22846FFF7B3FC00200190019820F081
:104F30001000103001900198B06005F52B7000EB67
:104F40004410007E80F0010105F52B7000EB441049
:104F50000176E1E00398C0F3814003289AD10398D9
:104F600020F0005000F10050039005F1900050F83F
:104F7000240003990160012105F29B200155CBE03B
:104F8000FFE70598C0F34000002851D005F19000DC
:104F900050F82400C0680190019820F002000190B0
:104FA00005F1900050F824000199C16005F52370C7
:104FB000005D012804D1012105F29B2001552DE05F
:104FC00005F52370005D052804D1042105F29B201E
:104FD000015523E005F52370005D062804D005F592
:104FE0002370005D082808D1002105F5057040F800
:104FF000241003218730015510E00398C0F381404D
:1050000003280BD105F52B7000EB4410007E80F0D7
:10501000010105F52B7000EB441001760020019092
:10502000019820F00200801C01900198B06073E0AC
:105030000598C0F3C01040B305F1900050F824006B
:10504000C0680190019820F00200801C019005F1D9
:10505000900050F824000199C16005F5057050F8E2
:105060002410491C40F82410062178300155E1B283
:105070002846FFF70CFC00200190019820F08000EA
:10508000803001900198B06046E00598C0F30010B0
:10509000F0B30398C0F3814003281ED105F19000BE
:1050A00050F82400C0680190019820F00200801C94
:1050B000019005F1900050F824000199C160E1B21F
:1050C0002846FFF7E4FB00200190019820F0100033
:1050D000103001900198B06018E00398C0F381404F
:1050E00020B10398C0F3814002280FD1039820F02B
:1050F000004000F100400390039820F080400390AE
:1051000005F1900050F8240003990160032100E0AC
:1051100002E005F523700155012006B070BD7FB592
:1051200005460C4605F1900050F82460B0680390E5
:10513000F0680290DDE902100840039005F190004C
:1051400050F82400006801900398C0F38000D0B1AB
:1051500000200090009820F00400001D00900098AE
:10516000B06005F1900050F82400C06800900098ED
:1051700020F00200801C009005F1900050F82400FF
:105180000099C1608CE10398C0F3401048B1002041
:105190000090009820F02000203000900098B0602F
:1051A0007EE1039810F0010F27D0002105F505706E
:1051B00040F8241005F1900050F82400C0680090D9
:1051C000009820F00200801C009005F1900050F83B
:1051D00024000099C160E1B22846FFF758FB002087
:1051E0000090009820F00100401C00900098B060F2
:1051F000012105F52370015552E10398C0F3C00069
:1052000010B300200090009820F0080008300090B3
:105210000098B06005F1900050F82400C06800903C
:10522000009820F00200801C009005F1900050F8DA
:1052300024000099C160E1B22846FFF728FB052150
:1052400005F5237001552BE10398C0F3001038B326
:10525000002105F5057040F8241005F1900050F884
:105260002400C0680090009820F00200801C00908C
:1052700005F1900050F824000099C160E1B2284681
:10528000FFF705FB00200090009820F01000103080
:1052900000900098B060032105F523700155FFE0F0
:1052A0000398C0F3C01040B305F1900050F82400FB
:1052B000C0680090009820F00200801C009005F16A
:1052C000900050F824000099C160E1B22846FFF731
:1052D000DEFA05F5057050F82410491C40F824103A
:1052E00006217830015500200090009820F08000C1
:1052F000803000900098B060D2E00398C0F3801036
:1053000038B3002105F5057040F8241005F1900030
:1053100050F82400C0680090009820F00200801C23
:10532000009005F1900050F824000099C160E1B2AE
:105330002846FFF7ACFA00200090009820F04000CB
:10534000403000900098B060042105F523700155AD
:10535000A6E00398C0F3802060B305F1900050F8F8
:105360002400C0680090009820F00200801C00908B
:1053700005F1900050F824000099C160E1B2284680
:10538000FFF785FA00200090009820F01000103000
:1053900000900098B060082105F5237001550020A9
:1053A0000090009820F4806000F5806000900098E4
:1053B000B06075E00398C0F34000002870D005F19C
:1053C000900050F82400C0680090009820F002007F
:1053D000009005F1900050F824000099C16005F597
:1053E0002370005D012815D1012105F29B20015594
:1053F0000198C0F38140022848D105F52B7000EBDD
:105400004410407E80F0010105F52B7000EB441044
:1054100041763BE005F52370005D032804D10221AD
:1054200005F29B20015531E005F52370005D04284D
:105430000FD105F52B7000EB44100079012803D142
:10544000E1B22846FFF70EFA022105F29B20015532
:105450001CE005F52370005D052804D1042105F248
:105460009B20015512E005F52370005D06280DD143
:1054700005F5057050F82400032807D1032105F233
:105480009B2001550021873840F82410002000900F
:10549000009820F00200801C00900098B06000BFCF
:1054A000012004B070BD7CB50446E068C06A00907D
:1054B0000098C0F3417104F52B7000EB41100069B6
:1054C000C01CC0F38F0673E04FF6FF71009801EA2D
:1054D00080050098C0F3417104F52B7000EB41107A
:1054E0000069A84215D20098C0F3417104F52B70F1
:1054F00000EB4110008A85B200200190019820F055
:10550000200020300190E068806901998843E168BB
:1055100088610098C0F3417104F52B7000EB4110D5
:105520000069C01CC0F38F060098C0F34172C0F33D
:10553000417304F52B7000EB43102B46C1682046E5
:1055400000F02AFA0098C0F3417104F52B7000EBCB
:105550004110C06841190098C0F3417204F52B70E6
:1055600000EB4210C1600098C0F3417104F52B704C
:1055700000EB41100069411B0098C0F3417204F533
:105580002B7000EB421001610098C0F3417104F5EB
:105590002B7000EB4110406941190098C0F3417233
:1055A00004F52B7000EB42104161E068C06A009086
:1055B000009880B2B0420ADD0098C0F3417104F552
:1055C0002B7000EB4110006900287FF47DAF0120B3
:1055D0007CBDFEB504460026002500200090029008
:1055E0000190D4F8CC0000680290D4F8CC00006898
:1055F0000190019820F004000190019820F0020031
:105600000190019820F008000190019820F02000FE
:1056100001900298C0F3400060B1D4F8AC04416836
:1056200020468847019820F00200801C0190012646
:1056300045F001050298C0F3C000002840D0019851
:1056400020F00800083001900298C0F38000002884
:1056500036D00121C4F810120298C0F3414002284C
:1056600004D00298C0F34140012828D16069006845
:1056700000900298C0F34140022811D141F27071AC
:1056800060694160009800F00300022818D0E07AB9
:10569000012803D102212046FFF70DFA01260FE071
:1056A0004BF6803160694160009800F003000128EA
:1056B00006D001212046FFF7FEF9012600E0012671
:1056C0000298C0F3401030B1019820F02000203043
:1056D000019045F0010516B12046FFF71DFA01992A
:1056E000D4F8CC0001602846FEBD7CB50446606954
:1056F000006900900098C0F3417104F52B7000EB35
:1057000041100069C01CC0F38F0674E04FF6FF71B2
:10571000009801EA80050098C0F3417104F52B70F0
:1057200000EB41100069A84216D20098C0F3417105
:1057300004F52B7000EB4110008A85B20020019027
:10574000019820F0806000F180600190E06880693D
:1057500001998843E16888610098C0F3417104F5BC
:105760002B7000EB41100069C01CC0F38F0600983D
:10577000C0F34172C0F3417304F52B7000EB43108A
:105780002B46C168204600F007F90098C0F341712C
:1057900004F52B7000EB4110C06841190098C0F36C
:1057A000417204F52B7000EB4210C1600098C0F309
:1057B000417104F52B7000EB41100069411B00980A
:1057C000C0F3417204F52B7000EB421001610098A8
:1057D000C0F3417104F52B7000EB41104069411991
:1057E0000098C0F3417204F52B7000EB4210416148
:1057F000606900690090009880B2B0420ADD0098AC
:10580000C0F3417104F52B7000EB411000690028D2
:105810007FF47CAF01207CBD30B585B0044600200C
:1058200000900390039820F0100010300390E0687F
:10583000806903998843E1688861E068006A0490A0
:10584000049800F00F00009004F190009DF8001003
:1058500050F82100006801900498C0F343400228EA
:1058600006D0032878D0052877D0072873D175E0B3
:105870000498C0F30A10002869DD04F52B709DF828
:10588000001000EB4110C068002860D00498C0F3FD
:105890000A1204F52B709DF8003000EB4310C1682C
:1058A0002046FFF729F9049800F00F0104F52B704A
:1058B00000EB4110C0680499C1F30A110144049837
:1058C00000F00F0204F52B7000EB4210C160049849
:1058D00000F00F0104F52B7000EB411040690499B2
:1058E000C1F30A110144049800F00F0204F52B7073
:1058F00000EB4210416104F52B709DF8001000EBA5
:105900004110456904F514709DF8001040F82150CD
:1059100004F190009DF8001050F8210000690290F9
:105920000298C0F3C940002811DD019820F0004022
:1059300000F100400190019820F08040019004F1B6
:1059400090009DF80020019950F82200016006E0C7
:1059500002E002E0FFE700BF00BF00BF00BF00BFE2
:10596000039820F0100010300390E06880690399DC
:105970000843E1688861012005B030BD08B50146E3
:1059800000200090009820F0080008300090009857
:10599000CA685061012008BD30B505460020EC788A
:1059A000002C0CD105EB8202DB1C9B08D2F8D02026
:1059B00003E051F8045B1560641C9C42F9D330BDD0
:1059C000FEE702E008C8121F08C1002AFAD170479A
:1059D0007047002001E001C1121F002AFBD170476F
:1059E00000B50120FBF7A2FB0120FBF76DFB02F0E5
:1059F0007BFA0346012807D10648817A491C817247
:105A0000C17909B90121C1710020FBF75DFB18467E
:105A100000BD00000400002010B504460A4640788E
:105A2000012304F1300100F0CDFB08B1032010BDCB
:105A3000B4F82E12A1F52A40553801D0022010BD2D
:105A400094F86600B4F8671040EA01210848B0EB0A
:105A5000012F08D094F88210B4F8832041EA022183
:105A6000B0EB012F01D1002010BD012010BD0000BE
:105A7000004641542DE9F0470B46016816460A7866
:105A8000303A092A08D84C783A2C05D1891C016093
:105A900012B10B20BDE8F0876D4804681C60A4B10A
:105AA000207820B1607800F0BFFBC1070FD04FF025
:105AB000000984F80090484684F8019000F052FBF9
:105AC0000546C00708D00320E4E70C20E2E70EB14A
:105AD00040070FD40020DDE7607804F10A020221BC
