:020000040800F2
:10000000B04100209D010008A90F0008A50F0008BD
:10001000A70F0008230A0008A151000800000000F3
:100020000000000000000000000000009114000823
:10003000410D000800000000691000089515000837
:10004000B7010008B7010008B7010008B7010008B0
:10005000B7010008FD110008450D0008790D0008E2
:10006000B7010008B7010008B7010008B701000890
:10007000B7010008B7010008B7010008B701000880
:10008000B7010008B7010008B7010008B701000870
:10009000B7010008B7010008B7010008B701000860
:1000A000B7010008B7010008B7010008B701000850
:1000B000FD200008B701000801210008B701000871
:1000C000B7010008B7010008B7010008B701000830
:1000D000B7010008B7010008D9230008B7010008DC
:1000E000B7010008B7010008B7010008B701000810
:1000F000B7010008B7010008B7010008B701000800
:10010000B7010008B7010008B7010008B7010008EF
:10011000B7010008B7010008B7010008B7010008DF
:10012000B7010008B7010008B7010008B7010008CF
:10013000B7010008B7010008B7010008B7010008BF
:10014000B7010008B7010008B70100085D100008FA
:10015000B7010008B7010008B7010008B70100089F
:10016000B7010008B7010008B7010008B70100088F
:10017000B7010008B7010008B7010008B70100087F
:10018000B7010008B7010008DFF80CD000F0C0FA92
:100190000048004725680008B04100200648804715
:1001A00006480047FEE7FEE7FEE7FEE7FEE7FEE75C
:1001B000FEE7FEE7FEE7FEE7AD2000088901000844
:1001C000F0B480EA0102D40F4200B2EB410F02D238
:1001D0000246084611464A0042D0C30DDDB2C1F3C3
:1001E000C752AD1A202D35DAC1F3160141F40002D1
:1001F00004B15242C5F1200602FA06F12A41104428
:10020000B3EBD05F23D0C4B1012DA0EBC35009DC08
:10021000F0BC4FF0004202EAC35200F50000DBB22E
:1002200000F0E9B9400000F1807000EBC350A0F18C
:10023000807040EAD170490009E0490841EAC07184
:10024000A0EBC35000F50000400800EBC350F0BC29
:1002500000F0C8B96142012202EB4101001BF6E740
:10026000F0BC704781F00041AAE780F00040A7E7AA
:1002700080EA010210B502F00043400026D04A0097
:1002800023D04FEA106101EB1261C0F35600C2F3B4
:10029000560240F4000042F40002A0FB0220A1F14B
:1002A0007F014FEA0040140401D000F1010050EA40
:1002B000124001D44000491EC2B20C0604EBD0101B
:1002C000401C4008802A02D003E0002010BD20F02E
:1002D0000100002900DA0020184310BD30B480EA84
:1002E000010202F0004530F0004221F0004015D03C
:1002F000A0B1C0F3C753C2F3C754C2F31601C0F391
:100300001600E41A41F4000140F400027D349142E9
:1003100001D3641C00E04900002C02DA30BC00204C
:1003200070474FF400000023914201D3891A034320
:1003300040084FEA4101F7D151B1914202D14FF04B
:10034000004105E002D24FF0010101E06FF0010130
:1003500003EBC450284430BC00F044B92DE9FE4FF3
:10036000804681EA0300C00F0C46009021F0004156
:1003700023F00045B8EB0200A94105D240462146D2
:1003800090461C460B46024623F00040104304D121
:100390004046214603B0BDE8F08F270DC7F30A00A1
:1003A000C3F30A510290401A0190402866DAC3F361
:1003B000130040F4801B0098924620B10023D2EB3A
:1003C000030A63EB0B0B01985946C0F140025046FB
:1003D00000F0D7F806460D4650465946019A00F0FF
:1003E000EFF810EB08006141002487EA115284EA1B
:1003F000E7731A433BD0009A3AB3019A012A4FEAB5
:10040000075210DC001B61EB02014FF0004202EAD0
:100410000752CDE90042001C41F5801132462B46BF
:1004200000F023F9B6E7001B61EB0201001C41F567
:10043000801300185B412018A2F5001747EB030159
:1004400040EAD570B6196D4111E06D084FEA3606E5
:1004500045EAC0754FEA0752001B61EB0201001C20
:1004600041F5801149084FEA3000001951413246E8
:100470002B4603B0BDE8F04F00F0EAB80098012227
:1004800040000023D0EB020263EBE07300982146AA
:100490004FEAE074B8EB000061EB0401E9E783F098
:1004A00000435BE781F0004158E7962300221146A4
:1004B00000F0A1B80EB5C10F80EAE0700844CA0789
:1004C000002140F233438DE80E000A460B4600F04F
:1004D000CCF803B000BD0EB540F2334102910021CB
:1004E000CDE900110A460B4600F0BFF803B000BD8D
:1004F00020F00040C10DC0F3160040F400007F2939
:1005000001DA00207047962903DCC1F19601C8404A
:100510007047963988407047C1F30A5210B5C1F34D
:10052000130140F2FF3341F480119A4201DA0020B6
:1005300010BD40F233439A42A2F2334203DC5242EE
:1005400000F02EF810BD904010BD01F0004330B413
:1005500021F0004150EA010206D00A0DA2F56072B6
:10056000C1F31301002A02DC30BC00207047440FA5
:1005700044EAC104C100E01830BC00EBC25000F0F6
:1005800031B8202A04DB203A00FA02F1002070473B
:100590009140C2F1200320FA03F3194390407047C1
:1005A000202A04DB203A21FA02F00021704721FAC8
:1005B00002F3D040C2F1200291400843194670472F
:1005C000202A06DBCB17203A41FA02F043EAE07317
:1005D00006E041FA02F3D040C2F120029140084304
:1005E000194670470029A8BF7047401C490008BF42
:1005F00020F00100704710B4B0FA80FC00FA0CF053
:1006000050EA010404BF10BC704749B1CCF120048A
:1006100021FA04F411FA0CF118BF01212143084317
:10062000A3EB0C01CB1D0106000A002BBEBF00206E
:1006300010BC704700EBC35010440029A4BF10BC8D
:100640007047401C490008BF20F0010010BC7047F3
:1006500010B5002B08DA401C41F1000192185B41F3
:100660001A4301D120F0010010BD2DE9F04D924652
:100670009B4611B1B1FA81F202E0B0FA80F2203269
:100680009046FFF77EFF04460F4640EA0A0041EA23
:100690000B0153465A46084303D120463946BDE86C
:1006A000F08D114653EA010015D0C8F140025046C2
:1006B000FFF776FF05460E46504659464246FFF77D
:1006C00060FF084301D0012000E00020054346EA16
:1006D000E0762C4337430A984FEA4453A0EB0800D6
:1006E0004FEAD4240A304FF0000244EA47544FEA5C
:1006F000D72502D500200146D1E70105101969412F
:10070000DDE9084500196941BDE8F04DA0E70000AA
:10071000064C074D06E0E06840F0010394E807004E
:1007200098471034AC42F6D3FFF732FDF874000856
:100730001875000870B501EB020410F8015B15F0A4
:10074000070301D110F8013B2A1106D110F8012B43
:1007500003E010F8016B01F8016B5B1EF9D12B0768
:1007600005D40023521E0FD401F8013BFAE710F81C
:10077000013B02F10202A1EB030303E013F8015B6A
:1007800001F8015B521EF9D5A142D6D3002070BDFD
:1007900070B59CB001212E4800F068FC0121880250
:1007A00000F094FC4FF0806000902A4801902A48A5
:1007B00002A90024012531C1E802CDE906408000EC
:1007C0000890401109900AA90594400231C1234EB6
:1007D0000D94694630460E9400F088FA01213046A7
:1007E00000F07AFA0420199003208DF868008DF843
:1007F0006B4019A91A4800F027FB1594169417941A
:1008000015A8189400F038F80F948DF84040119412
:100810001394104C8DF841504C3C8DF850500FA95A
:10082000204600F051F8002301220C21204600F060
:1008300071F80121204600F03DF80121204600F02A
:100840002FF80121204600F00DF81CB070BD00000B
:10085000040040004C2201400A00002010640240C5
:10086000000802400029816802D041F0010101E046
:1008700021F0010181607047074B10B51A680749E4
:100880000A40D0E900142143D0E902400443214347
:100890001143196010BD000004230140E030FCFF4B
:1008A0000029816802D041F4807101E021F4807157
:1008B000816070470029816802D041F4007101E035
:1008C00021F400718160704730B542680F4B0C799C
:1008D0001A400B6842EA04221343436082680C4BBF
:1008E0004D791A40D1E9034323438C6844EA450417
:1008F000234313438360C26A097D22F47002491EB8
:10090000C9B242EA0151C16230BD0000FFFEFFFCE6
:10091000FDF7FFC070B5072609290AD9C568A1F1FE
:100920000A0404EB4404A640B543A3401D43C5603C
:1009300007E0056901EB4104A640B543A3401D4310
:1009400005611F23072A09D2446B521E02EB820263
:1009500093409C4391400C43446370BD0D2A09D2DF
:10096000046BD21F02EB820293409C4391400C43E4
:10097000046370BDC46A0D3A02EB820293409C434B
:1009800091400C43C46270BD816841F08041816038
:100990007047000010B5074C2060084600F00CF8C6
:1009A00020680028FCD1BDE8104000214FF08040B5
:1009B00001F0D5BB8C0000203EB504464FF08045C9
:1009C0000021284601F0CBFB00220121284601F03E
:1009D000DEFB022C02D0012C02D004E00B2001E04F
:1009E00042F6DF6001900520ADF800000020ADF870
:1009F0000800ADF802006946284601F067FC0121B5
:100A0000284601F0A9FB0121284601F09BFB0122A9
:100A10001146284601F0BBFB0121284601F09FFB4F
:100A20003EBDFEE72DE9FC5F99480078002875D0AF
:100A3000684606F071F997489749984B00880880F6
:100A40001A794FF00A0B5846B2FBF0F101F130056C
:100A5000934C0BFB11212570303161703A25A57044
:100A60005A794FF03B08B2FBF0F101F130060BFB75
:100A70001121E6703031217165719A79894EB2FB8E
:100A8000F0F10BFB112001F13003A3713030E07164
:100A90000820307084480027844D078084482F80C8
:100AA0004FF00D0900784FF41671B0B3DFF804A2CF
:100AB0002A883378C2EBC2001844011904F8008078
:100AC000491C3AF8120004F069FD2888401C80B2E5
:100AD00028803378C0EBC0021A442244B0F5167F58
:100AE00002F8019CE4D31EE03378C0EBC001194446
:100AF000714A04F801802144491C32F8100004F0C6
:100B00004DFD2888401C80B228803278C0EBC000A0
:100B10001044204400F8019C02E000E0B5E08A4661
:100B200028885045E0D3654800F02AFADFF8908124
:100B3000644C4FF400594FF4804A012802D06248B7
:100B400007700EE002226149614804F0BDFF78B1F0
:100B500008225E495E4804F0B7FFE0B3022000F0CF
:100B60003FFC88F80070A4F81A90A4F818A08AE056
:100B7000002000F035FC5648C16804F0ECFE2888DF
:100B80003178C0EBC0004218524B4549504805F03F
:100B900092F84F4804F0D6FE9DF802005946B0FB8B
:100BA000F1F50BFB150649483036427996421CD0C8
:100BB0009DF80030B3FBF1F202F1300C01FB123270
:100BC00080F800C0303242709DF80130B3FBF1F282
:100BD00002F1300C00E011E00BFB1231303180F8F3
:100BE00002C0C170303505714671002000F0ECFB89
:100BF00035490120087088F8000040E0002000F02E
:100C0000EFFB3348C16804F0A6FE28883178C0EBBA
:100C1000C00042182F4B22492D4805F04CF82C48B3
:100C200004F090FE9DF802005946B0FBF1F50BFB75
:100C3000150626483036427996421AD09DF8003083
:100C4000B3FBF1F202F1300C01FB123280F800C06C
:100C5000303242709DF80130B3FBF1F20BFB1231E0
:100C600002F1300C303180F802C0C17030350571AE
:100C70004671002000F0A8FB012188F80010A4F8BC
:100C80001890A4F81AA002480770BDE8FC9F000065
:100C90005300002056000020580000206E00002065
:100CA000281A00204D0000204E0000205000002097
:100CB00044000020880A0020581200205C01002017
:100CC0006D00002000000240520000209100002032
:100CD000EC360020760000200029016802D041F0A7
:100CE000010101E021F001010160704730B50368A6
:100CF000124ACC6813400A682243D1E905452C43C7
:100D00002243CC6922430C6A22434C6A22438C6AF8
:100D100022434C6B22438C6B22431A43026042698C
:100D200022F00703D1E90B2422431A4342610A69E6
:100D300042604A6882608968C16030BD3F801CF0B3
:100D40007047000010B5012000F036F858B108488F
:100D500003780021074A012B01D003780BB11170F1
:100D600000E001210170BDE81040012000F01EB834
:100D70009B0000200500002010B5022000F01CF8A8
:100D800000280FD00848837800220121012B06D0CB
:100D900042708170BDE81040022000F007B8417039
:100DA0008270F7E710BD0000E400002001490860F0
:100DB00070470000143C0140064A014600201268BA
:100DC000044B0A4014331B680B4202D0002A00D0A7
:100DD00001207047003C014030B51A4A8379016810
:100DE00053B313688B431360111D0B680468A3434E
:100DF0000B60017911440B68046823430B60114BAD
:100E0000083319680468A14319601C1D216805682E
:100E1000A94321604179102905D011440A6800686E
:100E200002430A6030BD19680268114319602168E5
:100E300000680143216030BD0079104402688A4394
:100E4000026030BD003C0140F0B5002201274FF0A8
:100E5000030C0B6807FA02F52B40AB422CD1066855
:100E600053000CFA03F4A64306600E79D0F800E0B4
:100E70009E4046EA0E0606600E79012E01D0022E33
:100E800012D18668A64386604E79D0F808E09E406D
:100E900046EA0E0686604668AE43466045688E792F
:100EA0009640B6B235434560C568A543C560CC7968
:100EB0009C40C3681C43C460521C102AC9D3F0BDB7
:100EC0004B07DB0E9A40C90810B500EB8100016AA0
:100ED0000F249C40A1430162016A1143016210BDCD
:100EE00041837047018370474FF6FF710160002115
:100EF000017141718171C17170470AB101837047FD
:100F0000418370474069806880B27047D0F8CC0058
:100F10000068C0F341407047084490F89B02704756
:100F200000EB8100D0F85002704710B50022044653
:100F30001346C0F8102204EB8200C0F81432C0F847
:100F40005032A01880F88C32521CD2B20F2AF2D341
:100F50000820A4F8B202204603F0E4F9204602F08B
:100F6000E1FF204602F0FAFE0121204603F03AFAA2
:100F7000204602F060FF204602F0FAFF002010BD7C
:100F8000D0F81002704710B503F0B6F9002010BD7C
:100F90000022431883F89B2200EB4113C3F8C022C0
:100FA00003F0F9B8FEE7FEE710B5802000F014F971
:100FB00000280BD0012000F019F90121182000F0C1
:100FC0003FF9BDE81040802000F098B810BD000047
:100FD00070B50F23C278017801254FF0E026E2B109
:100FE000124A126802F4E062C2F5E062C2F307221C
:100FF000C2F10404D3404278A24084781C400C4BD8
:1010000014432201CA54007800F01F018D404009AA
:1010100006EB8000C0F8005170BD01F01F00854054
:10102000480906EB8000C0F8805170BD0CED00E06F
:1010300000E400E0024908430249086070470000EC
:101040000000FA050CED00E0024A1140014302489D
:101050000160704780FFFF1F08ED00E0014802F0CB
:1010600008BB00005C01002070470000044A002912
:10107000116801D0014300E0814311607047000016
:1010800030380240044A0029116801D0014300E0D1
:10109000814311607047000034380240044A00293F
:1010A000116801D0014300E08143116070470000E6
:1010B00040380240044A0029116801D0014300E091
:1010C000814311607047000020380240044A002923
:1010D000116801D0014300E08143116070470000B6
:1010E00044380240044A0029116801D0014300E05D
:1010F00081431160704700002438024001490870A4
:10110000704700000E3802400149C8647047000073
:101110000000474270B5204B1968204C11F00C01BB
:1011200004D06610042903D0082903D004601BE012
:10113000066019E0184A121F1168C1F38055116842
:1011400001F03F0115B1B6FBF1F101E0B4FBF1F1A3
:1011500014681268C4F388146143C2F30142521C3C
:101160005200B1FBF2F1016019680F2202EA11117D
:101170000B4A545C0168E14041601C68072505EAA0
:101180009424145D21FA04F484601B6805EA533347
:10119000D25CD140C16070BD083802400024F40028
:1011A0000C01002002460020510901290BD0022920
:1011B0000CD00849096802F01F02012393400B423A
:1011C00000D00120704703497439F3E70149091F32
:1011D000F0E7000074380240034A0146002012681C
:1011E0000A4200D0012070470C3802400249002218
:1011F0000A700870704700000238024010B50820DD
:10120000FFF7EAFF48B10820FFF778FF3120FFF72A
:10121000C9FF10B1012000F029F81020FFF7DCFF12
:1012200000280CD01020FFF769FF3920FFF7BAFF24
:10123000002804D0BDE81040022000F01DB810BD09
:10124000044A0029117801D0014300E08143117064
:10125000704700000D380240034B1A68084322F023
:101260007842104318607047083802400149086608
:101270007047000000004742034A116821F0030153
:1012800001431160704700000838024008B5034967
:1012900001EB80000090006808BD0000502800406D
:1012A00008B5034A02EB80000090016008BD000011
:1012B000502800400029018802D041F0400101E09F
:1012C00021F0400101807047114910B588420AD1D0
:1012D000841401212046FFF705FF2046BDE8104099
:1012E0000021FFF7FFBE0B49884202D101210414FF
:1012F00004E0094988420AD10121C4132046FFF7BE
:10130000D9FE2046BDE810400021FFF7D3BE10BD36
:101310000030014000380040003C00400246002000
:1013200012890A4200D0012070478181704730B590
:1013300002884C8802F441530A88CD8822438C8865
:101340002C4322430C8922434C8922438C8922431B
:10135000CC8922431A430280828B22F4006282836A
:10136000098A018230BD0021018041808180C180D5
:10137000018141818181C181072101827047000083
:101380001CB504460E48012150F82400FFF76EFEFC
:101390000B480021083830F81400009001208DF827
:1013A00004008DF806108DF8070002208DF8050066
:1013B0000448694650F82400FFF746FD1CBD0000B4
:1013C00024740008FC0000200349044A31F810107E
:1013D00052F82000418370471C740008FC00002074
:1013E0000349044A31F8101052F820000183704775
:1013F0001C740008FC00002070B5044622480E460C
:1014000086B050F824000121FFF730FE0121880347
:10141000FFF75CFE1C4800258DF81050001F8DF86A
:10142000135030F814000390184803A950F8240012
:10143000FFF70AFD012E25D11348C01F015D401E94
:10144000005D00F027F81048801E30F8140000906E
:101450008DF8045008208DF8050001258DF8065000
:101460006846FFF7B9FC0848801F005D8DF808004A
:101470000F208DF809008DF80A008DF80B5002A896
:10148000FFF7A6FD06B070BD18740008F800002034
:101490007047000010B58A0721F003040649120FB7
:1014A00021440F230C6893409C430C600B689040D0
:1014B00003430B6010BD0000083801400CB500224A
:1014C0002E4900920192086840F4803008604FF481
:1014D000A063086800F4003001900098401C009060
:1014E000019810B900989842F3D108688303244802
:1014F00041D501220192224A3832136843F08053C9
:101500001360204A136843F480431360026802604A
:10151000026842F400420260026842F4A052026093
:10152000031F194A1A600A6842F080720A600A684A
:101530009201FCD5154A40F205631360026822F05F
:1015400003020260026842F0020202600268C2F313
:101550008102022AFAD1026822F400020260084ADB
:101560000B487C321060086840F0806008600868B2
:101570000001FCD50CBD0192EDE7000000380240EF
:10158000083802400070004008544007003C024008
:10159000804000302DE9F05FFE4E3068FE4AFF4F7C
:1015A000C00764D01088401C1080DFF8F4C3FD4BE6
:1015B000B2F800809CF804009915FB4D00244FF40C
:1015C00000794FF0010A404506D885F800A05983FC
:1015D000A3F8189014803C80B7F80080404505D8E7
:1015E0002C701983A3F81A9014803C803268EF4B5A
:1015F000120603D41A8802F101021A803268960595
:10160000EB4A02D41688761C1680DFF888931F8870
:1016100009F108094FF0400809F10206B84206D85E
:101620008CF80340A9F8008031801C801480178852
:10163000B84208D8DA4F87F803A0A6F80080A9F8C6
:1016400000101C801480DB4E0021308805F0A4FEC1
:10165000D94ADA4811880088D94B084481B21180F0
:101660001878401CC0B218700A2804D0DCE0388812
:10167000401C388099E7B1FBF0F0D249C84F088090
:101680001C701480F9780029297828D0002939465F
:101690002CD0963104F0E2FB308080B2002105F0BE
:1016A00029FAC949BE4AC94E0880528933899A42EB
:1016B00002D8C74A148034813289DFF81493521C4F
:1016C0003281B9F80010884201D9A9F80000C14858
:1016D000C1490078002808880AD0C04A09E00029DA
:1016E000AF4901D04631D5E71E31D3E76E31D1E79E
:1016F000BB4AB94F22F81000401C0880398840F2DC
:10170000E730814200D13880B649DFF8DCB2088882
:10171000401C80B208800A2865D10C80DBF80000EC
:10172000B249401CCBF800000880A8480C3005F0F6
:10173000F3FADFF8988208F10C0898F8061071B9EE
:10174000A448027882F001020270A948F26802609F
:10175000328A82808171A74981F800A03C809BF881
:1017600000005F46C0074FF0010009D0FFF72CFED4
:101770003078012807D0A048007801280DD00FE06C
:10178000FFF72EFEF4E7012004F072FD022004F0C2
:101790006FFD032004F06CFD25E03878C0072BD0E6
:1017A000894E03220120318804F09EFC7C48C178D8
:1017B000002929782AD0037D71B3828B31880220D9
:1017C00004F086FD0322B9F80010104604F08CFCEA
:1017D000387898F8052098F80410C0071ED0002328
:1017E000042004F0D9FEDBF800003C21B0FBF1F24C
:1017F00001FB1200A0B117E0012004F045FC02201B
:1018000004F042FC032004F03FFCECE7037D09B147
:10181000028BD3E7C28AD1E7428BCFE70123DFE710
:1018200076490888401C08807548007800286FD0E9
:10183000744A9078772846D00020D178722944D015
:10184000002108401179742941D0002108405179C4
:101850005F293ED000210840917963293BD00021C7
:101860000840D1796F2938D000210840117A6E29BB
:1018700035D0002108406349497A662931D00021DA
:10188000DFF884B1DFF88491614FDFF888A1084266
:1018900074D00026B046324640F22551484600F04A
:1018A00026FE012240F22661484600F020FE012279
:1018B00008215948FFF721FBDFF860C1584B59490F
:1018C000DFF840E134E00120B7E70121B9E7012169
:1018D000BCE70121BFE70121C2E70121C5E70121E2
:1018E000C8E70121CCE70EEB0600827A8CF80020D5
:1018F000C07A1870392A0C704FEA021201D9A2F589
:101900005C720A703928D2B2104402D9373801E02B
:1019100068E330380870C2B2434800EB56000270EA
:1019200000780A78904201D04FF00108B61CB6B298
:101930003E4800880A388642D5DB7720387063211C
:101940006E2266234FF07200B8F1000F78706FD0EE
:101950007426BE705F26FE7039716F217971BA717D
:10196000FB713E7265217972B8720B20AAF80000F3
:10197000ABF800403A21484600F032FE214EB078E4
:1019800077287DD00020F17868297AD0002108409E
:1019900031794EE01008024066000020640000200B
:1019A000FC310020000002405A00002068000020A6
:1019B0006A000020C0310020AC3100200A00002065
:1019C0005B00002098310020D4310020E40000208A
:1019D000E831002044000020480000205812002078
:1019E000880A00205400002040000020460000200B
:1019F0006E000020530000206C00002056000020E4
:101A000006000020A0060020100000200044004036
:101A1000940800200C000020000C02404A00002026
:101A20004B0000204C000020004002400E0000202F
:101A3000DAE26F297ED00021084071793F297AD0FF
:101A4000002108424FF0730831D0002240F22551A6
:101A5000484600F04CFD012240F22661484600F065
:101A600046FD01220821FE48FFF747FA752038702D
:101A700087F801806F20B8705F21F970612001E064
:101A8000BFE2C0E23871722078716D20B871F971CF
:101A90006B203872652078727920B8720B20AAF812
:101AA0000000ABF800403A21484600F099FDB078BC
:101AB00072287DD00020F17865297AD00021084075
:101AC0003179732976D0002108407179742972D058
:101AD00000210840B17961296ED000210840F179D8
:101AE00072296AD000210840317A742966D0002119
:101AF000084231D0002240F22551484600F0F7FC60
:101B0000012240F22661484600F0F1FC0122082142
:101B1000D348FFF7F2F9722038706521797087F8A1
:101B200002807422FA70612139717871BA715F2074
:101B3000F87101E069E26AE26F2038726B20787216
:101B40000A21AAF80010ABF800403A21484600F0FC
:101B500047FDC549C3480860B07873287ED000208F
:101B6000F17865297BD0002108403179742977D03C
:101B70000021084071795F2973D000210840B179B4
:101B800074296FD000210840F17969296BD00021B8
:101B90000840317A6D2967D000210840717A6529A3
:101BA0007DD0002108427BD0002240F2255106E082
:101BB0002FE230E231E232E233E234E235E248460B
:101BC00000F095FC012240F22661484600F08FFCAF
:101BD00001220821A248FFF790F905F053FAA34823
:101BE000016841F080010160A04800684006FBD513
:101BF0009E4840F20711001D01609D49016087F871
:101C0000008065227A707420B8705F21F970387195
:101C1000692078716D20B871FA7139726F2078720D
:101C20006B20B872307D717D303800EB80026FF030
:101C30002F0808EB42000844C2B2B07CF17C303877
:101C400000EB800308EB43000844C1B2307C737C96
:101C5000303800EB800C08EB4C0006E0E7E1E8E1EF
:101C6000E9E1EDE1EEE1EFE1F0E11844C0B205F0A9
:101C7000D5F9B07BF17B303800EB800208EB4200F5
:101C80000844C2B2307B717B303800EB800308EB34
:101C900043000844C1B2B07AF37A303801E0D7E1AA
:101CA0002DE000EB800C08EB4C001844C0B201237F
:101CB00005F07CF96D48001F016841F040010160AA
:101CC000001D016821F08001016005F04FF96948AD
:101CD00005F022F8B07AF17A303800EB800208EB98
:101CE00042000144634880788142F0D10B20AAF879
:101CF0000000ABF800403A21484600F071FCB07893
:101D000072287DD00020F17865297AD00021084022
:101D10003179612976D000210840574949796429F1
:101D200071D0002108426FD0002240F22551484670
:101D300000F0DDFB012240F22661484600F0D7FBAF
:101D4000012208214648FFF7D8F84C484FF47A7131
:101D5000DFF820810088B0FBF1F202F130033B7024
:101D600001FB12006423B0FBF3F202F1300603FB27
:101D700012027E700A20B2FBF0F600FB162206F17A
:101D8000300C87F802C03032FA7020223A7198F88D
:101D900000C0BCFBF0FE0EF130067E7100FB1EC6DB
:101DA0003036BE7198F801C0BCFBF0FE0EF1300673
:101DB000FE7100FB1EC630363E7298F802C0BCFBB6
:101DC000F0FE0EF130067E7200FB1EC63036BE728B
:101DD000FA7298F804C0BCFBF0FE0EF130063E73B8
:101DE00000FB1EC630367E7398F805C0BCFBF0FEC3
:101DF0000EF13006BE7300FB1EC63036FE7304E0E3
:101E000028E12CE12DE12EE1A3E098F806C0BCFB0F
:101E1000F0F808F130063E7400FB18C630367E74C8
:101E2000BA742D783035FD74154D3A752D88B5FB93
:101E3000F1F601FB1655B5FBF1F606F1300C01FB8E
:101E40001655B5FBF3F687F815C006F1300C03FB09
:101E50001655B5FBF0F687F816C006F1300C11E008
:101E6000000C02400400FA050CED00E00C280040D4
:101E700007017F00F0000020A0060020480000209D
:101E80000A00002000FB165587F817C030353D7654
:101E90007D4D7A762D88B5FBF1F601FB1655B5FB25
:101EA000F1F606F1300C01FB1655B5FBF3F687F899
:101EB0001AC006F1300C03FB1655B5FBF0F687F897
:101EC0001BC000FB165506F1300C87F81CC03035DE
:101ED0007D776E4DBA772D88B5FBF1F601FB16556F
:101EE000B5FBF1F601FB1651B1FBF3F503FB151140
:101EF000B1FBF0F306F1300C05F1300687F81FC096
:101F000000FB131087F8206003F1300587F821509B
:101F1000303087F822005E4887F823202921007896
:101F2000303087F824005B4887F82520007830306F
:101F300087F82600584887F82720C078303087F87F
:101F40002800AAF80010ABF800403A21484600F0FB
:101F500047FB524A907872286FD00020D1786429CC
:101F60006CD00021084011795F2968D00021084019
:101F70005179632970D00021084091796F297DD073
:101F800000210840D1796E297AD000210840117AC9
:101F9000662977D00021084222D000252A4640F247
:101FA00025514E46484600F0A2FA012240F2266131
:101FB000304600F09CFA012208213948FEF79DFFC7
:101FC000BE213848AAF800102A5C7A556D1CADB2C3
:101FD0008D42F9D3ABF800403A21304600F000FBC7
:101FE00031480470BDE8F09F7420B8705F20F8702D
:101FF00039716F217971BA71FB71387279726B2006
:10200000B2E40120BFE40121C1E4012114E5012172
:1020100017E501204FE5012151E5012154E501219A
:1020200057E501215AE501215DE5012160E5012027
:1020300096E5012198E501219BE516E017E019E0FE
:1020400001219BE501219EE50121A1E50121A4E5F6
:102050000121A7E5012056E60EE00FE010E0012186
:1020600055E6012158E601215CE6012076E70121D1
:1020700078E707E001217AE701217DE7012180E788
:10208000012183E7012186E7D4310020E8310020D7
:102090006C0000206D000020FC310020A006002014
:1020A000000C024000400240060000200F4810B51E
:1020B000016841F0010101600C4A00210832116001
:1020C00002680B4B1A400260031D0A4A1A6002683C
:1020D00022F48022026005480C300160FFF7EEF91F
:1020E00005494FF00060086010BD00000038024054
:1020F000FFFFF6FE1030002408ED00E001F00CBEFA
:1021000010B50D4C0221204600F035F8002811D002
:102110000221204600F020F8204600F02AF881B283
:10212000064841810648008801442046BDE8104029
:1021300000F0CAB810BD000000080040E400002014
:10214000080000200029018802D041F0800101E050
:1021500021F0800101807047C94301827047002946
:10216000018802D041F0010101E021F0010101806C
:102170007047406B704702460020138A92890B42D9
:1021800002EA010202D0002A00D001207047002A92
:10219000828901D00A4300E08A43828170470000AF
:1021A00070B58AB001210420FEF778FF4FF4A060DB
:1021B000FEF740FF1E208DF8200000248DF82140FE
:1021C0008DF8224001258DF8235008A8FEF700FF66
:1021D0000120FFF7D5F80020FFF7D2F80320FFF722
:1021E000CFF81A481A491B4E0068ADF81C40B0FBE6
:1021F000F1F0401E4FF6FF71ADF814000691ADF8F6
:10220000164005A9304600F061F801213046FFF77D
:1022100099FF1148ADF80040ADF802508088029057
:10222000ADF80C406946304600F018F80021304601
:1022300000F044F8012202213046FFF7A8FF0121F7
:102240003046FFF78CFF0AB070BD00007800002018
:1022500070640800000800400400002030B5028CC3
:1022600022F001020284028C8388048B22F0020295
:1022700024F073050C882C438D8915434A882A4322
:102280000C4DA84202D00C4DA8420DD122F00805F9
:10229000CA8923F440732A4322F004058A882A431A
:1022A0000D8A1D434B8A2B438380048389684163D5
:1022B000028430BD0000014000040140028B22F086
:1022C00008020A43028370474163704730B50288B1
:1022D000164C174DA0420DD0A8420BD0B0F1804F44
:1022E00008D0144B984205D0134B984202D0134BA0
:1022F000984203D122F070034A881A43104B984247
:1023000006D0104B984203D022F440730A891A4336
:1023100002804A68C2620A880285A04201D0A842AF
:1023200001D1897A01860121818230BD00000140FE
:10233000000401400004004000080040000C004080
:10234000001000400014004070B5012186B0480420
:10235000FEF7A4FE01210820FEF788FE1C4E07228E
:1023600005213046FEF7ACFD072206213046FEF778
:10237000A7FD022520208DF80450002400908DF840
:1023800006408DF8055069463046FEF75DFD402059
:1023900000908DF8045069463046FEF755FD4FF425
:1023A0001650ADF80C400290ADF80E40ADF810405C
:1023B000ADF814400C20074CADF8120002A92046DD
:1023C00000F0AEF80121204600F068F806B070BDBC
:1023D000000C0240004400402DE9F041274D40F23E
:1023E00025584146284600F063F8254C0026B8B130
:1023F0004146284600F04CF8284600F0EDF8C1B2FE
:102400003A2902D00D2902D005E0E68103E0E089F7
:1024100060810120A0701B4AE0891154401CE081BA
:1024200040F226673946284600F042F8002823D0BB
:102430003946284600F02CF82089A189884202D923
:102440001148415C02E005D14FF00D01284600F033
:10245000C7F809E0002208210C48FEF74EFD0122D2
:102460004146284600F043F8A089B0F5FA7F00D332
:10247000A681A089401CA081BDE8F08100440040F5
:1024800004000020A006002094080020000C024058
:102490000A0A01219140C9430180704700298189BE
:1024A00002D041F4005101E021F4005181817047D4
:1024B00070B501F01F0501260024C1F3421306FA8E
:1024C00005F2012B0FD0022B0FD0838A4FEA112186
:1024D0000088134206FA01F600EA060001D000B1B6
:1024E0000124204670BD8389F0E7038AEEE710B52A
:1024F000C1F3421301F01F040121A140012B07D0B9
:10250000022B07D01430002A026805D00A4304E0E9
:102510000C30F8E71030F6E78A43026010BD000087
:102520007FB50446008A0D46C98820F44050014317
:102530002182A08941F20C618843A9882A8911432C
:102540006A8902431143A181A08A20F44071A889BD
:102550000843A0826846FEF7DDFD1D48844202D094
:102560001C48844201D1039800E00298A189090423
:10257000002900EBC00101EB0010296802DA4FEAE4
:10258000410101E04FEA8101B0FBF1F06422B0FBB0
:10259000F2F14FEA01114FEA11136FF018056B4386
:1025A00000EB8300A3891D044FF0320306D503EB33
:1025B000C000B0FBF2F000F0070005E003EB0010F4
:1025C000B0FBF2F000F00F00084320817FBD000057
:1025D00000100140001401408088C0F308007047DB
:1025E000C1F308018180704730B5034600224FF6E1
:1025F000FF7403EB4205B5F88C542D0404D5521C2E
:10260000D2B2082AF5D32246A24205D003EB4200FB
:1026100041F40041A0F88C14D0B230BD70B50C4626
:1026200000EB4311012581F8AE52C1E9AE4291F8A9
:10263000C42202B1022281F8B4221946FEF7A8FC96
:10264000002070BD70B500EB4314002584F8AE5235
:10265000C4E9AE1294F8C51239B1022184F8B4125B
:102660001946FEF795FC002070BD84F8B452F7E7D8
:1026700030B402240C7501244C750024CC820A83EA
:1026800015064C8300EB431202D582F8C44201E0E8
:1026900082F8C542002330BC1A4600F01BB8D0F8BF
:1026A000AC2401211172D0F8AC0400218172704772
:1026B00070B50C4600EB431101F52C71012501F8B2
:1026C000025C02250D71C1E902421946FEF760FC69
:1026D000002070BD70B50C461D4616464979FEF7C0
:1026E0001BFC01460120E2780346012A0AD0022A97
:1026F00007D1012910D0032911D0042901D1E37099
:10270000032070BD2178617009212170A660A58128
:1027100023770221E17070BDE370002070BDE3708B
:10272000022070BD70B500EB4314002584F8AE5252
:10273000C4E9AE121AB194F8C51259B102E00121F0
:1027400084F8C512022184F8B4121946FEF720FC61
:10275000002070BD84F8B452F7E70B4610B500EBCB
:10276000421101F52C71002401F8024C03240C7174
:102770008B600823CB601146FEF70AFCC0B210BD87
:102780000221002200EB4103491CC9B2A3F88C24AA
:102790000829F7D30020704770B50C46002121703E
:1027A0006170A17001220546E27022774020A0717D
:1027B00084F8201084F821202179284600F025F89B
:1027C0006179284600F021F8002070BDD0F8AC24D3
:1027D00001215172D0F8AC040021C172704770B56C
:1027E0000C25044605290AD0042908D006290BD156
:1027F0002570D0F880000068BDE870400047D4F82C
:102800008000406C8047257070BD082908D200EB1D
:10281000410000F28C41B0F88C04C0F30E00088037
:102820000020704730B442F08002DDE902540A759E
:1028300006224A750322CB82B2EB132F02D140F25B
:10284000094200E000220A834C8323462A4630BC1A
:10285000FFF740BF0A8803781A440A8001780844C9
:1028600070472DE9FC41154600F58876CDE90065F5
:102870000C464FF400730022FFF7D4FF070009D184
:10288000334604F1500204F13E0104F13400009596
:1028900000F06BFF3846BDE8FC817CB51646044667
:1028A00000F58870CDE900060D464FF480730022D4
:1028B0002046FFF7B7FF002830D104F58874082EB2
:1028C000217805F8221F61786970A178E27801EB20
:1028D000022169802179297161796971A179A971D0
:1028E000E179A4F58874E97118D904F58C7421781C
:1028F000627801EB02212981A178E27801EB0221C3
:1029000069812179627901EB0221A981A179A973F9
:10291000E179E973217A2974617A69747CBD7CB5A7
:1029200000F58875069E1C46CDE9005642F44073BA
:102930000022FFF777FF002814D16978032911D10D
:1029400029788A1EB24200DC1646AD1CB2B20021C4
:1029500004E06B5C891C04F8013B89B29142F8D316
:10296000002121707CBD00002DE9F05F002680462B
:102970008E74087F0B250927DFF8B8910C464FF0BD
:10298000080B4FF0050A0C2817D2DFE800F0CF063D
:102990000E3941576879829CADC1627904F1140106
:1029A0004046FFF7DAFE022065E061794046FEF717
:1029B000B3FA012802D003281ED0B7E0207D618B36
:1029C00000F0800051B141F28832A9F8002080283F
:1029D00002D084F81CA008E0032005E03222A9F808
:1029E0000020802806D0072020774046FEF78AFA8C
:1029F00020829BE02777F8E7257784F812A095E0FE
:102A00002379227B4046A168FFF752FE042032E082
:102A100021794046FEF780FA01280DD0042870D0B5
:102A2000032873D04046FEF76DFA218A411AB9F89F
:102A3000000081426AD879E02777F3E7617908EBF3
:102A4000411090F8C51281F0010180F8C512637938
:102A5000227B4046A168FFF765FE06200BE0617906
:102A60004046FEF759FA012804D0042849D002282C
:102A700003D041E00720207758E084F81CA055E0FF
:102A80000022237911464046FFF712FE84F81CB05D
:102A90004CE021794046FEF73FFA0746012830D046
:102AA000032F33D04046FEF72DFA218A411AB9F898
:102AB000000081422AD8042F38D160782070042089
:102AC000A074032632E06179002208EB411090F8EF
:102AD000C51281F0010180F8C512637911464046A4
:102AE000FFF720FE0A20C6E761794046FEF714FA98
:102AF000012806D0022807D0032807D016E000E0FE
:102B000004E06078207011E027770FE025770DE072
:102B1000A07B401CC0B2A073022802D80120087715
:102B200004E084F812B06078087002263046BDE8F0
:102B3000F09F00001C0100202DE9F0410C4680466A
:102B4000012589780026FF2092B02F460A2952D20B
:102B5000DFE801F0052332525B6D8097AAB40822AA
:102B600021464046FFF799FE002844D194F82900F9
:102B7000A0714046FEF707FAA770A0790023CDE9BF
:102B8000006061791A46404600F05AFDA0790023A2
:102B9000CDE9006021791A462AE0122221464046FA
:102BA000FFF77BFE002826D1D4F88000C16904F12C
:102BB0002200884702207FE001222146404600F0A3
:102BC0001EFF00287BD1A41CA777D4F87E00006AE2
:102BD00080470320207000960196A27FA1780023F1
:102BE000404600F02DFD00960196A27FE17800237B
:102BF000404600F025FD62E0092221464046FFF7ED
:102C000030FE00285BD1042056E0E28E214640468B
:102C1000FFF727FEA0BBD4F8800004F1500204F1B6
:102C20003E01436A04F134009847052044E094F8DB
:102C30003020062652B1009002AB21464046FFF7F5
:102C40006EFEE8B9D4F88000816A11E0D4F8800003
:102C5000816A12E094F8312007265AB1009002AB45
:102C600021464046FFF75BFE50B9D4F88000C16AA8
:102C700002A803E0D4F88000C16A13A08847A670B8
:102C80001DE094F83220082652B1009002AB214694
:102C90004046FFF744FE90B9D4F88000016BE7E7A7
:102CA000D4F88000016BE8E794F8392021464046CB
:102CB00000F0B1FE18B90920A07000E0002512B0A4
:102CC0002846BDE8F08100004E2F41002DE9F0417B
:102CD0001E46144688460546069F00F0C1FF0020A8
:102CE00000F072FF21462846FFF756FD7C340B4961
:102CF000C4E9006740F2AC400022C5F8AC140A7287
:102D00004059414642722846FEF70FF96068006854
:102D100080472846BDE8F04100F082BF2001002036
:102D200070B504460A4D012012B1012A08D102E013
:102D30002B78EA7801E06B78AA782046FFF798FCB8
:102D4000044AD168491CD160042900D9042070BD0F
:102D5000503B00202C0100200149002008707047E2
:102D6000403B002070B505460124FEF709F9D8B1B3
:102D7000104801782846FEF7D3F80D2813D10E48E5
:102D80000E4A016891420ED1A0F1200241685268BA
:102D9000914209D1007B20B1012805D0022802D040
:102DA00002E0002400E0022403481030C4732046EF
:102DB00070BD0000503B0020303B00205553425373
:102DC0000A490A23012802D002280CD07047084A79
:102DD0001078401CC0B210700A2804D20620087077
:102DE0000120C87070470B7070470000403B002006
:102DF0003C0100202DE9F05F0E4681460124FEF7DC
:102E0000BFF800282AD0514D0027DFF844B12878B8
:102E1000DFF840814FF0080A0B281FD2DFE800F0EE
:102E2000060B2359626D757D824D9100484600F076
:102E300095F9012013E021223275FF227275F78285
:102E4000378300234846314677831A46FFF742FC12
:102E500004004FF0020002D0032C02D072E0287070
:102E600070E0687027E0A1223275FE227275F78249
:102E700037830127364A4846314677833B46083236
:102E8000FFF728FC04004FF0030202D0032C11D0FE
:102E900058E09BF808008BF8480010B198F8011032
:102EA00009B12A704EE088F80170D6F88000006CF5
:102EB000804747E06A700920D1E7737900223146E4
:102EC0004846FFF7D5FB04003CD18BF84870687882
:102ED000C5E7484600F026FB08B9042008E0FFF7E4
:102EE0006FFF2FE0484600F07DFA0028F7D105205B
:102EF000287088F80070002424E0484600F0B8F9F3
:102F00000028ECD185F800A0F3E7484600F0BAFAB3
:102F10000028E4D168782870EDE73146484600F093
:102F20001BF80FE0D6F88000C06B804710F0FF0060
:102F300002D0012803D005E085F800A002E00624B5
:102F400000E004242046BDE8F09F0000403B002044
:102F5000503B00203C0100202DE9F35F0098FEF774
:102F60000FF8002821D07A4C05277A4A20797A4D2B
:102F700000264FF008094FF0070B4FF002084FF002
:102F8000010A092811D2DFE800F010051233609E13
:102F9000B3C9D5006E4953781F2230390098FFF726
:102FA00051FB84F805A084F80480BDE8FC9F5178AB
:102FB0000098FDF7B1FF012806D002286BD0042845
:102FC000F3D185F800A0B2E06148EE60303884F8B3
:102FD0000580017B806801F08001002866D0686070
:102FE000A068A860802901D00420AFE00320ADE0F4
:102FF000904611780098FDF78FFF012802D0617983
:1030000003291CD00320EE606071686840280DD948
:1030100098F800304022A9680098FFF7FFFA686826
:1030200040386860A8684030A860BEE790B382B2BC
:1030300098F80030A9680098FFF7F0FA34E0042807
:10304000B3D12E7084F804B00EE090465178009809
:10305000FDF762FF012809D0022829D00428A4D155
:1030600085F800A084F8049067719EE70420EE6064
:103070006071686840280FD998F801304022A9682B
:103080000098FFF7DFFAA8684030A8606868403809
:1030900068608AE70AE058E040B182B298F80130EF
:1030A000A9680098FFF7CEFA6E607EE727717CE78B
:1030B000A96898F80130009802B04022BDE8F05F9E
:1030C0004039FFF7BFBA2249677110393F20A1602C
:1030D000A0810D200D462E54401E10F0FF00FAD1A5
:1030E0002E7013783F220098FFF798FA06202DE003
:1030F00011780098FDF710FF012805D0042894D11D
:103100002E7084F804B050E7EE606771A0782070EC
:10311000DDE90001FFF726FEE07346E7DDE9000187
:103120000022FFF7FDFD58B9287802280DD184F858
:1031300004903AE7DDE900010122FFF7F1FD20B13B
:10314000042892D184F80F802FE7607920712CE752
:10315000403B0020503B00202C01002010B5FDF723
:103160000FFF002148B10848064A0260074A426042
:103170004173054A01203032D0700548C1600548CE
:10318000017010BD55534243103B00205040302089
:103190002C0100203C01002070B50C4C0646002597
:1031A000617831B100F063FF61783046FFF72DFBA5
:1031B00065702178002907D0304600F058FF21784B
:1031C0003046FFF722FB257070BD0000503B002009
:1031D0002DE9FC41064691F843000C46082803D12E
:1031E00094F84500502806D0D1F88000006C804744
:1031F0000020BDE8FC8194F852001C4D010604D566
:10320000E870B4F85400A88003E0A870B4F8540043
:10321000E88094F85A00010604D5E870B4F85C0020
:10322000A88003E0A870B4F85C00E880A978304674
:10323000FFF7DAF96870E9783046FFF7D5F92870BA
:10324000E8880227CDE90070203469786378227815
:10325000304600F062FAA888CDE9007063782278E1
:103260002978304600F059FAC2E70000503B0020B0
:1032700070B50324FDF784FE30B3214D214E0022AA
:10328000E8780123012802D0022836D11DE01E492A
:103290003F2480208C6008730A2088730520AE606C
:1032A000A87010200E18401EF27310F0FF00F9D124
:1032B0001A20C8734C74CC742B710720287003201B
:1032C000E8730220E870032417E0E87B20B10128AE
:1032D0000ED002280FD010E0B07801060948A0F106
:1032E000100001D5037300E00273EB70002404E0CA
:1032F000EB70012401E0EB700224204670BD000059
:10330000403B0020AC3B0020103B00202DE9FF4F4C
:10331000314D81B04FF0030985F80090984614466E
:103320000198FDF72DFE002852D02C4F01264FF0BA
:10333000020BF8784FF0000A012802D0022847D18A
:103340002DE0274980205246C1F8088008730A20E2
:1033500088730298B86010200B18401EDA7310F0C2
:10336000FF00F9D12820C873200E4874200C8874FF
:10337000200AC8740C75C8F34F20ADF800009DF802
:10338000010088759DF80000C8753E7107203870EF
:1033900087F80F9087F803B085F8009018E0F87B65
:1033A00038B90198FDF7ECFD18B1FE7085F800A062
:1033B0000EE0F87B012805D10198FDF7E1FD08B189
:1033C000FE7005E0F87B022802D1FE7085F800B09F
:1033D000287805B0BDE8F08F51010020403B002067
:1033E000103B002070B50324FDF7CAFD20B3224D29
:1033F00001232248E978012902D002293AD11CE0B0
:103400001F4908228A6080220A730A228A73A860F0
:103410000420A870102000220C18401EE27310F047
:10342000FF00F9D12520C8732B71072028700320D5
:10343000E8730220E87003241CE0E97B21B1012934
:1034400013D0022914D015E00C4902781039002459
:10345000CA7042788A7082784A70C2780A7082791B
:103460004A72C0790872EB7004E0EB70012401E04D
:10347000EB700224204670BD403B0020AC3B002096
:10348000103B002070B50324FDF77AFD38B3224DC0
:103490000123224AE878012802D0022839D11FE00E
:1034A0001F493F2480208C6008730A208873AA601B
:1034B000A87868700620A870102000220E18401E00
:1034C000F27310F0FF00F9D10320C8730A74CC74B2
:1034D0002B7107212970E8730220E870032418E09B
:1034E000E87B20B101280FD0022810D011E00B4852
:1034F000117810380024C17151788171917841712F
:10350000D1780171EB7004E0EB70012401E0EB7005
:103510000224204670BD0000403B0020AC3B002050
:10352000103B002070B50324FDF72AFD10B31A4D9F
:103530000123E878012802D002282BD11BE017498B
:10354000002206208A600A7388731548A8603F200D
:10355000A8810324AC7010200E18401EF27310F0E6
:10356000FF00F9D1CA732B7107202870EC73022079
:10357000E87003240EE0E87B20B1012805D0022882
:1035800006D007E0EB70002404E0EB70012401E0BA
:10359000EB700224204670BD403B0020103B002011
:1035A000303B0020F8B51E4615460F460324FDF7B4
:1035B000E7FC80B3204B0122D878012802D00228F2
:1035C00038D129E01D4C00210A20A6602173A07388
:1035D00010209F602718401EF97310F0FF00F9D1EA
:1035E0002A20E073280E6074280CA074280AE07466
:1035F0002575C6F34F20ADF800009DF80100A075B9
:103600009DF80000E0751A71072018700320D87328
:103610000220D87003240DE0D87B20B1012805D00A
:10362000022805D006E0DA70002403E0DA7001E039
:10363000DA7002242046F8BD403B0020103B0020F9
:1036400070B500EB4114059D0AB184F8AC22B4F8C2
:10365000B222AA4202D00DB1A4F8B25294F8AF221D
:103660009A4202D00BB184F8AF3200F01EFD002068
:1036700070BD38B50546002400200090284600F0B3
:1036800016FE002847D0284600F018FE009000984B
:1036900008B9002038BD0098C0F3C00018B1284612
:1036A00001F05CFD04430098C0F3001018B12846F7
:1036B00001F0A2FC04430098C0F3401018B1284662
:1036C00001F0E1FA04430098C0F3806018B1284685
:1036D00001F0FBFB04430098C0F3406018B128469A
:1036E00000F0CFFE04430098C0F3006018B12846F4
:1036F00001F05FFB04430098C0F3407018B1284606
:1037000000F085FE04430098C0F3405018B12846ED
:1037100000F094FE04432046BCE72DE9F04100EBA5
:103720004104DDE9066704F28C4594F88C4404F00A
:103730007F0C00EB411404F52B7484F801C02D7844
:10374000C5F3C015A57022706671E780E370002292
:1037500022766276A4F52B7413B9012284F8B02284
:1037600000F0A3FC0020BDE8F0812DE9F84390466D
:10377000894606461978089A317059787170997897
:10378000DC78184601EB04217180197931715C797C
:1037900074719C79B471DC79F471037A3372092AFB
:1037A00015D90922ADF80020022910D800270BE016
:1037B0006946FFF74FF8417804290AD00178BDF82F
:1037C00000201144ADF800103179B942F0DCBDE8B9
:1037D000F88307EBC70202EB0904017821704178F6
:1037E00061708178A170C178E170017921714179AE
:1037F00061718179A171C179E171017A21722179B7
:10380000002502290CD90EE06946FFF723F841781C
:1038100005290BD00178BDF800201144ADF8001047
:103820002179A942F0DC7F1C7FB2CDE708EBC5010E
:1038300002780A7042784A7082788A70C278CA70B8
:10384000027943796D1C02EB03228A8082798A71A6
:103850006DB2E5E72DE9FC4702270C4605468DF8D9
:10386000007009784FF000084FF0010904F1200AB8
:1038700000F2AC460D290FD2DFE801F00F07199DC9
:103880009D9D5770838B629D90002846FDF77BFBC2
:10389000002801D184F800808DE02846FDF770FBF8
:1038A000002803D02846FEF76BFF277083E0D4F88A
:1038B000800080688047D5F8AC04474680F80980CE
:1038C0003168284681F80A900021FEF78DFE60716C
:1038D00080212846FEF788FE20712846FDF753FB1D
:1038E000002868D1241DE06FC06880472846FDF796
:1038F0000DFBC0B26077062104F8041CE16F8969F2
:103900008847A078CDE90070637F227F2178284620
:10391000FFF703FFA078CDE90070637F227F617815
:10392000241F2846FFF7F9FE45E021462846FFF709
:1039300003F9F8B9D4F88000406B80470A2018E0FA
:10394000D4F88000806B8047012834D1E06F214695
:1039500002682846904768B907200AE0E06F2146D0
:103960008268284690478DF800009DF8000010B945
:10397000082020701FE09DF800102046FEF72FFF62
:1039800019E0E06F2146C268284690478DF8000094
:10399000F1E721462846FEF7E7FF0CE021462846DE
:1039A000FEF7FAFED4F8800040688047E06F514689
:1039B0004268284690472846FDF7E2FA00281CD1C5
:1039C000D5F8AC04C07A002817D1D4F8800000697B
:1039D0008047D5F8AC14284681F80B902146FEF7B5
:1039E000DBFED4F8800040688047E06F51464268B3
:1039F00002B02846BDE8F0471047BDE8FC8730B468
:103A000000230B7505244C75CA820B834B8330BC95
:103A10001A46FEF75FBE30B400230B7509244C75BF
:103A2000CA820B834B8330BC1A46FEF753BE7047E5
:103A30000149002008707047900000207047000086
:103A40001CB5684603F068F99DF800300A21B3FB05
:103A5000F1F202F130041C4801FB123204703032E2
:103A600042709DF80130B3FBF1F202F1300401FB2A
:103A7000123284703032C2709DF80230B3FBF1F222
:103A800001FB123102F130040471303141712E21F9
:103A900081716321C17173210172762141720B49D9
:103AA0000120087041030A48018349004183022034
:103AB000FDF78AFC0320FDF793FC01220221054853
:103AC000FEF765FB1CBD0000910000206D0000208A
:103AD00000000240000800400C4910B500200870AA
:103AE0000B484FF400514183490001830320FDF747
:103AF0006BFC0220FDF768FC0020FDF765FC00224E
:103B0000BDE8104002210348FEF741BB6D000020D4
:103B100000000240000800400449002008700448EA
:103B20004FF4005141834900018370476D0000202C
:103B3000000002407047704710B54FF4FA7000F073
:103B400007F9BDE8104000F001B8704770B5154C9A
:103B50000025207810B1012821D11DE01249002054
:103B600001F0A2FF114A4FF4005311495E0028B141
:103B700015704B830E834FF0FF3070BD0D48007BF6
:103B8000012802D00120207009E015704B830E83BC
:103B90000220FDF725FCFBE7FCF744FF2570002021
:103BA00070BD000090000020BC3200206D0000209D
:103BB000000002409C3B00207047704770477047F0
:103BC00070477047012070471CB501210420FDF7A4
:103BD0004DFA022101208DF8051000908DF80400A7
:103BE00000208DF80600074C8DF807006946204636
:103BF000FDF72AF901212046FDF774F9C82000F0ED
:103C0000A7F81CBD00080240044800294FF001013C
:103C100001D0FDF765B9FDF765B900000008024065
:103C200038B54FF4C060FDF705FA43208DF8000069
:103C300001248DF801408DF802408DF8034068465C
:103C4000FDF7C6F917208DF800008DF8014002201D
:103C50008DF802008DF803406846FDF7B9F938BDCC
:103C6000FEB501210846FDF701FA4FF4D0500326B6
:103C700000908DF8056002208DF804000025254F86
:103C80008DF806508DF8075069463846FDF7DCF888
:103C90000A2209213846FDF713F90A220B2138467A
:103CA000FDF70EF90A220C213846FDF709F9012427
:103CB00038158DF8064000908DF807408DF80560A6
:103CC00069463846FDF7C0F80A2211463846FDF726
:103CD000F7F801218803FDF7F9F901218020FDF7AC
:103CE000D1F90021E006FDF7AFF94FF4A060FDF730
:103CF000A1F91C208DF808008DF809508DF80A40B4
:103D00008DF80B4002A8FDF763F901210846FDF785
:103D1000C5F9FEBD0000024010B501218C07204608
:103D2000FEF729FA002809D001212046FEF714FAEF
:103D300006490A681AB10868401E086010BD20468E
:103D4000BDE810400021FEF70ABA00008C000020F8
:103D50000121FCF71FBE0221FCF71CBE70B5044612
:103D6000017A0025C06801290CD0C16841F04001EA
:103D7000C160204600F0AAF8217A4FF48030032970
:103D80001DD01EE0816B627A21F480310AB141F4CA
:103D900080118163E068C16821F0401121F0880141
:103DA00021F4202141F01001C160204600F08EF87E
:103DB000E07801283DD1E1682A2088602EE04FF4A8
:103DC0004030617A40F4301009B140F48010E1686D
:103DD00088631420FFF7BCFFE168C868227A032AD1
:103DE00001D140F48030C860207A032816D1E06801
:103DF000016B21F0406101F1806121F47F0141F00C
:103E0000805606F534160663C820FFF7A1FFE16867
:103E100046F400000863C820FFF79AFFE078012805
:103E200007D1E068816821F01E010A3141F02001CC
:103E30008160284670BD2DE9F041002704463D46CB
:103E40003E46FFF7C1FED4F80C0106600121204672
:103E500000F021FA6069016821F004010160E07A54
:103E6000012813D1E06880214162304661F30F00E0
:103E7000E268602161F31F409062E022304662F305
:103E80000F0061F31F40E168C1F8000110212046D6
:103E900000F0B6F8204600F095F84FF0FF3107E04B
:103EA00004EB850050F8902F91600068C6606D1C8F
:103EB0002078A842F4D80121204600F03BF82046A3
:103EC00000F05EF83846BDE8F0810000F8B5002645
:103ED000044637460096124D0320FFF73CFFE0688A
:103EE000006900907F1CAF4201D90020F8BD009806
:103EF0000028F1DA0098002140F0010000900098BD
:103F0000E2681061E06802690092491CA94202D887
:103F1000009AD207F7D10320FFF71DFF3046F8BD06
:103F2000400D0300C0680022816821F0010181601A
:103F30001046704770B50C460546FFF765FE2846EB
:103F400000F0C1F9C10408D4012C0CD1D5F8CC1073
:103F500040F480500860C10405D524B9D5F8CC10D0
:103F600020F480500860BDE87040C820FFF7F0BE24
:103F7000C0680022816841F00101816010467047ED
:103F800010B5C268002319469361C4685A1E626165
:103F9000C4686260C4686261C468094AA261C27888
:103FA00002B91021C06841F00C5141F0080182694A
:103FB00041F400118A430A438261184610BD000093
:103FC0000008008038B5002402462146009400987D
:103FD00040F0100000900098D36818610748D2683C
:103FE00013690093491C814202D8009BDB06F7D479
:103FF0000320FFF7B0FE204638BD0000400D03004F
:1040000038B50024034622460094009840F0200072
:104010000090009861F38A1000900098D9680861B8
:104020000748D9680B690093521C824202D8009B52
:104030009B06F7D40320FFF78EFE204638BD000014
:10404000400D030010B500EB8100002350F8901FD5
:104050004FF00042012464F3DC420A610068016809
:1040600021F0804141F000410160184610BD10B5BB
:1040700000EB81010023D1F89020116841F040410C
:1040800011F4402F09D0C1F38144022C05D04069BE
:10409000006910F47F0F03D004E0C068C06AF8E73D
:1040A00021F000411160184610BDF0B500EB81060B
:1040B0000027D6F890403D467B1E2A46A360C37871
:1040C000012B00D1042200EB411393F8B14234B12B
:1040D000012C1FD0022C02D0032C27D10EE042F07D
:1040E000890293F8AE4242F4826284B993F8B042F6
:1040F00042F04002D4B142F0200217E093F8AEC281
:1041000042F0990242F4C062BCF1000F0ED042F4BA
:1041100080720BE093F8AEC242F0010242F40872E2
:10412000BCF1000F02D042F08002F0E7D6F89040D8
:10413000E26001228A4041698C6914438C61C06845
:10414000816941F00071816193F8AC0260F39C5584
:1041500093F8AD0260F3CE2593F8AE0260F3CF354D
:1041600093F8AF0202280CD025F4003093F8B11276
:10417000B3F8B22261F3934062F30A00032903D03B
:1041800004E045F40030F1E740F00050D6F890101C
:1041900008603846F0BDF0B500EB41140026D4F8B5
:1041A000BC3205464FF4807C37466BB1B4F8B2227E
:1041B0009818401EB0FBF2F080B2604505D912029B
:1041C0006046C4F8BC2200E0012094F8AE22AAB1F7
:1041D000B4F8B2224243C4F8BC2262F3120760F37F
:1041E000DC4794F8B40205EB810260F35E77D2F805
:1041F00090000761E878012803D007E0D4F8BC22DA
:10420000EBE7D2F89030D4F8B802586152F8900F2A
:104210000368284600F045F860F35D73126823F0E8
:10422000804040F000401060E87890BB94F8AE0207
:1042300078BBD4F8BC2262B394F8B10230B1012843
:1042400010D0022802D0032819D10BE0E868C36A15
:10425000D21CC2F38F029BB2934210D2826942F009
:1042600020020BE068690069D21CC2F38F0280B2A1
:10427000904204D2E868826942F080628261B4F8B8
:10428000BC020A4683B2D4F8B8020146284600F0C0
:1042900073FF3046F0BD4069026861F301020260BD
:1042A00070474069806840F30000401C7047C06858
:1042B000406910F0010000D001207047C0684169DA
:1042C000806908407047D0F8CC00006820F02E00CC
:1042D000704740694069704710B504460023D21CFE
:1042E0009008D4F8D02003E0146841F8044B5B1C1C
:1042F0008342F9D3084610BD70B50546FFF7E3FFCA
:1043000040F4807455F8CC0F04600A20FFF720FDBC
:10431000296824F4807008601420FFF719FD01203B
:1043200070BD000070B500220123C270402683706A
:10433000154614468680012901D061B114E0C3728C
:104340000821017004214FF0A04241709115C180F5
:104350000221017208E0C4720C2101700621417033
:104360001F4A4FF4A061C18002F50061C0E903213A
:1043700000210AE002EB411303F5106600EB810413
:1043800003F53063A661491C636543788B42F1D81D
:1043900002F5806141614031C0F8CC10002108E095
:1043A00002EB411300EB810403F5A063491CC4F840
:1043B000903003788B42F3D8002108E002EB013300
:1043C00000EB810403F58053491CC4F8D030037816
:1043D0008B42F3D802F56062C0F80C21284670BD0C
:1043E0000000044010B5C3680024D868012920F0FB
:1043F000C04201D019B104E042F0005201E042F0A5
:104400008042DA603220FFF7A3FC204610BD38B5A9
:1044100004460021C4F8101200200090D4F8AC0427
:10442000016820468847009820F0005000F10050B5
:1044300000900098E1684861012038BD0CB5014644
:10444000D1F8900000680090009820F0004000F142
:1044500000400090009820F0804000F180400090E3
:10446000009AD1F89000026000200190019820F499
:10447000001000F5001001900198CA6850610120F9
:104480000CBD7CB50546002400262846FFF721FF19
:10449000019000BF1BE0019880B20121A1400842B9
:1044A00014D005F1900050F82400006800900098A6
:1044B000C0F3C03028B12146284600F00DF806436D
:1044C00004E02146284600F01AFA0643641C2878C6
:1044D000A042E0D830467CBD70B586B005460C469B
:1044E00005F1900050F82460B0680590F0680490E1
:1044F000DDE904100840059005F1900050F8240013
:1045000000680390002004900598C0F38000D0B1AB
:1045100000200190019820F00400001D01900198F6
:10452000B06005F1900050F82400C0680190019837
:1045300020F00200801C019005F1900050F824004A
:104540000199C16073E00598C0F3401048B10020A4
:104550000190019820F02000203001900198B06077
:1045600065E00598C0F3C00078B305F1900050F8FD
:104570002400C0680190019820F00200801C019086
:1045800005F1900050F824000199C160052105F55E
:104590002370015500200190019820F01000103088
:1045A00001900198B06000200190019820F008006F
:1045B000083001900198B060059820F01000059037
:1045C000E1B22846FFF753FD31E0FFE70598C0F35D
:1045D000802060B305F1900050F82400C06801907D
:1045E000019820F00200801C019005F1900050F825
:1045F00024000199C160E1B22846FFF738FD002090
:104600000190019820F01000103001900198B060E6
:10461000082105F52370015500200190019820F430
:10462000806000F5806001900198B06000BF05983F
:10463000C0F34020F8B105F1900050F82400C068A4
:104640000190019820F00200801C019005F190007B
:1046500050F824000199C160E1B22846FFF707FD38
:1046600000200190019820F4007000F50070019086
:104670000198B06040E1059810F0010F71D0E87822
:10468000012812D105F1900050F824000069029031
:1046900005F52B7000EB441000690299C1F312017B
:1046A000411A05F5147040F82410012105F5237016
:1046B00001550021783840F824100020019001981D
:1046C00020F00100401C01900198B0600398C0F3F5
:1046D000814020B10398C0F3814002282AD105F11E
:1046E000900050F82400C0680190019820F002006A
:1046F000801C019005F1900050F824000199C160E0
:10470000E1B22846FFF7B3FC00200190019820F0A9
:104710001000103001900198B06005F52B7000EB8F
:104720004410007E80F0010105F52B7000EB441071
:104730000176E1E00398C0F3814003289AD1039801
:1047400020F0005000F10050039005F1900050F867
:10475000240003990160012105F29B200155CBE063
:10476000FFE70598C0F34000002851D005F1900004
:1047700050F82400C0680190019820F002000190D8
:1047800005F1900050F824000199C16005F52370EF
:10479000005D012804D1012105F29B2001552DE087
:1047A00005F52370005D052804D1042105F29B2046
:1047B000015523E005F52370005D062804D005F5BA
:1047C0002370005D082808D1002105F5057040F828
:1047D000241003218730015510E00398C0F3814075
:1047E00003280BD105F52B7000EB4410007E80F000
:1047F000010105F52B7000EB4410017600200190BB
:10480000019820F00200801C01900198B06073E0D4
:104810000598C0F3C01040B305F1900050F8240093
:10482000C0680190019820F00200801C019005F101
:10483000900050F824000199C16005F5057050F80A
:104840002410491C40F82410062178300155E1B2AB
:104850002846FFF70CFC00200190019820F0800012
:10486000803001900198B06046E00598C0F30010D8
:10487000F0B30398C0F3814003281ED105F19000E6
:1048800050F82400C0680190019820F00200801CBC
:10489000019005F1900050F824000199C160E1B247
:1048A0002846FFF7E4FB00200190019820F010005B
:1048B000103001900198B06018E00398C0F3814077
:1048C00020B10398C0F3814002280FD1039820F053
:1048D000004000F100400390039820F080400390D6
:1048E00005F1900050F8240003990160032100E0D5
:1048F00002E005F523700155012006B070BD7FB5BB
:1049000005460C4605F1900050F82460B06803900D
:10491000F0680290DDE902100840039005F1900074
:1049200050F82400006801900398C0F38000D0B1D3
:1049300000200090009820F00400001D00900098D6
:10494000B06005F1900050F82400C0680090009815
:1049500020F00200801C009005F1900050F8240027
:104960000099C1608CE10398C0F3401048B1002069
:104970000090009820F02000203000900098B06057
:104980007EE1039810F0010F27D0002105F5057096
:1049900040F8241005F1900050F82400C068009001
:1049A000009820F00200801C009005F1900050F863
:1049B00024000099C160E1B22846FFF758FB0020AF
:1049C0000090009820F00100401C00900098B0601A
:1049D000012105F52370015552E10398C0F3C00091
:1049E00010B300200090009820F0080008300090DC
:1049F0000098B06005F1900050F82400C068009065
:104A0000009820F00200801C009005F1900050F802
:104A100024000099C160E1B22846FFF728FB052178
:104A200005F5237001552BE10398C0F3001038B34E
:104A3000002105F5057040F8241005F1900050F8AC
:104A40002400C0680090009820F00200801C0090B4
:104A500005F1900050F824000099C160E1B22846A9
:104A6000FFF705FB00200090009820F010001030A8
:104A700000900098B060032105F523700155FFE018
:104A80000398C0F3C01040B305F1900050F8240023
:104A9000C0680090009820F00200801C009005F192
:104AA000900050F824000099C160E1B22846FFF759
:104AB000DEFA05F5057050F82410491C40F8241062
:104AC00006217830015500200090009820F08000E9
:104AD000803000900098B060D2E00398C0F380105E
:104AE00038B3002105F5057040F8241005F1900059
:104AF00050F82400C0680090009820F00200801C4C
:104B0000009005F1900050F824000099C160E1B2D6
:104B10002846FFF7ACFA00200090009820F04000F3
:104B2000403000900098B060042105F523700155D5
:104B3000A6E00398C0F3802060B305F1900050F820
:104B40002400C0680090009820F00200801C0090B3
:104B500005F1900050F824000099C160E1B22846A8
:104B6000FFF785FA00200090009820F01000103028
:104B700000900098B060082105F5237001550020D1
:104B80000090009820F4806000F58060009000980C
:104B9000B06075E00398C0F34000002870D005F1C4
:104BA000900050F82400C0680090009820F00200A7
:104BB000009005F1900050F824000099C16005F5BF
:104BC0002370005D012815D1012105F29B200155BC
:104BD0000198C0F38140022848D105F52B7000EB05
:104BE0004410407E80F0010105F52B7000EB44106D
:104BF00041763BE005F52370005D032804D10221D6
:104C000005F29B20015531E005F52370005D042875
:104C10000FD105F52B7000EB44100079012803D16A
:104C2000E1B22846FFF70EFA022105F29B2001555A
:104C30001CE005F52370005D052804D1042105F270
:104C40009B20015512E005F52370005D06280DD16B
:104C500005F5057050F82400032807D1032105F25B
:104C60009B2001550021873840F824100020009037
:104C7000009820F00200801C00900098B06000BFF7
:104C8000012004B070BD7CB50446E068C06A0090A5
:104C90000098C0F3417104F52B7000EB41100069DE
:104CA000C01CC0F38F0673E04FF6FF71009801EA55
:104CB00080050098C0F3417104F52B7000EB4110A2
:104CC0000069A84215D20098C0F3417104F52B7019
:104CD00000EB4110008A85B200200190019820F07D
:104CE000200020300190E068806901998843E168E4
:104CF00088610098C0F3417104F52B7000EB4110FE
:104D00000069C01CC0F38F060098C0F34172C0F365
:104D1000417304F52B7000EB43102B46C16820460D
:104D200000F02AFA0098C0F3417104F52B7000EBF3
:104D30004110C06841190098C0F3417204F52B700E
:104D400000EB4210C1600098C0F3417104F52B7074
:104D500000EB41100069411B0098C0F3417204F55B
:104D60002B7000EB421001610098C0F3417104F513
:104D70002B7000EB4110406941190098C0F341725B
:104D800004F52B7000EB42104161E068C06A0090AE
:104D9000009880B2B0420ADD0098C0F3417104F57A
:104DA0002B7000EB4110006900287FF47DAF0120DB
:104DB0007CBDFEB504460026002500200090029030
:104DC0000190D4F8CC0000680290D4F8CC000068C0
:104DD0000190019820F004000190019820F0020059
:104DE0000190019820F008000190019820F0200027
:104DF00001900298C0F3400060B1D4F8AC0441685F
:104E000020468847019820F00200801C019001266E
:104E100045F001050298C0F3C000002840D0019879
:104E200020F00800083001900298C0F380000028AC
:104E300036D00121C4F810120298C0F34140022874
:104E400004D00298C0F34140012828D1606900686D
:104E500000900298C0F34140022811D141F27071D4
:104E600060694160009800F00300022818D0E07AE1
:104E7000012803D102212046FFF70DFA01260FE099
:104E80004BF6803160694160009800F00300012812
:104E900006D001212046FFF7FEF9012600E0012699
:104EA0000298C0F3401030B1019820F0200020306B
:104EB000019045F0010516B12046FFF71DFA019952
:104EC000D4F8CC0001602846FEBD7CB5044660697C
:104ED000006900900098C0F3417104F52B7000EB5D
:104EE00041100069C01CC0F38F0674E04FF6FF71DB
:104EF000009801EA80050098C0F3417104F52B7019
:104F000000EB41100069A84216D20098C0F341712D
:104F100004F52B7000EB4110008A85B2002001904F
:104F2000019820F0806000F180600190E068806965
:104F300001998843E16888610098C0F3417104F5E4
:104F40002B7000EB41100069C01CC0F38F06009865
:104F5000C0F34172C0F3417304F52B7000EB4310B2
:104F60002B46C168204600F007F90098C0F3417154
:104F700004F52B7000EB4110C06841190098C0F394
:104F8000417204F52B7000EB4210C1600098C0F331
:104F9000417104F52B7000EB41100069411B009832
:104FA000C0F3417204F52B7000EB421001610098D0
:104FB000C0F3417104F52B7000EB411040694119B9
:104FC0000098C0F3417204F52B7000EB4210416170
:104FD000606900690090009880B2B0420ADD0098D4
:104FE000C0F3417104F52B7000EB411000690028FB
:104FF0007FF47CAF01207CBD30B585B00446002035
:1050000000900390039820F0100010300390E068A7
:10501000806903998843E1688861E068006A0490C8
:10502000049800F00F00009004F190009DF800102B
:1050300050F82100006801900498C0F34340022812
:1050400006D0032878D0052877D0072873D175E0DB
:105050000498C0F30A10002869DD04F52B709DF850
:10506000001000EB4110C068002860D00498C0F325
:105070000A1204F52B709DF8003000EB4310C16854
:105080002046FFF729F9049800F00F0104F52B7072
:1050900000EB4110C0680499C1F30A11014404985F
:1050A00000F00F0204F52B7000EB4210C160049871
:1050B00000F00F0104F52B7000EB411040690499DA
:1050C000C1F30A110144049800F00F0204F52B709B
:1050D00000EB4210416104F52B709DF8001000EBCD
:1050E0004110456904F514709DF8001040F82150F6
:1050F00004F190009DF8001050F821000069029022
:105100000298C0F3C940002811DD019820F000404A
:1051100000F100400190019820F08040019004F1DE
:1051200090009DF80020019950F82200016006E0EF
:1051300002E002E0FFE700BF00BF00BF00BF00BF0A
:10514000039820F0100010300390E0688069039904
:105150000843E1688861012005B030BD08B501460B
:1051600000200090009820F008000830009000987F
:10517000CA685061012008BD30B505460020EC78B2
:10518000002C0CD105EB8202DB1C9B08D2F8D0204E
:1051900003E051F8045B1560641C9C42F9D330BDF8
:1051A000FEE702E008C8121F08C1002AFAD17047C2
:1051B0007047002001E001C1121F002AFBD1704797
:1051C00010B504460A464078012304F1300100F08E
:1051D00049FB08B1032010BDB4F82E12A1F52A40F6
:1051E000553801D0022010BD94F86600B4F867105D
:1051F00040EA01210848B0EB012F08D094F8821052
:10520000B4F8832041EA0221B0EB012F01D1002044
:1052100010BD012010BD0000004641542DE9F047AB
:105220000B46016816460A78303A092A08D84C78A5
:105230003A2C05D1891C016012B10B20BDE8F08722
:105240006D4804681C60A4B1207820B1607800F03B
:105250003BFBC1070FD04FF0000984F8009048468F
:1052600084F8019000F0CEFA0546C00708D003206C
:10527000E4E70C20E2E70EB140070FD40020DDE7A1
:10528000607804F10A02022100F0CCFA38BB608990
:10529000B0F5806F23D81EB1680701D50A20CDE78D
:1052A000002631462046FFF78BFF01280CD104F57C
:1052B000F770017999B1017AD0F8090041EA002626
:1052C00031462046FFF77CFF032801D038B901E0C2
:1052D0000120B3E7B4F83B006589A84201D00D2056
:1052E000ACE7B4F8460028B994F85400D4F8551047
:1052F00040EA0120A06194F84010E170E78F41433B
:1053000016FA87F2226294F83DC084F802C0B4F81D
:1053100041302381B4F8430028B994F85000D4F800
:10532000518040EA08206D09B3FBF5F3C01B401A19
:10533000C01AB0FBFCF0801C012540F6F777E06155
:10534000B84200D302254FF6F777B84201D30325C0
:105350000FE0032D0DD05018606258181044A06261
:105360004FF0FF3020614F4684F80490032D07D0A2
:1053700039E094F85C00D4F85D7040EA0720EBE770
:105380006771B4F8600016FA80F2626160780123F8
:1053900004F1300100F066FA28BBB4F82E02A0F543
:1053A0002A4155391FD194F83000D4F8311040EA21
:1053B00001201249884216D194F81402D4F815122B
:1053C00040EA01200E4988420DD194F81C02D4F81D
:1053D0001D1240EA0120E06094F81802D4F8191276
:1053E00040EA0120206104492570091FE76208880E
:1053F000401C0880E08041E7580100205252614182
:1054000072724161C269891E921E8A4201D80020CF
:105410007047826A807801FB002070472DE9F041D7
:10542000C7695FEA0108064608D04146304600F0E9
:10543000C1FD022808D20120BDE8F081F5680DB158
:10544000BD4204D3012502E0B842F5D345462C46BF
:10545000641CBC4202D30224022D0AD321463046EA
:1054600000F0A8FD38B1411CE6D00128E4D0AC42E0
:10547000EED10020E0E76FF070422146304601F0A7
:1054800081FB4FF0FF3540B95FEA080007D00146C5
:105490002246304601F076FB08B12846CCE7F4609E
:1054A0003069411C03D0401E3061012070712046DC
:1054B000C2E700002DE9F047846989460B222021CC
:1054C000204601F0DBFA00221346D9F800C01E4640
:1054D00008271CF80610761C202930D92F292ED039
:1054E0005C292CD02E2901D0BB4208DB082F34D1F7
:1054F0002E2932D108230B279006020EE9E78029D6
:1055000003D32248084410F8801C21A000E0401C6E
:10551000057815B18D42FAD11FE0A1F1410019289B
:1055200002D842F0020207E0A1F16100192803D875
:10553000203942F00102C9B2E1545B1CC9E70CEB0F
:105540000605C9F80050202901D8042000E00020F9
:105550001BB12178E52903D004E00620BDE8F087DF
:1055600005212170082F01D191060A0E02F00301D6
:10557000012901D140F01000C2F38101012901D1BC
:1055800040F00800E0720020E8E7000034740008F2
:1055900020222A2B2C5B3D5D7C7F000042F21073A1
:1055A000B0FBF3F210B503FB120002F130044FF42C
:1055B0007A73B0FBF3F20C7003FB120002F13004BB
:1055C0006423B0FBF3F24C7003FB120002F13004D1
:1055D0000A23B0FBF3F28C7003FB120002F13004DB
:1055E000CC703030087110BD002101E000BF491CB3
:1055F0008142FBD370472DE9F0410446C0880E4636
:10560000401C07043F0C37D02169A1B320684289B0
:105610005209B7FBF2F302FB1372002A5FD1491C57
:105620002161E16841B1428983785209B7FBF2F206
:105630005B1E1A4204D052E00089B8421CD94EE0E9
:1056400000F0B8FC054601281BD9681C32D0206840
:10565000C169A9423DD876B1E168FFF7DFFE0500D8
:105660000DD0012D0DD0681C24D00021206801F040
:105670000CFAF8B907E0FFE70420BDE8F081072045
:10568000FBE70220F9E7206800214289303001F071
:10569000F5F929462068FFF7B5FE216800264FF08E
:1056A0000108C8620EE080F804800021206801F043
:1056B000ECF908B10120E0E72068C16A491C761CBA
:1056C000F6B2C16220688178B142ECD8C16A891B08
:1056D000C162E56029462068FFF794FE2061E780FB
:1056E000206841894909B7FBF1F201FB12713022B0
:1056F00002EB4111084460610020BEE770B504462A
:10570000002100F02EF80EE02169206801F0BDF9BB
:10571000050024D160690078E52807D030B1012167
:105720002046FFF768FF0500EED018E021692068E9
:1057300001F0ABF9050012D1666920220021304644
:1057400001F09CF90B223046A16901F08FF9A069A4
:10575000C07A00F0180030732168012008712846D3
:1057600070BD70B50D46C18081680446012927D0FF
:105770002068C2698A4223D921B90278032A08D154
:10578000416A31B142898078520912FB00F086B239
:105790001CE0E1600189A94212D94189406A4909A6
:1057A000B5FBF1F108441DE0206800F003FC014660
:1057B000401C07D0022903D32068C069884203D85F
:1057C000022070BD012070BDA81B85B2B542EBD28E
:1057D000E1602068FFF716FE216849894909B5FB99
:1057E000F1F108442061206841894909B5FBF1F2D3
:1057F00001FB1251302202EB41110844606100208C
:1058000070BD000010B50548FBF7BAFB044918B19C
:10581000087820F001000870087810BD5C010020B5
:105820005001002078B90D4B01201B78DB0701D017
:105830000320704771B1012907D04FF4007302298A
:1058400007D0032908D0042070470548006810607D
:1058500000E0138000207047136070475001002063
:105860009C3B00202DE9F0411C4615460E4638B9F8
:1058700034B112480078C00704D00320BDE8F0819D
:105880000420FBE70E48FBF77BFBA0B16402234634
:105890002A4631460A48FDF739FD074609490848B6
:1058A000FDF75AFB0648FBF76BFB10B1032FEED058
:1058B0000FB10120E2E70020E0E7000050010020E6
:1058C0005C0100200C06002008B10120704701484F
:1058D00000787047500100202DE9F0411C46154624
:1058E0000E4638B934B114480178C90704D00320F2
:1058F000BDE8F0810420FBE70078400701D50220D5
:10590000F6E70E48FBF73CFBA0B1640223462A46AB
:1059100031460A48FDF746FE074609490748FDF7A4
:105920001BFB0648FBF72CFB10B1032FEED00FB189
:105930000120DDE70020DBE7500100205C010020B2
:105940000C06002010B5044600F063F9002801D1D0
:105950000021216010BD2DE9F0410D4604468188EB
:10596000006801F045FD5FEA000803D1A17908064F
:1059700002D50220BDE8F081E068A84202D2890782
:1059800000D405460027A168FF20A760E071FDB1A3
:10599000206886784289564369B16A1E491EB2FB67
:1059A000F6F2B1FBF6F39A4205D3701E81436D1AED
:1059B000A16061690BE0216941B90021FFF72EFD6B
:1059C000014601284DD0481C5CD021616161D1B9EC
:1059D00030E0A0798007206805D5FFF71FFD0100A2
:1059E00004D1354611E000F0E5FA0146481C49D0E3
:1059F000012936D92068C069884232D96161A0681E
:105A0000AD1B3044A060B542E3D8A0682844A06034
:105A100020684289B5FBF2F2E2714289B5FBF2F3EC
:105A200002FB135232B1FFF7EDFCD0B1E1790F1850
:105A3000491CE1712068A1684289B1FBF2F302FBC5
:105A4000131131B3A269BA4223D0A17904F124051C
:105A500049060FD5407801232946FFF73DFF88B955
:105A600004E0A07940F08000A07182E7A07920F0E6
:105A70004000A071206801233A4640782946FFF78C
:105A8000F1FE28B1A07940F08000A071012071E7FB
:105A9000A761D4E90201884204D9E060A07940F00E
:105AA0002000A071404665E708B10B207047054B08
:105AB0000022186800B1027001B10A70002019605C
:105AC00070470000580100202DE9F7478BB04FF0D8
:105AD0000008064602F01F05C0F8008005F01E020F
