:020000040800F2
:10000000904100209D010008290A0008250A0008E7
:10001000270A0008D3040008F14900080000000086
:10002000000000000000000000000000110F0008A8
:10003000C107000800000000E90A000815100008C8
:10004000B7010008B7010008B7010008B7010008B0
:10005000B70100087D0C0008C5070008F907000873
:10006000B7010008B7010008B7010008B701000890
:10007000B7010008B7010008B7010008B701000880
:10008000B7010008B7010008B7010008B701000870
:10009000B7010008B7010008B7010008B701000860
:1000A000B7010008B7010008B7010008B701000850
:1000B000B5190008B7010008B9190008B701000810
:1000C000B7010008B7010008B7010008B701000830
:1000D000B7010008B7010008911C0008B70100082B
:1000E000B7010008B7010008B7010008B701000810
:1000F000B7010008B7010008B7010008B701000800
:10010000B7010008B7010008B7010008B7010008EF
:10011000B7010008B7010008B7010008B7010008DF
:10012000B7010008B7010008B7010008B7010008CF
:10013000B7010008B7010008B7010008B7010008BF
:10014000B7010008B7010008B7010008DD0A000880
:10015000B7010008B7010008B7010008B70100089F
:10016000B7010008B7010008B7010008B70100088F
:10017000B7010008B7010008B7010008B70100087F
:10018000B7010008B7010008DFF80CD000F018F83C
:1001900000480047515F0008904100200648804712
:1001A00006480047FEE7FEE7FEE7FEE7FEE7FEE75C
:1001B000FEE7FEE7FEE7FEE7651900088901000893
:1001C000064C074D06E0E06840F0010394E80700A4
:1001D00098471034AC42F6D3FFF7DAFF786900088D
:1001E0009869000870B501EB020410F8015B15F086
:1001F000070301D110F8013B2A1106D110F8012B99
:1002000003E010F8016B01F8016B5B1EF9D12B07BD
:1002100005D40023521E0FD401F8013BFAE710F871
:10022000013B02F10202A1EB030303E013F8015BBF
:1002300001F8015B521EF9D5A142D6D3002070BD52
:1002400070B59CB001212E4800F050FC01218802BD
:1002500000F07CFC4FF0806000902A4801902A4812
:1002600002A90024012531C1E802CDE90640800041
:100270000890401109900AA90594400231C1234E0B
:100280000D94694630460E9400F070FA0121304614
:1002900000F062FA0420199003208DF868008DF8B0
:1002A0006B4019A91A4800F00FFB15941694179487
:1002B00015A8189400F038F80F948DF84040119468
:1002C0001394104C8DF841504C3C8DF850500FA9B0
:1002D000204600F051F8002301220C21204600F0B6
:1002E00071F80121204600F03DF80121204600F080
:1002F0002FF80121204600F00DF81CB070BD000061
:10030000040040004C2201400A000020106402401A
:10031000000802400029816802D041F0010101E09B
:1003200021F0010181607047074B10B51A68074939
:100330000A40D0E900142143D0E90240044321439C
:100340001143196010BD000004230140E030FCFFA0
:100350000029816802D041F4807101E021F48071AC
:10036000816070470029816802D041F4007101E08A
:1003700021F400718160704730B542680F4B0C79F1
:100380001A400B6842EA04221343436082680C4B14
:100390004D791A40D1E9034323438C6844EA45046C
:1003A000234313438360C26A097D22F47002491E0D
:1003B000C9B242EA0151C16230BD0000FFFEFFFC3C
:1003C000FDF7FFC070B5072609290AD9C568A1F154
:1003D0000A0404EB4404A640B543A3401D43C56092
:1003E00007E0056901EB4104A640B543A3401D4366
:1003F00005611F23072A09D2446B521E02EB8202B9
:1004000093409C4391400C43446370BD0D2A09D234
:10041000046BD21F02EB820293409C4391400C4339
:10042000046370BDC46A0D3A02EB820293409C43A0
:1004300091400C43C46270BD816841F0804181608D
:100440007047000010B5074C2060084600F00CF81B
:1004500020680028FCD1BDE8104000214FF080400A
:1004600001F0D9BA780000203EB504464FF080452F
:100470000021284601F0CFFA00220121284601F090
:10048000E2FA022C02D0012C02D004E00B2001E0A1
:1004900042F6DF6001900520ADF800000020ADF8C5
:1004A0000800ADF802006946284601F06BFB012107
:1004B000284601F0ADFA0121284601F09FFA0122F9
:1004C0001146284601F0BFFA0121284601F0A3FA9F
:1004D0003EBDFEE72DE9FC5FDFF83CB29BF8000073
:1004E00000287DD0684605F067FF8C488C498D4A0E
:1004F0000088088011790A27B1FBF7F000F130037A
:10050000894C07FB10102370303060703A23A370C1
:100510005179864EB1FBF7F000F1300507FB101062
:10052000E5703030207163719179824DB1FBF7F045
:1005300000F1300207FB1010A2713030E07108208A
:100540007B4930704FF000087B48A1F80080A5F887
:10055000008000784FF03B094FF00D0AA0B32A88C5
:100560003378C2EBC2001844011904F800907348B4
:10057000491C30F8120004F039FC2888401C80B275
:1005800028803378C0EBC0021A442244B0F5167FAD
:1005900002F801ACE3D31BE03378C0EBC00119448F
:1005A000674A04F801902144491C32F8100004F015
:1005B0001DFC2888401C80B228803278C0EBC00027
:1005C0001044204400F801AC2888B0F5167FE3D32E
:1005D0005C4800F015FADFF870A1012807D000E0B0
:1005E00003E08AF800808BF80080BDE8FC9F0222BF
:1005F0005649574804F090FE554CDFF8509148B1E9
:1006000008224946204604F087FEE0B3022000F0AD
:1006100027FCE8E7002000F023FC4D48E16804F0E7
:10062000C2FD28883178C0EBC0004218494B3E49D2
:10063000474804F068FF464804F0ACFD9DF802000E
:1006400099F80510B0FBF7F207FB12043034484666
:100650008C421BD09DF80030B3FBF7F101F130055F
:1006600007FB11310570303141709DF80110B1FB6D
:10067000F7F307FB131103F1300530318570C170BA
:100680003032027100E008E089F80540002000F0F7
:10069000DBFB01218AF80010A5E7002000F0E0FB59
:1006A0002B48E16804F07FFD28883178C0EBC0005A
:1006B0004218284B1C49264804F025FF244804F022
:1006C00069FD9DF8020099F80510B0FBF7F207FBF1
:1006D0001203303348468B4219D09DF80040B4FBDA
:1006E000F7F101F1300507FB114105703031417020
:1006F0009DF80140B4FBF7F101F1300507FB114112
:1007000030318570C1703032027189F805300020B7
:1007100000F09AFB67E700004F0000205200002025
:1007200054000020580000200C1A0020490000202E
:100730004A0000204C000020400000206C0A0020ED
:100740003C120020400100204E0000207D000020CF
:10075000D0360020600000200029016802D041F05E
:10076000010101E021F001010160704730B503682B
:10077000124ACC6813400A682243D1E905452C434C
:100780002243CC6922430C6A22434C6A22438C6A7E
:1007900022434C6B22438C6B22431A430260426912
:1007A00022F00703D1E90B2422431A4342610A696C
:1007B00042604A6882608968C16030BD3F801CF039
:1007C0007047000010B5012000F036F858B1084815
:1007D00003780021074A012B01D003780BB1117077
:1007E00000E001210170BDE81040012000F01EB8BA
:1007F000870000200500002010B5022000F01CF842
:1008000000280FD00848437800220121012B06D090
:1008100002704170BDE81040022000F007B801707E
:100820004270F7E710BD0000D000002001490860C9
:1008300070470000143C0140064A0146002012683F
:10084000044B0A4014331B680B4202D0002A00D02C
:1008500001207047003C014030B51A4A8379016895
:1008600053B313688B431360111D0B680468A343D3
:100870000B60017911440B68046823430B60114B32
:10088000083319680468A14319601C1D21680568B4
:10089000A94321604179102905D011440A680068F4
:1008A00002430A6030BD196802681143196021686B
:1008B00000680143216030BD0079104402688A431A
:1008C000026030BD003C0140F0B5002201274FF02E
:1008D000030C0B6807FA02F52B40AB422CD10668DB
:1008E00053000CFA03F4A64306600E79D0F800E03A
:1008F0009E4046EA0E0606600E79012E01D0022EB9
:1009000012D18668A64386604E79D0F808E09E40F2
:1009100046EA0E0686604668AE43466045688E79B4
:100920009640B6B235434560C568A543C560CC79ED
:100930009C40C3681C43C460521C102AC9D3F0BD3C
:100940004B07DB0E9A40C90810B500EB8100016A25
:100950000F249C40A1430162016A1143016210BD52
:1009600041837047018370474FF6FF71016000219A
:10097000017141718171C17170470AB10183704782
:10098000418370474069806880B27047D0F8CC00DE
:100990000068C0F341407047084490F89B027047DC
:1009A00000EB8100D0F85002704710B500220446D9
:1009B0001346C0F8102204EB8200C0F81432C0F8CD
:1009C0005032A01880F88C32521CD2B20F2AF2D3C7
:1009D0000820A4F8B202204603F0CCF8204602F02A
:1009E000C9FE204602F0E2FD0121204603F022F973
:1009F000204602F048FE204602F0E2FE002010BD34
:100A0000D0F81002704710B503F09EF8002010BD1A
:100A10000022431883F89B2200EB4113C3F8C02245
:100A200002F0E1BFFEE7FEE710B5802000F014F908
:100A300000280BD0012000F019F90121182000F046
:100A40003FF9BDE81040802000F098B810BD0000CC
:100A500070B50F23C278017801254FF0E026E2B18E
:100A6000124A126802F4E062C2F5E062C2F30722A1
:100A7000C2F10404D3404278A24084781C400C4B5D
:100A800014432201CA54007800F01F018D40400930
:100A900006EB8000C0F8005170BD01F01F008540DA
:100AA000480906EB8000C0F8805170BD0CED00E0F5
:100AB00000E400E002490843024908607047000072
:100AC0000000FA050CED00E0024A11400143024823
:100AD0000160704780FFFF1F08ED00E0014802F051
:100AE00024BA00004001002070470000044A002999
:100AF000116801D0014300E081431160704700009C
:100B000030380240044A0029116801D0014300E056
:100B1000814311607047000034380240044A0029C4
:100B2000116801D0014300E081431160704700006B
:100B300040380240044A0029116801D0014300E016
:100B4000814311607047000020380240044A0029A8
:100B5000116801D0014300E081431160704700003B
:100B600044380240044A0029116801D0014300E0E2
:100B70008143116070470000243802400149087029
:100B8000704700000E3802400149C86470470000F9
:100B90000000474270B5204B1968204C11F00C0141
:100BA00004D06610042903D0082903D004601BE098
:100BB000066019E0184A121F1168C1F380551168C8
:100BC00001F03F0115B1B6FBF1F101E0B4FBF1F129
:100BD00014681268C4F388146143C2F30142521CC2
:100BE0005200B1FBF2F1016019680F2202EA111103
:100BF0000B4A545C0168E14041601C68072505EA26
:100C00009424145D21FA04F484601B6805EA5333CC
:100C1000D25CD140C16070BD083802400024F400AD
:100C2000F000002002460020510901290BD00229C2
:100C30000CD00849096802F01F02012393400B42BF
:100C400000D00120704703497439F3E70149091FB7
:100C5000F0E7000074380240034A014600201268A1
:100C60000A4200D0012070470C380240024900229D
:100C70000A700870704700000238024010B5082062
:100C8000FFF7EAFF48B10820FFF778FF3120FFF7B0
:100C9000C9FF10B1012000F029F81020FFF7DCFF98
:100CA00000280CD01020FFF769FF3920FFF7BAFFAA
:100CB000002804D0BDE81040022000F01DB810BD8F
:100CC000044A0029117801D0014300E081431170EA
:100CD000704700000D380240034B1A68084322F0A9
:100CE000784210431860704708380240014908668E
:100CF0007047000000004742034A116821F00301D9
:100D000001431160704700000838024008B50349EC
:100D100001EB80000090006808BD000050280040F2
:100D200008B5034A02EB80000090016008BD000096
:100D3000502800400029018802D041F0400101E024
:100D400021F0400101807047114910B588420AD155
:100D5000841401212046FFF705FF2046BDE810401E
:100D60000021FFF7FFBE0B49884202D10121041484
:100D700004E0094988420AD10121C4132046FFF743
:100D8000D9FE2046BDE810400021FFF7D3BE10BDBC
:100D90000030014000380040003C00400246002086
:100DA00012890A4200D0012070478181704730B516
:100DB00002884C8802F441530A88CD8822438C88EB
:100DC0002C4322430C8922434C8922438C892243A1
:100DD000CC8922431A430280828B22F400628283F0
:100DE000098A018230BD0021018041808180C1805B
:100DF000018141818181C181072101827047000009
:100E00001CB504460E48012150F82400FFF76EFE81
:100E10000B480021083830F81400009001208DF8AC
:100E200004008DF806108DF8070002208DF80500EB
:100E30000448694650F82400FFF746FD1CBD000039
:100E4000A4680008E00000200349044A31F81010AB
:100E500052F82000418370479C680008E0000020A1
:100E60000349044A31F8101052F8200001837047FA
:100E70009C680008E000002070B5044622480E4639
:100E800086B050F824000121FFF730FE01218803CD
:100E9000FFF75CFE1C4800258DF81050001F8DF8F0
:100EA000135030F814000390184803A950F8240098
:100EB000FFF70AFD012E25D11348C01F015D401E1A
:100EC000005D00F027F81048801E30F814000090F4
:100ED0008DF8045008208DF8050001258DF8065086
:100EE0006846FFF7B9FC0848801F005D8DF80800D0
:100EF0000F208DF809008DF80A008DF80B5002A81C
:100F0000FFF7A6FD06B070BD98680008DC00002061
:100F10007047000010B58A0721F003040649120F3C
:100F200021440F230C6893409C430C600B68904055
:100F300003430B6010BD0000083801400CB50022CF
:100F40002E4900920192086840F4803008604FF406
:100F5000A063086800F4003001900098401C0090E5
:100F6000019810B900989842F3D108688303244887
:100F700041D501220192224A3832136843F080534E
:100F80001360204A136843F48043136002680260D0
:100F9000026842F400420260026842F4A052026019
:100FA000031F194A1A600A6842F080720A600A68D0
:100FB0009201FCD5154A40F205631360026822F0E5
:100FC00003020260026842F0020202600268C2F399
:100FD0008102022AFAD1026822F400020260084A61
:100FE0000B487C321060086840F080600860086838
:100FF0000001FCD50CBD0192EDE700000038024075
:10100000083802400070004008544007003C02408D
:10101000804000302DE9F05FFE4AFF4811880088CB
:10102000FE4B084481B2118018780025401CC0B2E4
:1010300018700A287ED1B1FBF0F0F949FA4FFB4C49
:101040000880F8491D701580088038802188884202
:1010500000D92080F748DFF8D8A300889AF800204C
:10106000411C002AF34A89B201D0F34B00E0F34B54
:10107000F04E23F810001180318840F2E7308142B1
:1010800000D13080EE49DFF8BC930888401C80B264
:1010900008800A2846D10D80D9F80000EA49401C92
:1010A000C9F800000880E94805F086F9DFF89C835C
:1010B00098F8061089B99AF80020E54882F00102F4
:1010C0008AF80020A8F10402536803601289828024
:1010D0008171E04901200870358099F80000C0074F
:1010E0004FF0010029D0FFF7AFFE20880A24B0FBA3
:1010F000F4F10322012004F0A1FBD7483988037DD5
:10110000C28A022004F05EFC38880322B0FBF4F1AE
:10111000104604F093FB98F8052098F8041004207A
:1011200004F08EFDD9F800003C21B0FBF1F201FB88
:10113000120000E008E018B106E0FFF791FED4E7E6
:10114000C6490888401C0880C5480078002871D02E
:10115000C44A9078772848D00020D178722946D0A8
:10116000002108401179742943D0002108405179A9
:101170005F2940D000210840917963293DD00021AA
:101180000840D1796F293AD000210840117A6E29A0
:1011900037D000210840B349497A662933D000216D
:1011A000DFF8C4B2DFF8C492B14CDFF8C8A208423D
:1011B0004FF05F0873D000263746324640F2255183
:1011C000484600F0F0FD012240F22661484600F05A
:1011D000EAFD01220821A848FFF7CFFBA74BDFF863
:1011E000A0C2A849DFF87CE233E00120B5E7012185
:1011F000B7E70121BAE70121BDE70121C0E70121DD
:10120000C3E70121C6E70121CAE70EEB0600827A97
:101210001A70C07A8CF80000392A0D704FEA021259
:1012200001D9A2F55C720A703928D2B2104402D9F1
:10123000373801E079E330380870C2B2924800EBE9
:101240005600027000780A78904200D00127B61C40
:10125000B6B28E4800880A388642D6DB77202070E6
:1012600063226E2366214FF07200002F60707DD0E4
:101270007426A67084F8038022716F226271A371B4
:10128000E17184F8088065216172A0720B21AAF8CF
:101290000010ABF800503A21484600F0FDFD714EB9
:1012A000B07877287ED00020F17868297BD00021A3
:1012B000084031796F2977D00021084071793F29A2
:1012C00073D0002108424FF073072ED0002240F265
:1012D0002551484600F067FD012240F2266148464C
:1012E00000F061FD012208216348FFF746FB7520ED
:1012F000207067706F20A07084F8038061202071D7
:10130000722060716D20A07184F807806B202072BC
:10131000652060727920A0720B20AAF80000ABF85B
:1013200000503A21484600F0B7FDB078722869D0E5
:101330000020F178652966D00021084031797329B1
:1013400062D000210840717974295ED000210840E4
:10135000B17961295AD000210840F179722956D01B
:1013600000210840317A742952D000E039E100218F
:10137000084232D0002240F22551484600F013FDC9
:10138000012240F22661484600F00DFD01220821AD
:101390003948FFF7F2FA7220207065216170A7705A
:1013A000742103E02BE12CE12DE12EE1E1706122BB
:1013B00022716071A17184F807806F2020726B2008
:1013C00060720A20AAF80000ABF800503A214846A3
:1013D00000F062FD2F492E480860B07873287DD058
:1013E0000020F17865297AD00021084031797429EC
:1013F00076D00021084071795F2972D00021084021
:10140000B17949E003E104E105E106E107E108E122
:1014100009E10000903100200A0000205700002060
:101420007C310020A4310020B8310020CC310020D4
:1014300040000020440000203C1200206C0A0020E4
:10144000500000203C00002042000020D40000207A
:10145000580000204F000020E03100205200002002
:1014600006000020840600201000002000440040F8
:10147000780800200C000020000C024046000020EC
:101480004700002048000020004002400E000020DD
:101490000400FA050CED00E074297DD0002108401D
:1014A000F179692979D000210840317A6D2975D008
:1014B00000210840717A652971D0002108426FD05F
:1014C000002240F22551484600F06DFC012240F216
:1014D0002661484600F067FC012203E0A5E0A6E093
:1014E000A7E0A8E00821FE48FFF747FA05F0B0F8AA
:1014F000FC48016841F080010160FA48006840063C
:10150000FBD5F84840F20711001D0160F649016063
:101510002770652262707421A17084F803802171A4
:10152000692161716D21A171E27184F808806F20D9
:1015300060726B20A072307D717D303800EB8000CE
:101540006FF02F0707EB40000844C2B2B07CF17C7B
:10155000303800EB800007EB40000844C1B2307C1B
:10156000737C303800EB800007EB40001844C0B2B9
:1015700005F03AF8B07BF17B303800EB800007EBE8
:1015800040000844C2B2307B717B303800EB8000F1
:1015900007EB4000084404E04FE050E051E052E027
:1015A0006BE0B37AC1B2303BF07A03EB830307EB15
:1015B00043031844C0B2012304F0DEFFC948001FF2
:1015C000016841F040010160001D016821F08001C7
:1015D000016004F0B1FFC54804F0EEFEDFF80C83B3
:1015E00036E07420A07084F8038022716F2262714B
:1015F000A371E17184F8088062726B2045E60120D6
:1016000052E6012154E6012157E601215AE6012064
:101610008FE6012191E6012194E6012197E601215F
:101620009AE601219DE60121A2E60120D9E60121E9
:10163000DBE60121DEE60121E1E601212FE70121C0
:1016400032E7012135E7012138E7A84804F0B4FE6C
:10165000B07AF17A303800EB800007EB40000144AB
:1016600098F802008142F0D10B20AAF80000ABF8F4
:1016700000503A21484600F00FFCB07872287CD028
:101680000020F178652979D000210840317961295D
:1016900075D00021084096494979642970D000210D
:1016A00008426ED0002240F22551484600F07BFBF4
:1016B000012240F22661484600F075FB0122082114
:1016C0008748FFF75AF98B484FF47A710088B0FBCE
:1016D000F1F202F1300301FB120023706422B0FB2F
:1016E000F2F303F1300602FB130366700A20B3FB2A
:1016F000F0F600FB163306F13007A7703033E370C5
:101700007A4B2026267193F800C0BCFBF0F707F156
:10171000300800FB17C784F805803037A77193F8AD
:1017200001C0BCFBF0F707F1300800FB17C784F8D5
:1017300007803037277293F802C0BCFBF0F707F13F
:10174000300800FB17C784F809803037A772E672AB
:1017500093F804C0BCFBF0F707F1300800FB17C793
:1017600084F80C803037677393F805C0BCFBF0F742
:1017700007F1300884F80E8004E0D8E0D9E0DAE020
:10178000DBE073E000FB17C73037E7739F79B7FBE7
:10179000F0F303F1300C00FB137384F810C0303306
:1017A0006374554BA6741B783033E374534B267522
:1017B0001B88B3FBF1F707F1300C01FB1733B3FBC8
:1017C000F2F784F815C007F1300C02FB1733B3FBB6
:1017D000F0F784F816C000FB173307F1300C84F8DB
:1017E00017C030332376464B66761B88B3FBF1F780
:1017F00007F1300C01FB1733B3FBF2F784F81AC082
:1018000007F1300C02FB1733B3FBF0F784F81BC071
:1018100000FB173307F1300C84F81CC030336377BA
:10182000384BA6771B88B3FBF1F601FB1631B1FBF1
:10183000F2F302FB1311B1FBF0F206F1300703F1F2
:10184000300600FB1210E77784F8206002F13003C5
:1018500084F82130303084F822002321AAF80010C7
:10186000ABF800503A21484600F016FB204A907829
:10187000722864D00020D178642962D00021084009
:1018800011795F295FD000210840517963295CD02C
:101890000021084091796F2959D000210840D17961
:1018A0006E2956D000210840117A662953D00021B4
:1018B000084238D00026324640F225514F4648466D
:1018C00000F071FA012240F22661384600F06BFA0E
:1018D000012208210248FFF750F8BE2114E0000061
:1018E000000C02400C28004007017F00D4000020BB
:1018F0008406002044000020560000200A0000203A
:10190000B8310020CC3100201448AAF80010825DC4
:10191000A255761CB6B28E42F9D3ABF800503A21EC
:10192000384600F0B9FA0E480570BDE8F09F012076
:10193000A7E60121A9E60121ACE60121B0E60120DC
:1019400099E701219BE701219EE70121A1E7012100
:10195000A4E70121A7E70121AAE70000E031002068
:10196000060000200F4810B5016841F00101016038
:101970000C4A00210832116002680B4B1A400260C9
:10198000031D0A4A1A60026822F480220260054898
:101990000C300160FFF7D2FA05494FF00060086093
:1019A00010BD000000380240FFFFF6FE103000249A
:1019B00008ED00E001F0D8BD10B50D4C0221204625
:1019C00000F035F8002811D00221204600F020F860
:1019D000204600F02AF881B2064841800648008877
:1019E00001442046BDE8104000F0CAB810BD000018
:1019F00000080040D00000200800002000290188D5
:101A000002D041F0800101E021F0800101807047A7
:101A1000C943018270470029018802D041F00101C9
:101A200001E021F0010101807047406B70470246E0
:101A30000020138A92890B4202EA010202D0002A96
:101A400000D001207047002A828901D00A4300E0BB
:101A50008A4382817047000070B58AB0012104205A
:101A6000FFF75CF84FF4A060FFF724F81E208DF814
:101A7000200000248DF821408DF8224001258DF8AA
:101A8000235008A8FEF7E4FF0120FFF7B9F9002072
:101A9000FFF7B6F90320FFF7B3F91A481A491B4EAE
:101AA0000068ADF81C40B0FBF1F0401E4FF6FF712E
:101AB000ADF814000691ADF8164005A9304600F0C7
:101AC00061F801213046FFF799FF1148ADF8004059
:101AD000ADF8025080880290ADF80C40694630465F
:101AE00000F018F80021304600F044F801220221ED
:101AF0003046FFF7A8FF01213046FFF78CFF0AB000
:101B000070BD000064000020706408000008004000
:101B10000400002030B5028C22F001020284028C05
:101B20008388048B22F0020224F073050C882C4376
:101B30008D8915434A882A430C4DA84202D00C4D8A
:101B4000A8420DD122F00805CA8923F440732A4324
:101B500022F004058A882A430D8A1D434B8A2B43B1
:101B60008380048389684163028430BD00000140A2
:101B700000040140028B22F008020A4302837047EE
:101B80004163704730B50288164C174DA0420DD006
:101B9000A8420BD0B0F1804F08D0144B984205D02A
:101BA000134B984202D0134B984203D122F070039A
:101BB0004A881A43104B984206D0104B984203D0E3
:101BC00022F440730A891A4302804A68C2620A8872
:101BD0000285A04201D0A84201D1897A0186012163
:101BE000818230BD0000014000040140000400403B
:101BF00000080040000C00400010004000140040AD
:101C000070B5012186B04804FEF788FF0121082045
:101C1000FEF76CFF1C4E072205213046FEF790FEB2
:101C2000072206213046FEF78BFE022520208DF884
:101C30000450002400908DF806408DF80550694648
:101C40003046FEF741FE402000908DF80450694672
:101C50003046FEF739FE4FF41650ADF80C400290B6
:101C6000ADF80E40ADF81040ADF814400C20074C14
:101C7000ADF8120002A9204600F0AEF8012120467E
:101C800000F068F806B070BD000C0240004400404F
:101C90002DE9F041274D40F225584146284600F0F5
:101CA00063F8254C0026B8B14146284600F04CF8B0
:101CB000284600F0EDF8C1B23A2902D00D2902D031
:101CC00005E0E68103E0E08960810120A0701B4A05
:101CD000E0891154401CE08140F2266739462846CD
:101CE00000F042F8002823D03946284600F02CF8AE
:101CF0002089A189884202D91148415C02E005D1BE
:101D00004FF00D01284600F0C7F809E00022082135
:101D10000C48FEF732FE01224146284600F043F807
:101D2000A089B0F5FA7F00D3A681A089401CA081CC
:101D3000BDE8F0810044004004000020840600203B
:101D400078080020000C02400A0A01219140C94392
:101D5000018070470029818902D041F4005101E0DF
:101D600021F400518181704770B501F01F050126F3
:101D70000024C1F3421306FA05F2012B0FD0022B07
:101D80000FD0838A4FEA11210088134206FA01F628
:101D900000EA060001D000B10124204670BD83890D
:101DA000F0E7038AEEE710B5C1F3421301F01F0418
:101DB0000121A140012B07D0022B07D01430002AAB
:101DC000026805D00A4304E00C30F8E71030F6E76B
:101DD0008A43026010BD00007FB50446008A0D46AC
:101DE000C98820F4405001432182A08941F20C614E
:101DF0008843A9882A8911436A8902431143A18132
:101E0000A08A20F44071A8890843A0826846FEF7A2
:101E1000C1FE1D48844202D01C48844201D103986F
:101E200000E00298A1890904002900EBC00101EB40
:101E30000010296802DA4FEA410101E04FEA81010E
:101E4000B0FBF1F06422B0FBF2F14FEA01114FEA6E
:101E500011136FF018056B4300EB8300A3891D0479
:101E60004FF0320306D503EBC000B0FBF2F000F0F8
:101E7000070005E003EB0010B0FBF2F000F00F00EC
:101E8000084320817FBD0000001001400014014084
:101E90008088C0F308007047C1F308018180704753
:101EA00030B5034600224FF6FF7403EB4205B5F848
:101EB0008C542D0404D5521CD2B2082AF5D32246E4
:101EC000A24205D003EB420041F40041A0F88C147B
:101ED000D0B230BD70B50C4600EB4311012581F83E
:101EE000AE52C1E9AE4291F8C42202B1022281F899
:101EF000B4221946FEF78CFD002070BD70B500EBD2
:101F00004314002584F8AE52C4E9AE1294F8C51209
:101F100039B1022184F8B4121946FEF779FD002088
:101F200070BD84F8B452F7E730B402240C75012474
:101F30004C750024CC820A8315064C8300EB4312B7
:101F400002D582F8C44201E082F8C542002330BCC9
:101F50001A4600F01BB8D0F8AC2401211172D0F859
:101F6000AC0400218172704770B50C4600EB431140
:101F700001F52C71012501F8025C02250D71C1E902
:101F800002421946FEF744FD002070BD70B50C46B4
:101F90001D4616464979FEF7FFFC01460120E2780E
:101FA0000346012A0AD0022A07D1012910D00329A9
:101FB00011D0042901D1E370032070BD2178617034
:101FC00009212170A660A58123770221E17070BDEF
:101FD000E370002070BDE370022070BD70B500EBAF
:101FE0004314002584F8AE52C4E9AE121AB194F835
:101FF000C51259B102E0012184F8C512022184F80A
:10200000B4121946FEF704FD002070BD84F8B452E6
:10201000F7E70B4610B500EB421101F52C710024D7
:1020200001F8024C03240C718B600823CB6011462D
:10203000FEF7EEFCC0B210BD0221002200EB41030E
:10204000491CC9B2A3F88C240829F7D30020704793
:1020500070B50C46002121706170A1700122054607
:10206000E27022774020A07184F8201084F82120AB
:102070002179284600F025F86179284600F021F8FA
:10208000002070BDD0F8AC2401215172D0F8AC040E
:102090000021C172704770B50C25044605290AD08D
:1020A000042908D006290BD12570D0F880000068DB
:1020B000BDE870400047D4F88000406C8047257030
:1020C00070BD082908D200EB410000F28C41B0F845
:1020D0008C04C0F30E0008800020704730B442F03A
:1020E0008002DDE902540A7506224A750322CB827A
:1020F000B2EB132F02D140F2094200E000220A8322
:102100004C8323462A4630BCFFF740BF0A88037839
:102110001A440A800178084470472DE9FC411546AD
:1021200000F58876CDE900650C464FF40073002277
:10213000FFF7D4FF070009D1334604F1500204F140
:102140003E0104F13400009500F06BFF3846BDE815
:10215000FC817CB51646044600F58870CDE9000682
:102160000D464FF4807300222046FFF7B7FF00288A
:1021700030D104F58874082E217805F8221F617883
:102180006970A178E27801EB0221698021792971D7
:1021900061796971A179A971E179A4F58874E9710E
:1021A00018D904F58C742178627801EB0221298119
:1021B000A178E27801EB022169812179627901EB52
:1021C0000221A981A179A973E179E973217A29749E
:1021D000617A69747CBD7CB500F58875069E1C46E5
:1021E000CDE9005642F440730022FFF777FF002844
:1021F00014D16978032911D129788A1EB24200DCF2
:102200001646AD1CB2B2002104E06B5C891C04F8D8
:10221000013B89B29142F8D3002121707CBD0000BE
:102220002DE9F05F002680468E74087F0B25092774
:10223000DFF8B8910C464FF0080B4FF0050A0C2858
:1022400017D2DFE800F0CF060E3941576879829C3B
:10225000ADC1627904F114014046FFF7DAFE0220B5
:1022600065E061794046FEF797FB012802D003281C
:102270001ED0B7E0207D618B00F0800051B141F2AB
:102280008832A9F80020802802D084F81CA008E039
:10229000032005E03222A9F80020802806D007207C
:1022A00020774046FEF76EFB20829BE02777F8E719
:1022B000257784F812A095E02379227B4046A16817
:1022C000FFF752FE042032E021794046FEF764FB1E
:1022D00001280DD0042870D0032873D04046FEF7A3
:1022E00051FB218A411AB9F8000081426AD879E08D
:1022F0002777F3E7617908EB411090F8C51281F078
:10230000010180F8C5126379227B4046A168FFF77E
:1023100065FE06200BE061794046FEF73DFB012893
:1023200004D0042849D0022803D041E007202077B8
:1023300058E084F81CA055E000222379114640465D
:10234000FFF712FE84F81CB04CE021794046FEF7FE
:1023500023FB0746012830D0032F33D04046FEF739
:1023600011FB218A411AB9F8000081422AD8042FB2
:1023700038D1607820700420A074032632E061799F
:10238000002208EB411090F8C51281F0010180F89D
:10239000C512637911464046FFF720FE0A20C6E7C2
:1023A00061794046FEF7F8FA012806D0022807D0E6
:1023B000032807D016E000E004E06078207011E008
:1023C00027770FE025770DE0A07B401CC0B2A073FB
:1023D000022802D80120087704E084F812B060785F
:1023E000087002263046BDE8F09F00000001002082
:1023F0002DE9F0410C468046012589780026FF2012
:1024000092B02F460A2952D2DFE801F0052332525A
:102410005B6D8097AAB4082221464046FFF799FEDB
:10242000002844D194F82900A0714046FEF7EBFA49
:10243000A770A0790023CDE9006061791A46404673
:1024400000F05AFDA0790023CDE9006021791A46F9
:102450002AE0122221464046FFF77BFE002826D1C3
:10246000D4F88000C16904F12200884702207FE08F
:1024700001222146404600F01EFF00287BD1A41C0B
:10248000A777D4F87E00006A80470320207000966A
:102490000196A27FA1780023404600F02DFD009612
:1024A0000196A27FE1780023404600F025FD62E01E
:1024B000092221464046FFF730FE00285BD1042068
:1024C00056E0E28E21464046FFF727FEA0BBD4F837
:1024D000800004F1500204F13E01436A04F134002B
:1024E0009847052044E094F83020062652B1009029
:1024F00002AB21464046FFF76EFEE8B9D4F88000F3
:10250000816A11E0D4F88000816A12E094F83120E9
:1025100007265AB1009002AB21464046FFF75BFE0A
:1025200050B9D4F88000C16A02A803E0D4F8800052
:10253000C16A13A08847A6701DE094F832200826CF
:1025400052B1009002AB21464046FFF744FE90B9DD
:10255000D4F88000016BE7E7D4F88000016BE8E76E
:1025600094F839202146404600F0B1FE18B9092000
:10257000A07000E0002512B02846BDE8F081000000
:102580004E2F41002DE9F0411E461446884605466F
:10259000069F00F08DFF002000F03EFF21462846F8
:1025A000FFF756FD7C340B49C4E9006740F2AC40AC
:1025B0000022C5F8AC140A724059414642722846BE
:1025C000FEF7F3F96068006880472846BDE8F041EF
:1025D00000F04EBF0401002070B504460A4D0120F2
:1025E00012B1012A08D102E02B78EA7801E06B7879
:1025F000AA782046FFF798FC044AD168491CD160AC
:10260000042900D9042070BD343B002010010020B3
:102610000149002008707047243B002070B5054632
:102620000124FEF7EDF9D8B1104801782846FEF7ED
:10263000B7F90D2813D10E480E4A016891420ED108
:10264000A0F1200241685268914209D1007B20B17B
:10265000012805D0022802D002E0002400E0022474
:1026600003481030C473204670BD0000343B002086
:10267000143B0020555342530A490A23012802D033
:1026800002280CD07047084A1078401CC0B2107065
:102690000A2804D2062008700120C87070470B7009
:1026A00070470000243B0020200100202DE9F05F4E
:1026B0000E4681460124FEF7A3F900282AD0514D89
:1026C0000027DFF844B12878DFF840814FF0080A8E
:1026D0000B281FD2DFE800F0060B2359626D757DD1
:1026E000824D9100484600F095F9012013E0212227
:1026F0003275FF227275F7823783002348463146D0
:1027000077831A46FFF742FC04004FF0020002D024
:10271000032C02D072E0287070E0687027E0A122DC
:102720003275FE227275F78237830127364A484692
:10273000314677833B460832FFF728FC04004FF010
:10274000030202D0032C11D058E09BF808008BF84C
:10275000480010B198F8011009B12A704EE088F8CD
:102760000170D6F88000006C804747E06A7009204D
:10277000D1E77379002231464846FFF7D5FB0400C4
:102780003CD18BF848706878C5E7484600F026FBD6
:1027900008B9042008E0FFF76FFF2FE0484600F07B
:1027A0007DFA0028F7D10520287088F800700024F1
:1027B00024E0484600F0B8F90028ECD185F800A0E4
:1027C000F3E7484600F0BAFA0028E4D168782870A8
:1027D000EDE73146484600F01BF80FE0D6F88000E0
:1027E000C06B804710F0FF0002D0012803D005E045
:1027F00085F800A002E0062400E004242046BDE89D
:10280000F09F0000243B0020343B002020010020EA
:102810002DE9F35F0098FEF7F3F8002821D07A4CF9
:1028200005277A4A20797A4D00264FF008094FF0A3
:10283000070B4FF002084FF0010A092811D2DFE818
:1028400000F010051233609EB3C9D5006E4953786D
:102850001F2230390098FFF751FB84F805A084F857
:102860000480BDE8FC9F51780098FEF795F8012898
:1028700006D002286BD00428F3D185F800A0B2E07E
:102880006148EE60303884F80580017B806801F093
:102890008001002866D06860A068A860802901D007
:1028A0000420AFE00320ADE0904611780098FEF7D9
:1028B00073F8012802D0617903291CD00320EE604F
:1028C0006071686840280DD998F800304022A968E6
:1028D0000098FFF7FFFA686840386860A8684030E1
:1028E000A860BEE790B382B298F80030A96800985B
:1028F000FFF7F0FA34E00428B3D12E7084F804B066
:102900000EE0904651780098FEF746F8012809D06D
:10291000022829D00428A4D185F800A084F80490C6
:1029200067719EE70420EE606071686840280FD9E7
:1029300098F801304022A9680098FFF7DFFAA868EC
:102940004030A8606868403868608AE70AE058E06C
:1029500040B182B298F80130A9680098FFF7CEFA2A
:102960006E607EE727717CE7A96898F801300098CF
:1029700002B04022BDE8F05F4039FFF7BFBA2249FC
:10298000677110393F20A160A0810D200D462E54A3
:10299000401E10F0FF00FAD12E7013783F220098ED
:1029A000FFF798FA06202DE011780098FDF7F4FF64
:1029B000012805D0042894D12E7084F804B050E783
:1029C000EE606771A0782070DDE90001FFF726FE58
:1029D000E07346E7DDE900010022FFF7FDFD58B98D
:1029E000287802280DD184F804903AE7DDE9000147
:1029F0000122FFF7F1FD20B1042892D184F80F8065
:102A00002FE7607920712CE7243B0020343B002025
:102A10001001002010B5FDF7F3FF002148B1084870
:102A2000064A0260074A42604173054A012030327B
:102A3000D0700548C1600548017010BD5553424330
:102A4000F43A0020504030201001002020010020E6
:102A500070B50C4C06460025617831B100F02FFFAF
:102A600061783046FFF72DFB65702178002907D08B
:102A7000304600F024FF21783046FFF722FB257016
:102A800070BD0000343B00202DE9FC41064691F862
:102A900043000C46082803D194F84500502806D07E
:102AA000D1F88000006C80470020BDE8FC8194F8DC
:102AB00052001C4D010604D5E870B4F85400A880FB
:102AC00003E0A870B4F85400E88094F85A000106B6
:102AD00004D5E870B4F85C00A88003E0A870B4F8EE
:102AE0005C00E880A9783046FFF7DAF96870E97889
:102AF0003046FFF7D5F92870E8880227CDE9007045
:102B00002034697863782278304600F062FAA88829
:102B1000CDE90070637822782978304600F059FAC0
:102B2000C2E70000343B002070B50324FDF768FFC6
:102B300030B3214D214E0022E8780123012802D034
:102B4000022836D11DE01E493F2480208C60087386
:102B50000A2088730520AE60A87010200E18401E51
:102B6000F27310F0FF00F9D11A20C8734C74CC74C2
:102B70002B71072028700320E8730220E8700324DB
:102B800017E0E87B20B101280ED002280FD010E01A
:102B9000B07801060948A0F1100001D5037300E0E8
:102BA0000273EB70002404E0EB70012401E0EB7091
:102BB0000224204670BD0000243B0020903B0020F2
:102BC000F43A00202DE9FF4F314D81B04FF0030959
:102BD00085F80090984614460198FDF711FF0028EB
:102BE00052D02C4F01264FF0020BF8784FF0000A1C
:102BF000012802D0022847D12DE0274980205246E3
:102C0000C1F8088008730A2088730298B860102001
:102C10000B18401EDA7310F0FF00F9D12820C8739A
:102C2000200E4874200C8874200AC8740C75C8F3F0
:102C30004F20ADF800009DF8010088759DF8000058
:102C4000C8753E710720387087F80F9087F803B079
:102C500085F8009018E0F87B38B90198FDF7D0FEB0
:102C600018B1FE7085F800A00EE0F87B012805D1B0
:102C70000198FDF7C5FE08B1FE7005E0F87B02285B
:102C800002D1FE7085F800B0287805B0BDE8F08F5D
:102C900035010020243B0020F43A002070B50324C5
:102CA000FDF7AEFE20B3224D01232248E978012929
:102CB00002D002293AD11CE01F4908228A608022F2
:102CC0000A730A228A73A8600420A87010200022C8
:102CD0000C18401EE27310F0FF00F9D12520C873D4
:102CE0002B71072028700320E8730220E87003246A
:102CF0001CE0E97B21B1012913D0022914D015E091
:102D00000C49027810390024CA7042788A7082789F
:102D10004A70C2780A7082794A72C0790872EB7080
:102D200004E0EB70012401E0EB700224204670BD4A
:102D3000243B0020903B0020F43A002070B503248F
:102D4000FDF75EFE38B3224D0123224AE8780128C0
:102D500002D0022839D11FE01F493F2480208C6017
:102D600008730A208873AA60A87868700620A87083
:102D7000102000220E18401EF27310F0FF00F9D14F
:102D80000320C8730A74CC742B7107212970E8736F
:102D90000220E870032418E0E87B20B101280FD05E
:102DA000022810D011E00B48117810380024C171AE
:102DB0005178817191784171D1780171EB7004E0A3
:102DC000EB70012401E0EB700224204670BD00008E
:102DD000243B0020903B0020F43A002070B50324EF
:102DE000FDF70EFE10B31A4D0123E878012802D03A
:102DF00002282BD11BE01749002206208A600A73A3
:102E000088731548A8603F20A8810324AC70102067
:102E10000E18401EF27310F0FF00F9D1CA732B7127
:102E200007202870EC730220E87003240EE0E87B92
:102E300020B1012805D0022806D007E0EB7000245D
:102E400004E0EB70012401E0EB700224204670BD29
:102E5000243B0020F43A0020143B0020F8B51E4625
:102E600015460F460324FDF7CBFD80B3204B01220E
:102E7000D878012802D0022838D129E01D4C002141
:102E80000A20A6602173A07310209F602718401E9F
:102E9000F97310F0FF00F9D12A20E073280E607456
:102EA000280CA074280AE0742575C6F34F20ADF8ED
:102EB00000009DF80100A0759DF80000E0751A71F2
:102EC000072018700320D8730220D87003240DE067
:102ED000D87B20B1012805D0022805D006E0DA70A1
:102EE000002403E0DA7001E0DA7002242046F8BD25
:102EF000243B0020F43A002070B500EB4114059DFE
:102F00000AB184F8AC22B4F8B222AA4202D00DB1C0
:102F1000A4F8B25294F8AF229A4202D00BB184F8CE
:102F2000AF3200F0EAFC002070BD38B50546002441
:102F300000200090284600F0E2FD002847D02846F7
:102F400000F0E4FD0090009808B9002038BD00981A
:102F5000C0F3C00018B1284601F028FD04430098D2
:102F6000C0F3001018B1284601F06EFC044300982D
:102F7000C0F3401018B1284601F0ADFA04430098A0
:102F8000C0F3806018B1284601F0C7FB04430098E5
:102F9000C0F3406018B1284600F09BFE044300983F
:102FA000C0F3006018B1284601F02BFB04430098E1
:102FB000C0F3407018B1284600F051FE0443009859
:102FC000C0F3405018B1284600F060FE044320468C
:102FD000BCE72DE9F04100EB4104DDE9066704F2AE
:102FE0008C4594F88C4404F07F0C00EB411404F5FC
:102FF0002B7484F801C02D78C5F3C015A57022701C
:103000006671E780E370002222766276A4F52B7465
:1030100013B9012284F8B02200F06FFC0020BDE853
:10302000F0812DE9F8439046894606461978089ABA
:103030003170597871709978DC78184601EB042169
:103040007180197931715C7974719C79B471DC7912
:10305000F471037A3372092A15D90922ADF80020D8
:10306000022910D800270BE06946FFF74FF8417896
:1030700004290AD00178BDF800201144ADF80010F1
:103080003179B942F0DCBDE8F88307EBC70202EB07
:10309000090401782170417861708178A170C1784C
:1030A000E17001792171417961718179A171C179F1
:1030B000E171017A21722179002502290CD90EE0F3
:1030C0006946FFF723F8417805290BD00178BDF850
:1030D00000201144ADF800102179A942F0DC7F1CDA
:1030E0007FB2CDE708EBC50102780A7042784A70DA
:1030F00082788A70C278CA70027943796D1C02EBBB
:1031000003228A8082798A716DB2E5E72DE9FC4756
:1031100002270C4605468DF8007009784FF000082C
:103120004FF0010904F1200A00F2AC460D290FD23C
:10313000DFE801F00F07199D9D9D5770838B629DFD
:1031400090002846FDF75FFC002801D184F800803C
:103150008DE02846FDF754FC002803D02846FEF7F2
:103160006BFF277083E0D4F8800080688047D5F833
:10317000AC04474680F809803168284681F80A90F7
:103180000021FEF78DFE607180212846FEF788FE43
:1031900020712846FDF737FC002868D1241DE06F18
:1031A000C06880472846FDF7F1FBC0B26077062172
:1031B00004F8041CE16F89698847A078CDE90070A4
:1031C000637F227F21782846FFF703FFA078CDE9AF
:1031D0000070637F227F6178241F2846FFF7F9FE85
:1031E00045E021462846FFF703F9F8B9D4F88000F6
:1031F000406B80470A2018E0D4F88000806B80473D
:10320000012834D1E06F214602682846904768B90A
:1032100007200AE0E06F21468268284690478DF833
:1032200000009DF8000010B9082020701FE09DF8F4
:1032300000102046FEF72FFF19E0E06F2146C2681C
:10324000284690478DF80000F1E721462846FEF712
:10325000E7FF0CE021462846FEF7FAFED4F880008E
:1032600040688047E06F51464268284690472846AC
:10327000FDF7C6FB00281CD1D5F8AC04C07A0028A5
:1032800017D1D4F8800000698047D5F8AC142846DF
:1032900081F80B902146FEF7DBFED4F880004068F1
:1032A0008047E06F5146426802B02846BDE8F047CB
:1032B0001047BDE8FC8730B400230B7505244C751E
:1032C000CA820B834B8330BC1A46FEF75FBE30B414
:1032D00000230B7509244C75CA820B834B8330BCC9
:1032E0001A46FEF753BE7047014900200870704728
:1032F0007C000020704700001CB5684603F05CF8B5
:103300009DF800300A21B3FBF1F202F130041848B5
:1033100001FB12320470303242709DF80130B3FB71
:10332000F1F202F1300401FB123284703032C270CB
:103330009DF80230B3FBF1F201FB123102F13004CF
:103340000471303141712E2181716321C17173216A
:103350000172762141720220FDF776FD0320FDF710
:103360007FFD012202210348FEF76DFB1CBD00001A
:103370007D0000200008004010B50320FDF764FD2B
:103380000220FDF761FD0020FDF75EFD0022BDE893
:10339000104002210148FEF756BB00000008004023
:1033A00070477047704710B54FF4FA7000F0F8F8A6
:1033B000BDE8104000F002B87047000010B50F4C97
:1033C000207810B101280ED113E00D49002001F042
:1033D00093FF10B14FF0FF3010BD0A48007B012869
:1033E00003D001202070002010BD0220FDF738FD21
:1033F000FBE7FDF76FF80020F4E700007C000020F9
:10340000A0320020803B0020704770477047704713
:1034100070477047012070471CB501210420FDF75B
:1034200065FB022101208DF8051000908DF8040045
:1034300000208DF80600074C8DF8070069462046ED
:10344000FDF742FA01212046FDF78CFAC82000F072
:10345000A7F81CBD00080240044800294FF00101F4
:1034600001D0FDF77DBAFDF77DBA000000080240EB
:1034700038B54FF4C060FDF71DFB43208DF8000008
:1034800001248DF801408DF802408DF80340684614
:10349000FDF7DEFA17208DF800008DF801400220BC
:1034A0008DF802008DF803406846FDF7D1FA38BD6B
:1034B000FEB501210846FDF719FB4FF4D050032655
:1034C00000908DF8056002208DF804000025254F3E
:1034D0008DF806508DF8075069463846FDF7F4F927
:1034E0000A2209213846FDF72BFA0A220B21384619
:1034F000FDF726FA0A220C213846FDF721FA0124AD
:1035000038158DF8064000908DF807408DF805605D
:1035100069463846FDF7D8F90A2211463846FDF7C4
:103520000FFA01218803FDF711FB01218020FDF72F
:10353000E9FA0021E006FDF7C7FA4FF4A060FDF7B5
:10354000B9FA1C208DF808008DF809508DF80A4052
:103550008DF80B4002A8FDF77BFA01210846FDF724
:10356000DDFAFEBD0000024010B501218C072046A7
:10357000FEF75DFA002809D001212046FEF748FA3F
:1035800006490A681AB10868401E086010BD204646
:10359000BDE810400021FEF73EBA00007800002090
:1035A0000121FCF74FBF0221FCF74CBF70B5044668
:1035B000017A0025C06801290CD0C16841F04001A2
:1035C000C160204600F0AAF8217A4FF48030032928
:1035D0001DD01EE0816B627A21F480310AB141F482
:1035E00080118163E068C16821F0401121F08801F9
:1035F00021F4202141F01001C160204600F08EF836
:10360000E07801283DD1E1682A2088602EE04FF45F
:103610004030617A40F4301009B140F48010E16824
:1036200088631420FFF7BCFFE168C868227A032A88
:1036300001D140F48030C860207A032816D1E068B8
:10364000016B21F0406101F1806121F47F0141F0C3
:10365000805606F534160663C820FFF7A1FFE1681F
:1036600046F400000863C820FFF79AFFE0780128BD
:1036700007D1E068816821F01E010A3141F0200184
:103680008160284670BD2DE9F041002704463D4683
:103690003E46FFF7C1FED4F80C010660012120462A
:1036A00000F021FA6069016821F004010160E07A0C
:1036B000012813D1E06880214162304661F30F0098
:1036C000E268602161F31F409062E022304662F3BD
:1036D0000F0061F31F40E168C1F80001102120468E
:1036E00000F0B6F8204600F095F84FF0FF3107E003
:1036F00004EB850050F8902F91600068C6606D1C47
:103700002078A842F4D80121204600F03BF820465A
:1037100000F05EF83846BDE8F0810000F8B50026FC
:10372000044637460096124D0320FFF73CFFE06841
:10373000006900907F1CAF4201D90020F8BD0098BD
:103740000028F1DA0098002140F001000090009874
:10375000E2681061E06802690092491CA94202D83F
:10376000009AD207F7D10320FFF71DFF3046F8BDBE
:10377000400D0300C0680022816821F001018160D2
:103780001046704770B50C460546FFF765FE2846A3
:1037900000F0C1F9C10408D4012C0CD1D5F8CC102B
:1037A00040F480500860C10405D524B9D5F8CC1088
:1037B00020F480500860BDE87040C820FFF7F0BEDC
:1037C000C0680022816841F00101816010467047A5
:1037D00010B5C268002319469361C4685A1E62611D
:1037E000C4686260C4686261C468094AA261C27840
:1037F00002B91021C06841F00C5141F00801826902
:1038000041F400118A430A438261184610BD00004A
:103810000008008038B50024024621460094009834
:1038200040F0100000900098D36818610748D268F3
:1038300013690093491C814202D8009BDB06F7D430
:103840000320FFF7B0FE204638BD0000400D030006
:1038500038B50024034622460094009840F020002A
:103860000090009861F38A1000900098D968086170
:103870000748D9680B690093521C824202D8009B0A
:103880009B06F7D40320FFF78EFE204638BD0000CC
:10389000400D030010B500EB8100002350F8901F8D
:1038A0004FF00042012464F3DC420A6100680168C1
:1038B00021F0804141F000410160184610BD10B573
:1038C00000EB81010023D1F89020116841F04041C4
:1038D00011F4402F09D0C1F38144022C05D0406976
:1038E000006910F47F0F03D004E0C068C06AF8E7F5
:1038F00021F000411160184610BDF0B500EB8106C3
:103900000027D6F890403D467B1E2A46A360C37828
:10391000012B00D1042200EB411393F8B14234B1E2
:10392000012C1FD0022C02D0032C27D10EE042F034
:10393000890293F8AE4242F4826284B993F8B042AD
:1039400042F04002D4B142F0200217E093F8AEC238
:1039500042F0990242F4C062BCF1000F0ED042F472
:1039600080720BE093F8AEC242F0010242F408729A
:10397000BCF1000F02D042F08002F0E7D6F8904090
:10398000E26001228A4041698C6914438C61C068FD
:10399000816941F00071816193F8AC0260F39C553C
:1039A00093F8AD0260F3CE2593F8AE0260F3CF3505
:1039B00093F8AF0202280CD025F4003093F8B1122E
:1039C000B3F8B22261F3934062F30A00032903D0F3
:1039D00004E045F40030F1E740F00050D6F89010D4
:1039E00008603846F0BDF0B500EB41140026D4F86D
:1039F000BC3205464FF4807C37466BB1B4F8B22236
:103A00009818401EB0FBF2F080B2604505D9120252
:103A10006046C4F8BC2200E0012094F8AE22AAB1AE
:103A2000B4F8B2224243C4F8BC2262F3120760F336
:103A3000DC4794F8B40205EB810260F35E77D2F8BC
:103A400090000761E878012803D007E0D4F8BC2291
:103A5000EBE7D2F89030D4F8B802586152F8900FE2
:103A60000368284600F045F860F35D73126823F0A0
:103A7000804040F000401060E87890BB94F8AE02BF
:103A800078BBD4F8BC2262B394F8B10230B10128FB
:103A900010D0022802D0032819D10BE0E868C36ACD
:103AA000D21CC2F38F029BB2934210D2826942F0C1
:103AB00020020BE068690069D21CC2F38F0280B259
:103AC000904204D2E868826942F080628261B4F870
:103AD000BC020A4683B2D4F8B8020146284600F078
:103AE00073FF3046F0BD4069026861F30102026075
:103AF00070474069806840F30000401C7047C06810
:103B0000406910F0010000D001207047C068416991
:103B1000806908407047D0F8CC00006820F02E0083
:103B2000704740694069704710B504460023D21CB5
:103B30009008D4F8D02003E0146841F8044B5B1CD3
:103B40008342F9D3084610BD70B50546FFF7E3FF81
:103B500040F4807455F8CC0F04600A20FFF720FD74
:103B6000296824F4807008601420FFF719FD0120F3
:103B700070BD000070B500220123C2704026837022
:103B8000154614468680012901D061B114E0C37244
:103B90000821017004214FF0A04241709115C180AD
:103BA0000221017208E0C4720C21017006214170EB
:103BB0001F4A4FF4A061C18002F50061C0E90321F2
:103BC00000210AE002EB411303F5106600EB8104CB
:103BD00003F53063A661491C636543788B42F1D8D5
:103BE00002F5806141614031C0F8CC10002108E04D
:103BF00002EB411300EB810403F5A063491CC4F8F8
:103C0000903003788B42F3D8002108E002EB0133B7
:103C100000EB810403F58053491CC4F8D0300378CD
:103C20008B42F3D802F56062C0F80C21284670BDC3
:103C30000000044010B5C3680024D868012920F0B2
:103C4000C04201D019B104E042F0005201E042F05C
:103C50008042DA603220FFF7A3FC204610BD38B561
:103C600004460021C4F8101200200090D4F8AC04DF
:103C7000016820468847009820F0005000F100506D
:103C800000900098E1684861012038BD0CB50146FC
:103C9000D1F8900000680090009820F0004000F1FA
:103CA00000400090009820F0804000F1804000909B
:103CB000009AD1F89000026000200190019820F451
:103CC000001000F5001001900198CA6850610120B1
:103CD0000CBD7CB50546002400262846FFF721FFD1
:103CE000019000BF1BE0019880B20121A140084271
:103CF00014D005F1900050F824000068009000985E
:103D0000C0F3C03028B12146284600F00DF8064324
:103D100004E02146284600F01AFA0643641C28787D
:103D2000A042E0D830467CBD70B586B005460C4652
:103D300005F1900050F82460B0680590F068049098
:103D4000DDE904100840059005F1900050F82400CA
:103D500000680390002004900598C0F38000D0B163
:103D600000200190019820F00400001D01900198AE
:103D7000B06005F1900050F82400C06801900198EF
:103D800020F00200801C019005F1900050F8240002
:103D90000199C16073E00598C0F3401048B100205C
:103DA0000190019820F02000203001900198B0602F
:103DB00065E00598C0F3C00078B305F1900050F8B5
:103DC0002400C0680190019820F00200801C01903E
:103DD00005F1900050F824000199C160052105F516
:103DE0002370015500200190019820F01000103040
:103DF00001900198B06000200190019820F0080027
:103E0000083001900198B060059820F010000590EE
:103E1000E1B22846FFF753FD31E0FFE70598C0F314
:103E2000802060B305F1900050F82400C068019034
:103E3000019820F00200801C019005F1900050F8DC
:103E400024000199C160E1B22846FFF738FD002047
:103E50000190019820F01000103001900198B0609E
:103E6000082105F52370015500200190019820F4E8
:103E7000806000F5806001900198B06000BF0598F7
:103E8000C0F34020F8B105F1900050F82400C0685C
:103E90000190019820F00200801C019005F1900033
:103EA00050F824000199C160E1B22846FFF707FDF0
:103EB00000200190019820F4007000F5007001903E
:103EC0000198B06040E1059810F0010F71D0E878DA
:103ED000012812D105F1900050F8240000690290E9
:103EE00005F52B7000EB441000690299C1F3120133
:103EF000411A05F5147040F82410012105F52370CE
:103F000001550021783840F82410002001900198D4
:103F100020F00100401C01900198B0600398C0F3AC
:103F2000814020B10398C0F3814002282AD105F1D5
:103F3000900050F82400C0680190019820F0020021
:103F4000801C019005F1900050F824000199C16097
:103F5000E1B22846FFF7B3FC00200190019820F061
:103F60001000103001900198B06005F52B7000EB47
:103F70004410007E80F0010105F52B7000EB441029
:103F80000176E1E00398C0F3814003289AD10398B9
:103F900020F0005000F10050039005F1900050F81F
:103FA000240003990160012105F29B200155CBE01B
:103FB000FFE70598C0F34000002851D005F19000BC
:103FC00050F82400C0680190019820F00200019090
:103FD00005F1900050F824000199C16005F52370A7
:103FE000005D012804D1012105F29B2001552DE03F
:103FF00005F52370005D052804D1042105F29B20FE
:10400000015523E005F52370005D062804D005F571
:104010002370005D082808D1002105F5057040F8DF
:10402000241003218730015510E00398C0F381402C
:1040300003280BD105F52B7000EB4410007E80F0B7
:10404000010105F52B7000EB441001760020019072
:10405000019820F00200801C01900198B06073E08C
:104060000598C0F3C01040B305F1900050F824004B
:10407000C0680190019820F00200801C019005F1B9
:10408000900050F824000199C16005F5057050F8C2
:104090002410491C40F82410062178300155E1B263
:1040A0002846FFF70CFC00200190019820F08000CA
:1040B000803001900198B06046E00598C0F3001090
:1040C000F0B30398C0F3814003281ED105F190009E
:1040D00050F82400C0680190019820F00200801C74
:1040E000019005F1900050F824000199C160E1B2FF
:1040F0002846FFF7E4FB00200190019820F0100013
:10410000103001900198B06018E00398C0F381402E
:1041100020B10398C0F3814002280FD1039820F00A
:10412000004000F100400390039820F0804003908D
:1041300005F1900050F8240003990160032100E08C
:1041400002E005F523700155012006B070BD7FB572
:1041500005460C4605F1900050F82460B0680390C5
:10416000F0680290DDE902100840039005F190002C
:1041700050F82400006801900398C0F38000D0B18B
:1041800000200090009820F00400001D009000988E
:10419000B06005F1900050F82400C06800900098CD
:1041A00020F00200801C009005F1900050F82400DF
:1041B0000099C1608CE10398C0F3401048B1002021
:1041C0000090009820F02000203000900098B0600F
:1041D0007EE1039810F0010F27D0002105F505704E
:1041E00040F8241005F1900050F82400C0680090B9
:1041F000009820F00200801C009005F1900050F81B
:1042000024000099C160E1B22846FFF758FB002066
:104210000090009820F00100401C00900098B060D1
:10422000012105F52370015552E10398C0F3C00048
:1042300010B300200090009820F008000830009093
:104240000098B06005F1900050F82400C06800901C
:10425000009820F00200801C009005F1900050F8BA
:1042600024000099C160E1B22846FFF728FB052130
:1042700005F5237001552BE10398C0F3001038B306
:10428000002105F5057040F8241005F1900050F864
:104290002400C0680090009820F00200801C00906C
:1042A00005F1900050F824000099C160E1B2284661
:1042B000FFF705FB00200090009820F01000103060
:1042C00000900098B060032105F523700155FFE0D0
:1042D0000398C0F3C01040B305F1900050F82400DB
:1042E000C0680090009820F00200801C009005F14A
:1042F000900050F824000099C160E1B22846FFF711
:10430000DEFA05F5057050F82410491C40F8241019
:1043100006217830015500200090009820F08000A0
:10432000803000900098B060D2E00398C0F3801015
:1043300038B3002105F5057040F8241005F1900010
:1043400050F82400C0680090009820F00200801C03
:10435000009005F1900050F824000099C160E1B28E
:104360002846FFF7ACFA00200090009820F04000AB
:10437000403000900098B060042105F5237001558D
:10438000A6E00398C0F3802060B305F1900050F8D8
:104390002400C0680090009820F00200801C00906B
:1043A00005F1900050F824000099C160E1B2284660
:1043B000FFF785FA00200090009820F010001030E0
:1043C00000900098B060082105F523700155002089
:1043D0000090009820F4806000F5806000900098C4
:1043E000B06075E00398C0F34000002870D005F17C
:1043F000900050F82400C0680090009820F002005F
:10440000009005F1900050F824000099C16005F576
:104410002370005D012815D1012105F29B20015573
:104420000198C0F38140022848D105F52B7000EBBC
:104430004410407E80F0010105F52B7000EB441024
:1044400041763BE005F52370005D032804D102218D
:1044500005F29B20015531E005F52370005D04282D
:104460000FD105F52B7000EB44100079012803D122
:10447000E1B22846FFF70EFA022105F29B20015512
:104480001CE005F52370005D052804D1042105F228
:104490009B20015512E005F52370005D06280DD123
:1044A00005F5057050F82400032807D1032105F213
:1044B0009B2001550021873840F8241000200090EF
:1044C000009820F00200801C00900098B06000BFAF
:1044D000012004B070BD7CB50446E068C06A00905D
:1044E0000098C0F3417104F52B7000EB4110006996
:1044F000C01CC0F38F0673E04FF6FF71009801EA0D
:1045000080050098C0F3417104F52B7000EB411059
:104510000069A84215D20098C0F3417104F52B70D0
:1045200000EB4110008A85B200200190019820F034
:10453000200020300190E068806901998843E1689B
:1045400088610098C0F3417104F52B7000EB4110B5
:104550000069C01CC0F38F060098C0F34172C0F31D
:10456000417304F52B7000EB43102B46C1682046C5
:1045700000F02AFA0098C0F3417104F52B7000EBAB
:104580004110C06841190098C0F3417204F52B70C6
:1045900000EB4210C1600098C0F3417104F52B702C
:1045A00000EB41100069411B0098C0F3417204F513
:1045B0002B7000EB421001610098C0F3417104F5CB
:1045C0002B7000EB4110406941190098C0F3417213
:1045D00004F52B7000EB42104161E068C06A009066
:1045E000009880B2B0420ADD0098C0F3417104F532
:1045F0002B7000EB4110006900287FF47DAF012093
:104600007CBDFEB5044600260025002000900290E7
:104610000190D4F8CC0000680290D4F8CC00006877
:104620000190019820F004000190019820F0020010
:104630000190019820F008000190019820F02000DE
:1046400001900298C0F3400060B1D4F8AC04416816
:1046500020468847019820F00200801C0190012626
:1046600045F001050298C0F3C000002840D0019831
:1046700020F00800083001900298C0F38000002864
:1046800036D00121C4F810120298C0F3414002282C
:1046900004D00298C0F34140012828D16069006825
:1046A00000900298C0F34140022811D141F270718C
:1046B00060694160009800F00300022818D0E07A99
:1046C000012803D102212046FFF70DFA01260FE051
:1046D0004BF6803160694160009800F003000128CA
:1046E00006D001212046FFF7FEF9012600E0012651
:1046F0000298C0F3401030B1019820F02000203023
:10470000019045F0010516B12046FFF71DFA019909
:10471000D4F8CC0001602846FEBD7CB50446606933
:10472000006900900098C0F3417104F52B7000EB14
:1047300041100069C01CC0F38F0674E04FF6FF7192
:10474000009801EA80050098C0F3417104F52B70D0
:1047500000EB41100069A84216D20098C0F34171E5
:1047600004F52B7000EB4110008A85B20020019007
:10477000019820F0806000F180600190E06880691D
:1047800001998843E16888610098C0F3417104F59C
:104790002B7000EB41100069C01CC0F38F0600981D
:1047A000C0F34172C0F3417304F52B7000EB43106A
:1047B0002B46C168204600F007F90098C0F341710C
:1047C00004F52B7000EB4110C06841190098C0F34C
:1047D000417204F52B7000EB4210C1600098C0F3E9
:1047E000417104F52B7000EB41100069411B0098EA
:1047F000C0F3417204F52B7000EB42100161009888
:10480000C0F3417104F52B7000EB41104069411970
:104810000098C0F3417204F52B7000EB4210416127
:10482000606900690090009880B2B0420ADD00988B
:10483000C0F3417104F52B7000EB411000690028B2
:104840007FF47CAF01207CBD30B585B004460020EC
:1048500000900390039820F0100010300390E0685F
:10486000806903998843E1688861E068006A049080
:10487000049800F00F00009004F190009DF80010E3
:1048800050F82100006801900498C0F343400228CA
:1048900006D0032878D0052877D0072873D175E093
:1048A0000498C0F30A10002869DD04F52B709DF808
:1048B000001000EB4110C068002860D00498C0F3DD
:1048C0000A1204F52B709DF8003000EB4310C1680C
:1048D0002046FFF729F9049800F00F0104F52B702A
:1048E00000EB4110C0680499C1F30A110144049817
:1048F00000F00F0204F52B7000EB4210C160049829
:1049000000F00F0104F52B7000EB41104069049991
:10491000C1F30A110144049800F00F0204F52B7052
:1049200000EB4210416104F52B709DF8001000EB84
:104930004110456904F514709DF8001040F82150AD
:1049400004F190009DF8001050F8210000690290D9
:104950000298C0F3C940002811DD019820F0004002
:1049600000F100400190019820F08040019004F196
:1049700090009DF80020019950F82200016006E0A7
:1049800002E002E0FFE700BF00BF00BF00BF00BFC2
:10499000039820F0100010300390E06880690399BC
:1049A0000843E1688861012005B030BD08B50146C3
:1049B00000200090009820F0080008300090009837
:1049C000CA685061012008BD30B505460020EC786A
:1049D000002C0CD105EB8202DB1C9B08D2F8D02006
:1049E00003E051F8045B1560641C9C42F9D330BDB0
:1049F000FEE702E008C8121F08C1002AFAD170477A
:104A00007047002001E001C1121F002AFBD170474E
:104A100010B504460A464078012304F1300100F045
:104A200049FB08B1032010BDB4F82E12A1F52A40AD
:104A3000553801D0022010BD94F86600B4F8671014
:104A400040EA01210848B0EB012F08D094F8821009
:104A5000B4F8832041EA0221B0EB012F01D10020FC
:104A600010BD012010BD0000004641542DE9F04763
:104A70000B46016816460A78303A092A08D84C785D
:104A80003A2C05D1891C016012B10B20BDE8F087DA
:104A90006D4804681C60A4B1207820B1607800F0F3
:104AA0003BFBC1070FD04FF0000984F80090484647
:104AB00084F8019000F0CEFA0546C00708D0032024
:104AC000E4E70C20E2E70EB140070FD40020DDE759
:104AD000607804F10A02022100F0CCFA38BB608948
:104AE000B0F5806F23D81EB1680701D50A20CDE745
:104AF000002631462046FFF78BFF01280CD104F534
:104B0000F770017999B1017AD0F8090041EA0026DD
:104B100031462046FFF77CFF032801D038B901E079
:104B20000120B3E7B4F83B006589A84201D00D200D
:104B3000ACE7B4F8460028B994F85400D4F85510FE
:104B400040EA0120A06194F84010E170E78F4143F2
:104B500016FA87F2226294F83DC084F802C0B4F8D5
:104B600041302381B4F8430028B994F85000D4F8B8
:104B7000518040EA08206D09B3FBF5F3C01B401AD1
:104B8000C01AB0FBFCF0801C012540F6F777E0610D
:104B9000B84200D302254FF6F777B84201D3032578
:104BA0000FE0032D0DD05018606258181044A06219
:104BB0004FF0FF3020614F4684F80490032D07D05A
:104BC00039E094F85C00D4F85D7040EA0720EBE728
:104BD0006771B4F8600016FA80F2626160780123B0
:104BE00004F1300100F066FA28BBB4F82E02A0F5FB
:104BF0002A4155391FD194F83000D4F8311040EAD9
:104C000001201249884216D194F81402D4F81512E2
:104C100040EA01200E4988420DD194F81C02D4F8D4
:104C20001D1240EA0120E06094F81802D4F819122D
:104C300040EA0120206104492570091FE7620888C5
:104C4000401C0880E08041E73C0100205252614155
:104C500072724161C269891E921E8A4201D8002087
:104C60007047826A807801FB002070472DE9F0418F
:104C7000C7695FEA0108064608D04146304600F0A1
:104C800073FD022808D20120BDE8F081F5680DB15E
:104C9000BD4204D3012502E0B842F5D345462C4677
:104CA000641CBC4202D30224022D0AD321463046A2
:104CB00000F05AFD38B1411CE6D00128E4D0AC42E6
:104CC000EED10020E0E76FF070422146304601F05F
:104CD000A9FA4FF0FF3540B95FEA080007D0014656
:104CE0002246304601F09EFA08B12846CCE7F4602F
:104CF0003069411C03D0401E306101207071204694
:104D0000C2E700002DE9F047846989460B22202183
:104D1000204601F037FA00221346D9F800C01E469B
:104D200008271CF80610761C202930D92F292ED0F0
:104D30005C292CD02E2901D0BB4208DB082F34D1AE
:104D40002E2932D108230B279006020EE9E780298D
:104D500003D32248084410F8801C21A000E0401C26
:104D6000057815B18D42FAD11FE0A1F14100192853
:104D700002D842F0020207E0A1F16100192803D82D
:104D8000203942F00102C9B2E1545B1CC9E70CEBC7
:104D90000605C9F80050202901D8042000E00020B1
:104DA0001BB12178E52903D004E00620BDE8F08797
:104DB00005212170082F01D191060A0E02F003018E
:104DC000012901D140F01000C2F38101012901D174
:104DD00040F00800E0720020E8E70000B468000836
:104DE00020222A2B2C5B3D5D7C7F000042F2107359
:104DF000B0FBF3F210B503FB120002F130044FF4E4
:104E00007A73B0FBF3F20C7003FB120002F1300472
:104E10006423B0FBF3F24C7003FB120002F1300488
:104E20000A23B0FBF3F28C7003FB120002F1300492
:104E3000CC703030087110BD002101E000BF491C6A
:104E40008142FBD370472DE9F0410446C0880E46ED
:104E5000401C07043F0C37D02169A1B32068428968
:104E60005209B7FBF2F302FB1372002A5FD1491C0F
:104E70002161E16841B1428983785209B7FBF2F2BE
:104E80005B1E1A4204D052E00089B8421CD94EE0A1
:104E900000F06AFC054601281BD9681C32D0206846
:104EA000C169A9423DD876B1E168FFF7DFFE050090
:104EB0000DD0012D0DD0681C24D00021206801F0F8
:104EC00068F9F8B907E0FFE70420BDE8F0810720A2
:104ED000FBE70220F9E7206800214289303001F029
:104EE00051F929462068FFF7B5FE216800264FF0EA
:104EF0000108C8620EE080F804800021206801F0FB
:104F000048F908B10120E0E72068C16A491C761C15
:104F1000F6B2C16220688178B142ECD8C16A891BBF
:104F2000C162E56029462068FFF794FE2061E780B2
:104F3000206841894909B7FBF1F201FB1271302267
:104F400002EB4111084460610020BEE770B50446E1
:104F5000002100F02EF80EE02169206801F019F917
:104F6000050024D160690078E52807D030B101211F
:104F70002046FFF768FF0500EED018E021692068A1
:104F800001F007F9050012D16669202200213046A0
:104F900001F0F8F80B223046A16901F0EBF8A069A6
:104FA000C07A00F01800307321680120087128468B
:104FB00070BD70B50D46C18081680446012927D0B7
:104FC0002068C2698A4223D921B90278032A08D10C
:104FD000416A31B142898078520912FB00F086B2F1
:104FE0001CE0E1600189A94212D94189406A49095E
:104FF000B5FBF1F108441DE0206800F0B5FB014667
:10500000401C07D0022903D32068C069884203D816
:10501000022070BD012070BDA81B85B2B542EBD245
:10502000E1602068FFF716FE216849894909B5FB50
:10503000F1F108442061206841894909B5FBF1F28A
:1050400001FB1251302202EB411108446061002043
:1050500070BD000010B50548FBF7D2FC044918B13B
:10506000087820F001000870087810BD4001002089
:105070003401002078B90D4B01201B78DB0701D0EB
:105080000320704771B1012907D04FF40073022942
:1050900007D0032908D00420704705480068106035
:1050A00000E0138000207047136070473401002037
:1050B000803B00202DE9F0411C4615460E4638B9CC
:1050C00034B112480078C00704D00320BDE8F08155
:1050D0000420FBE70E48FBF793FCA0B164022346D3
:1050E0002A4631460A48FDF76DFD0746094908483A
:1050F000FDF78EFB0648FBF783FC10B1032FEED0C3
:105100000FB10120E2E70020E0E7000034010020B9
:1051100040010020F005002008B10120704701483F
:1051200000787047340100202DE9F0411C461546F7
:105130000E4638B934B114480178C90704D00320A9
:10514000BDE8F0810420FBE70078400701D502208C
:10515000F6E70E48FBF754FCA0B1640223462A464A
:1051600031460A48FDF77AFE074609490748FDF728
:105170004FFB0648FBF744FC10B1032FEED00FB1F4
:105180000120DDE70020DBE73401002040010020A2
:10519000F005002010B5044600F063F9002801D1A5
:1051A0000021216010BD2DE9F0410D4604468188A3
:1051B000006801F05DFB5FEA000803D1A1790806F1
:1051C00002D50220BDE8F081E068A84202D289073A
:1051D00000D405460027A168FF20A760E071FDB15B
:1051E000206886784289564369B16A1E491EB2FB1F
:1051F000F6F2B1FBF6F39A4205D3701E81436D1AA5
:10520000A16061690BE0216941B90021FFF72EFD22
:10521000014601284DD0481C5CD021616161D1B9A3
:1052200030E0A0798007206805D5FFF71FFD010059
:1052300004D1354611E000F097FA0146481C49D0E8
:10524000012936D92068C069884232D96161A068D5
:10525000AD1B3044A060B542E3D8A0682844A060EC
:1052600020684289B5FBF2F2E2714289B5FBF2F3A4
:1052700002FB135232B1FFF7EDFCD0B1E1790F1808
:10528000491CE1712068A1684289B1FBF2F302FB7D
:10529000131131B3A269BA4223D0A17904F12405D4
:1052A00049060FD5407801232946FFF73DFF88B90D
:1052B00004E0A07940F08000A07182E7A07920F09E
:1052C0004000A071206801233A4640782946FFF744
:1052D000F1FE28B1A07940F08000A071012071E7B3
:1052E000A761D4E90201884204D9E060A07940F0C6
:1052F0002000A071404665E708B10B207047054BC0
:105300000022186800B1027001B10A700020196013
:10531000704700003C0100202DE9F7478BB04FF0AB
:105320000008064602F01F05C0F8008005F01E02C6
:1053300069460CA8FFF79AFB00281BD107A8069026
:1053400068460C9900F0B2F915F01C0F5DD04FF0D3
:10535000010960B104280DD16846FFF7F7FD002868
:1053600008D145F00805059C280738D45CE068079B
:1053700003D508200EB0BDE8F087059CF4B3E07AB1
:1053800010F0110F4ED128074ED5A08A678B84F8F4
:10539000148084F8158084F81A8084F81B8084F8BF
:1053A0001C8084F81D8084F81E8084F81F8000997A
:1053B00060F31F4781F804900098D0F82CA047B103
:1053C0003946009800F0C7FF0028D3D100987F1E0F
:1053D000C7605146009800F0DCFE0028CAD184F86E
:1053E0000B8000F028FAA0734FEA1021E1734FEA16
:1053F000104121744FEA1060607400E012E00099DF
:1054000045F0200581F804900EE00028B2D1059CFB
:1054100014B1E07AC10601D50420ABE7A90703D592
:10542000C00701D00720A5E70098C06AF061059881
:105430003062B571A18A608B61F31F403061207FBB
:10544000D4F81D1040EA0120C6E90280FF21F17165
:10545000C6F81880009830600098C088B08000209E
:1054600088E770B504468188006801F001FA0028D9
:105470000ED1A1798A060BD548060ED520680123E6
:1054800004F124014078A269FFF74EFE08B1012023
:1054900070BDA07920F04000A071E169206800F0A3
:1054A00078FE0028F4D1256AE87A40F02000E872FE
:1054B000207B2877A089000A6877E068000CA8772D
:1054C000E068000EE877207CA876208A000AE8765B
:1054D0002069000C28752069000E687500F0ABF992
:1054E000A875010AE975010C2976000E6876A07985
:1054F00020F02000A0712168012008712068BDE81B
:10550000704001F059B92DE9F05F4FF0000A88466C
:10551000C3F800A00446818899461646006801F049
:10552000A7F9002803D1A079010602D50220BDE821
:10553000F09F800701D40720F9E7E06804F1240B0D
:105540008219824266D3A3E02268A0685189B0FB29
:10555000F1F301FB130100297BD1E17993789942A2
:105560000DD3C0B110466169FFF780FB002851D010
:10557000012836D0411C61D0606184F807A0A07971
:10558000400615D52068012359464078A269FFF7E7
:10559000CBFDF0BB08E020690028E9D100211046CE
:1055A000FFF764FB2061E1E7A07920F04000A071E3
:1055B00061692068FFF74EFB98B1E1790F18206808
:1055C0004289B6FBF2F535B382784B19934200D984
:1055D000551AEBB240783A464146FFF7A5FDC0B9EF
:1055E00004E0A07940F08000A0719FE7A069C01B93
:1055F000A8420AD221684A8900FB0281584600F07D
:10560000B9FDA07920F04000A071E0792844E07154
:1056100002E013E03FE003E02068408945432DE0CD
:10562000A169B94211D0D4E9021291420DD2407859
:1056300001233A465946FFF73DFD30B1A07940F0CD
:105640008000A071012072E703E0A761E079401CAF
:10565000E0712068A1684089B1FBF0F200FB1211F3
:10566000451AB54200D93546081924302A46414624
:1056700000F080FDA07940F04000A071A068A8442F
:105680002844A060D9F800004119761BC9F8001021
:10569000002E7FF459AFD4E90201884200D9E060BE
:1056A000A07940F02000A071002040E773B50446C7
:1056B000019801E0401C019001782029FAD001787E
:1056C0002F2901D05C2901D1401C01900025A56043
:1056D00001980078202805D200212046FFF769FCB8
:1056E00065617CBD01A92046FFF70CFB0028F8D1BD
:1056F00000212046FFF75DFCF8B92169206800F021
:1057000048FDD0B961690A7872B1CA7A12070ED41D
:105710000B23A26900255B1E08D311F8015B12F868
:10572000016BAD1BF7D002E0042006E02DB1002193
:105730002046FFF788FB0028DFD0A169C97A01F075
:10574000040128B10428CCD10029CAD105207CBD90
:105750000029FCD16069C17AC906F7D5818A408BDE
:1057600061F31F40A060BDE72DE9F04104460D46FE
:10577000022902D3E069A84202D80120BDE8F081E5
:105780002078266A012805D0AFB2022829D0032844
:1057900040D136E0608905EB5507B7FBF0F0811981
:1057A000204600F0F6FCA8BB6089411E39407F1CF2
:1057B000B7FBF0F0214491F830808119204600F0C9
:1057C000E8FC38BB6089401E3840204490F8301017
:1057D00048EA0120E90701D00009CFE7C0F30B0038
:1057E000CCE760894008B1FBF0F08119204600F059
:1057F000D0FC78B96089401E00EA47002044008E42
:10580000BCE760898008B1FBF0F08119204600F008
:10581000C0FC10B14FF0FF30B0E76089401E00EAD5
:105820008700204490F83010D0F8310041EA002081
:1058300020F07040A2E70020704700002DE9FE4FE5
:1058400016460A464FF0010900F0D8FC00900028E7
:105850005DD05648082E14D2DFE806F05904060839
:105860000B0E10120A200CE064200AE04FF47A704C
:1058700007E042F2107004E04D4802E04D4800E0BD
:105880004D48DFF838A14E4F06F10108824240D35F
:105890000022554650460099FBF76FF87869FFF7EC
:1058A000CBFA012000F078FF7869FFF7C5FA4F20A6
:1058B00000F072FF7869FFF7BFFA012228460099CD
:1058C000FBF75BF8B869FFF7B7FA02241DE0002286
:1058D00028460099FBF751F87869FFF7ADFA2046A2
:1058E00000F05AFF7869FFF7A7FA002000F054FF94
:1058F0007869FFF7A1FA012228460099FBF73DF8E5
:10590000B869FFF799FA641CE4B24445DFD3BDE8F7
:10591000FE8F30460DF1040B0A2108E01346B2FB5E
:10592000F1F201FB12340BF80040401EC0B2002817
:10593000F4D1012537E022491BF805001C310C5C2D
:10594000701B012801D18034E4B27E2C05D00020E8
:1059500010EA090F03D0002403E00120F8E74FF01C
:105960000009B54201D104F07F040022504600999D
:10597000FBF703F87869FFF75FFA284600F00CFFA1
:105980007869FFF759FA204600F006FF7869FFF7BB
:1059900053FA012250460099FAF7EFFFB869FFF772
:1059A0004BFA6D1CEDB24545C5D3B0E700E1F505F6
:1059B000A086010040420F0080969800000002403F
:1059C000040000202DE9FE431D4698A39A4FD3E919
:1059D00000469B680094CDE9016305FB01F3B3FB2E
:1059E000F2F13B61397000F009FC040070D03878A6
:1059F000DFF84882A8426DD9002221464046FAF7D6
:105A0000BCFF7869FFF718FA012000F0C5FE78693D
:105A1000FFF712FA002000F0BFFE7869FFF70CFADA
:105A2000012221464046FAF7A8FFB869FFF704FAB9
:105A3000002221464046FAF7A0FF7869FFF7FCF9FB
:105A4000022000F0A9FE7869FFF7F6F9002000F0C7
:105A5000A3FE7869FFF7F0F9012221464046FAF7E4
:105A60008CFFB869FFF7E8F9002221464046FAF7B3
:105A700084FF7869FFF7E0F9032000F08DFE786974
:105A8000FFF7DAF9002000F087FE7869FFF7D4F914
:105A9000012221464046FAF770FFB869FFF7CCF9BA
:105AA000002221464046FAF768FF7869FFF7C4F9FB
:105AB000042000F071FE7869FFF7BEF9082000F0BD
:105AC0006BFE7869FFF7B8F9012221464046A6E04F
:105AD000AAE0FFE76E46072802D99DF8085002E0C9
