:020000040800F2
:10000000E04100209D010008131100084B1000087A
:1000100011110008230A0008E55400080000000040
:100020000000000000000000000000009115000822
:100030002D0D000800000000E91100086D160008F1
:10004000B7010008B7010008B7010008B7010008B0
:10005000B70100087D130008310D0008650D000888
:10006000B7010008B7010008B7010008B701000890
:10007000B7010008B7010008B7010008B701000880
:10008000B7010008B7010008B7010008B701000870
:10009000B7010008B7010008B7010008B701000860
:1000A000B7010008B7010008B7010008B701000850
:1000B00011240008B701000815240008B701000842
:1000C000B7010008B7010008B7010008B701000830
:1000D000B7010008B70100081D270008B701000894
:1000E000B7010008B7010008B7010008B701000810
:1000F000B7010008B7010008B7010008B701000800
:10010000B7010008B7010008B7010008B7010008EF
:10011000B7010008B701000859240008B70100081A
:10012000B7010008B7010008B7010008B7010008CF
:10013000B7010008B7010008B7010008B7010008BF
:10014000B7010008B7010008B7010008DD11000879
:10015000B7010008B7010008B7010008B70100089F
:10016000B7010008B7010008B7010008B70100088F
:10017000B7010008B7010008B7010008B70100087F
:10018000B7010008B7010008DFF80CD000F0C0FA92
:1001900000480047A16B0008E04100200648804766
:1001A00006480047FEE7FEE7FEE7FEE7FEE7FEE75C
:1001B000FEE7FEE7FEE7FEE7C1230008890100082D
:1001C000F0B480EA0102D40F4200B2EB410F02D238
:1001D0000246084611464A0042D0C30DDDB2C1F3C3
:1001E000C752AD1A202D35DAC1F3160141F40002D1
:1001F00004B15242C5F1200602FA06F12A41104428
:10020000B3EBD05F23D0C4B1012DA0EBC35009DC08
:10021000F0BC4FF0004202EAC35200F50000DBB22E
:1002200000F0E9B9400000F1807000EBC350A0F18C
:10023000807040EAD170490009E0490841EAC07184
:10024000A0EBC35000F50000400800EBC350F0BC29
:1002500000F0C8B96142012202EB4101001BF6E740
:10026000F0BC704781F00041AAE780F00040A7E7AA
:1002700080EA010210B502F00043400026D04A0097
:1002800023D04FEA106101EB1261C0F35600C2F3B4
:10029000560240F4000042F40002A0FB0220A1F14B
:1002A0007F014FEA0040140401D000F1010050EA40
:1002B000124001D44000491EC2B20C0604EBD0101B
:1002C000401C4008802A02D003E0002010BD20F02E
:1002D0000100002900DA0020184310BD30B480EA84
:1002E000010202F0004530F0004221F0004015D03C
:1002F000A0B1C0F3C753C2F3C754C2F31601C0F391
:100300001600E41A41F4000140F400027D349142E9
:1003100001D3641C00E04900002C02DA30BC00204C
:1003200070474FF400000023914201D3891A034320
:1003300040084FEA4101F7D151B1914202D14FF04B
:10034000004105E002D24FF0010101E06FF0010130
:1003500003EBC450284430BC00F044B92DE9FE4FF3
:10036000804681EA0300C00F0C46009021F0004156
:1003700023F00045B8EB0200A94105D240462146D2
:1003800090461C460B46024623F00040104304D121
:100390004046214603B0BDE8F08F270DC7F30A00A1
:1003A000C3F30A510290401A0190402866DAC3F361
:1003B000130040F4801B0098924620B10023D2EB3A
:1003C000030A63EB0B0B01985946C0F140025046FB
:1003D00000F0D7F806460D4650465946019A00F0FF
:1003E000EFF810EB08006141002487EA115284EA1B
:1003F000E7731A433BD0009A3AB3019A012A4FEAB5
:10040000075210DC001B61EB02014FF0004202EAD0
:100410000752CDE90042001C41F5801132462B46BF
:1004200000F023F9B6E7001B61EB0201001C41F567
:10043000801300185B412018A2F5001747EB030159
:1004400040EAD570B6196D4111E06D084FEA3606E5
:1004500045EAC0754FEA0752001B61EB0201001C20
:1004600041F5801149084FEA3000001951413246E8
:100470002B4603B0BDE8F04F00F0EAB80098012227
:1004800040000023D0EB020263EBE07300982146AA
:100490004FEAE074B8EB000061EB0401E9E783F098
:1004A00000435BE781F0004158E7962300221146A4
:1004B00000F0A1B80EB5C10F80EAE0700844CA0789
:1004C000002140F233438DE80E000A460B4600F04F
:1004D000CCF803B000BD0EB540F2334102910021CB
:1004E000CDE900110A460B4600F0BFF803B000BD8D
:1004F00020F00040C10DC0F3160040F400007F2939
:1005000001DA00207047962903DCC1F19601C8404A
:100510007047963988407047C1F30A5210B5C1F34D
:10052000130140F2FF3341F480119A4201DA0020B6
:1005300010BD40F233439A42A2F2334203DC5242EE
:1005400000F02EF810BD904010BD01F0004330B413
:1005500021F0004150EA010206D00A0DA2F56072B6
:10056000C1F31301002A02DC30BC00207047440FA5
:1005700044EAC104C100E01830BC00EBC25000F0F6
:1005800031B8202A04DB203A00FA02F1002070473B
:100590009140C2F1200320FA03F3194390407047C1
:1005A000202A04DB203A21FA02F00021704721FAC8
:1005B00002F3D040C2F1200291400843194670472F
:1005C000202A06DBCB17203A41FA02F043EAE07317
:1005D00006E041FA02F3D040C2F120029140084304
:1005E000194670470029A8BF7047401C490008BF42
:1005F00020F00100704710B4B0FA80FC00FA0CF053
:1006000050EA010404BF10BC704749B1CCF120048A
:1006100021FA04F411FA0CF118BF01212143084317
:10062000A3EB0C01CB1D0106000A002BBEBF00206E
:1006300010BC704700EBC35010440029A4BF10BC8D
:100640007047401C490008BF20F0010010BC7047F3
:1006500010B5002B08DA401C41F1000192185B41F3
:100660001A4301D120F0010010BD2DE9F04D924652
:100670009B4611B1B1FA81F202E0B0FA80F2203269
:100680009046FFF77EFF04460F4640EA0A0041EA23
:100690000B0153465A46084303D120463946BDE86C
:1006A000F08D114653EA010015D0C8F140025046C2
:1006B000FFF776FF05460E46504659464246FFF77D
:1006C00060FF084301D0012000E00020054346EA16
:1006D000E0762C4337430A984FEA4453A0EB0800D6
:1006E0004FEAD4240A304FF0000244EA47544FEA5C
:1006F000D72502D500200146D1E70105101969412F
:10070000DDE9084500196941BDE8F04DA0E70000AA
:10071000064C074D06E0E06840F0010394E807004E
:1007200098471034AC42F6D3FFF732FD1C7C00082A
:100730003C7C000870B501EB020410F8015B15F079
:10074000070301D110F8013B2A1106D110F8012B43
:1007500003E010F8016B01F8016B5B1EF9D12B0768
:1007600005D40023521E0FD401F8013BFAE710F81C
:10077000013B02F10202A1EB030303E013F8015B6A
:1007800001F8015B521EF9D5A142D6D3002070BDFD
:1007900070B59CB001212E4800F028FD012188028F
:1007A00000F054FD4FF0806000902A4801902A48E4
:1007B00002A90024012531C1E802CDE906408000EC
:1007C0000890401109900AA90594400231C1234EB6
:1007D0000D94694630460E9400F07EFA01213046B1
:1007E00000F070FA0420199003208DF868008DF84D
:1007F0006B4019A91A4800F07AFB159416941794C7
:1008000015A8189400F038F80F948DF84040119412
:100810001394104C8DF841504C3C8DF850500FA95A
:10082000204600F051F8072301220C21204600F059
:1008300071F80121204600F03DF80121204600F02A
:100840002FF80121204600F00DF81CB070BD00000B
:10085000040040004C2201400C00002010640240C3
:10086000000802400029816802D041F0010101E046
:1008700021F0010181607047074B10B51A680749E4
:100880000A40D0E900142143D0E902400443214347
:100890001143196010BD000004230140E030FCFF4B
:1008A0000029816802D041F4807101E021F4807157
:1008B000816070470029816802D041F4007101E035
:1008C00021F400718160704730B542680F4B0C799C
:1008D0001A400B6842EA04221343436082680C4BBF
:1008E0004D791A40D1E9034323438C6844EA450417
:1008F000234313438360C26A097D22F47002491EB8
:10090000C9B242EA0151C16230BD0000FFFEFFFCE6
:10091000FDF7FFC070B5072609290AD9C568A1F1FE
:100920000A0404EB4404A640B543A3401D43C5603C
:1009300007E0056901EB4104A640B543A3401D4310
:1009400005611F23072A09D2446B521E02EB820263
:1009500093409C4391400C43446370BD0D2A09D2DF
:10096000046BD21F02EB820293409C4391400C43E4
:10097000046370BDC46A0D3A02EB820293409C434B
:1009800091400C43C46270BD816841F08041816038
:100990007047000010B5074C2060084600F00CF8C6
:1009A00020680028FCD1BDE8104000214FF08040B5
:1009B00001F077BD900000203EB504464FF0804521
:1009C0000021284601F06DFD00220121284601F09A
:1009D00080FD022C02D0012C02D004E00B2001E0AB
:1009E00042F6DF6001900520ADF800000020ADF870
:1009F0000800ADF802006946284601F009FE012111
:100A0000284601F04BFD0121284601F03DFD012261
:100A10001146284601F05DFD0121284601F041FD07
:100A20003EBDFEE72DE9F05F95480078002867D0CD
:100A3000944B0A20944C1A790027B2FBF0F101F193
:100A4000300500FB11212570303161703A25A57009
:100A50005979B1FBF0F202F1300600FB1211E67099
:100A60003031217165719A79884EB2FBF0F100FB4B
:100A7000112001F13003A3713030E0710820307093
:100A80008348844D3B21078083482F800D220378C3
:100A90004FF416709BB3DFF804A288469146834654
:100AA0003278288802EBC002111904F80280491C30
:100AB0003AF8100004F030FF2888401C80B22880EB
:100AC0003278584502EBC002224402F8019CE7D379
:100AD0001FE0317801EBC00104F801902144491C6A
:100AE0003AF8100004F018FF2888401C80B22880D3
:100AF000327802EBC000204400F8018C06E000E0F0
:100B0000BBE0DFF89CA1894690468346288858457B
:100B1000DFD3644800F087FADFF88C91634C4FF024
:100B2000100A4FF0200B012802D06148077010E036
:100B300002226049604805F087F9DFF87C8178B1CE
:100B400008225C49404605F07FF9E0B3022000F03E
:100B500013FD89F80070A4F81AA0A4F818B08AE070
:100B6000002000F009FD5448D8F80C1005F0B3F847
:100B700030782988514B00EBC10243494E4805F0BB
:100B80005AFA4D4805F09EF84D490A230879B0FB02
:100B9000F3F603FB1602474830324579AA421CD0CF
:100BA0008D798846B5FBF3F101F1300C03FB11514F
:100BB00080F800C03031417098F80550B5FBF3F172
:100BC00001F1300C00E00FE003FB1151303180F8EF
:100BD00002C0C170303606714271002000F0C0FCC6
:100BE00033490120087040E0002000F0C5FC324885
:100BF000D8F80C1005F06FF8307829882F4B00EBEF
:100C0000C10221492C4805F016FA2B4805F05AF884
:100C1000DFF8AC800A2198F80400B0FBF1F301FB87
:100C2000130524483035427995421AD098F8066069
:100C3000B6FBF1F202F1300C01FB126280F800C049
:100C40003032427098F80520B2FBF1F601FB162114
:100C500006F1300C303180F802C0C17030330371BE
:100C60004571002000F07CFC012089F80000A4F808
:100C700018A0A4F81AB002480770BDE8F09F000061
:100C80005700002072000020161B00205100002099
:100C9000520000205400002048000020760B002065
:100CA0004613002064010020710000200010024063
:100CB00056000020950000201C3700207A000020FC
:100CC0004E0B00200029016802D041F0010101E033
:100CD00021F001010160704730B50368124ACC6809
:100CE00013400A682243D1E905452C432243CC69CD
:100CF00022430C6A22434C6A22438C6A22434C6B87
:100D000022438C6B22431A430260426922F007039C
:100D1000D1E90B2422431A4342610A6942604A68BE
:100D200082608968C16030BD3F801CF07047000060
:100D300010B5012000F036F858B1084803780021BA
:100D4000074A012B01D003780BB1117000E001219B
:100D50000170BDE81040012000F01EB89F00002087
:100D60000500002010B5022000F01CF800280FD06C
:100D70000848837800220121012B06D0427081703F
:100D8000BDE81040022000F007B841708270F7E71C
:100D900010BD0000E8000020014908607047000015
:100DA000143C0140064A014600201268044B0A40E8
:100DB00014331B680B4202D0002A00D00120704778
:100DC000003C014070B50646002529B1012927D015
:100DD000022928D04FF4407500F07AF808281ED177
:100DE000124C206820F44070206020682843206066
:100DF000206820F0F8002060206846F002010843D7
:100E00002060206840F48030206000F061F82168A4
:100E100021F002012160216821F0F801216070BDFC
:100E20004FF48075D8E74FF40075D5E7103C0240C9
:100E30000B4908200A68D20301D5012070470A68CF
:100E4000D20601D5052070470A6812F0EF0F01D0D5
:100E50000620704709688907FBD507207047000006
:100E60000C3C02400248016841F0004101607047BB
:100E7000103C024070B50D46064600F029F80828DF
:100E800011D1094C206820F4407020602068206057
:100E9000206840F001002060357000F019F82168EA
:100EA00021F00101216070BD103C0240054800683E
:100EB000002805DA034804490C3801600349016041
:100EC00070470000103C024023016745AB89EFCD1D
:100ED00008B508208DF80000FFF7AAFF8DF8000084
:100EE0009DF800000128F7D09DF8000008BDF0B57E
:100EF000002201274FF0030C0B6807FA02F52B4084
:100F0000AB422CD1066853000CFA03F4A6430660EA
:100F10000E79D0F800E09E4046EA0E0606600E7993
:100F2000012E01D0022E12D18668A64386604E792A
:100F3000D0F808E09E4046EA0E0686604668AE435A
:100F4000466045688E799640B6B235434560C568BF
:100F5000A543C560CC799C40C3681C43C460521C47
:100F6000102AC9D3F0BD4B07DB0E9A40C90810B553
:100F700000EB8100016A0F249C40A1430162016AD9
:100F80001143016210BD41837047018370474FF6E2
:100F9000FF7101600021017141718171C171704760
:100FA0000AB101837047418370474069806880B20D
:100FB0007047D0F8CC000068C0F341407047084447
:100FC00090F89B02704700EB8100D0F85002704708
:100FD00010B5002204461346C0F8102204EB82002C
:100FE000C0F81432C0F85032A01880F88C32521C6D
:100FF000D2B20F2AF2D30820A4F8B202204603F09E
:1010000033FB204603F030F9204603F049F8012174
:10101000204603F089FB204603F0AFF8204603F09A
:1010200049F9002010BDD0F81002704710B503F048
:1010300005FB002010BD0022431883F89B2200EB23
:101040004113C3F8C02203F048BAFEE700B50022FE
:101050004FF48071012805D014480180032006F068
:101060002FFB15E01148801E0180032006F028FBAD
:1010700000E0521C06F0E8F8012800D00020022A07
:1010800001D2012100E000210842F2D100BD521C32
:1010900006F0DAF820B10020022A03D2012102E092
:1010A0000120F9E700210842F1D100BD1A040240F5
:1010B00000B500228021012805D0144801800320BA
:1010C00006F0FEFA15E01148801E0180032006F0AC
:1010D000F7FA00E0521C06F0C1F8012800D0002009
:1010E000022A01D2012100E000210842F2D100BD14
:1010F000521C06F0B3F8012800D00020022A01D2C9
:10110000012100E000210842F2D100BD1A04024092
:10111000FEE710B5802000F01FF900280BD0012059
:1011200000F024F90121182000F04AF9BDE8104030
:10113000802000F0A3B810BD00F01F0201219140F3
:1011400040094FF0E02202EB8000C0F80011704728
:1011500070B50F23C278017801254FF0E026E2B187
:10116000124A126802F4E062C2F5E062C2F307229A
:10117000C2F10404D3404278A24084781C400C4B56
:1011800014432201CA54007800F01F018D40400929
:1011900006EB8000C0F8005170BD01F01F008540D3
:1011A000480906EB8000C0F8805170BD0CED00E0EE
:1011B00000E400E00249084302490860704700006B
:1011C0000000FA050CED00E0024A1140014302481C
:1011D0000160704780FFFF1F08ED00E0014802F04A
:1011E000EEBB00006401002070470000044A0029A3
:1011F000116801D0014300E0814311607047000095
:1012000030380240044A0029116801D0014300E04F
:10121000814311607047000034380240044A0029BD
:10122000116801D0014300E0814311607047000064
:1012300040380240044A0029116801D0014300E00F
:10124000814311607047000020380240044A0029A1
:10125000116801D0014300E0814311607047000034
:1012600044380240044A0029116801D0014300E0DB
:101270008143116070470000243802400149087022
:10128000704700000E3802400149C86470470000F2
:101290000000474270B5204B1968204C11F00C013A
:1012A00004D06610042903D0082903D004601BE091
:1012B000066019E0184A121F1168C1F380551168C1
:1012C00001F03F0115B1B6FBF1F101E0B4FBF1F122
:1012D00014681268C4F388146143C2F30142521CBB
:1012E0005200B1FBF2F1016019680F2202EA1111FC
:1012F0000B4A545C0168E14041601C68072505EA1F
:101300009424145D21FA04F484601B6805EA5333C5
:10131000D25CD140C16070BD083802400024F400A6
:101320001401002002460020510901290BD0022996
:101330000CD00849096802F01F02012393400B42B8
:1013400000D00120704703497439F3E70149091FB0
:10135000F0E7000074380240034A0146002012689A
:101360000A4200D0012070470C3802400249002296
:101370000A700870704700000238024010B508205B
:10138000FFF7EAFF48B10820FFF778FF3120FFF7A9
:10139000C9FF10B1012000F029F81020FFF7DCFF91
:1013A00000280CD01020FFF769FF3920FFF7BAFFA3
:1013B000002804D0BDE81040022000F01DB810BD88
:1013C000044A0029117801D0014300E081431170E3
:1013D000704700000D380240034B1A68084322F0A2
:1013E0007842104318607047083802400149086687
:1013F0007047000000004742034A116821F00301D2
:1014000001431160704700000838024008B50349E5
:1014100001EB80000090006808BD000050280040EB
:1014200008B5034A02EB80000090016008BD00008F
:10143000502800400029018802D041F0400101E01D
:1014400021F0400101807047114910B588420AD14E
:10145000841401212046FFF705FF2046BDE8104017
:101460000021FFF7FFBE0B49884202D1012104147D
:1014700004E0094988420AD10121C4132046FFF73C
:10148000D9FE2046BDE810400021FFF7D3BE10BDB5
:101490000030014000380040003C0040024600207F
:1014A00012890A4200D0012070478181704730B50F
:1014B00002884C8802F441530A88CD8822438C88E4
:1014C0002C4322430C8922434C8922438C8922439A
:1014D000CC8922431A430280828B22F400628283E9
:1014E000098A018230BDA1F57E420188FF3A02D00F
:1014F00041F4807101E021F4807101807047002186
:10150000018041808180C180018141818181C181CF
:1015100007210182704700001CB504460E480121D6
:1015200050F82400FFF762FE0B480021083830F81D
:101530001400009001208DF804008DF806108DF83D
:10154000070002208DF805000448694650F8240081
:10155000FFF7CDFC1CBD0000487B00080401002003
:101560000349044A31F8101052F8200041837047B3
:10157000407B0008040100200349044A31F81010A0
:1015800052F8200001837047407B000804010020CE
:10159000704700000CB500222E49009201920868A5
:1015A00040F4803008604FF4A063086800F4003015
:1015B00001900098401C0090019810B90098984242
:1015C000F3D108688303244841D501220192224ABD
:1015D0003832136843F080531360204A136843F491
:1015E0008043136002680260026842F400420260B5
:1015F000026842F4A0520260031F194A1A600A6886
:1016000042F080720A600A689201FCD5154A40F2E5
:1016100005631360026822F003020260026842F070
:10162000020202600268C2F38102022AFAD1026851
:1016300022F400020260084A0B487C3210600868FD
:1016400040F08060086008680001FCD50CBD019284
:10165000EDE700000038024008380240007000400A
:1016600008544007003C0240804000302DE9F05F04
:10167000FE4910200880FE4F3868FE4AFE4E800763
:1016800003D43088401C308002E01088401C108059
:10169000DFF8E8831388DFF8E8C398F80400DFF880
:1016A000E4A3012400254FF008094FF4807198420B
:1016B00007D8F54B1C70ACF81A90AAF818101580D2
:1016C00035803388984207D8EF4B1D70ACF81890DE
:1016D000AAF81A10158035803A68EC4B120603D42C
:1016E0001A8802F101021A803A689605E84A02D483
:1016F0001688761C1680DE4EB3F800C00836E54F1B
:101700004FF0400906F1020A604508D888F80350F6
:101710003C70A6F80090AAF800101D801580B2F861
:1017200000C0BCEB500F07D3D448C4703C70AAF87B
:10173000009031801D801580D74E0021308806F042
:101740001BF9D64AD64811880088D64B084481B286
:1017500011801878DFF85093401CC0B2DFF84CB30A
:1017600018700A287ED1B1FBF0F0D149DFF80C8364
:1017700008801D70158098F803100029C249097867
:1017800025D00029414629D0963104F027FD30802C
:1017900080B2002105F076FCC649C74A0880B8F837
:1017A0000A101389994202D8C4490D801581118904
:1017B000491C1181C1490B88984200D90880DFF883
:1017C00000C313789CF8001029B3BE4A24E0002916
:1017D000AA4901D04631D8E71E31D6E76E31D4E7A9
:1017E00040F4004301E0C0F30E03B9F8000022F812
:1017F0001030401CA9F8000083B240F2E7304A469E
:10180000834200D11080B04B1888401C80B21880F1
:101810000A2804D06DE0AD4A012BE4D1E0E71D8039
:10182000AB4BAC4E1868401C1860B04200D11D6034
:10183000A948AA4E1B6803803078401CC0B23070A3
:101840003C2822D335707078401CC0B270703C28A0
:101850001CD37570B078401CC0B2B070182815D178
:10186000B57000E047E03079401CC0B230712028EC
:101870000CD134717079401CC0B270710D2805D143
:101880007471B079401CB07100E068B981F001005A
:101890008CF800009248B17801717178417131780B
:1018A0008171904804701580D8074FF001000FD067
:1018B000FFF756FE30783221B0FBF1F201FB120047
:1018C00000288948B24606D00078012804D010E0EC
:1018D000FFF752FEEEE70470834E8BF80050D846B7
:1018E000357005F0E3FC317898F8000001431ED014
:1018F000347006F075F83878F0B37B4E8BF80050F2
:101900005C46357005F05AFFD02006F0F8F8082044
:1019100006F0F5F85948C07800F0010006F0EFF83D
:1019200005F055FF30782178084344D044E06F49F2
:10193000087800F00F02C0F3021000EB800002EB09
:1019400040028AF800204A78504602F00F03C2F3A2
:10195000021202EB820203EB42028AF801208A782B
:1019600002F00F03C2F3011202EB820203EB420208
:101970008AF802200A7900E01EE002F00F03C2F3A9
:10198000011202EB820203EB420202714A7902F079
:101990000F03C2F3001202EB820203EB4202427118
:1019A000897901F00F02090901EB810102EB410184
:1019B0008AF806109DE73D704D48007800284DD00C
:1019C0004C4A907877284AD00020D178722947D0A5
:1019D000002108401179742943D000210840517931
:1019E0005F293FD000210840917963293BD0002135
:1019F0000840D1796F2937D000210840117A6E292B
:101A000033D0002108403B49497A66297AD0002129
:101A1000DFF8E4B0DFF8E4A0394C084273D00026C8
:101A2000B046324640F225515746504600F005FF79
:101A3000012240F22661384600F0FFFE0B480122E9
:101A400008211838FFF7ACFA72B6FFF72FFA022117
:101A50005820FFF7B7F9FFF705FA55E0FEE357E026
:101A600058E059E05AE05BE05CE05DE0180C0240B1
:101A7000100802406A00002068000020900A002040
:101A800000100240000002405A0000206C000020BC
:101A90006E0000205C000020AE3200209A32002050
:101AA0000C0000205B0000204C00002009000020FA
:101AB00086320020C2320020E8000020D63200200A
:101AC000480000204613002058000020760B00201C
:101AD00044000020C02709004A0000204E0B0020CF
:101AE000720000205700002007000020620B002039
:101AF00006000020A806002012000020004400403C
:101B00009C08002012E067E0FFF7D0F9FE4F3AE0B2
:101B100001205AE701215CE701215FE7012162E72B
:101B2000012165E7012168E701216BE701216FE7EA
:101B3000F648F74A3044817A1170F64AC07A39295A
:101B400010703D704FEA011101D9A1F55C71397037
:101B50003928C9B2084401D9373800E03038387024
:101B6000ED48397800EB5600FFF784F9EB483978F7
:101B700000EB5600017000783978884201D04FF0B0
:101B80000108B61CB6B2E64800880A388642CFDBA8
:101B9000FFF768F962B67720207063216E22662312
:101BA0004FF07200B8F1000F60707DD07426A670FF
:101BB0005F26E67021716F216171A271E371267257
:101BC00065216172D749A0720B200880ABF80050E4
:101BD0003A21504600F0AAFECC4EB07877287DD04E
:101BE0000020F17868297AD00021084031796F29E6
:101BF00076D00021084071793F2972D00021084237
:101C00004FF061084FF073072DD0002240F22551AC
:101C1000504600F012FE012240F22661504600F0CC
:101C20000CFE01220821C048FFF7BAF97520207088
:101C300067706F20A0705F20E07084F804807221CC
:101C400061716D21A171E0716B202072652060725D
:101C50007920B449A0720B200880ABF800503A21DB
:101C6000504600F063FEB07872287DD00020F178F5
:101C700065297AD0002108403179732976D0002176
:101C800008407179742972D000210840B179612926
:101C90006ED000210840F17972296AD000210840F5
:101CA000317A742966D000E087E10021084232D001
:101CB000002240F22551504600F0BFFD012240F2C3
:101CC0002661504600F0B9FD012208219648FFF731
:101CD00067F9722121706520607003E07AE17BE191
:101CE0007CE17DE1A7707420E07084F8048061716C
:101CF000A0715F20E0716F2020726B2089496072B3
:101D00000A200880ABF800503A21504600F00EFE41
:101D1000874986480860B07873287CD00020F17825
:101D2000652979D0002108403179742975D00021C6
:101D3000084071795F2971D000210840B179742978
:101D40006DD000210840F179692969D0002108404F
:101D5000317A6D2965D000210840717A65297DD0DE
:101D6000002108427BD006E03CE13DE13EE13FE15D
:101D700040E141E142E1002240F22551504600F0AD
:101D80005CFD012240F22661504600F056FD012222
:101D900008216548FFF704F905F08AFC65480168E9
:101DA00041F0800101608046D8F800004006FBD574
:101DB000604840F20711001D01605F490160277013
:101DC000652161707420A0705F22E270207169202B
:101DD00060716D20A071E17122726F2060726B20C2
:101DE000A072307D717D303800EB80006FF02F07DE
:101DF00007EB40000844C2B2B07CF17C303800EB05
:101E0000800007EB40000844C1B2307C737C30385E
:101E100000EB800006E0F3E0F4E0F5E0F6E0F7E048
:101E2000F8E0F9E007EB40001844C0B205F00CFC04
:101E3000B07BF17B303800EB800007EB40000844BA
:101E4000C2B2307B717B303800EB800007EB400082
:101E50000844C1B2B07AF37A303801E0DEE0F7E04E
:101E600000EB800007EB40001844C0B2012305F0EE
:101E7000B3FB05F0A3FCD02005F041FE002005F0E7
:101E80003EFE707D317D00EB0110A0F54C7005F039
:101E900036FEF07CB17C00EB0110A0F54C7005F033
:101EA0002EFE707C317C00EB0110A0F54C7005F02B
:101EB00026FE012005F023FEF07AB17A00EB011036
:101EC000A0F54C7005F01BFE707B317B00EB011020
:101ED000A0F54C7005F013FEF07BB17B00EB011018
:101EE000A0F54C7005F00BFE05F071FC307D717DA6
:101EF000303800EB800007EB400001440F480170D0
:101F0000B17CF27C30391BE050000020A806002094
:101F10004E0000204F00002000000E08004002404C
:101F2000100000200E000020000C02400400FA0502
:101F30000CED00E00C28004007017F004E0B002054
:101F400001EB810107EB410111444170317C727C4E
:101F5000303901EB810107EB410111448170B17A05
:101F6000F27A303901EB810107EB41011144017133
:101F7000317B727B303901EB810107EB4101114468
:101F80004171B17BF27B303901EB810107EB4101FB
:101F900011448171F948016841F040010160D8F8AD
:101FA000001021F08001C8F8001005F0F5FAF4489F
:101FB00005F0D8F9DFF8C88335E07420A0705F2001
:101FC000E07021716F216171A271E3712072617201
:101FD0006B20F7E5012004E6012106E6012109E670
:101FE00001210CE6012042E6012144E6012147E6F9
:101FF00001214AE601214DE6012150E6012155E685
:1020000001208CE601218EE6012191E6012194E672
:10201000012197E601219AE601219DE60121A0E632
:10202000D74805F09FF9B07AF17A303800EB80009C
:1020300007EB4000014498F802008142F0D1D149F9
:102040000B200880ABF800503A21504600F06EFC9F
:10205000B07872287ED00020F17865297BD00021ED
:1020600008403179612977D000210840C649497973
:10207000642972D00021084270D0002240F225511C
:10208000504600F0DAFB012240F22661504600F093
:10209000D4FB01220821BD48FEF782FFB9F80000F9
:1020A0004FF47A72B0FBF2F101F13003237002FBBE
:1020B00011006423B0FBF3F101F1300603FB1101C1
:1020C00066700A20B1FBF0F600FB161106F130072E
:1020D000A7703031E170AE4E2021217196F806C014
:1020E000BCFBF0F808F13007677100FB18C7303708
:1020F000A77196F805C0BCFBF0F808F13007E7714E
:1021000000FB18C73037277296F804C0BCFBF0F804
:1021100008F13007677200FB18C73037A772E17209
:1021200096F802C0BCFBF0F808F13007277300FBFB
:1021300018C73037677396F801C0BCFBF0F808F198
:102140003007A77300FB18C73037E7733778B7FB42
:10215000F0F604E0E1E0E2E0E3E0E4E099E006F13B
:10216000300C00FB167684F810C030366674894E49
:10217000A17436783036E674874E2175368842F27F
:102180001077B6FBF7FC07FB1C66B6FBF2F808F10C
:10219000300C02FB1866B6FBF3F884F815C008F1A2
:1021A000300C03FB1866B6FBF0F884F816C000FB91
:1021B000186608F1300C84F817C030362676774E52
:1021C00061763688B6FBF7FC07FB1C66B6FBF2F8B7
:1021D00008F1300C02FB1866B6FBF3F884F81AC05D
:1021E00008F1300C03FB1866B6FBF0F884F81BC04E
:1021F00000FB186608F1300C84F81CC03036667796
:10220000674EA1773688B6FBF7FC07FB1C66B6FB6A
:10221000F2F702FB1762B2FBF3F603FB1622B2FBE6
:10222000F0F307F1300C06F1300784F81FC000FB13
:10223000132084F8207003F1300684F821603030D8
:1022400084F82200574884F823100078303084F84E
:102250002400554884F82510007800E088E03030EC
:1022600084F82600514884F82710C078303084F86C
:1022700028004F4884F8291042490078303084F80B
:102280002A002B200880ABF800503A21504600F07D
:102290004DFB3D4A9078722847D00020D1786429C0
:1022A00045D00021084011795F2942D00021084023
:1022B000517963293FD00021084091796F293CD0A2
:1022C00000210840D1796E2939D000210840117AC7
:1022D000662936D00021084248D00026324640F216
:1022E00025515746504600F0A8FA012240F22661D7
:1022F000384600F0A2FA012208212448FEF750FED9
:102300002048BE2303802B48315CA155761CB6B211
:102310009E42F9D30020284E20E001209CE60121B6
:102320009EE60121A1E60121A5E60120B6E70121F3
:10233000B8E70121BBE70121BEE70121C1E7012187
:10234000C4E70121C7E7815922180F0ED7700F0C7F
:1023500097700F0A57702154001D80B29842F2D333
:10236000ABF800503A21504600F0E0FA13480570EF
:10237000064910201A310880BDE8F09F0828004067
:10238000F80000200E000020A8060020000C0240EB
:102390004E0B00205A0000200C000020C23200200A
:1023A000D63200207000002071000020900A00202A
:1023B000070000200040024000000E080600002038
:1023C0000F4810B5016841F0010101600C4A00217D
:1023D0000832116002680B4B1A400260031D0A4A62
:1023E0001A60026822F48022026005480C30016005
:1023F000FFF7D0F805494FF00060086010BD0000FD
:1024000000380240FFFFF6FE1030002408ED00E027
:1024100001F024BE10B50D4C0221204600F04DF80D
:10242000002811D00221204600F038F8204600F0A4
:1024300042F881B20648418106480088014420469E
:10244000BDE8104000F0E2B810BD000000080040F8
:10245000E80000200A00002010B50A4C01212046A7
:1024600000F02BF800280BD005F0BAFA0121204625
:1024700000F014F82046BDE81040002100F011B82B
:1024800010BD0000001000400029018802D041F07A
:10249000800101E021F0800101807047C943018281
:1024A00070470029018802D041F0010101E021F0CC
:1024B000010101807047406B704702460020138A7B
:1024C00092890B4202EA010202D0002A00D00120C8
:1024D0007047002A828901D00A4300E08A43828142
:1024E0007047000070B58AB001210420FEF796FE07
:1024F0004FF4A060FEF75EFE1E208DF82000002441
:102500008DF821408DF8224001258DF8235008A830
:10251000FEF71EFE0120FEF7FFFF0020FEF7FCFF86
:102520000320FEF7F9FF1A481A491B4E0068ADF860
:102530001C40B0FBF1F0401E4FF6FF71ADF81400E7
:102540000691ADF8164005A9304600F061F801216A
:102550003046FFF799FF1148ADF80040ADF8025042
:10256000C0880290ADF80C406946304600F018F87B
:102570000021304600F044F8012202213046FFF7E6
:10258000A8FF01213046FFF78CFF0AB070BD0000A4
:102590007C00002070640800000800400400002057
:1025A00030B5028C22F001020284028C8388048BF5
:1025B00022F0020224F073050C882C438D89154308
:1025C0004A882A430C4DA84202D00C4DA8420DD196
:1025D00022F00805CA8923F440732A4322F0040537
:1025E0008A882A430D8A1D434B8A2B4383800483A8
:1025F00089684163028430BD00000140000401404D
:10260000028B22F008020A4302837047416370473D
:1026100030B50288164C174DA0420DD0A8420BD001
:10262000B0F1804F08D0144B984205D0134B98421C
:1026300002D0134B984203D122F070034A881A4308
:10264000104B984206D0104B984203D022F44073AE
:102650000A891A4302804A68C2620A880285A04237
:1026600001D0A84201D1897A01860121818230BD41
:102670000000014000040140000400400008004048
:10268000000C0040001000400014004070B5012113
:1026900086B04804FEF7C2FD01210820FEF7A6FD22
:1026A0001C4E072205213046FEF75DFC072206215D
:1026B0003046FEF758FC022520208DF804500024F7
:1026C00000908DF806408DF8055069463046FEF7BB
:1026D0000EFC402000908DF8045069463046FEF70D
:1026E00006FC4FF41650ADF80C400290ADF80E40C9
:1026F000ADF81040ADF814400C20074CADF81200B6
:1027000002A9204600F0B2F80121204600F06CF842
:1027100006B070BD000C0240004400402DE9F041BD
:10272000294D40F225584146284600F067F8274CCD
:102730000026D0B14146284600F050F8A078002885
:102740003FD1284600F0EEF8C1B23A2902D00D2957
:1027500002D005E0268203E0208AA0810120A0703B
:102760001B4A208A1154401C208240F226673946B9
:10277000284600F043F8002823D03946284600F0C8
:102780002DF86089E189884202D91248415C02E053
:1027900005D14FF00D01284600F0C8F809E00022ED
:1027A00008210D48FEF7FCFB01224146284600F0B7
:1027B00044F8E089B0F5FA7F00D3E681E089401C57
:1027C000E081BDE8F08100000044004004000020EA
:1027D000A80600209C080020000C02400A0A0121E3
:1027E0009140C943018070470029818902D041F49A
:1027F000005101E021F400518181704770B501F072
:102800001F0501260024C1F3421306FA05F2012B2D
:102810000FD0022B0FD0838A4FEA11210088134278
:1028200006FA01F600EA060001D000B101242046B4
:1028300070BD8389F0E7038AEEE710B5C1F3421358
:1028400001F01F040121A140012B07D0022B07D06A
:102850001430002A026805D00A4304E00C30F8E77F
:102860001030F6E78A43026010BD00007FB50446D1
:10287000008A0D46C98820F4405001432182A08976
:1028800041F20C618843A9882A8911436A8902436D
:102890001143A181A08A20F44071A8890843A08235
:1028A0006846FEF7F7FC1D48844202D01C4884426B
:1028B00001D1039800E00298A1890904002900EBE6
:1028C000C00101EB0010296802DA4FEA410101E082
:1028D0004FEA8101B0FBF1F06422B0FBF2F14FEA64
:1028E00001114FEA11136FF018056B4300EB8300E1
:1028F000A3891D044FF0320306D503EBC000B0FBE3
:10290000F2F000F0070005E003EB0010B0FBF2F07E
:1029100000F00F00084320817FBD0000001001403F
:10292000001401408088C0F308007047C1F308011B
:102930008180704730B5034600224FF6FF7403EBE9
:102940004205B5F88C542D0404D5521CD2B2082A85
:10295000F5D32246A24205D003EB420041F40041E8
:10296000A0F88C14D0B230BD70B50C4600EB43110A
:10297000012581F8AE52C1E9AE4291F8C42202B1FC
:10298000022281F8B4221946FEF755FB002070BDE3
:1029900070B500EB4314002584F8AE52C4E9AE12C2
:1029A00094F8C51239B1022184F8B4121946FEF721
:1029B00042FB002070BD84F8B452F7E730B4022423
:1029C0000C7501244C750024CC820A8315064C83B7
:1029D00000EB431202D582F8C44201E082F8C542FE
:1029E000002330BC1A4600F01BB8D0F8AC240121FB
:1029F0001172D0F8AC0400218172704770B50C469A
:102A000000EB431101F52C71012501F8025C022550
:102A10000D71C1E902421946FEF70DFB002070BDA1
:102A200070B50C461D4616464979FEF7C8FA0146B0
:102A30000120E2780346012A0AD0022A07D101299F
:102A400010D0032911D0042901D1E370032070BDF7
:102A50002178617009212170A660A5812377022168
:102A6000E17070BDE370002070BDE370022070BDA6
:102A700070B500EB4314002584F8AE52C4E9AE12E1
:102A80001AB194F8C51259B102E0012184F8C512B7
:102A9000022184F8B4121946FEF7CDFA002070BD69
:102AA00084F8B452F7E70B4610B500EB421101F57C
:102AB0002C71002401F8024C03240C718B60082354
:102AC000CB601146FEF7B7FAC0B210BD022100225A
:102AD00000EB4103491CC9B2A3F88C240829F7D3A1
:102AE0000020704770B50C46002121706170A17004
:102AF00001220546E27022774020A07184F8201060
:102B000084F821202179284600F025F861792846AB
:102B100000F021F8002070BDD0F8AC2401215172E2
:102B2000D0F8AC040021C172704770B50C25044682
:102B300005290AD0042908D006290BD12570D0F820
:102B400080000068BDE870400047D4F88000406C09
:102B50008047257070BD082908D200EB410000F2C3
:102B60008C41B0F88C04C0F30E0008800020704740
:102B700030B442F08002DDE902540A7506224A753B
:102B80000322CB82B2EB132F02D140F2094200E0C4
:102B900000220A834C8323462A4630BCFFF740BFFD
:102BA0000A8803781A440A800178084470472DE99E
:102BB000FC41154600F58876CDE900650C464FF4DA
:102BC00000730022FFF7D4FF070009D1334604F158
:102BD000500204F13E0104F13400009500F06BFF57
:102BE0003846BDE8FC817CB51646044600F5887081
:102BF000CDE900060D464FF4807300222046FFF712
:102C0000B7FF002830D104F58874082E217805F824
:102C1000221F61786970A178E27801EB0221698056
:102C20002179297161796971A179A971E179A4F595
:102C30008874E97118D904F58C742178627801EBF5
:102C400002212981A178E27801EB022169812179B1
:102C5000627901EB0221A981A179A973E179E97374
:102C6000217A2974617A69747CBD7CB500F5887518
:102C7000069E1C46CDE9005642F440730022FFF741
:102C800077FF002814D16978032911D129788A1E89
:102C9000B24200DC1646AD1CB2B2002104E06B5C0F
:102CA000891C04F8013B89B29142F8D300212170BC
:102CB0007CBD00002DE9F05F002680468E74087F01
:102CC0000B250927DFF8B8910C464FF0080B4FF0A1
:102CD000050A0C2817D2DFE800F0CF060E3941575D
:102CE0006879829CADC1627904F114014046FFF716
:102CF000DAFE022065E061794046FEF760F90128BE
:102D000002D003281ED0B7E0207D618B00F0800048
:102D100051B141F28832A9F80020802802D084F80D
:102D20001CA008E0032005E03222A9F8002080283A
:102D300006D0072020774046FEF737F920829BE037
:102D40002777F8E7257784F812A095E02379227B8E
:102D50004046A168FFF752FE042032E02179404648
:102D6000FEF72DF901280DD0042870D0032873D068
:102D70004046FEF71AF9218A411AB9F8000081424B
:102D80006AD879E02777F3E7617908EB411090F88A
:102D9000C51281F0010180F8C5126379227B40469B
:102DA000A168FFF765FE06200BE061794046FEF75B
:102DB00006F9012804D0042849D0022803D041E0B4
:102DC0000720207758E084F81CA055E000222379E2
:102DD00011464046FFF712FE84F81CB04CE0217902
:102DE0004046FEF7ECF80746012830D0032F33D0D9
:102DF0004046FEF7DAF8218A411AB9F8000081420C
:102E00002AD8042F38D1607820700420A0740326BB
:102E100032E06179002208EB411090F8C51281F090
:102E2000010180F8C512637911464046FFF720FE84
:102E30000A20C6E761794046FEF7C1F8012806D0AE
:102E4000022807D0032807D016E000E004E06078ED
:102E5000207011E027770FE025770DE0A07B401C64
:102E6000C0B2A073022802D80120087704E084F8D9
:102E700012B06078087002263046BDE8F09F00006E
:102E8000240100202DE9F0410C4680460125897877
:102E90000026FF2092B02F460A2952D2DFE801F027
:102EA000052332525B6D8097AAB408222146404622
:102EB000FFF799FE002844D194F82900A0714046FC
:102EC000FEF7B4F8A770A0790023CDE9006061791E
:102ED0001A46404600F05AFDA0790023CDE9006073
:102EE00021791A462AE0122221464046FFF77BFE4E
:102EF000002826D1D4F88000C16904F12200884757
:102F000002207FE001222146404600F01EFF0028FB
:102F10007BD1A41CA777D4F87E00006A80470320E9
:102F2000207000960196A27FA1780023404600F011
:102F30002DFD00960196A27FE1780023404600F027
:102F400025FD62E0092221464046FFF730FE0028B9
:102F50005BD1042056E0E28E21464046FFF727FE73
:102F6000A0BBD4F8800004F1500204F13E01436A92
:102F700004F134009847052044E094F830200626F8
:102F800052B1009002AB21464046FFF76EFEE8B911
:102F9000D4F88000816A11E0D4F88000816A12E0E0
:102FA00094F8312007265AB1009002AB21464046E2
:102FB000FFF75BFE50B9D4F88000C16A02A803E0B5
:102FC000D4F88000C16A13A08847A6701DE094F869
:102FD0003220082652B1009002AB21464046FFF74E
:102FE00044FE90B9D4F88000016BE7E7D4F8800084
:102FF000016BE8E794F839202146404600F0B1FE25
:1030000018B90920A07000E0002512B02846BDE8DC
:10301000F08100004E2F41002DE9F0411E4614467C
:1030200088460546069F00F0BDFF002000F06EFFB9
:1030300021462846FFF756FD7C340B49C4E900675A
:1030400040F2AC400022C5F8AC140A724059414627
:1030500042722846FDF7BCFF60680068804728463A
:10306000BDE8F04100F07EBF2801002070B50446A5
:103070000A4D012012B1012A08D102E02B78EA782A
:1030800001E06B78AA782046FFF798FC044AD168E3
:10309000491CD160042900D9042070BD803B002068
:1030A000340100200149002008707047703B002067
:1030B00070B505460124FDF7B6FFD8B11048017878
:1030C0002846FDF780FF0D2813D10E480E4A0168EF
:1030D00091420ED1A0F1200241685268914209D17B
:1030E000007B20B1012805D0022802D002E0002494
:1030F00000E0022403481030C473204670BD000075
:10310000803B0020603B0020555342530A490A236C
:10311000012802D002280CD07047084A1078401CC1
:10312000C0B210700A2804D2062008700120C870AE
:1031300070470B7070470000703B00204401002076
:103140002DE9F05F0E4681460124FDF76CFF002853
:103150002AD0514D0027DFF844B12878DFF84081AC
:103160004FF0080A0B281FD2DFE800F0060B2359A6
:10317000626D757D824D9100484600F095F9012001
:1031800013E021223275FF227275F7823783002304
:103190004846314677831A46FFF742FC04004FF059
:1031A000020002D0032C02D072E0287070E0687038
:1031B00027E0A1223275FE227275F782378301273C
:1031C000364A4846314677833B460832FFF728FCAB
:1031D00004004FF0030202D0032C11D058E09BF8FA
:1031E00008008BF8480010B198F8011009B12A7056
:1031F0004EE088F80170D6F88000006C804747E008
:103200006A700920D1E77379002231464846FFF7FA
:10321000D5FB04003CD18BF848706878C5E7484678
:1032200000F026FB08B9042008E0FFF76FFF2FE04D
:10323000484600F07DFA0028F7D10520287088F86C
:103240000070002424E0484600F0B8F90028ECD1D2
:1032500085F800A0F3E7484600F0BAFA0028E4D168
:1032600068782870EDE73146484600F01BF80FE01B
:10327000D6F88000C06B804710F0FF0002D0012814
:1032800003D005E085F800A002E0062400E0042455
:103290002046BDE8F09F0000703B0020803B0020EE
:1032A000440100202DE9F35F0098FDF7BCFE0028E3
:1032B00021D07A4C05277A4A20797A4D00264FF0A2
:1032C00008094FF0070B4FF002084FF0010A0928D8
:1032D00011D2DFE800F010051233609EB3C9D500AB
:1032E0006E4953781F2230390098FFF751FB84F85C
:1032F00005A084F80480BDE8FC9F51780098FDF794
:103300005EFE012806D002286BD00428F3D185F890
:1033100000A0B2E06148EE60303884F80580017B9F
:10332000806801F08001002866D06860A068A8600D
:10333000802901D00420AFE00320ADE09046117851
:103340000098FDF73CFE012802D0617903291CD0CA
:103350000320EE606071686840280DD998F800304D
:103360004022A9680098FFF7FFFA68684038686053
:10337000A8684030A860BEE790B382B298F80030E9
:10338000A9680098FFF7F0FA34E00428B3D12E7052
:1033900084F804B00EE0904651780098FDF70FFED7
:1033A000012809D0022829D00428A4D185F800A03A
:1033B00084F8049067719EE70420EE60607168688D
:1033C00040280FD998F801304022A9680098FFF7EB
:1033D000DFFAA8684030A8606868403868608AE70B
:1033E0000AE058E040B182B298F80130A96800982C
:1033F000FFF7CEFA6E607EE727717CE7A96898F840
:103400000130009802B04022BDE8F05F4039FFF77C
:10341000BFBA2249677110393F20A160A0810D20F9
:103420000D462E54401E10F0FF00FAD12E70137876
:103430003F220098FFF798FA06202DE011780098B7
:10344000FDF7BDFD012805D0042894D12E7084F825
:1034500004B050E7EE606771A0782070DDE90001EC
:10346000FFF726FEE07346E7DDE900010022FFF7E3
:10347000FDFD58B9287802280DD184F804903AE768
:10348000DDE900010122FFF7F1FD20B1042892D10E
:1034900084F80F802FE7607920712CE7703B0020C3
:1034A000803B00203401002010B5FDF7BCFD002159
:1034B00048B10848064A0260074A42604173054A1B
:1034C00001203032D0700548C1600548017010BD40
:1034D00055534243403B00205040302034010020EF
:1034E0004401002070B50C4C06460025617831B1CE
:1034F00000F05FFF61783046FFF72DFB65702178A3
:10350000002907D0304600F054FF21783046FFF7FD
:1035100022FB257070BD0000803B00202DE9FC419E
:10352000064691F843000C46082803D194F845005C
:10353000502806D0D1F88000006C80470020BDE8FC
:10354000FC8194F852001C4D010604D5E870B4F8D3
:103550005400A88003E0A870B4F85400E88094F800
:103560005A00010604D5E870B4F85C00A88003E0B6
:10357000A870B4F85C00E880A9783046FFF7DAF963
:103580006870E9783046FFF7D5F92870E888022797
:10359000CDE900702034697863782278304600F0F5
:1035A00062FAA888CDE900706378227829783046DD
:1035B00000F059FAC2E70000803B002070B50324F8
:1035C000FDF731FD30B3214D214E0022E878012373
:1035D000012802D0022836D11DE01E493F24802058
:1035E0008C6008730A2088730520AE60A8701020D4
:1035F0000E18401EF27310F0FF00F9D11A20C873A4
:103600004C74CC742B71072028700320E8730220BF
:10361000E870032417E0E87B20B101280ED00228CF
:103620000FD010E0B07801060948A0F1100001D5D4
:10363000037300E00273EB70002404E0EB700124DC
:1036400001E0EB700224204670BD0000703B0020BA
:10365000DC3B0020403B00202DE9FF4F314D81B085
:103660004FF0030985F80090984614460198FDF73D
:10367000DAFC002852D02C4F01264FF0020BF878CC
:103680004FF0000A012802D0022847D12DE0274937
:1036900080205246C1F8088008730A208873029877
:1036A000B86010200B18401EDA7310F0FF00F9D13B
:1036B0002820C873200E4874200C8874200AC8740F
:1036C0000C75C8F34F20ADF800009DF80100887517
:1036D0009DF80000C8753E710720387087F80F907C
:1036E00087F803B085F8009018E0F87B38B90198A6
:1036F000FDF799FC18B1FE7085F800A00EE0F87B8C
:10370000012805D10198FDF78EFC08B1FE7005E097
:10371000F87B022802D1FE7085F800B0287805B049
:10372000BDE8F08F59010020703B0020403B002095
:1037300070B50324FDF777FC20B3224D0123224806
:10374000E978012902D002293AD11CE01F49082258
:103750008A6080220A730A228A73A8600420A870F3
:10376000102000220C18401EE27310F0FF00F9D167
:103770002520C8732B71072028700320E8730220CE
:10378000E87003241CE0E97B21B1012913D0022950
:1037900014D015E00C49027810390024CA70427820
:1037A0008A7082784A70C2780A7082794A72C079C7
:1037B0000872EB7004E0EB70012401E0EB7002246E
:1037C000204670BD703B0020DC3B0020403B0020C9
:1037D00070B50324FDF727FC38B3224D0123224A9C
:1037E000E878012802D0022839D11FE01F493F2480
:1037F00080208C6008730A208873AA60A87868709B
:103800000620A870102000220E18401EF27310F03F
:10381000FF00F9D10320C8730A74CC742B710721FF
:103820002970E8730220E870032418E0E87B20B1D7
:1038300001280FD0022810D011E00B481178103861
:103840000024C1715178817191784171D1780171F1
:10385000EB7004E0EB70012401E0EB7002242046E1
:1038600070BD0000703B0020DC3B0020403B00208E
:1038700070B50324FDF7D7FB10B31A4D0123E87888
:10388000012802D002282BD11BE017490022062074
:103890008A600A7388731548A8603F20A8810324B2
:1038A000AC7010200E18401EF27310F0FF00F9D11A
:1038B000CA732B7107202870EC730220E870032470
:1038C0000EE0E87B20B1012805D0022806D007E0F1
:1038D000EB70002404E0EB70012401E0EB700224A3
:1038E000204670BD703B0020403B0020603B002024
:1038F000F8B51E4615460F460324FDF794FB80B32A
:10390000204B0122D878012802D0022838D129E0A2
:103910001D4C00210A20A6602173A07310209F6017
:103920002718401EF97310F0FF00F9D12A20E07328
:10393000280E6074280CA074280AE0742575C6F35C
:103940004F20ADF800009DF80100A0759DF8000023
:10395000E0751A71072018700320D8730220D87000
:1039600003240DE0D87B20B1012805D0022805D022
:1039700006E0DA70002403E0DA7001E0DA70022475
:103980002046F8BD703B0020403B002070B500EBA6
:103990004114059D0AB184F8AC22B4F8B222AA42BF
:1039A00002D00DB1A4F8B25294F8AF229A4202D0DC
:1039B0000BB184F8AF3200F01AFD002070BD38B5AD
:1039C0000546002400200090284600F012FE002842
:1039D00047D0284600F014FE0090009808B9002057
:1039E00038BD0098C0F3C00018B1284601F058FD5A
:1039F00004430098C0F3001018B1284601F09EFC63
:103A000004430098C0F3401018B1284601F0DDFAD5
:103A100004430098C0F3806018B1284601F0F7FB1A
:103A200004430098C0F3406018B1284600F0CBFE74
:103A300004430098C0F3006018B1284601F05BFB16
:103A400004430098C0F3407018B1284600F081FE8E
:103A500004430098C0F3405018B1284600F090FE8F
:103A600004432046BCE72DE9F04100EB4104DDE9C9
:103A7000066704F28C4594F88C4404F07F0C00EB4C
:103A8000411404F52B7484F801C02D78C5F3C015DA
:103A9000A57022706671E780E3700022227662765C
:103AA000A4F52B7413B9012284F8B02200F09FFC16
:103AB0000020BDE8F0812DE9F8439046894606468E
:103AC0001978089A3170597871709978DC781846AD
:103AD00001EB04217180197931715C7974719C79E1
:103AE000B471DC79F471037A3372092A15D9092289
:103AF000ADF80020022910D800270BE06946FFF737
:103B00004FF8417804290AD00178BDF8002011440B
:103B1000ADF800103179B942F0DCBDE8F88307EB6D
:103B2000C70202EB09040178217041786170817845
:103B3000A170C178E1700179217141796171817958
:103B4000A171C179E171017A2172217900250229DF
:103B50000CD90EE06946FFF723F8417805290BD010
:103B60000178BDF800201144ADF800102179A94278
:103B7000F0DC7F1C7FB2CDE708EBC50102780A704C
:103B800042784A7082788A70C278CA700279437922
:103B90006D1C02EB03228A8082798A716DB2E5E79F
:103BA0002DE9FC4702270C4605468DF80070097880
:103BB0004FF000084FF0010904F1200A00F2AC4672
:103BC0000D290FD2DFE801F00F07199D9D9D577059
:103BD000838B629D90002846FDF728FA002801D1CA
:103BE00084F800808DE02846FDF71DFA002803D0F8
:103BF0002846FEF76BFF277083E0D4F880008068CA
:103C00008047D5F8AC04474680F8098031682846DB
:103C100081F80A900021FEF78DFE60718021284610
:103C2000FEF788FE20712846FDF700FA002868D1CB
:103C3000241DE06FC06880472846FDF7BAF9C0B27E
:103C40006077062104F8041CE16F89698847A07831
:103C5000CDE90070637F227F21782846FFF703FFBC
:103C6000A078CDE90070637F227F6178241F284609
:103C7000FFF7F9FE45E021462846FFF703F9F8B9BA
:103C8000D4F88000406B80470A2018E0D4F8800008
:103C9000806B8047012834D1E06F214602682846B6
:103CA000904768B907200AE0E06F214682682846FD
:103CB00090478DF800009DF8000010B90820207092
:103CC0001FE09DF800102046FEF72FFF19E0E06F7F
:103CD0002146C268284690478DF80000F1E721464A
:103CE0002846FEF7E7FF0CE021462846FEF7FAFEDD
:103CF000D4F8800040688047E06F5146426828460B
:103D000090472846FDF78FF900281CD1D5F8AC0460
:103D1000C07A002817D1D4F8800000698047D5F810
:103D2000AC14284681F80B902146FEF7DBFED4F850
:103D3000800040688047E06F5146426802B02846E4
:103D4000BDE8F0471047BDE8FC8730B400230B7591
:103D500005244C75CA820B834B8330BC1A46FEF790
:103D60005FBE30B400230B7509244C75CA820B83E7
:103D70004B8330BC1A46FEF753BE70470149002002
:103D800008707047940000207047000070B51F4C09
:103D90000A211F48A379B3FBF1F202F1300501FBC0
:103DA00012320570303242706379B3FBF1F202F1E6
:103DB000300501FB123285703032C2702379B3FBBB
:103DC000F1F201FB123102F1300404713031417122
:103DD0002E2181716321C17173210172762141729B
:103DE0000C49012008700C481021018320214183D7
:103DF0000220FDF7B5FB0320FDF7BEFBBDE87040D8
:103E0000012202210548FEF764BB00004E0B002092
:103E100095000020710000200010024000080040C2
:103E20000C4910B5002008700B4810214183202157
:103E300001830320FDF794FB0220FDF791FB002096
:103E4000FDF78EFB0022BDE8104002210348FEF77B
:103E500040BB00007100002000100240000800403C
:103E60000449002008700448102141832021018367
:103E7000704700007100002000100240704770473A
:103E800010B54FF4FA7000F005F9BDE8104000F0ED
:103E900001B8704770B5144C0025207810B1012886
:103EA00020D11CE01149002001F0BEFF104A102370
:103EB0001049202628B115704B830E834FF0FF3038
:103EC00070BD0D48007B012802D00120207009E060
:103ED00015704B830E830220FDF74EFBFBE7FCF7CA
:103EE000A1FD2570002070BD94000020EC32002060
:103EF0007100002000100240CC3B0020704770474A
:103F00007047704770477047012070471CB501210A
:103F10000420FDF76BF9022101208DF805100090B7
:103F20008DF8040000208DF80600074C8DF807007E
:103F300069462046FCF7DBFF01212046FDF725F806
:103F4000C82000F0A7F81CBD000802400448002962
:103F50004FF0010101D0FDF716B8FDF716B80000CB
:103F60000008024038B54FF4C060FDF723F9432044
:103F70008DF8000001248DF801408DF802408DF885
:103F800003406846FDF7E4F817208DF800008DF82F
:103F9000014002208DF802008DF803406846FDF7CD
:103FA000D7F838BDFEB501210846FDF71FF94FF4DB
:103FB000D050032600908DF8056002208DF8040093
:103FC0000025254F8DF806508DF807506946384674
:103FD000FCF78DFF0A2209213846FCF7C4FF0A22AC
:103FE0000B213846FCF7BFFF0A220C213846FCF7AC
:103FF000BAFF012438158DF8064000908DF807406F
:104000008DF8056069463846FCF771FF0A221146B3
:104010003846FCF7A8FF01218803FDF717F90121B5
:104020008020FDF7EFF80021E006FDF7CDF84FF412
:10403000A060FDF7BFF81C208DF808008DF809502E
:104040008DF80A408DF80B4002A8FDF781F8012198
:104050000846FDF7E3F8FEBD0000024010B501215F
:104060008C072046FEF729FA002809D001212046B6
:10407000FEF714FA06490A681AB10868401E08607B
:1040800010BD2046BDE810400021FEF70ABA00002E
:10409000900000200121FCF77DBC0221FCF77ABCD6
:1040A00070B50446017A0025C06801290CD0C168AA
:1040B00041F04001C160204600F0AAF8217A4FF497
:1040C000803003291DD01EE0816B627A21F480319B
:1040D0000AB141F480118163E068C16821F04011A8
:1040E00021F0880121F4202141F01001C160204617
:1040F00000F08EF8E07801283DD1E1682A20886040
:104100002EE04FF44030617A40F4301009B140F4B1
:104110008010E16888631420FFF7BCFFE168C8687D
:10412000227A032A01D140F48030C860207A032823
:1041300016D1E068016B21F0406101F1806121F44A
:104140007F0141F0805606F534160663C820FFF75C
:10415000A1FFE16846F400000863C820FFF79AFF5A
:10416000E078012807D1E068816821F01E010A315A
:1041700041F020018160284670BD2DE9F041002703
:1041800004463D463E46FFF7C1FED4F80C010660EA
:104190000121204600F021FA6069016821F0040144
:1041A0000160E07A012813D1E06880214162304645
:1041B00061F30F00E268602161F31F409062E0222A
:1041C000304662F30F0061F31F40E168C1F800015F
:1041D0001021204600F0B6F8204600F095F84FF088
:1041E000FF3107E004EB850050F8902F91600068E4
:1041F000C6606D1C2078A842F4D80121204600F04A
:104200003BF8204600F05EF83846BDE8F08100003B
:10421000F8B50026044637460096124D0320FFF7F6
:104220003CFFE068006900907F1CAF4201D900208C
:10423000F8BD00980028F1DA0098002140F0010054
:1042400000900098E2681061E06802690092491CE1
:10425000A94202D8009AD207F7D10320FFF71DFF29
:104260003046F8BD400D0300C0680022816821F08F
:10427000010181601046704770B50C460546FFF796
:1042800065FE284600F0C1F9C10408D4012C0CD108
:10429000D5F8CC1040F480500860C10405D524B98D
:1042A000D5F8CC1020F480500860BDE87040C820DC
:1042B000FFF7F0BEC0680022816841F00101816013
:1042C0001046704710B5C268002319469361C46850
:1042D0005A1E6261C4686260C4686261C468094A47
:1042E000A261C27802B91021C06841F00C5141F0BE
:1042F0000801826941F400118A430A438261184629
:1043000010BD00000008008038B500240246214698
:104310000094009840F0100000900098D368186155
:104320000748D26813690093491C814202D8009B58
:10433000DB06F7D40320FFF7B0FE204638BD0000AF
:10434000400D030038B5002403462246009400982F
:1043500040F020000090009861F38A1000900098CF
:10436000D96808610748D9680B690093521C8242DA
:1043700002D8009B9B06F7D40320FFF78EFE204651
:1043800038BD0000400D030010B500EB8100002394
:1043900050F8901F4FF00042012464F3DC420A61A0
:1043A0000068016821F0804141F000410160184639
:1043B00010BD10B500EB81010023D1F890201168E9
:1043C00041F0404111F4402F09D0C1F38144022C47
:1043D00005D04069006910F47F0F03D004E0C06885
:1043E000C06AF8E721F000411160184610BDF0B531
:1043F00000EB81060027D6F890403D467B1E2A46FA
:10440000A360C378012B00D1042200EB411393F881
:10441000B14234B1012C1FD0022C02D0032C27D181
:104420000EE042F0890293F8AE4242F4826284B90F
:1044300093F8B04242F04002D4B142F0200217E0BB
:1044400093F8AEC242F0990242F4C062BCF1000F90
:104450000ED042F480720BE093F8AEC242F001023B
:1044600042F40872BCF1000F02D042F08002F0E783
:10447000D6F89040E26001228A4041698C69144379
:104480008C61C068816941F00071816193F8AC0270
:1044900060F39C5593F8AD0260F3CE2593F8AE021D
:1044A00060F3CF3593F8AF0202280CD025F400302A
:1044B00093F8B112B3F8B22261F3934062F30A00A9
:1044C000032903D004E045F40030F1E740F0005048
:1044D000D6F8901008603846F0BDF0B500EB4114F6
:1044E0000026D4F8BC3205464FF4807C37466BB1C9
:1044F000B4F8B2229818401EB0FBF2F080B26045CA
:1045000005D912026046C4F8BC2200E0012094F8EC
:10451000AE22AAB1B4F8B2224243C4F8BC2262F37C
:10452000120760F3DC4794F8B40205EB810260F3F4
:104530005E77D2F890000761E878012803D007E0A1
:10454000D4F8BC22EBE7D2F89030D4F8B802586126
:1045500052F8900F0368284600F045F860F35D7349
:10456000126823F0804040F000401060E87890BB73
:1045700094F8AE0278BBD4F8BC2262B394F8B102CE
:1045800030B1012810D0022802D0032819D10BE045
:10459000E868C36AD21CC2F38F029BB2934210D266
:1045A000826942F020020BE068690069D21CC2F304
:1045B0008F0280B2904204D2E868826942F0806241
:1045C0008261B4F8BC020A4683B2D4F8B80201464C
:1045D000284600F073FF3046F0BD4069026861F381
:1045E0000102026070474069806840F30000401C8F
:1045F0007047C068406910F0010000D0012070478A
:10460000C0684169806908407047D0F8CC000068F4
:1046100020F02E00704740694069704710B504468D
:104620000023D21C9008D4F8D02003E0146841F88D
:10463000044B5B1C8342F9D3084610BD70B5054698
:10464000FFF7E3FF40F4807455F8CC0F04600A20B4
:10465000FFF720FD296824F4807008601420FFF71C
:1046600019FD012070BD000070B500220123C27049
:1046700040268370154614468680012901D061B119
:1046800014E0C3720821017004214FF0A042417070
:104690009115C1800221017208E0C4720C210170E1
:1046A000062141701F4A4FF4A061C18002F50061EC
:1046B000C0E9032100210AE002EB411303F5106673
:1046C00000EB810403F53063A661491C6365437800
:1046D0008B42F1D802F5806141614031C0F8CC10C5
:1046E000002108E002EB411300EB810403F5A06315
:1046F000491CC4F8903003788B42F3D8002108E0BD
:1047000002EB013300EB810403F58053491CC4F82C
:10471000D03003788B42F3D802F56062C0F80C21E8
:10472000284670BD0000044010B5C3680024D86856
:10473000012920F0C04201D019B104E042F000523A
:1047400001E042F08042DA603220FFF7A3FC20460D
:1047500010BD38B504460021C4F8101200200090A6
:10476000D4F8AC04016820468847009820F0005037
:1047700000F1005000900098E1684861012038BDC8
:104780000CB50146D1F8900000680090009820F028
:10479000004000F100400090009820F0804000F1BF
:1047A00080400090009AD1F89000026000200190B3
:1047B000019820F4001000F5001001900198CA68DB
:1047C000506101200CBD7CB505460024002628461A
:1047D000FFF721FF019000BF1BE0019880B201218B
:1047E000A140084214D005F1900050F82400006860
:1047F00000900098C0F3C03028B12146284600F050
:104800000DF8064304E02146284600F01AFA064354
:10481000641C2878A042E0D830467CBD70B586B0D4
:1048200005460C4605F1900050F82460B0680590EC
:10483000F0680490DDE904100840059005F190004F
:1048400050F8240000680390002004900598C0F3FD
:104850008000D0B100200190019820F00400001DDC
:1048600001900198B06005F1900050F82400C068F4
:104870000190019820F00200801C019005F1900049
:1048800050F824000199C16073E00598C0F340100E
:1048900048B100200190019820F0200020300190C4
:1048A0000198B06065E00598C0F3C00078B305F1E9
:1048B000900050F82400C0680190019820F0020098
:1048C000801C019005F1900050F824000199C1600E
:1048D000052105F52370015500200190019820F075
:1048E0001000103001900198B060002001900198F4
:1048F00020F00800083001900198B060059820F081
:1049000010000590E1B22846FFF753FD31E0FFE7C4
:104910000598C0F3802060B305F1900050F82400A2
:10492000C0680190019820F00200801C019005F100
:10493000900050F824000199C160E1B22846FFF7C9
:1049400038FD00200190019820F0100010300190F7
:104950000198B060082105F52370015500200190F1
:10496000019820F4806000F5806001900198B060AB
:1049700000BF0598C0F34020F8B105F1900050F851
:104980002400C0680190019820F00200801C019072
:1049900005F1900050F824000199C160E1B2284669
:1049A000FFF707FD00200190019820F4007000F54A
:1049B000007001900198B06040E1059810F0010F7F
:1049C00071D0E878012812D105F1900050F8240048
:1049D0000069029005F52B7000EB44100069029904
:1049E000C1F31201411A05F5147040F82410012199
:1049F00005F5237001550021783840F82410002077
:104A00000190019820F00100401C01900198B060D5
:104A10000398C0F3814020B10398C0F3814002287D
:104A20002AD105F1900050F82400C0680190019847
:104A300020F00200801C019005F1900050F8240045
:104A40000199C160E1B22846FFF7B3FC0020019054
:104A5000019820F01000103001900198B06005F529
:104A60002B7000EB4410007E80F0010105F52B70E7
:104A700000EB44100176E1E00398C0F38140032885
:104A80009AD1039820F0005000F10050039005F1F6
:104A9000900050F8240003990160012105F29B2049
:104AA0000155CBE0FFE70598C0F34000002851D046
:104AB00005F1900050F82400C0680190019820F0A2
:104AC0000200019005F1900050F824000199C160A6
:104AD00005F52370005D012804D1012105F29B201A
:104AE00001552DE005F52370005D052804D1042152
:104AF00005F29B20015523E005F52370005D062893
:104B000004D005F52370005D082808D1002105F5C3
:104B1000057040F8241003218730015510E00398F8
:104B2000C0F3814003280BD105F52B7000EB441036
:104B3000007E80F0010105F52B7000EB441001763A
:104B400000200190019820F00200801C0190019843
:104B5000B06073E00598C0F3C01040B305F1900059
:104B600050F82400C0680190019820F00200801CD9
:104B7000019005F1900050F824000199C16005F5FD
:104B8000057050F82410491C40F824100621783094
:104B90000155E1B22846FFF70CFC00200190019876
:104BA00020F08000803001900198B06046E00598C8
:104BB000C0F30010F0B30398C0F3814003281ED166
:104BC00005F1900050F82400C0680190019820F091
:104BD0000200801C019005F1900050F8240001991A
:104BE000C160E1B22846FFF7E4FB00200190019884
:104BF00020F01000103001900198B06018E0039888
:104C0000C0F3814020B10398C0F3814002280FD146
:104C1000039820F0004000F100400390039820F03A
:104C20008040039005F1900050F824000399016042
:104C3000032100E002E005F523700155012006B0D4
:104C400070BD7FB505460C4605F1900050F8246014
:104C5000B0680390F0680290DDE90210084003900C
:104C600005F1900050F82400006801900398C0F30B
:104C70008000D0B100200090009820F00400001DBA
:104C800000900098B06005F1900050F82400C068D2
:104C90000090009820F00200801C009005F1900028
:104CA00050F824000099C1608CE10398C0F34010D3
:104CB00048B100200090009820F0200020300090A3
:104CC0000098B0607EE1039810F0010F27D000211A
:104CD00005F5057040F8241005F1900050F8240007
:104CE000C0680090009820F00200801C009005F140
:104CF000900050F824000099C160E1B22846FFF707
:104D000058FB00200090009820F00100401C00900B
:104D10000098B060012105F52370015552E1039818
:104D2000C0F3C00010B300200090009820F00800ED
:104D3000083000900098B06005F1900050F8240011
:104D4000C0680090009820F00200801C009005F1DF
:104D5000900050F824000099C160E1B22846FFF7A6
:104D600028FB052105F5237001552BE10398C0F3BD
:104D7000001038B3002105F5057040F8241005F146
:104D8000900050F82400C0680090009820F00200C5
:104D9000801C009005F1900050F824000099C1603B
:104DA000E1B22846FFF705FB00200090009820F0B4
:104DB0001000103000900098B060032105F52370BA
:104DC0000155FFE00398C0F3C01040B305F1900017
:104DD00050F82400C0680090009820F00200801C69
:104DE000009005F1900050F824000099C160E1B2F4
:104DF0002846FFF7DEFA05F5057050F82410491C27
:104E000040F82410062178300155002000900098C9
:104E100020F08000803000900098B060D2E00398CD
:104E2000C0F3801038B3002105F5057040F8241058
:104E300005F1900050F82400C0680090009820F020
:104E40000200801C009005F1900050F824000099A9
:104E5000C160E1B22846FFF7ACFA0020009000984C
:104E600020F04000403000900098B060042105F52B
:104E700023700155A6E00398C0F3802060B305F1CC
:104E8000900050F82400C0680090009820F00200C4
:104E9000801C009005F1900050F824000099C1603A
:104EA000E1B22846FFF785FA00200090009820F034
:104EB0001000103000900098B060082105F52370B4
:104EC000015500200090009820F4806000F580607B
:104ED00000900098B06075E00398C0F3400000288F
:104EE00070D005F1900050F82400C0680090009840
:104EF00020F00200009005F1900050F82400009985
:104F0000C16005F52370005D012815D1012105F26E
:104F10009B2001550198C0F38140022848D105F536
:104F20002B7000EB4410407E80F0010105F52B70E2
:104F300000EB441041763BE005F52370005D03284B
:104F400004D1022105F29B20015531E005F52370C3
:104F5000005D04280FD105F52B7000EB441000799B
:104F6000012803D1E1B22846FFF70EFA022105F22B
:104F70009B2001551CE005F52370005D052804D138
:104F8000042105F29B20015512E005F52370005D18
:104F900006280DD105F5057050F82400032807D127
:104FA000032105F29B2001550021873840F8241089
:104FB00000200090009820F00200801C00900098D3
:104FC000B06000BF012004B070BD7CB50446E0684D
:104FD000C06A00900098C0F3417104F52B7000EB9B
:104FE00041100069C01CC0F38F0673E04FF6FF71DB
:104FF000009801EA80050098C0F3417104F52B7018
:1050000000EB41100069A84215D20098C0F341712D
:1050100004F52B7000EB4110008A85B2002001904E
:10502000019820F0200020300190E068806901990B
:105030008843E16888610098C0F3417104F52B70E2
:1050400000EB41100069C01CC0F38F060098C0F34C
:105050004172C0F3417304F52B7000EB43102B46F3
:10506000C168204600F02AFA0098C0F3417104F5A7
:105070002B7000EB4110C06841190098C0F34172D9
:1050800004F52B7000EB4210C1600098C0F3417131
:1050900004F52B7000EB41100069411B0098C0F330
:1050A000417204F52B7000EB421001610098C0F3CF
:1050B000417104F52B7000EB4110406941190098D3
:1050C000C0F3417204F52B7000EB42104161E068BF
:1050D000C06A0090009880B2B0420ADD0098C0F328
:1050E000417104F52B7000EB4110006900287FF43A
:1050F0007DAF01207CBDFEB50446002600250020C2
:10510000009002900190D4F8CC0000680290D4F88E
:10511000CC0000680190019820F0040001900198F3
:1051200020F002000190019820F008000190019801
:1051300020F0200001900298C0F3400060B1D4F844
:10514000AC04416820468847019820F00200801C8A
:105150000190012645F001050298C0F3C000002827
:1051600040D0019820F00800083001900298C0F368
:105170008000002836D00121C4F810120298C0F334
:105180004140022804D00298C0F34140012828D1B0
:105190006069006800900298C0F34140022811D174
:1051A00041F2707160694160009800F003000228CC
:1051B00018D0E07A012803D102212046FFF70DFA2A
:1051C00001260FE04BF6803160694160009800F0E5
:1051D0000300012806D001212046FFF7FEF9012631
:1051E00000E001260298C0F3401030B1019820F091
:1051F00020002030019045F0010516B12046FFF750
:105200001DFA0199D4F8CC0001602846FEBD7CB59A
:1052100004466069006900900098C0F3417104F58C
:105220002B7000EB41100069C01CC0F38F0674E0C6
:105230004FF6FF71009801EA80050098C0F34171B4
:1052400004F52B7000EB41100069A84216D20098BB
:10525000C0F3417104F52B7000EB4110008A85B258
:1052600000200190019820F0806000F180600190A2
:10527000E068806901998843E16888610098C0F31B
:10528000417104F52B7000EB41100069C01CC0F3A4
:105290008F060098C0F34172C0F3417304F52B7080
:1052A00000EB43102B46C168204600F007F9009838
:1052B000C0F3417104F52B7000EB4110C068411937
:1052C0000098C0F3417204F52B7000EB4210C160EE
:1052D0000098C0F3417104F52B7000EB4110006998
:1052E000411B0098C0F3417204F52B7000EB421093
:1052F00001610098C0F3417104F52B7000EB41107F
:10530000406941190098C0F3417204F52B7000EB1D
:1053100042104161606900690090009880B2B0421B
:105320000ADD0098C0F3417104F52B7000EB4110C9
:10533000006900287FF47CAF01207CBD30B585B0CA
:105340000446002000900390039820F010001030D5
:105350000390E068806903998843E1688861E068A8
:10536000006A0490049800F00F00009004F190008F
:105370009DF8001050F82100006801900498C0F3D7
:105380004340022806D0032878D0052877D0072884
:1053900073D175E00498C0F30A10002869DD04F5A4
:1053A0002B709DF8001000EB4110C068002860D001
:1053B0000498C0F30A1204F52B709DF8003000EB3E
:1053C0004310C1682046FFF729F9049800F00F0147
:1053D00004F52B7000EB4110C0680499C1F30A1169
:1053E0000144049800F00F0204F52B7000EB42100A
:1053F000C160049800F00F0104F52B7000EB411020
:1054000040690499C1F30A110144049800F00F02A5
:1054100004F52B7000EB4210416104F52B709DF8F0
:10542000001000EB4110456904F514709DF8001060
:1054300040F8215004F190009DF8001050F8210030
:10544000006902900298C0F3C940002811DD01985C
:1054500020F0004000F100400190019820F08040D1
:10546000019004F190009DF80020019950F822006D
:10547000016006E002E002E0FFE700BF00BF00BFFE
:1054800000BF00BF039820F0100010300390E068C8
:10549000806903990843E1688861012005B030BD47
:1054A00008B5014600200090009820F00800083060
:1054B00000900098CA685061012008BD30B50546CB
:1054C0000020EC78002C0CD105EB8202DB1C9B0841
:1054D000D2F8D02003E051F8045B1560641C9C42B4
:1054E000F9D330BDFEE702E008C8121F08C1002A48
:1054F000FAD170477047002001E001C1121F002A55
:10550000FBD1704700B50120FBF7D2FD0120FBF76E
:105510009DFD01F0A3FE0346012807D1064841790D
:10552000491C4171C17809B90121C1700020FBF704
:105530008DFD184600BD00000400002010B5044693
:105540000A464078012304F1300100F04BFB08B11A
:10555000032010BDB4F82E12A1F52A40553801D011
:10556000022010BD94F86600B4F8671040EA0121EB
:105570000848B0EB012F08D094F88210B4F88320CB
:1055800041EA0221B0EB012F01D1002010BD012022
:1055900010BD0000004641542DE9F0470B4601685C
:1055A00016460A78303A092A08D84C783A2C05D1A0
:1055B000891C016012B10B20BDE8F0876D480468BA
:1055C0001C60A4B1207820B1607800F03DFBC107D9
:1055D0000FD04FF0000984F80090484684F80190FD
:1055E00000F0D0FA0546C00708D00320E4E70C20FD
:1055F000E2E70EB140070FD40020DDE7607804F148
:105600000A02022100F0CEFA38BB6089B0F5806F43
:1056100023D81EB1680701D50A20CDE70026314600
:105620002046FFF78BFF01280CD104F5F7700179B4
:1056300099B1017AD0F8090041EA002631462046A6
:10564000FFF77CFF032801D038B901E00120B3E760
:10565000B4F83B006589A84201D00D20ACE7B4F84E
:10566000460028B994F85400D4F8551040EA0120B7
:10567000A06194F84010E170E78F414316FA87F279
:10568000226294F83DC084F802C0B4F8413023810E
:10569000B4F8430028B994F85000D4F8518040EA97
:1056A00008206D09B3FBF5F3C01B401AC01AB0FB0C
:1056B000FCF0801C012540F6F777E061B84200D38A
:1056C00002254FF6F777B84201D303250FE0032DEB
:1056D0000DD05018606258181044A0624FF0FF308F
:1056E00020614F4684F80490032D07D039E094F8E8
:1056F0005C00D4F85D7040EA0720EBE76771B4F80E
:10570000600016FA80F262616078012304F13001D2
:1057100000F068FA28BBB4F82E02A0F52A415539EA
:105720001FD194F83000D4F8311040EA012012491A
:10573000884216D194F81402D4F8151240EA0120D8
:105740000E4988420DD194F81C02D4F81D1240EA8B
:105750000120E06094F81802D4F8191240EA012000
:10576000206104492570091FE7620888401C0880F1
:10577000E08041E760010020525261417272416154
:10578000C269891E921E8A4201D800207047826A2F
:10579000807801FB002070472DE9F041C7695FEA7E
:1057A0000108064608D04146304600F0C3FD0228F5
:1057B00008D20120BDE8F081F5680DB1BD4204D3E7
:1057C000012502E0B842F5D345462C46641CBC4294
:1057D00002D30224022D0AD32146304600F0AAFD4E
:1057E00038B1411CE6D00128E4D0AC42EED1002013
:1057F000E0E76FF070422146304601F08BFC4FF03D
:10580000FF3540B95FEA080007D00146224630461E
:1058100001F080FC08B12846CCE7F4603069411CF7
:1058200003D0401E3061012070712046C2E70000A5
:105830002DE9F047846989460B222021204601F09A
:10584000E5FB00221346D9F800C01E4608271CF8C5
:105850000610761C202930D92F292ED05C292CD077
:105860002E2901D0BB4208DB082F34D12E2932D19A
:1058700008230B279006020EE9E7802903D322486C
:10588000084410F8801C21A000E0401C057815B1E8
:105890008D42FAD11FE0A1F14100192802D842F04F
:1058A000020207E0A1F16100192803D8203942F073
:1058B0000102C9B2E1545B1CC9E70CEB0605C9F84B
:1058C0000050202901D8042000E000201BB12178DD
:1058D000E52903D004E00620BDE8F087052121700A
:1058E000082F01D191060A0E02F00301012901D10E
:1058F00040F01000C2F38101012901D140F00800FD
:10590000E0720020E8E70000587B000820222A2BE4
:105910002C5B3D5D7C7F000042F21073B0FBF3F224
:1059200010B503FB120002F130044FF47A73B0FBA0
:10593000F3F20C7003FB120002F130046423B0FB9D
:10594000F3F24C7003FB120002F130040A23B0FBA7
:10595000F3F28C7002F13004CC702C2403FB1200A3
:105960000C713030487110BD002101E000BF491CAE
:105970008142FBD370472DE9F0410446C0880E46B2
:10598000401C07043F0C37D02169A1B3206842892D
:105990005209B7FBF2F302FB1372002A5FD1491CD4
:1059A0002161E16841B1428983785209B7FBF2F283
:1059B0005B1E1A4204D052E00089B8421CD94EE066
:1059C00000F0B8FC054601281BD9681C32D02068BD
:1059D000C169A9423DD876B1E168FFF7DDFE050057
:1059E0000DD0012D0DD0681C24D00021206801F0BD
:1059F00014FBF8B907E0FFE70420BDE8F0810720B9
:105A0000FBE70220F9E7206800214289303001F0ED
:105A1000FDFA29462068FFF7B3FE216800264FF003
:105A20000108C8620EE080F804800021206801F0BF
:105A3000F4FA08B10120E0E72068C16A491C761C2D
:105A4000F6B2C16220688178B142ECD8C16A891B84
:105A5000C162E56029462068FFF792FE2061E78079
:105A6000206841894909B7FBF1F201FB127130222C
:105A700002EB4111084460610020BEE770B50446A6
:105A8000002100F02EF80EE02169206801F0C5FA2F
:105A9000050024D160690078E52807D030B10121E4
:105AA0002046FFF768FF0500EED018E02169206866
:105AB00001F0B3FA050012D16669202200213046B8
:105AC00001F0A4FA0B223046A16901F097FAA0690F
:105AD000C07A00F018003073216801200871284650
