:020000040800F2
:10000000180B00209D010008B3030008AF0300088F
:10001000B103000873020008731900080000000013
:10002000000000000000000000000000F5050008CE
:10003000750200080000000049040008D10600080D
:10004000B7010008B7010008B7010008B7010008B0
:10005000B70100086505000879020008AD02000834
:10006000B7010008B7010008B7010008B701000890
:10007000B7010008B7010008B7010008B701000880
:10008000B7010008B7010008B7010008B701000870
:10009000B7010008B7010008B7010008B701000860
:1000A000B7010008B7010008B7010008B701000850
:1000B000ED070008B7010008F1070008B7010008C4
:1000C000B7010008B7010008B7010008B701000830
:1000D000B701000811090008B7010008B7010008BE
:1000E000B7010008B7010008B7010008B701000810
:1000F000B7010008B7010008B7010008B701000800
:10010000B7010008B7010008B7010008B7010008EF
:10011000B7010008B7010008B7010008B7010008DF
:10012000B7010008B7010008B7010008B7010008CF
:10013000B7010008B7010008B7010008B7010008BF
:10014000B7010008B7010008B70100083D04000826
:10015000B7010008B7010008B7010008B70100089F
:10016000B7010008B7010008B7010008B70100088F
:10017000B7010008B7010008B7010008B70100087F
:10018000B7010008B7010008DFF80CD000F018F83C
:1001900000480047011A0008180B00200648804755
:1001A00006480047FEE7FEE7FEE7FEE7FEE7FEE75C
:1001B000FEE7FEE7FEE7FEE79D070008890100086D
:1001C000064C074D06E0E06840F0010394E80700A4
:1001D00098471034AC42F6D3FFF7DAFF141C00083E
:1001E000341C000810B5074C2060084600F00CF8DD
:1001F00020680028FCD1BDE8104000214FF080406D
:1002000000F025BB3C0000203EB504464FF0804581
:100210000021284600F01BFB00220121284600F0A7
:100220002EFB022C02D0012C02D004E00B2001E0B6
:1002300042F6DF6001900520ADF800000020ADF827
:100240000800ADF802006946284600F023FB0121B2
:10025000284600F0F9FA0121284600F0EBFA0122C5
:100260001146284600F00BFB0121284600F0EFFA6A
:100270003EBDFEE77047000010B5012000F036F8E3
:1002800058B1084803780021074A012B01D00378B0
:100290000BB1117000E001210170BDE81040012098
:1002A00000F01EB8400000202400002010B50220FD
:1002B00000F01CF800280FD00848437800210122E4
:1002C000012B06D001704270BDE81040022000F002
:1002D00007B802704170F7E710BD0000420000202F
:1002E0000149086070470000143C0140064A01467D
:1002F00000201268044B0A4014331B680B4202D0E2
:10030000002A00D001207047003C0140F0B50023D6
:10031000012403270D6804FA03F21540954242D1E7
:10032000D0F800C05E0007FA06F52CEA050CC0F80C
:1003300000C091F804C0D0F800E00CFA06FC4CEACA
:100340000E0CC0F800C091F804C0BCF1010F02D03F
:10035000BCF1020F1FD1D0F808C02CEA050CC0F880
:1003600008C091F805C0D0F808E00CFA06FC4CEA89
:100370000E0CC0F808C0D0F804C02CEA020CC0F87B
:1003800004C0426891F806C00CFA03FC1FFA8CFC0A
:1003900042EA0C024260C268AA43C260CA79C568D8
:1003A000B2402A43C2605B1C102BB3D3F0BDFEE702
:1003B000FEE710B5802000F0C3F800280BD0012024
:1003C00000F0C8F80121182000F0EEF8BDE8104058
:1003D000802000F047B810BD70B50F21C4780278B6
:1003E00001234FF0E026E4B1124C246804F4E064E9
:1003F000C4F5E064C4F30724C4F10405E140447883
:10040000AC4085780D4025430B4C290111550078EF
:1004100000F01F018B40400906EB8000C0F800315E
:1004200070BD02F01F008340500906EB8000C0F849
:10043000803170BD0CED00E000E400E0014800F008
:10044000E8BA00005800002070470000044A002964
:10045000116801D0014300E0814311607047000042
:100460003038024001490870704700000E380240E1
:100470000149C864704700000000474270B5204A37
:100480001168204C11F00C0104D06610042903D02F
:10049000082903D004601BE0066019E01849091F11
:1004A0000B68C3F380550B6803F03F0315B1B6FB2F
:1004B000F3F301E0B4FBF3F30C680968C4F38814A8
:1004C0006343C1F30141491C4900B3FBF1F10160F1
:1004D00011680F2303EA11110B4B5C5C0168E140CA
:1004E00041601468072505EA94241C5D21FA04F490
:1004F0008460126805EA52329A5CD140C16070BDD6
:10050000083802400024F400480000200246002081
:10051000510901290BD002290CD00849096802F0C1
:100520001F02012393400B4200D001207047034972
:100530007439F3E70149091FF0E7000074380240FD
:10054000034A0146002012680A4200D00120704789
:100550000C380240024900220A70087070470000FF
:100560000238024010B50820FFF7EAFF48B1082022
:10057000FFF778FF3120FFF7C9FF10B1012000F02D
:1005800029F81020FFF7DCFF00280CD01020FFF71F
:1005900069FF3920FFF7BAFF002804D0BDE81040FA
:1005A000022000F01DB810BD044A0029117801D0C6
:1005B000014300E081431170704700000D38024094
:1005C000034A1368084323F07843184310607047C8
:1005D00008380240014908667047000000004742A1
:1005E000034A116821F003010143116070470000C4
:1005F00008380240704700000CB500222E490192D5
:100600000092086840F4803008604FF4A0630868E6
:1006100000F4003000900198401C0190009810B93F
:1006200001989842F3D108688303244841D50122F8
:100630000092224A3832136843F080531360204AF4
:10064000136843F48043136002680260026842F456
:1006500000420260026842F4A0520260031F194A7D
:100660001A600A6842F080720A600A689201FCD53A
:10067000154B40F205621A60026822F00302026024
:10068000026842F0020202600268C2F38102022A9A
:10069000FAD1026822F400020260084A0B487C3258
:1006A0001060086840F08060086008680001FCD5B0
:1006B0000CBD0092EDE7000000380240083802400F
:1006C0000070004008544007003C02408040003069
:1006D00070B5224B224D234918782C8800220A2815
:1006E0000DD0214E3688401C34442C8018701F4891
:1006F00003885B1C9BB20380642B0ED024E0B4FB08
:10070000F0F01B4C20801A701A4B18801A4B08808E
:100710001C88A042EBD21880E9E7184B0280194DE3
:100720001868401C1860164B1880174B0C881978F5
:1007300025F81140491C1970C00703D113490888D6
:10074000401C08801248027012480078012803D12A
:1007500011498888401C888070BD00003800002046
:10076000C8060020F00600202800002034000020E9
:10077000B4060020DC060020040700202C00002026
:1007800030000020EC050020320000203600002060
:100790003300002040000020420000200F4810B528
:1007A000016841F0010101600C4A0021083211602A
:1007B00002680B4B1A400260031D0A4A1A60026865
:1007C00022F48022026005480C300160FFF714FF1C
:1007D00005494FF00060086010BD0000003802407D
:1007E000FFFFF6FE1030002408ED00E000F066B9CF
:1007F00010B50D4C0221204600F035F8002811D02C
:100800000221204600F020F8204600F02AF807498F
:1008100080B248800649098801442046BDE810405E
:1008200000F035B810BD0000000800404200002074
:10083000260000200029018802D041F0800101E05B
:1008400021F0800101807047C9430182704700296F
:10085000018802D041F0010101E021F00101018095
:100860007047406B704702460020138A92890B4202
:1008700002EA010202D0002A00D001207047002ABB
:10088000828901D00A4300E08A4382817047416334
:100890007047000030B50288164B174C98420DD0B7
:1008A000A0420BD0B0F1804F08D0144DA84205D023
:1008B000134DA84202D0134DA84203D122F0700577
:1008C0004A882A43104DA84206D0104DA84203D0B2
:1008D00022F440750A892A4302804A68C2620A8863
:1008E0000285984201D0A04201D1897A0186012176
:1008F000818230BD0000014000040140000400403E
:1009000000080040000C00400010004000140040AF
:10091000A0B5274D40F22557CBB03946284600F008
:1009200051F860B13946284600F046F8284600F0F4
:1009300068F8C4EB04116A4602EB4102105540F21C
:1009400026673946284600F03DF8002815D039467C
:10095000284600F031F81748082E0ED2DFE806F0DE
:1009600004070F13171B1F2410F8341002E000EBCC
:10097000C4004178284600F048F84BB0A0BD00EB19
:10098000C40040880EE000EBC4004188F2E700EBB1
:10099000C400808806E000EBC4008188EAE700EB31
:1009A000C400C088010AE5E700EBC400C188E1E7A4
:1009B000001001409C0500200A0A01219140C94312
:1009C0000180704730B501F01F0201240025C1F3FA
:1009D000421304FA02F2012B0FD0022B0FD0838AAC
:1009E0004FEA11210088134204FA01F400EA0400DE
:1009F00001D000B10125284630BD8389F0E7038A84
:100A0000EEE78088C0F308007047C1F308018180D9
:100A1000704738B50546002400200090284600F0B5
:100A2000A5F8002847D0284600F0A7F800900098C5
:100A300008B9002038BD0098C0F3C00018B128469E
:100A400000F075FF04430098C0F3001018B1284669
:100A500000F0BBFE04430098C0F3401018B12846D4
:100A600000F0FAFC04430098C0F3806018B12846F7
:100A700000F014FE04430098C0F3406018B128460B
:100A800000F0E8F804430098C0F3006018B128466D
:100A900000F078FD04430098C0F3407018B1284678
:100AA00000F09EF804430098C0F3405018B1284667
:100AB00000F0ADF804432046BCE7000010B501216A
:100AC0008C072046FFF7CFFE002809D001212046E1
:100AD000FFF7BAFE0649086818B10868401E0860AA
:100AE00010BD2046BDE810400021FFF7B0BE000059
:100AF0003C0000200121FFF775BB10B500EB810021
:100B0000002350F8901F4FF00042012464F3DC42B0
:100B10000A610068016821F0804141F000410160F4
:100B2000184610BD10B500EB81010022D1F89030BD
:100B3000196841F0404111F4402F09D0C1F38144BC
:100B4000022C05D04069006910F47F0F03D004E047
:100B5000C068C06AF8E721F000411960104610BD76
:100B60004269106861F3010010607047C068406915
:100B700010F0010000D001207047C0684169806911
:100B800008407047D0F8CC00006820F02E00704775
:100B9000406940697047034610B50020D21C920896
:100BA000D3F8D03003E01C6841F8044B401C90425D
:100BB000F9D3084610BD70B50446FFF7E3FF40F4D3
:100BC000807554F8CC0F05600A20FFF793FF216869
:100BD00025F4807008601420FFF78CFF012070BDA1
:100BE00038B504460021C4F8101200200090D4F853
:100BF000AC04016820468847009820F0005000F1BE
:100C0000005000900098E1684861012038BD0CB5A3
:100C10000146D1F8900000680090009820F0004054
:100C200000F100400090009820F0804000F18040EA
:100C30000090009AD1F89000026000200190019885
:100C400020F4001000F5001001900198CA6850616E
:100C500001200CBD7CB50546002400262846FFF780
:100C600097FF019000BF1BE0019880B20121A140D5
:100C7000084214D005F1900050F82400006800905C
:100C80000098C0F3C03028B12146284600F00DF886
:100C9000064304E02146284600F01AFA0643641C85
:100CA0002878A042E0D830467CBD70B586B00546B5
:100CB0000C4605F1900050F82460B0680590F0688B
:100CC0000490DDE904100840059005F1900050F80B
:100CD000240000680390002004900598C0F3800071
:100CE000D0B100200190019820F00400001D019077
:100CF0000198B06005F1900050F82400C0680190A0
:100D0000019820F00200801C019005F1900050F83D
:100D100024000199C16073E00598C0F3401048B108
:100D200000200190019820F02000203001900198CF
:100D3000B06065E00598C0F3C00078B305F190009D
:100D400050F82400C0680190019820F00200801C37
:100D5000019005F1900050F824000199C16005212F
:100D600005F52370015500200190019820F0100036
:100D7000103001900198B06000200190019820F09F
:100D80000800083001900198B060059820F010002C
:100D90000590E1B22846FFF7C5FE31E0FFE7059870
:100DA000C0F3802060B305F1900050F82400C068C3
:100DB0000190019820F00200801C019005F1900044
:100DC00050F824000199C160E1B22846FFF7AAFE5D
:100DD00000200190019820F010001030019001983F
:100DE000B060082105F5237001550020019001989D
:100DF00020F4806000F5806001900198B06000BF31
:100E00000598C0F34020F8B105F1900050F8240097
:100E1000C0680190019820F00200801C019005F14B
:100E2000900050F824000199C160E1B22846FFF714
:100E300079FE00200190019820F4007000F5007008
:100E400001900198B06040E1059810F0010F71D059
:100E5000E878012812D105F1900050F824000069CB
:100E6000029005F52B7000EB441000690299C1F364
:100E70001201411A05F5147040F82410012105F5FE
:100E8000237001550021783840F82410002001908B
:100E9000019820F00100401C01900198B060039877
:100EA000C0F3814020B10398C0F3814002282AD1C9
:100EB00005F1900050F82400C0680190019820F0DE
:100EC0000200801C019005F1900050F82400019967
:100ED000C160E1B22846FFF725FE0020019001988D
:100EE00020F01000103001900198B06005F52B70D3
:100EF00000EB4410007E80F0010105F52B7000EB43
:100F000044100176E1E00398C0F3814003289AD1B0
:100F1000039820F0005000F10050039005F190007C
:100F200050F8240003990160012105F29B2001552E
:100F3000CBE0FFE70598C0F34000002851D005F151
:100F4000900050F82400C0680190019820F0020041
:100F5000019005F1900050F824000199C16005F559
:100F60002370005D012804D1012105F29B20015569
:100F70002DE005F52370005D052804D1042105F25C
:100F80009B20015523E005F52370005D062804D061
:100F900005F52370005D082808D1002105F50570CE
:100FA00040F8241003218730015510E00398C0F366
:100FB000814003280BD105F52B7000EB4410007E17
:100FC00080F0010105F52B7000EB44100176002044
:100FD0000190019820F00200801C01900198B060FF
:100FE00073E00598C0F3C01040B305F1900050F8CD
:100FF0002400C0680190019820F00200801C01903C
:1010000005F1900050F824000199C16005F50570C4
:1010100050F82410491C40F824100621783001555E
:10102000E1B22846FFF77EFD00200190019820F0F4
:101030008000803001900198B06046E00598C0F3D0
:101040000010F0B30398C0F3814003281ED105F1CE
:10105000900050F82400C0680190019820F0020030
:10106000801C019005F1900050F824000199C160A6
:10107000E1B22846FFF756FD00200190019820F0CC
:101080001000103001900198B06018E00398C0F390
:10109000814020B10398C0F3814002280FD103980A
:1010A00020F0004000F100400390039820F08040C1
:1010B000039005F1900050F824000399016003218A
:1010C00000E002E005F523700155012006B070BD77
:1010D0007FB505460C4605F1900050F82460B068D5
:1010E0000390F0680290DDE902100840039005F1DA
:1010F000900050F82400006801900398C0F380002D
:10110000D0B100200090009820F00400001D009055
:101110000098B06005F1900050F82400C06800907D
:10112000009820F00200801C009005F1900050F81B
:1011300024000099C1608CE10398C0F3401048B1CD
:1011400000200090009820F02000203000900098AF
:10115000B0607EE1039810F0010F27D0002105F563
:10116000057040F8241005F1900050F82400C06884
:101170000090009820F00200801C009005F1900083
:1011800050F824000099C160E1B22846FFF7CAFC7C
:1011900000200090009820F00100401C0090009872
:1011A000B060012105F52370015552E10398C0F3A9
:1011B000C00010B300200090009820F00800083014
:1011C00000900098B06005F1900050F82400C068CD
:1011D0000090009820F00200801C009005F1900023
:1011E00050F824000099C160E1B22846FFF79AFC4C
:1011F000052105F5237001552BE10398C0F300107C
:1012000038B3002105F5057040F8241005F1900071
:1012100050F82400C0680090009820F00200801C64
:10122000009005F1900050F824000099C160E1B2EF
:101230002846FFF777FC00200090009820F010006F
:10124000103000900098B060032105F5237001551F
:10125000FFE00398C0F3C01040B305F1900050F8D0
:101260002400C0680090009820F00200801C0090CC
:1012700005F1900050F824000099C160E1B22846C1
:10128000FFF750FC05F5057050F82410491C40F894
:10129000241006217830015500200090009820F09D
:1012A0008000803000900098B060D2E00398C0F3D6
:1012B000801038B3002105F5057040F8241005F1C1
:1012C000900050F82400C0680090009820F00200C0
:1012D000801C009005F1900050F824000099C16036
:1012E000E1B22846FFF71EFC00200090009820F095
:1012F0004000403000900098B060042105F5237054
:101300000155A6E00398C0F3802060B305F190007A
:1013100050F82400C0680090009820F00200801C63
:10132000009005F1900050F824000099C160E1B2EE
:101330002846FFF7F7FB00200090009820F01000EF
:10134000103000900098B060082105F52370015519
:1013500000200090009820F4806000F580600090EC
:101360000098B06075E00398C0F34000002870D08A
:1013700005F1900050F82400C0680090009820F01B
:101380000200009005F1900050F824000099C1601F
:1013900005F52370005D012815D1012105F29B2080
:1013A00001550198C0F38140022848D105F52B7002
:1013B00000EB4410407E80F0010105F52B7000EB3E
:1013C000441041763BE005F52370005D032804D10D
:1013D000022105F29B20015531E005F52370005DE7
:1013E00004280FD105F52B7000EB4410007901287B
:1013F00003D1E1B22846FFF780FB022105F29B20D2
:1014000001551CE005F52370005D052804D1042179
:1014100005F29B20015512E005F52370005D0628BA
:101420000DD105F5057050F82400032807D10321DC
:1014300005F29B2001550021873840F82410002038
:101440000090009820F00200801C00900098B0608E
:1014500000BF012004B070BD7CB50446E068C06ADE
:1014600000900098C0F3417104F52B7000EB41101F
:101470000069C01CC0F38F0673E04FF6FF7100983F
:1014800001EA80050098C0F3417104F52B7000EB70
:1014900041100069A84215D20098C0F3417104F5CB
:1014A0002B7000EB4110008A85B20020019001985A
:1014B00020F0200020300190E06880690199884385
:1014C000E16888610098C0F3417104F52B7000EB6E
:1014D00041100069C01CC0F38F060098C0F3417230
:1014E000C0F3417304F52B7000EB43102B46C16829
:1014F000204600F02AFA0098C0F3417104F52B70E1
:1015000000EB4110C06841190098C0F3417204F526
:101510002B7000EB4210C1600098C0F3417104F5DC
:101520002B7000EB41100069411B0098C0F3417221
:1015300004F52B7000EB421001610098C0F341717B
:1015400004F52B7000EB4110406941190098C0F37D
:10155000417204F52B7000EB42104161E068C06AF3
:101560000090009880B2B0420ADD0098C0F341714B
:1015700004F52B7000EB4110006900287FF47DAF6B
:1015800001207CBDFEB50446002600250020009009
:1015900002900190D4F8CC0000680290D4F8CC00FE
:1015A00000680190019820F004000190019820F05B
:1015B00002000190019820F008000190019820F0AD
:1015C000200001900298C0F3400060B1D4F8AC0450
:1015D000416820468847019820F00200801C019055
:1015E000012645F001050298C0F3C000002840D054
:1015F000019820F00800083001900298C0F38000A4
:10160000002836D00121C4F810120298C0F34140DE
:10161000022804D00298C0F34140012828D1606913
:10162000006800900298C0F34140022811D141F2B5
:10163000707160694160009800F00300022818D0C2
:10164000E07A012803D102212046FFF789FA01261A
:101650000FE04BF6803160694160009800F00300B4
:10166000012806D001212046FFF77AFA012600E082
:1016700001260298C0F3401030B1019820F02000FC
:101680002030019045F0010516B12046FFF793FA8E
:101690000199D4F8CC0001602846FEBD7CB5044613
:1016A0006069006900900098C0F3417104F52B70E7
:1016B00000EB41100069C01CC0F38F0674E04FF6C8
:1016C000FF71009801EA80050098C0F3417104F5AC
:1016D0002B7000EB41100069A84216D20098C0F3AD
:1016E000417104F52B7000EB4110008A85B2002097
:1016F0000190019820F0806000F180600190E06826
:10170000806901998843E16888610098C0F341715C
:1017100004F52B7000EB41100069C01CC0F38F066C
:101720000098C0F34172C0F3417304F52B7000EBD5
:1017300043102B46C168204600F007F90098C0F31B
:10174000417104F52B7000EB4110C06841190098FD
:10175000C0F3417204F52B7000EB4210C160009899
:10176000C0F3417104F52B7000EB41100069411B7F
:101770000098C0F3417204F52B7000EB4210016138
:101780000098C0F3417104F52B7000EB41104069E3
:1017900041190098C0F3417204F52B7000EB421020
:1017A0004161606900690090009880B2B0420ADD32
:1017B0000098C0F3417104F52B7000EB41100069F3
:1017C00000287FF47CAF01207CBD30B585B0044695
:1017D000002000900390039820F010001030039038
:1017E000E068806903998843E1688861E068006A7D
:1017F0000490049800F00F00009004F190009DF810
:10180000001050F82100006801900498C0F3434094
:10181000022806D0032878D0052877D0072873D16E
:1018200075E00498C0F30A10002869DD04F52B70F8
:101830009DF8001000EB4110C068002860D00498AB
:10184000C0F30A1204F52B709DF8003000EB431032
:10185000C1682046FFF79FF9049800F00F0104F5D6
:101860002B7000EB4110C0680499C1F30A110144C8
:10187000049800F00F0204F52B7000EB4210C160D9
:10188000049800F00F0104F52B7000EB4110406943
:101890000499C1F30A110144049800F00F0204F501
:1018A0002B7000EB4210416104F52B709DF8001085
:1018B00000EB4110456904F514709DF8001040F8E4
:1018C000215004F190009DF8001050F821000069AB
:1018D00002900298C0F3C940002811DD019820F061
:1018E000004000F100400190019820F080400190FC
:1018F00004F190009DF80020019950F82200016049
:1019000006E002E002E0FFE700BF00BF00BF00BF4B
:1019100000BF039820F0100010300390E068806949
:1019200003990843E1688861012005B030BD08B51E
:10193000014600200090009820F008000830009038
:101940000098CA685061012008BD30B5C4780025F0
:101950006CB900EB82000024DB1C9B08D0F8D0009F
:1019600003E051F8042B0260641C9C42F9D3284622
:1019700030BDFEE702E008C8121F08C1002AFAD1F4
:1019800070477047002001E001C1121F002AFBD1FF
:101990007047000030B5084A52F820301C684900F2
:1019A00003258D40AC431C6052F8200002680123DF
:1019B0008B401A43026030BD0000002001F00F028E
:1019C00001219140024A52F8200001837047000033
:1019D000000000200348016840F2FF12114301603B
:1019E000704700003038024001F00F0201219140A1
:1019F000024A52F820004183704700000000002096
:101A00008AB005A8FEF73AFD0120FEF731FD05205A
:101A10008DF8100000248DF811408DF8124001253A
:101A20008DF8135004A8FEF7D7FC01210420FEF71F
:101A30000DFD6802009003208DF8050002208DF84E
:101A400004008DF806408DF8075069461048FEF7EF
:101A50005DFC69070020FEF7B3FD00F0C1F800F05F
:101A60005FF8FFF7B7FF0C210320FFF793FF02A8F1
:101A700000F010F89DF80E004FF00C01C0074FF079
:101A8000030002D0FFF79AFFF1E7FFF7ADFFEEE7A3
:101A900000080240214910B50968204A121F126847
:101AA000002303608380C1F3035303EB8303C1F37B
:101AB000034404EB43030370C1F3003303EB8303DC
:101AC000C1F3032404EB43034370C1F3011401F099
:101AD0000F0304EB840403EB44038370C1F342312E
:101AE000C170C2F3015101EB8101C2F3034303EB67
:101AF00041010171C2F3023101EB8101C2F3032301
:101B000003EB4101417102F00F01C2F3021202EB3B
:101B1000820201EB4201817110BD000004280040E7
:101B200029490868C0064ED42848026842F080520D
:101B300002602748026842F4807202602348343011
:101B4000026842F00102026002689207FCD51F4859
:101B50003030026842F480320260026822F480323F
:101B60000260026822F440720260026842F400726D
:101B70000260026842F4004202601348CA22183030
:101B80000260532202600A6842F080020A600A681A
:101B90005206FCD50C4BF9221B1D1A600D4A1A6027
:101BA000094B0D4A083B1A601B1F0C4A1A60064A73
:101BB000121F136843F0400313600A6822F080028A
:101BC0000A60FF21016070470C2800404038024045
:101BD00000700040F9007F0029A3130000371400B3
:101BE0000A48016841F0805101600948016841F4E8
:101BF0008071016005483030016841F48031016036
:101C0000016821F4803101607047000040380240D3
:101C100000700040341C0008000000205800000044
:101C2000741900088C1C000858000020C00A00002D
:101C3000841900080000024000040240000802402D
:101C4000000C024000100240001402400018024044
:101C5000001C0240002002400000BA4100000000C9
:101C60000000000000000001000000000000000073
:101C70000000000000000200000000000000000062
:0C1C800001020304010203040607080926
:040000050800018965
:00000001FF
