:020000040800F2
:10000000203500209D010008F3080008EF080008D3
:10001000F1080008770400087D3D0008000000009A
:10002000000000000000000000000000B50C000807
:100030007D06000800000000B1090008B90D0008A5
:10004000B7010008B7010008B7010008B7010008B0
:10005000B7010008150B000881060008B506000866
:10006000B7010008B7010008B7010008B701000890
:10007000B7010008B7010008B7010008B701000880
:10008000B7010008B7010008B7010008B701000870
:10009000B7010008B7010008B7010008B701000860
:1000A000B7010008B7010008B7010008B701000850
:1000B000E90E0008B7010008ED0E0008B7010008BE
:1000C000B7010008B7010008B7010008B701000830
:1000D000B701000835110008B7010008B701000892
:1000E000B7010008B7010008B7010008B701000810
:1000F000B7010008B7010008B7010008B701000800
:10010000B7010008B7010008B7010008B7010008EF
:10011000B7010008B7010008B7010008B7010008DF
:10012000B7010008B7010008B7010008B7010008CF
:10013000B7010008B7010008B7010008B7010008BF
:10014000B7010008B7010008B7010008A5090008B9
:10015000B7010008B7010008B7010008B70100089F
:10016000B7010008B7010008B7010008B70100088F
:10017000B7010008B7010008B7010008B70100087F
:10018000B7010008B7010008DFF80CD000F018F83C
:1001900000480047C14B0008203500200648804732
:1001A00006480047FEE7FEE7FEE7FEE7FEE7FEE75C
:1001B000FEE7FEE7FEE7FEE7990E0008890100086A
:1001C000064C074D06E0E06840F0010394E80700A4
:1001D00098471034AC42F6D3FFF7DAFF58520008C4
:1001E0007852000870B59CB001212E4800F0E2FB67
:1001F0000121880200F002FC4FF0806000902A4844
:1002000001902A4802A90024012531C1E802CDE964
:10021000064080000890401109900AA90594400208
:1002200031C1234E0D94694630460E9400F0FCF91E
:100230000121304600F0EEF90420199003208DF8DA
:1002400068008DF86B4019A91A4800F09BFA1594C4
:100250001694179415A8189400F038F80F948DF898
:10026000404011941394104C8DF841504C3C8DF843
:1002700050500FA9204600F051F8002301220C2114
:10028000204600F071F80121204600F03DF80121E0
:10029000204600F02FF80121204600F00DF81CB098
:1002A00070BD0000040040004C220140040000200A
:1002B00010640240000802400029816802D041F029
:1002C000010101E021F0010181607047074B10B589
:1002D0001A6807490A40D0E900142143D0E90240D6
:1002E000044321431143196010BD00000423014061
:1002F000E030FCFF0029816802D041F4807101E008
:1003000021F48071816070470029816802D041F436
:10031000007101E021F400718160704730B54268DE
:100320000F4B0C791A400B6842EA042213434360D6
:1003300082680C4B4D791A40D1E9034323438C6802
:1003400044EA4504234313438360C26A097D22F4CF
:100350007002491EC9B242EA0151C16230BD0000BB
:10036000FFFEFFFCFDF7FFC070B5072409290AD97D
:10037000C568A1F10A0606EB4606B440A543B340A2
:100380001D43C56007E0056901EB4106B440A54384
:10039000B3401D4305611F23072A09D2446B521E37
:1003A00002EB820293409C4391400C43446370BD36
:1003B0000D2A09D2046BD21F02EB820293409C43A8
:1003C00091400C43046370BDC46A0D3A02EB820293
:1003D00093409C4391400C43C46270BD816841F0DE
:1003E000804181607047000010B5074C20600846CE
:1003F00000F00CF820680028FCD1BDE81040002176
:100400004FF0804000F0A1BD340000203EB504460E
:100410004FF080450021284600F097FD0022012181
:10042000284600F0AAFD022C02D0012C02D004E0E4
:100430000B2001E042F6DF6001900520ADF80000DE
:100440000020ADF80800ADF802006946284600F02B
:1004500033FE0121284600F075FD0121284600F0F9
:1004600067FD01221146284600F087FD012128463C
:1004700000F06BFD3EBDFEE72DE9FC5F584C594D89
:1004800020882988884264D0684604F045FD208889
:1004900028809DF804100A20B1FBF0F1524C01F1C4
:1004A0003002524D2270B1FBF0F200FB12113031DC
:1004B00061703A22A2709DF805104FF03B08B1FB25
:1004C000F0F101F13003E370B1FBF0F300FB131125
:1004D0003031217162719DF80610464EB1FBF0F18A
:1004E00001F13002A271B1FBF0F200FB12103030CA
:1004F000E07184F80880092028703D480027DFF863
:10050000F890078037804FF00D0B4FF4167A308843
:1005100029F81000297801EBC001214403F028FEDE
:100520003088401C80B230802A78504502EBC002EF
:10053000224402F803BC03D002F8018C5045E6D3F4
:100540002E4807702E4800F0C0F92E4C012802D02A
:100550002770BDE8FC9F20782B4F30B102222B4939
:10056000384604F097F818B305E0082227492648D2
:1005700004F090F818B1022000F044FBE9E70020F5
:1005800000F040FB2048F96803F0C7FF2878318865
:100590001F4B00EBC10214491B4804F072F91A48C2
:1005A00003F0B2FF002000F021FB01202070D0E713
:1005B000002000F027FB1448F96803F0AEFF28780C
:1005C0003188134B00EBC10207490F4804F059F979
:1005D0000D4803F099FF002000F008FBB9E7000088
:1005E000180000201A0000205C0E00200F000020E0
:1005F00010000020120000208C0600200E000020B9
:10060000F800002014000020602A0020390000209B
:100610001E0000200029016802D041F0010101E024
:1006200021F001010160704730B50368124ACC68BF
:1006300013400A682243D1E905452C432243CC6983
:1006400022430C6A22434C6A22438C6A22434C6B3D
:1006500022438C6B22431A430260426922F0070353
:10066000D1E90B2422431A4342610A6942604A6875
:1006700082608968C16030BD3F801CF07047000017
:1006800010B5012000F036F858B108480378002171
:10069000074A012B01D003780BB1117000E0012152
:1006A0000170BDE81040012000F01EB8430000209A
:1006B0000000002010B5022000F01CF800280FD028
:1006C0000848437800210122012B06D001704270B6
:1006D000BDE81040022000F007B802704170F7E753
:1006E00010BD00008C000020014908607047000028
:1006F000143C0140064A014600201268044B0A409F
:1007000014331B680B4202D0002A00D0012070472E
:10071000003C014030B51A498379026853B30B6835
:1007200093430B600A1D13680468A34313600279A6
:100730000A441368046823431360114A083213689B
:100740000468A3431360131D1C680568AC431C6058
:100750004479102C05D021440A68006802430A60DD
:1007600030BD1168046821431160196800680143B5
:10077000196030BD0079084401689143016030BDC3
:10078000003C0140F0B50023012403270D6804FA62
:1007900003F21540954242D1D0F800C05E0007FA3E
:1007A00006F52CEA050CC0F800C091F804C0D0F89A
:1007B00000E00CFA06FC4CEA0E0CC0F800C091F800
:1007C00004C0BCF1010F02D0BCF1020F1FD1D0F860
:1007D00008C02CEA050CC0F808C091F805C0D0F894
:1007E00008E00CFA06FC4CEA0E0CC0F808C0D0F881
:1007F00004C02CEA020CC0F804C0426891F806C09C
:100800000CFA03FC1FFA8CFC42EA0C024260C2683C
:10081000AA43C260CA79C568B2402A43C2605B1C61
:10082000102BB3D3F0BD4B07DB0E9A40C90810B5AF
:1008300000EB8100016A0F249C40A1430162016A20
:100840001143016210BD41837047018370474069C5
:10085000806880B27047D0F8CC000068C0F3414097
:100860007047084490F89B02704700EB8100D0F875
:100870005002704710B5044600221046C4F81022FA
:1008800004EB8203C3F81402C3F85002A31883F8E0
:100890008C02521CD2B20F2AF2D30820A4F8B20262
:1008A000204602F02DFB204602F032F9204602F0ED
:1008B00049F80121204602F083FB204602F0B0F8FF
:1008C000204602F047F9002010BDD0F81002704712
:1008D00010B502F000FB002010BD0022431883F881
:1008E0009B2200EB4113C3F8C02202F042BAFEE79C
:1008F000FEE710B5802000F0FBF800280BD00120A7
:1009000000F000F90121182000F026F9BDE81040A0
:10091000802000F07FB810BD70B50F21C478027838
:1009200001234FF0E026E4B1124C246804F4E064A3
:10093000C4F5E064C4F30724C4F10405E14044783D
:10094000AC4085780D4025430B4C290111550078AA
:1009500000F01F018B40400906EB8000C0F8003119
:1009600070BD02F01F008340500906EB8000C0F804
:10097000803170BD0CED00E000E400E00249084366
:1009800002490860704700000000FA050CED00E025
:10099000024A1140014302480160704780FFFF1F77
:1009A00008ED00E0014801F086BC0000F8000020DE
:1009B00070470000044A0029116801D0014300E09B
:1009C000814311607047000030380240044A00291A
:1009D000116801D0014300E08143116070470000BD
:1009E00034380240044A0029116801D0014300E074
:1009F000814311607047000040380240044A0029DA
:100A0000116801D0014300E081431160704700008C
:100A10004438024001490870704700000E38024017
:100A20000149C864704700000000474270B5204A81
:100A30001168204C11F00C0104D06610042903D079
:100A4000082903D004601BE0066019E01849091F5B
:100A50000B68C3F380550B6803F03F0315B1B6FB79
:100A6000F3F301E0B4FBF3F30C680968C4F38814F2
:100A70006343C1F30141491C4900B3FBF1F101603B
:100A800011680F2303EA11110B4B5C5C0168E14014
:100A900041601468072505EA94241C5D21FA04F4DA
:100AA0008460126805EA52329A5CD140C16070BD20
:100AB000083802400024F400A8000020024600206C
:100AC000510901290BD002290CD00849096802F00C
:100AD0001F02012393400B4200D0012070470349BD
:100AE0007439F3E70149091FF0E700007438024048
:100AF000034A0146002012680A4200D001207047D4
:100B00000C380240024900220A7008707047000049
:100B10000238024010B50820FFF7EAFF48B108206C
:100B2000FFF778FF3120FFF7C9FF10B1012000F077
:100B300029F81020FFF7DCFF00280CD01020FFF769
:100B400069FF3920FFF7BAFF002804D0BDE8104044
:100B5000022000F01DB810BD044A0029117801D010
:100B6000014300E081431170704700000D380240DE
:100B7000034A1368084323F0784318431060704712
:100B800008380240014908667047000000004742EB
:100B9000034A116821F0030101431160704700000E
:100BA000083802401CB504460E48012150F82400C4
:100BB000FFF700FF0B480021083830F814000090C0
:100BC00001208DF804008DF806108DF80700022032
:100BD0008DF805000448694650F82400FFF7D2FD5F
:100BE0001CBD000084510008980000200349044AFD
:100BF00031F8101052F82000418370477C510008F2
:100C0000980000200349044A31F8101052F82000DF
:100C1000018370477C5100089800002070B504469D
:100C200022480E4686B050F824000121FFF7C2FE8C
:100C300001218803FFF7E2FE1C4800258DF81050C3
:100C4000001F8DF8135030F814000390184803A9C2
:100C500050F82400FFF796FD012E25D11348C01F40
:100C6000015D401E005D00F027F81048801E30F83E
:100C7000140000908DF8045008208DF8050001251F
:100C80008DF806506846FFF745FD0848801F005D57
:100C90008DF808000F208DF809008DF80A008DF8F6
:100CA0000B5002A8FFF738FE06B070BD785100085F
:100CB000940000207047000010B58A0721F003045B
:100CC0000649130F21440F220C689A4094430C608C
:100CD0000A68984002430A6010BD000008380140CD
:100CE0000CB500222E4901920092086840F4803031
:100CF00008604FF4A063086800F400300090019889
:100D0000401C0190009810B901989842F3D10868EE
:100D10008303244841D501220092224A38321368C5
:100D200043F080531360204A136843F480431360F8
:100D300002680260026842F400420260026842F403
:100D4000A0520260031F194A1A600A6842F08072BA
:100D50000A600A689201FCD5154B40F205621A60E0
:100D6000026822F003020260026842F0020202609E
:100D70000268C2F38102022AFAD1026822F4000258
:100D80000260084A0B487C321060086840F08060BE
:100D9000086008680001FCD50CBD0092EDE700007A
:100DA00000380240083802400070004008544007F4
:100DB000003C024080400030F0B5274D274F284AC4
:100DC00028783E88274C284900230A280FD0DFF8CE
:100DD0009CC0BCF800C0401C66443E80287024487B
:100DE00005886D1CADB20580642D13D02BE0B6FBD9
:100DF000F0F0204E30802B701F4D28801F4D10804A
:100E00002E88B04200D228800D7824F815006D1C81
:100E10000D70E4E71A4D03802868401C2860194DC6
:100E2000288015880A7824F81250521C0A703C2138
:100E3000B0FBF1F201FB120018B913490888401CFD
:100E400008801248037012480078012803D1114924
:100E50008888401C8880F0BD1C000020E025002010
:100E6000082600208C0600200E0000200400002030
:100E700016000020CC250020F42500201C26002090
:100E8000080000200C0000201800002015000020A1
:100E9000430000208C0000200F4810B5016841F08D
:100EA000010101600C4A00210832116002680B4BFD
:100EB0001A400260031D0A4A1A60026822F4802266
:100EC000026005480C300160FFF70AFF05494FF04A
:100ED0000060086010BD000000380240FFFFF6FE11
:100EE0001030002408ED00E001F00ABD10B50D4CF3
:100EF0000221204600F035F8002811D002212046BA
:100F000000F020F8204600F02AF8074980B2488017
:100F10000649098801442046BDE8104000F0CAB8DF
:100F200010BD0000000800408C00002002000020DE
:100F30000029018802D041F0800101E021F0800108
:100F400001807047C943018270470029018802D09F
:100F500041F0010101E021F0010101807047406B87
:100F6000704702460020138A92890B4202EA01026E
:100F700002D0002A00D001207047002A828901D0C7
:100F80000A4300E08A4382817047000070B58AB04E
:100F900001210420FFF726FD4FF4A060FFF7EEFCCF
:100FA0001E208DF8200000248DF821408DF822406D
:100FB00001258DF8235008A8FFF7AEFC0120FFF7AC
:100FC000F1FD0020FFF7EEFD0320FFF7EBFD1A48CF
:100FD0001A491B4E0068ADF81C40B0FBF1F0401EF2
:100FE0004FF6FF71ADF814000691ADF8164005A953
:100FF000304600F061F801213046FFF799FF1148B3
:10100000ADF80040ADF8025040880290ADF80C40B9
:101010006946304600F018F80021304600F044F8E8
:10102000012202213046FFF7A8FF01213046FFF7D9
:101030008CFF0AB070BD0000200000207064080022
:10104000000800400000002030B5028C22F00102B0
:101050000284028C8388048B22F0020224F0730540
:101060000C882C438D8915434A882A430C4DA8428D
:1010700002D00C4DA8420DD122F00805CA8923F4F4
:1010800040732A4322F004058A882A430D8A1D43AF
:101090004B8A2B438380048389684163028430BD7B
:1010A0000000014000040140028B22F008020A43C4
:1010B000028370474163704730B50288164B174C66
:1010C00098420DD0A0420BD0B0F1804F08D0144D03
:1010D000A84205D0134DA84202D0134DA84203D117
:1010E00022F070054A882A43104DA84206D0104DC0
:1010F000A84203D022F440750A892A4302804A6834
:10110000C2620A880285984201D0A04201D1897A40
:1011100001860121818230BD0000014000040140B0
:101120000004004000080040000C00400010004097
:1011300000140040A0B5274D40F22557CBB03946EA
:10114000284600F051F860B13946284600F046F8CC
:10115000284600F068F8C4EB04116A4602EB41022D
:10116000105540F226673946284600F03DF8002821
:1011700015D03946284600F031F81748082E0ED20F
:10118000DFE806F004070F13171B1F2410F83410B4
:1011900002E000EBC4004178284600F048F84BB06C
:1011A000A0BD00EBC40040880EE000EBC400418805
:1011B000F2E700EBC400808806E000EBC400818801
:1011C000EAE700EBC400C088010AE5E700EBC400D1
:1011D000C188E1E7001001403C0600200A0A012115
:1011E0009140C9430180704730B501F01F020124CE
:1011F0000025C1F3421304FA02F2012B0FD0022B97
:101200000FD0838A4FEA11210088134204FA01F4B7
:1012100000EA040001D000B10125284630BD8389D1
:10122000F0E7038AEEE78088C0F308007047C1F357
:1012300008018180704710B500224FF6FF7300EB64
:101240004204B4F88C44240409D49A4205D000EB3B
:10125000420041F40041A0F88C14D0B210BD521CE1
:10126000D2B2082AEBD31A46F7E770B500EB431465
:10127000012584F8AE52C4E9AE1294F8C41201B14B
:10128000022184F8B4121946FFF727FB002070BD35
:1012900070B50D4600EB4314002184F8AE12C4E98A
:1012A000AE5294F8C52202B1022184F8B412194654
:1012B000FFF713FB002070BD30B402240C7501242D
:1012C0004C750024CC820A8315064C8300EB431234
:1012D00002D582F8C44201E082F8C542002330BC46
:1012E0001A4600F01AB8D0F8AC2401211172D0F8D7
:1012F000AC0400218172704770B500EB431404F513
:101300002C74012504F8025C02252571C4E902123F
:101310001946FFF7E2FA002070BD70B50C461D4675
:1013200016464979FFF79DFA01460120E378024607
:10133000012B0AD0022B07D1012910D0032911D08B
:10134000042901D1E270032070BD21786170092168
:101350002170A660A58122770221E17070BDE27044
:10136000002070BDE270022070BD70B500EB431428
:10137000002584F8AE52C4E9AE121AB194F8C51231
:1013800059B102E0012184F8C512022184F8B41297
:101390001946FFF7A2FA002070BD84F8B452F7E7AF
:1013A00010B500EB421303F52C73002403F8024C34
:1013B00003241C7199600821D9601146FFF78DFA4A
:1013C000C0B210BD0221002200EB4103491CC9B28A
:1013D000A3F88C240829F7D30020704770B50C4679
:1013E000002121706170A17001220546E270227710
:1013F0004020A07184F8201084F82120217928460B
:1014000000F025F86179284600F021F8002070BD31
:10141000D0F8AC2401215172D0F8AC040021C17283
:10142000704770B50C25044605290AD0042908D058
:1014300006290BD12570D0F880000068BDE8704007
:101440000047D4F88000406C8047257070BD0829A3
:1014500008D200EB410101F28C40B1F88C14C1F3C9
:101460000E0101800020704730B442F08002DDE9B7
:1014700002540A7506224A750322CB82B2EB132F5F
:1014800002D140F2094200E000220A834C83234645
:101490002A4630BCFFF741BF0A8803781A440A8005
:1014A0000178084470472DE9FC4100F58873CDE9C7
:1014B000003215461E460C464FF400730022FFF71B
:1014C000D3FF070009D1334604F1500204F13E0175
:1014D00004F13400009500F06AFF3846BDE8FC8155
:1014E0007CB51646044600F58870CDE900060D4629
:1014F0004FF4807300222046FFF7B6FF002830D15A
:1015000004F58874082E217805F8221F6178697027
:10151000A178E27801EB0221698021792971617952
:101520006971A179A971E179A4F58874E97118D973
:1015300004F58C742178627801EB02212981A1786D
:10154000E27801EB022169812179627901EB0221C4
:10155000A981A179A973E179E973217A2974617A62
:1015600069747CBD7CB51E46069D00F5887442F406
:1015700040730022CDE90045FFF776FF002814D123
:101580006178032911D121788A1EAA4200DC154610
:10159000A41CAAB2002104E0635C891C06F8013B8C
:1015A00089B29142F8D3002131707CBD2DE9F05F02
:1015B000002680468E74087F0B250927DFF8B89136
:1015C0000C464FF0080B4FF0050A0C2817D2DFE845
:1015D00000F0CF060E3941576879829CADC162791F
:1015E00004F114014046FFF7DBFE022065E061795B
:1015F0004046FFF736F9012802D003281ED0B7E095
:10160000207D618B00F0800051B141F28832A9F851
:101610000020802802D084F81CA008E0032005E008
:101620003222A9F80020802806D0072020774046E3
:10163000FFF70DF920829BE02777F8E7257784F8FC
:1016400012A095E02379227B4046A168FFF754FE63
:10165000042032E021794046FFF703F901280DD03C
:10166000042870D0032873D04046FFF7F0F8218A91
:10167000411AB9F8000081426AD879E02777F3E788
:10168000617908EB411090F8C51281F0010180F8F2
:10169000C5126379227B4046A168FFF766FE0620EB
:1016A0000BE061794046FFF7DCF8012804D00428FC
:1016B00049D0022803D041E00720207758E084F881
:1016C0001CA055E00022237911464046FFF714FE86
:1016D00084F81CB04CE021794046FFF7C2F8074679
:1016E000012830D0032F33D04046FFF7B0F8218ACD
:1016F000411AB9F8000081422AD8042F38D1607805
:1017000020700420A074032632E06179002208EBE7
:10171000411090F8C51281F0010180F8C51263797B
:1017200011464046FFF721FE0A20C6E76179404690
:10173000FFF797F8012806D0022807D0032807D022
:1017400016E000E004E06078207011E027770FE0F9
:1017500025770DE0A07B401CC0B2A073022802D800
:101760000120087704E084F812B06078087002263F
:101770003046BDE8F09F0000B80000202DE9F041A0
:101780000C468046012589780027FF2092B02E461E
:101790000A2952D2DFE801F0052332525B6D8097AF
:1017A000AAB4082221464046FFF79AFE002844D1F9
:1017B00094F82900A0714046FFF78AF8A670A07936
:1017C0000023CDE9007061791A46404600F05AFDC9
:1017D000A0790023CDE9007021791A462AE012226F
:1017E00021464046FFF77CFE002826D1D4F8800031
:1017F000C16904F12200884702207FE001222146CE
:10180000404600F01EFF00287BD1A41CA677D4F828
:101810007E00006A80470320207000970197A27F16
:10182000A1780023404600F02DFD00970197A27F8C
:10183000E1780023404600F025FD62E009222146C0
:101840004046FFF730FE00285BD1042056E0E28ED0
:1018500021464046FFF727FEA0BBD4F8800004F1E4
:10186000500204F13E01436A04F134009847052018
:1018700044E094F83020062652B1009002AB214695
:101880004046FFF76FFEE8B9D4F88000816A11E0A6
:10189000D4F88000816A12E094F8312007265AB10A
:1018A000009002AB21464046FFF75CFE50B9D4F8E9
:1018B0008000C16A02A803E0D4F88000C16A13A0C6
:1018C0008847A6701DE094F83220082652B1009097
:1018D00002AB21464046FFF745FE90B9D4F88000A0
:1018E000016BE7E7D4F88000016BE8E794F8392052
:1018F0002146404600F0B1FE18B90920A07000E072
:10190000002512B02846BDE8F08100004E2F4100AE
:101910002DE9F0411E46144688460546069F00F014
:1019200093FF002000F044FF21462846FFF756FDB4
:101930007C340B4AC4E9006740F2AC400021C5F892
:10194000AC2411724059417241462846FEF792FF7D
:101950006068006880472846BDE8F04100F054BF49
:10196000BC00002070B505460A4C012012B1012AC6
:1019700008D102E02378E27801E06378A278284673
:10198000FFF79AFC044AD168491CD160042900D9A8
:10199000042070BDC42E0020C80000200149002092
:1019A00008707047B42E002070B505460124FEF77C
:1019B0008CFFD8B1104801782846FEF756FF0D2855
:1019C00013D10E480E4A016891420ED1A0F12002B7
:1019D00041685268914209D1007B20B1012805D0AD
:1019E000022802D002E0002400E002240348103064
:1019F000C473204670BD0000C42E0020A42E002019
:101A0000555342530A490A22012802D002280CD019
:101A10007047084B1878401CC0B218700A2804D2CE
:101A2000062008700120C87070470A7070470000D7
:101A3000B42E0020D80000202DE9F05F0D4681462D
:101A40000126FEF742FF00282AD0514C0027DFF87C
:101A500044B12078DFF840814FF0080A0B281FD2EC
:101A6000DFE800F0060B2359626E767E834D92000C
:101A7000484600F095F9012013E021222A75FF2243
:101A80006A75EF822F830023484629466F831A46E2
:101A9000FFF743FC06004FF0020002D0032E02D0F5
:101AA00073E0207071E0607027E0A1222A75FE22A9
:101AB0006A75EF822F830127364A484629466F838D
:101AC0003B460832FFF729FC06004FF0030102D025
:101AD000032E11D059E09BF808208BF8482012B152
:101AE00098F801200AB121704FE088F80170D5F80C
:101AF0008000006C804748E061700920D1E76B7975
:101B0000002229464846FFF7D7FB06003DD18BF857
:101B100048706078C5E7484600F026FB08B9042005
:101B200008E0FFF76FFF30E0484600F07DFA00283C
:101B3000F7D1052084F8000088F80070002624E022
:101B4000484600F0B7F90028EBD184F800A0F3E78D
:101B5000484600F0B9FA0028E3D160782070EDE73C
:101B60002946484600F01AF80FE0D5F88000C06B0F
:101B7000804710F0FF0002D0012803D005E084F870
:101B800000A002E0062600E004263046BDE8F09FF3
:101B9000B42E0020C42E0020D80000202DE9F35FD1
:101BA0000098FEF792FE002821D07A4C05277A484B
:101BB00021797A4D00264FF008094FF0070B4FF0BE
:101BC00002084FF0010A092911D2DFE801F01005DF
:101BD0001233609EB2C8D4006E4943781F22303958
:101BE0000098FFF755FB84F805A084F80480BDE851
:101BF000FC9F41780098FEF734FE012806D00228A9
:101C00006BD00428F3D185F800A0B1E06148EE6004
:101C1000303884F80580017B806801F0800100285D
:101C200066D06860A068A860802901D00420AEE07A
:101C30000320ACE0804601780098FEF712FE0128F0
:101C400002D0617903291CD00320EE6060716868BE
:101C500040280DD998F800304022A9680098FFF775
:101C600004FB686840386860A8684030A860BEE738
:101C700090B382B298F80030A9680098FFF7F5FA9F
:101C800034E00428B3D12E7084F804B00EE080460E
:101C900041780098FEF7E5FD012809D0022829D0F7
:101CA0000428A4D185F800A084F8049067719EE709
:101CB0000420EE606071686840280FD998F8013000
:101CC0004022A9680098FFF7E3FAA8684030A860AE
:101CD0006868403868608AE70AE057E040B182B23D
:101CE00098F80130A9680098FFF7D2FA6E607EE795
:101CF00027717CE7A96898F80130009802B040226B
:101D0000BDE8F05F4039FFF7C3BA22496771103967
:101D10003F22A160A2810D228E54521E12F0FF02BA
:101D2000FAD10E7003783F220098FFF79EFA062042
:101D30002DE001780098FEF794FD012805D00428D5
:101D400095D12E7084F804B051E7EE606771A078E9
:101D50002070DDE90001FFF727FEE07347E7DDE9CA
:101D600000010022FFF7FEFD58B9287802280DD1A6
:101D700084F804903BE7DDE900010122FFF7F2FD62
:101D800020B1042893D184F80F8030E76079207166
:101D90002DE70000B42E0020C42E0020C800002033
:101DA00010B5FEF792FD002148B10848064A0260CE
:101DB000074A42604173054A01203032D07005481D
:101DC000C1600548017010BD55534243842E002068
:101DD00050403020C8000020D800002070B50C4CC6
:101DE00006460025617831B100F02FFF617830465A
:101DF000FFF72DFB65702178002907D0304600F0F1
:101E000024FF21783046FFF722FB257070BD0000CB
:101E1000C42E00202DE9FC41064691F843000C46F3
:101E2000082803D194F84500502806D0D1F8800046
:101E3000006C80470020BDE8FC8194F852001C4DE6
:101E4000010604D5E870B4F85400A88003E0A87037
:101E5000B4F85400E88094F85A00010604D5E870FC
:101E6000B4F85C00A88003E0A870B4F85C00E880D7
:101E7000A9783046FFF7DFF96870E9783046FFF758
:101E8000DAF92870E8880227CDE9007020346978F3
:101E900063782278304600F062FAA888CDE90070B5
:101EA000637822782978304600F059FAC2E70000BA
:101EB000C42E002070B50324FEF707FD30B321497E
:101EC000214B0025C8780122012802D0022836D1F2
:101ED0001DE01E483F248026846006730A26867310
:101EE0008B6005238B701023C6185B1EF57313F0EF
:101EF000FF03F9D11A23C3734474C4740A71072011
:101F000008700320C8730220C870032417E0C87B40
:101F100020B101280ED002280FD010E098780306D7
:101F20000948A0F1100001D5027300E00573CA70E2
:101F3000002404E0CA70012401E0CA700224204693
:101F400070BD0000B42E0020202F0020842E002021
:101F50002DE9FF4F314E81B04FF0030986F8009014
:101F6000984615460198FEF7B0FC002852D02C4C3C
:101F700001274FF0020BE0784FF0000A012802D051
:101F8000022847D12DE0274880215246C0F808801A
:101F900001730A2181730299A16010214318491E1F
:101FA000DA7311F0FF01F9D12821C173290E4174B0
:101FB000290C8174290AC1740575C8F34F21ADF845
:101FC00000109DF8011081759DF80010C1752771F2
:101FD0000720207084F80F9084F803B086F80090F2
:101FE00018E0E07B38B90198FEF76FFC18B1E77094
:101FF00086F800A00EE0E07B012805D10198FEF7ED
:1020000064FC08B1E77005E0E07B022802D1E770CC
:1020100086F800B0307805B0BDE8F08FED00002004
:10202000B42E0020842E002070B50324FEF74DFC52
:1020300020B322490123224AC878012802D002286D
:102040003AD11CE01F4808248460802404730A24C9
:1020500084738A6004228A70102200248518521E1C
:10206000EC7312F0FF02F9D12522C2730B71072025
:1020700008700320C8730220C87003241CE0C87BCA
:1020800020B1012813D0022814D015E00C48147890
:102090001038C4705478847094784470D478047084
:1020A00094794472D2790272CB70002404E0CB7030
:1020B000012401E0CB700224204670BDB42E002024
:1020C000202F0020842E002070B50324FEF7FDFB96
:1020D00038B322490123224AC878012802D00228B5
:1020E00039D11FE01F483F248025846005730A25ED
:1020F00085738A608A784A7006228A7010220025C9
:102100008618521EF57312F0FF02F9D10322C27332
:102110000574C4740B7107200870CA730220C8705C
:10212000144618E0C87B20B101280FD0022810D037
:1021300011E00B4814781038C47154788471947885
:102140004471D2780271CB70002404E0CB7001247A
:1021500001E0CB700224204670BD0000B42E0020A8
:10216000202F0020842E002070B50324FEF7ADFB45
:1021700010B31A490125C878012802D002282BD1B2
:102180001BE0174800230622836003738273154AFD
:102190008A603F228A8103248C7010228618521E86
:1021A000F37312F0FF02F9D1C3730D7107200870A9
:1021B000CC730220C87003240EE0C87B20B1012834
:1021C00005D0022806D007E0CD70002404E0CD70D1
:1021D000012401E0CD700224204670BDB42E002001
:1021E000842E0020A42E0020F8B51D4614460E466D
:1021F0000327FEF76AFB80B320490123C878012832
:1022000002D0022838D129E01D4800270A22856023
:102210000773827310228E608618521EF77312F0B5
:10222000FF02F9D12A22C273220E4274220C827458
:10223000220AC2740475C5F34F22ADF800209DF840
:10224000012082759DF80020C2750B71072008706F
:102250000320C8730220C87003270DE0C87B20B19B
:10226000012805D0022805D006E0CB70002703E046
:10227000CB7001E0CB7002273846F8BDB42E0020A9
:10228000842E002070B500EB4114059D0AB184F83E
:10229000AC22B4F8B222AA4202D00DB1A4F8B252D4
:1022A00094F8AF229A4202D00BB184F8AF3200F01A
:1022B000EAFC002070BD38B50546002400200090DF
:1022C000284600F0E3FD002847D0284600F0E5FD51
:1022D0000090009808B9002038BD0098C0F3C000F5
:1022E00018B1284601F028FD04430098C0F30010FF
:1022F00018B1284601F06EFC04430098C0F340106A
:1023000018B1284601F0ADFA04430098C0F380608C
:1023100018B1284601F0C7FB04430098C0F34060A1
:1023200018B1284600F09BFE04430098C0F30060FB
:1023300018B1284601F02BFB04430098C0F340700D
:1023400018B1284600F051FE04430098C0F34050F5
:1023500018B1284600F060FE04432046BCE72DE992
:10236000F04100EB4104DDE9066704F28C4594F886
:102370008C4404F07F0C00EB411404F52B7484F8BA
:1023800001C02D78C5F3C015A57022706671E78075
:10239000E370002222766276A4F52B7413B9012231
:1023A00084F8B02200F06FFC0020BDE8F0812DE938
:1023B000F8439046894605461978089A2970597855
:1023C00069709978DC78184601EB042169801979E5
:1023D00029715C796C719C79AC71DC79EC71037A50
:1023E0002B72092A15D90922ADF80020022910D82C
:1023F00000270BE06946FFF74FF8417804290AD01F
:102400000178BDF800201144ADF800102979B942D7
:10241000F0DCBDE8F88307EBC70202EB09040178A2
:102420002170417861708178A170C178E170017983
:102430002171417961718179A171C179E171017A6B
:1024400021722179002602290CD90EE06946FFF796
:1024500023F8417805290BD00178BDF800201144FC
:10246000ADF800102179B142F0DC7F1C7FB2CDE7DE
:1024700008EBC60102780A7042784A7082788A7046
:10248000C278CA7002794379761C02EB03228A80F3
:1024900082798A7176B2E5E72DE9FC4702270C467E
:1024A00005468DF8007009784FF000084FF00109DB
:1024B00004F1200A00F2AC460D290FD2DFE801F04A
:1024C0000F07199D9D9D5770838B629D9000284634
:1024D000FEF7FEF9002801D184F800808DE028463F
:1024E000FEF7F3F9002803D02846FEF76BFF2770AC
:1024F00083E0D4F8800080688047D5F8AC04474674
:1025000080F809803168284681F80A900021FEF79A
:1025100092FE607180212846FEF78DFE20712846CC
:10252000FEF7D6F9002868D1241DE06FC068804707
:102530002846FEF790F9C0B26077062104F8041C23
:10254000E16F89698847A078CDE90070637F227FB9
:1025500021782846FFF703FFA078CDE90070637F5C
:10256000227F6178241F2846FFF7F9FE45E02146C7
:102570002846FFF703F9F8B9D4F88000406B80478C
:102580000A2018E0D4F88000806B8047012834D1FD
:10259000E06F214602682846904768B907200AE0A4
:1025A000E06F21468268284690478DF800009DF82C
:1025B000000010B9082020701FE09DF80010204690
:1025C000FEF72FFF19E0E06F2146C26828469047CA
:1025D0008DF80000F1E721462846FEF7E7FF0CE002
:1025E00021462846FEF7FAFED4F88000406880476E
:1025F000E06F51464268284690472846FEF765F945
:1026000000281CD1D5F8AC04C07A002817D1D4F822
:10261000800000698047D5F8AC14284681F80B90FB
:102620002146FEF7DBFED4F8800040688047E06F6B
:102630005146426802B02846BDE8F0471047BDE861
:10264000FC8730B400230B7505244C75CA820B83BC
:102650004B8330BC1A46FEF760BE30B400230B75C6
:1026600009244C75CA820B834B8330BC1A46FEF793
:1026700054BE7047014900200870704738000020A0
:10268000704700001CB5684602F046FC9DF800004B
:102690000A21B0FBF1F21C4802F130030370B2FBD7
:1026A000F1F301FB1322303242709DF80120B2FB9E
:1026B000F1F202F130038370B2FBF1F301FB13225C
:1026C0003032C2709DF80220B2FBF1F202F1300309
:1026D0000371B2FBF1F301FB1321303141712E2163
:1026E00081716321C17173210172762141720220CF
:1026F000FEF77CFA0320FEF785FA01220221034847
:10270000FEF73BFC1CBD0000390000200008004023
:1027100010B50320FEF76AFA0220FEF767FA0020E0
:10272000FEF764FA0022BDE8104002210148FEF7DE
:1027300024BC00000008004070477047704710B587
:102740004FF4FA7000F0F8F8BDE8104000F002B85D
:102750007047000010B50F4C207810B101280ED141
:1027600013E00D49002001F085FF10B14FF0FF305C
:1027700010BD0A48007B012803D0012020700020F2
:1027800010BD0220FEF73EFAFBE7FDF775FE0020C4
:10279000F4E700003800002030260020102F002031
:1027A0007047704770477047704770470120704707
:1027B0001CB501210420FEF7FDF8022101208DF84F
:1027C000051000908DF8040000208DF80600074CDD
:1027D0008DF8070069462046FDF7D4FF0121204609
:1027E000FEF733F8C82000F0A7F81CBD000802402F
:1027F000044800294FF0010101D0FEF724B8FEF78C
:1028000024B800000008024038B54FF4C060FEF75D
:10281000B5F843208DF8000001248DF801408DF8B3
:1028200002408DF803406846FEF776F817208DF8D1
:1028300000008DF8014002208DF802008DF8034061
:102840006846FEF769F838BDFEB501210846FEF777
:10285000B1F84FF4D050032600908DF805600220A7
:102860008DF804000025254F8DF806508DF807508F
:1028700069463846FDF786FF0A2209213846FDF7EA
:10288000D2FF0A220B213846FDF7CDFF0A220C2188
:102890003846FDF7C8FF012438158DF80640009032
:1028A0008DF807408DF8056069463846FDF76AFFE8
:1028B0000A2211463846FDF7B6FF01218803FEF7CC
:1028C0009DF801218020FEF781F80021E006FEF747
:1028D0005FF84FF4A060FEF751F81C208DF8080057
:1028E0008DF809508DF80A408DF80B4002A8FEF7CC
:1028F00013F801210846FEF775F8FEBD00000240FE
:1029000010B501218C072046FEF72BFB002809D0CB
:1029100001212046FEF716FB0649086818B1086831
:10292000401E086010BD2046BDE810400021FEF7A3
:102930000CBB0000340000200121FDF755BD022131
:10294000FDF752BD70B50446017A0025C068012923
:102950000CD0C16841F04001C160204600F0ACF8E5
:10296000217A4FF4803003291DD01EE0816B627AFA
:1029700021F480310AB141F480118163E068C168BB
:1029800021F0401121F0880121F4202141F01001B3
:10299000C160204600F090F8E07801283DD1E16860
:1029A0002A2088602EE04FF44030617A40F43010E5
:1029B00009B140F48010E16888631420FFF7BCFF80
:1029C000E168C868227A032A01D140F48030C860E7
:1029D000207A032816D1E068016B21F0406101F1F3
:1029E000806121F47F0141F0805606F534160663BC
:1029F000C820FFF7A1FFE16846F400000863C82083
:102A0000FFF79AFFE078012807D1E068816821F09C
:102A10001E010A3141F020018160284670BD00008E
:102A20002DE9F041002704463E463D46FFF7C0FE33
:102A3000D4F80C0105600121204600F01BFA606902
:102A4000016821F004010160E07A012813D1E068F7
:102A500080214162284661F30F00E268602161F342
:102A60001F409062E022284662F30F0061F31F408E
:102A7000E168C1F800011021204600F0B1F82046BD
:102A800000F092F84FF0FF3108E000BF04EB860041
:102A900050F8902F91600068C560761C2078B04295
:102AA000F4D80121204600F03BF8204600F05AF807
:102AB0003846BDE8F0810000F8B5002704463E46E0
:102AC0000097124D0320FFF73AFFE068006900907D
:102AD000761CAE4201D90020F8BD00980028F1DA3A
:102AE0000099002041F0010100910099E268116114
:102AF000E1680A690092401CA84202D8009AD207F5
:102B0000F7D10320FFF71BFF3846F8BD400D030047
:102B1000C0680021826822F0010282600846704786
:102B200070B50C460546FFF763FE284600F0BAF97B
:102B3000C10404D4012C08D140F4805002E024B92F
:102B400020F48050D5F8CC100860BDE87040C82053
:102B5000FFF7F2BEC0680021826842F00102826085
:102B60000846704710B5C268002319469361C468CF
:102B70005A1E6261C4686260C4686261C468094ABE
:102B8000A261C27802B91021C06841F00C5141F035
:102B90000801826941F400118A430A4382611846A0
:102BA00010BD00000008008038B5002421460094C4
:102BB000009A42F010020092009AC3681A61074A14
:102BC000C06803690093491C914202D8009BDB0650
:102BD000F7D40320FFF7B3FE204638BD400D0300B5
:102BE00038B5002422460094009B43F02003009354
:102BF000009B61F38A1300930099C3681961074928
:102C0000C06803690093521C8A4202D8009B9B064D
:102C1000F7D40320FFF793FE204638BD400D030094
:102C200010B500EB8100002350F8901F4FF00042D8
:102C3000012464F3DC420A610068016821F08041EC
:102C400041F000410160184610BD10B500EB810154
:102C50000022D1F89030196841F0404111F4402F22
:102C600009D0C1F38144022C05D04069006910F4F9
:102C70007F0F03D004E0C068C06AF8E721F000418C
:102C80001960104610BDF0B5074607EB810600201D
:102C9000D6F890500446431E2246AB60FB78012BC9
:102CA00000D1042207EB411393F8B15235B1012D45
:102CB0001FD0022D02D0032D27D10EE042F089054E
:102CC00045F4826293F8AE5285B993F8B05242F05F
:102CD0004002D5B142F0200217E093F8AEC242F0B4
:102CE000990545F4C062BCF1000F0ED042F4807229
:102CF0000BE093F8AEC242F0010242F40872BCF15C
:102D0000000F02D042F08002F0E7D6F89050EA605F
:102D100001228A4079698D6915438D61F9688A6954
:102D200042F000728A6193F8AC1261F39C5493F8FC
:102D3000AD1261F3CE2493F8AE1261F3CF3493F861
:102D4000AF1202290CD024F4003193F8B122B3F869
:102D5000B23262F3934163F30A01032A03D004E021
:102D600044F40031F1E741F00051D6F890201160B1
:102D7000F0BDF0B500EB411405460026D4F8BC02C6
:102D80004FF48077334668B1B4F8B2221044401E45
:102D9000B0FBF2F080B2B84205D912023846C4F84E
:102DA000BC2200E0012094F8AE22AAB1B4F8B2220D
:102DB0004243C4F8BC2262F3120360F3DC4394F88C
:102DC000B40205EB810260F35E73D2F890000361F8
:102DD000E878012803D007E0D4F8BC22EBE7D2F86A
:102DE0009030D4F8B802586152F8900F0368284622
:102DF00000F046F860F35D73126823F0804040F005
:102E000000401060E87898BB94F8AE0280BBD4F81C
:102E1000BC0268B394F8B12232B1012A11D0022A5F
:102E200002D0032A1AD10CE0EA68D36AC01CC0F3AE
:102E30008F009BB2834211D2906940F020009061D4
:102E40000CE06A691269C01CC0F38F0092B2824222
:102E500004D2E868826942F080628261B4F8BC0200
:102E60000A4683B2D4F8B8020146284600F072FF41
:102E70003046F0BD4269106861F301001060704790
:102E80004069806840F30000401C7047C06840699A
:102E900010F0010000D001207047C06841698069CE
:102EA00008407047D0F8CC00006820F02E00704732
:102EB000406940697047034610B50020D21C920853
:102EC000D3F8D03003E01C6841F8044B401C90421A
:102ED000F9D3084610BD70B50446FFF7E3FF40F490
:102EE000807554F8CC0F05600A20FFF725FD216896
:102EF00025F4807008601420FFF71EFD012070BDCE
:102F000070B500220125C270402685701446134614
:102F10008680012901D061B114E0C57208210170D9
:102F200004214FF0A04241709115C180022101722D
:102F300008E0C3720C210170062141701F4A4FF452
:102F4000A061C18002F50061C0E9032100210AE00F
:102F500002EB411303F5106600EB810503F53063C6
:102F6000AE61491C6B6543788B42F1D802F58061F4
:102F700041614031C0F8CC10002108E002EB411360
:102F800000EB810503F5A063491CC5F89030037878
:102F90008B42F3D8002108E002EB013300EB8105FE
:102FA00003F58053491CC5F8D03003788B42F3D821
:102FB00002F56062C0F80C21204670BD000004409C
:102FC00010B5C0680024C268012922F0C04201D0B7
:102FD00019B104E042F0005201E042F08042C260C8
:102FE0003220FFF7A9FC204610BD38B50446002169
:102FF000C4F8101200200090D4F8AC0401682046F8
:103000008847009820F0005000F100500090009890
:10301000E1684861012038BD0CB50146D1F8900047
:1030200000680090009820F0004000F100400090FF
:10303000009820F0804000F180400090009AD1F884
:103040009000026000200190019820F4001000F52B
:10305000001001900198CA68506101200CBD7CB538
:103060000546002400262846FFF722FF019000BFF6
:103070001BE0019880B20121A140084214D005F163
:10308000900050F82400006800900098C0F3C03011
:1030900028B12146284600F00DF8064304E02146F9
:1030A000284600F01AFA0643641C2878A042E0D8AB
:1030B00030467CBD70B586B005460C4605F19000E3
:1030C00050F82460B0680590F0680490DDE90410C1
:1030D0000840059005F1900050F824000068039026
:1030E000002004900598C0F38000D0B1002001902A
:1030F000019820F00400001D01900198B06005F1D6
:10310000900050F82400C0680190019820F002005F
:10311000801C019005F1900050F824000199C160D5
:1031200073E00598C0F3401048B100200190019869
:1031300020F02000203001900198B06065E00598F3
:10314000C0F3C00078B305F1900050F82400C068C7
:103150000190019820F00200801C019005F1900080
:1031600050F824000199C160052105F5237001552F
:1031700000200190019820F010001030019001987B
:10318000B06000200190019820F008000830019004
:103190000198B060059820F010000590E1B2284633
:1031A000FFF753FD31E0FFE70598C0F3802060B3DF
:1031B00005F1900050F82400C0680190019820F0BB
:1031C0000200801C019005F1900050F82400019944
:1031D000C160E1B22846FFF738FD00200190019858
:1031E00020F01000103001900198B060082105F522
:1031F0002370015500200190019820F4806000F5B3
:10320000806001900198B06000BF0598C0F3402035
:10321000F8B105F1900050F82400C06801900198C1
:1032200020F00200801C019005F1900050F824006D
:103230000199C160E1B22846FFF707FD0020019027
:10324000019820F4007000F5007001900198B060C2
:1032500040E1059810F0010F71D0E878012812D1F3
:1032600005F1900050F824000069029005F52B70DC
:1032700000EB441000690299C1F31201411A05F5EF
:10328000147040F82410012105F523700155002128
:10329000783840F8241000200190019820F00100B7
:1032A000401C01900198B0600398C0F3814020B1A8
:1032B0000398C0F3814002282AD105F1900050F80C
:1032C0002400C0680190019820F00200801C019049
:1032D00005F1900050F824000199C160E1B2284640
:1032E000FFF7B3FC00200190019820F0100010308F
:1032F00001900198B06005F52B7000EB4410007E42
:1033000080F0010105F52B7000EB44100176E1E03F
:103310000398C0F3814003289AD1039820F000500D
:1033200000F10050039005F1900050F8240003993B
:103330000160012105F29B200155CBE0FFE70598D4
:10334000C0F34000002851D005F1900050F824004F
:10335000C0680190019820F00200019005F19000F2
:1033600050F824000199C16005F52370005D012823
:1033700004D1012105F29B2001552DE005F52370B4
:10338000005D052804D1042105F29B20015523E0AE
:1033900005F52370005D062804D005F52370005D57
:1033A000082808D1002105F5057040F824100321F4
:1033B0008730015510E00398C0F3814003280BD1FA
:1033C00005F52B7000EB4410007E80F0010105F53F
:1033D0002B7000EB4410017600200190019820F042
:1033E0000200801C01900198B06073E00598C0F362
:1033F000C01040B305F1900050F82400C06801905F
:10340000019820F00200801C019005F1900050F816
:1034100024000199C16005F5057050F82410491C7D
:1034200040F82410062178300155E1B22846FFF714
:103430000CFC00200190019820F080008030019069
:103440000198B06046E00598C0F30010F0B303980F
:10345000C0F3814003281ED105F1900050F82400EC
:10346000C0680190019820F00200801C019005F1D5
:10347000900050F824000199C160E1B22846FFF79E
:10348000E4FB00200190019820F010001030019022
:103490000198B06018E00398C0F3814020B1039810
:1034A000C0F3814002280FD1039820F0004000F1C2
:1034B00000400390039820F08040039005F19000B5
:1034C00050F8240003990160032100E002E005F5B3
:1034D00023700155012006B070BD7FB505460C462E
:1034E00005F1900050F82460B0680390F0680290F5
:1034F000DDE902100840039005F1900050F8240027
:10350000006801900398C0F38000D0B100200090C3
:10351000009820F00400001D00900098B06005F1B4
:10352000900050F82400C0680090009820F002003D
:10353000801C009005F1900050F824000099C160B3
:103540008CE10398C0F3401048B10020009000982F
:1035500020F02000203000900098B0607EE10398B9
:1035600010F0010F27D0002105F5057040F8241058
:1035700005F1900050F82400C0680090009820F0F9
:103580000200801C009005F1900050F82400009982
:10359000C160E1B22846FFF758FB00200090009878
:1035A00020F00100401C00900098B060012105F55A
:1035B0002370015552E10398C0F3C00010B30020FE
:1035C0000090009820F00800083000900098B0604B
:1035D00005F1900050F82400C0680090009820F099
:1035E0000200801C009005F1900050F82400009922
:1035F000C160E1B22846FFF728FB052105F52370DD
:1036000001552BE10398C0F3001038B3002105F5F4
:10361000057040F8241005F1900050F82400C068AF
:103620000090009820F00200801C009005F19000AE
:1036300050F824000099C160E1B22846FFF705FB6D
:1036400000200090009820F01000103000900098AA
:10365000B060032105F523700155FFE00398C0F326
:10366000C01040B305F1900050F82400C0680090ED
:10367000009820F00200801C009005F1900050F8A6
:1036800024000099C160E1B22846FFF7DEFA05F593
:10369000057050F82410491C40F824100621783099
:1036A000015500200090009820F0800080300090AC
:1036B0000098B060D2E00398C0F3801038B30021C6
:1036C00005F5057040F8241005F1900050F824002D
:1036D000C0680090009820F00200801C009005F166
:1036E000900050F824000099C160E1B22846FFF72D
:1036F000ACFA00200090009820F04000403000908C
:103700000098B060042105F523700155A6E00398E8
:10371000C0F3802060B305F1900050F82400C06829
:103720000090009820F00200801C009005F19000AD
:1037300050F824000099C160E1B22846FFF785FAED
:1037400000200090009820F01000103000900098A9
:10375000B060082105F52370015500200090009805
:1037600020F4806000F5806000900098B06075E003
:103770000398C0F34000002870D005F1900050F885
:103780002400C0680090009820F00200009005F12D
:10379000900050F824000099C16005F52370005D89
:1037A000012815D1012105F29B2001550198C0F394
:1037B0008140022848D105F52B7000EB4410407E73
:1037C00080F0010105F52B7000EB441041763BE0E1
:1037D00005F52370005D032804D1022105F29B202A
:1037E000015531E005F52370005D04280FD105F582
:1037F0002B7000EB44100079012803D1E1B2284678
:10380000FFF70EFA022105F29B2001551CE005F599
:103810002370005D052804D1042105F29B20015589
:1038200012E005F52370005D06280DD105F5057041
:1038300050F82400032807D1032105F29B200155ED
:103840000021873840F8241000200090009820F0D4
:103850000200801C00900098B06000BF012004B0FE
:1038600070BD7CB50446E068C06A00900098C0F363
:10387000417104F52B7000EB41100069C01CC0F3CE
:103880008F0673E04FF6FF71009801EA80050098FB
:10389000C0F3417104F52B7000EB41100069A842A0
:1038A00015D20098C0F3417104F52B7000EB411064
:1038B000008A85B200200190019820F0200020307D
:1038C0000190E068806901998843E1688861009807
:1038D000C0F3417104F52B7000EB41100069C01C6E
:1038E000C0F38F060098C0F34172C0F3417304F532
:1038F0002B7000EB43102B46C168204600F02AFADB
:103900000098C0F3417104F52B7000EB4110C068C2
:1039100041190098C0F3417204F52B7000EB42107E
:10392000C1600098C0F3417104F52B7000EB4110A9
:103930000069411B0098C0F3417204F52B7000EB45
:10394000421001610098C0F3417104F52B7000EB47
:103950004110406941190098C0F3417204F52B7081
:1039600000EB42104161E068C06A0090009880B2AC
:10397000B0420ADD0098C0F3417104F52B7000EBF2
:103980004110006900287FF47DAF01207CBDFEB5A9
:103990000446002600250020009002900190D4F8F3
:1039A000CC0000680290D4F8CC0000680190019827
:1039B00020F004000190019820F00200019001988D
:1039C00020F008000190019820F02000019002985A
:1039D000C0F3400060B1D4F8AC0441682046884789
:1039E000019820F00200801C0190012645F001059D
:1039F0000298C0F3C000002840D0019820F00800D1
:103A0000083001900298C0F38000002836D00121D0
:103A1000C4F810120298C0F34140022804D0029862
:103A2000C0F34140012828D16069006800900298E5
:103A3000C0F34140022811D141F2707160694160C8
:103A4000009800F00300022818D0E07A012803D182
:103A500002212046FFF70EFA01260FE04BF68031D7
:103A600060694160009800F00300012806D0012140
:103A70002046FFF7FFF9012600E001260298C0F377
:103A8000401030B1019820F020002030019045F026
:103A9000010516B12046FFF71EFA0199D4F8CC00B3
:103AA00001602846FEBD7CB504466069006900904F
:103AB0000098C0F3417104F52B7000EB41100069D0
:103AC000C01CC0F38F0674E04FF6FF71009801EA46
:103AD00080050098C0F3417104F52B7000EB411094
:103AE0000069A84216D20098C0F3417104F52B700A
:103AF00000EB4110008A85B200200190019820F06F
:103B0000806000F180600190E068806901998843DD
:103B1000E16888610098C0F3417104F52B7000EBF7
:103B200041100069C01CC0F38F060098C0F34172B9
:103B3000C0F3417304F52B7000EB43102B46C168B2
:103B4000204600F007F90098C0F3417104F52B708E
:103B500000EB4110C06841190098C0F3417204F5B0
:103B60002B7000EB4210C1600098C0F3417104F566
:103B70002B7000EB41100069411B0098C0F34172AB
:103B800004F52B7000EB421001610098C0F3417105
:103B900004F52B7000EB4110406941190098C0F307
:103BA000417204F52B7000EB4210416160690069BD
:103BB0000090009880B2B0420ADD0098C0F34171D5
:103BC00004F52B7000EB4110006900287FF47CAFF6
:103BD00001207CBD30B585B00446002000900390E4
:103BE000039820F0100010300390E068806903997A
:103BF0008843E1688861E068006A0490049800F0F6
:103C00000F00009004F190009DF8001050F8210082
:103C1000006801900498C0F34340022806D00328AE
:103C200078D0052877D0072873D175E00498C0F3C1
:103C30000A10002869DD04F52B709DF8001000EBD8
:103C40004110C068002860D00498C0F30A1204F53F
:103C50002B709DF8003000EB4310C1682046FFF741
:103C60002AF9049800F00F0104F52B7000EB4110C5
:103C7000C0680499C1F30A110144049800F00F02CE
:103C800004F52B7000EB4210C160049800F00F01A6
:103C900004F52B7000EB411040690499C1F30A113F
:103CA0000144049800F00F0204F52B7000EB421061
:103CB000416104F52B709DF8001000EB411045693F
:103CC00004F514709DF8001040F8215004F19000A4
:103CD0009DF8001050F82100006902900298C0F38E
:103CE000C940002811DD019820F0004000F100409B
:103CF0000190019820F08040019004F190009DF81F
:103D00000020019950F82200016006E002E002E084
:103D1000FFE700BF00BF00BF00BF00BF039820F057
:103D2000100010300390E068806903990843E1684F
:103D30008861012005B030BD08B501460020009023
:103D4000009820F00800083000900098CA68506180
:103D5000012008BD30B5C47800256CB900EB8200A5
:103D60000024DB1C9B08D0F8D00003E051F8042BA2
:103D70000260641C9C42F9D3284630BDFEE702E095
:103D800008C8121F08C1002AFAD1704770470020E6
:103D900001E001C1121F002AFBD1704710B5044693
:103DA0000A464078012304F1300100F03DFB08B1E0
:103DB000032010BDB4F82E02A0F52A41553901D0D8
:103DC000022010BD94F86600B4F8671040EA0121A3
:103DD0000848B0EB012F08D094F88210B4F8832083
:103DE00041EA0221B0EB012F01D1002010BD0120DA
:103DF00010BD0000004641542DE9F0470B46016814
:103E000016460A78303A092A08D84C783A2C05D157
:103E1000891C016012B10B20BDE8F0876C48046872
:103E20001C60A4B1207820B1607800F02FFBC1079E
:103E30000FD04FF0000984F80090484684F80190B4
:103E400000F0C2FA0546C00708D00320E4E70C20C2
:103E5000E2E70EB140070FD40020DDE7607804F1FF
:103E60000A02022100F0C0FA38BB6089B0F5806F09
:103E700023D81EB1680701D50A20CDE700210E46E0
:103E80002046FFF78BFF01280CD104F5F77001796C
:103E900099B1017AD0F8090041EA0026314620465E
:103EA000FFF77CFF032801D038B901E00120B3E718
:103EB000B4F83B006389984201D00D20ACE7B4F818
:103EC000461029B994F85400D4F8551040EA01215D
:103ED000A16194F84000E070E78F4843BA1922626C
:103EE00094F83D50A570B4F841C0A4F808C0B4F8E7
:103EF000431029B994F85010D4F8518041EA0821B0
:103F00005B09BCFBF3F3C91B091AC91AB1FBF5F134
:103F1000891C012540F6F777E161B94200D30225FB
:103F20004FF6F777B94201D303250FE0032D0DD0EB
:103F3000111818441044C4E909104FF0FF302061F3
:103F40004F4684F80490032D07D038E094F85C10B5
:103F5000D4F85D7041EA0721EBE76771B4F86000BF
:103F6000012382196261607804F1300100F05CFA8B
:103F700028BBB4F82E02A0F52A4155391FD194F878
:103F80003000D4F8311040EA01201249884216D19D
:103F900094F81402D4F8151240EA01200E49884220
:103FA0000DD194F81C02D4F81D1240EA0120E06003
:103FB00094F81802D4F8191240EA0120206104494B
:103FC0002570091FE7620888401C0880E08043E7ED
:103FD000F40000205252614172724161C269891E2F
:103FE000921E8A4201D800207047826A807801FBC5
:103FF000002070472DE9F041C7695FEA01080646D5
:1040000008D04146304600F071FD022808D2012058
:10401000BDE8F081F5680DB1BD4204D3012502E091
:10402000B842F5D345462C46641CBC4202D3022458
:10403000022D0AD32146304600F058FD38B1411C0C
:10404000E6D00128E4D0AC42EED10020E0E76FF0EA
:1040500070422146304600F094FE4FF0FF3540B9E3
:104060005FEA080007D001462246304600F089FE8C
:1040700008B12846CCE7F4603069411C03D0401EEB
:104080003061012070712046C2E700002DE9F04741
:10409000846989460B222021204600F036FE00204C
:1040A0000246D9F8007013460825395C401C2029C7
:1040B00031D92F292FD05C292DD02E2909D0AB4200
:1040C00036DA802903D3264E314411F8801C25A608
:1040D00007E0082D2CD108230B2591060A0EE4E7F2
:1040E000761C96F800C0BCF1000F02D08C45F7D1C9
:1040F0001EE0A1F14106192E02D842F0020207E0AB
:10410000A1F16106192E03D8203942F00102C9B28B
:10411000E1545B1CC9E73E18C9F80060202901D8AA
:10412000042000E000201BB12178E52903D004E041
:104130000620BDE8F08705212170082D01D19106E8
:104140000A0E02F00301012901D140F01000C2F370
:104150008101012901D140F00800E0720020E8E768
:104160009451000820222A2B2C5B3D5D7C7F0000AF
:1041700042F21073B0FBF3F210B502F1300403FB0E
:1041800012024FF47A73B2FBF3F00C7003FB1022AF
:1041900000F130046423B2FBF3F04C7000F1300402
:1041A00003FB10200A23B0FBF3F28C7003FB120018
:1041B00002F13004CC703030087110BD2DE9F041AF
:1041C0000446C0880F46401C0604360C37D02169CF
:1041D000A1B3206842895209B6FBF2F302FB1362D5
:1041E000002A5FD1491C2161E16841B1428983788D
:1041F0005209B6FBF2F25B1E1A4204D052E000896B
:10420000B0421CD94EE000F071FC054601281BD9D4
:10421000681C32D02068C169A9423DD877B1E168F5
:10422000FFF7E8FE05000DD0012D0DD0681C24D04D
:104230000021206800F070FDF8B907E0FFE70420D6
:10424000BDE8F0810720FBE70220F9E720680021A4
:104250004289303000F059FD29462068FFF7BEFE44
:10426000216800274FF00108C8620EE080F8048042
:104270000021206800F050FD08B10120E0E720682F
:10428000C16A491C7F1CFFB2C16220688178B942B3
:10429000ECD8C16AC91BC162E56029462068FFF7F6
:1042A0009DFE2061E680206841894909B6FBF1F254
:1042B00001FB1261302202EB4111084460610020D1
:1042C000BEE770B50446002100F02EF80EE021692B
:1042D000206800F021FD050024D160690078E52800
:1042E00007D030B101212046FFF768FF0500EED06E
:1042F00018E02169206800F00FFD050012D1666901
:1043000020220021304600F000FD0B223046A1693A
:1043100000F0F2FCA069C07A00F018003073216848
:1043200001200871284670BD70B50D46C1808168B6
:104330000446012927D02068C2698A4223D921B9BD
:104340000278032A08D1416A31B142898078520942
:1043500012FB00F086B21CE0E1600189A94212D98B
:104360004189406A4909B5FBF1F108441DE0206824
:1043700000F0BCFB0146401C07D0022903D3206893
:10438000C069884203D8022070BD012070BDA81BFF
:1043900085B2B542EBD2E1602068FFF71FFE2168CD
:1043A00049894909B5FBF1F1084420612068418938
:1043B0004909B5FBF1F201FB1251302202EB411128
:1043C00008446061002070BD10B50548FCF77DFA17
:1043D000044918B1087820F001000870087810BD71
:1043E000F8000020EC00002078B90D4B01201B786C
:1043F000DB0701D00320704771B1012907D04FF4CA
:104400000073022907D0032908D00420704705480B
:104410000068106000E01380002070471360704750
:10442000EC000020102F00202DE9F0411C4615461D
:104430000E4638B934B112480078C00704D00320C2
:10444000BDE8F0810420FBE70E48FCF73EFAA0B17E
:1044500067023B462A4631460A48FDF779FD044685
:1044600009490848FDF79AFB0648FCF72EFA10B1F7
:10447000032CEED00CB10120E2E70020E0E70000C1
:10448000EC000020F8000020A805002008B1012061
:104490007047014800787047EC0000202DE9F0419A
:1044A0001C4615460E4638B934B114480178C90780
:1044B00004D00320BDE8F0810420FBE7007840072A
:1044C00001D50220F6E70E48FCF7FFF9A0B167021C
:1044D0003B462A4631460A48FDF786FE044609490E
:1044E0000748FDF75BFB0648FCF7EFF910B1032C1A
:1044F000EED00CB10120DDE70020DBE7EC0000206E
:10450000F8000020A805002010B5044600F067F967
:10451000002801D10021216010BD2DE9F0410D4698
:1045200004468188006800F013FE5FEA000803D1AA
:10453000A179080602D50220BDE8F081E068A84212
:1045400002D2890700D405460027A068FF21A76092
:10455000E171002D53D02268967851894E4368B19D
:10456000691E401EB1FBF6F1B0FBF6F3994205D38C
:10457000711E8843A0602D1A61690CE0216949B958
:1045800000211046FFF736FD014601284ED0481C99
:104590005DD021616161D1B931E0A07980072068E7
:1045A00005D5FFF727FD010004D1354611E000F0E5
:1045B0009DFA0146481C4AD0012937D92068C069B4
:1045C000884233D96161A068AD1B3044A060B54218
:1045D000E3D8A0682844A06020684289B5FBF2F2C5
:1045E000E2714289B5FBF2F302FB13523AB1FFF7D5
:1045F000F5FC01001AD0E0794718401CE0712068F2
:10460000A1684289B1FBF2F302FB131131B3A26935
:10461000BA4223D0A1794B0604F124010D460ED5F0
:1046200040780123FFF73AFF88B904E0A07940F011
:104630008000A0717FE7A07920F04000A071206881
:1046400001233A4640782946FFF7EEFE28B1A079CB
:1046500040F08000A07101206EE7A761D4E902015B
:10466000884204D9E060A07940F02000A071404663
:1046700062E7000008B10B207047054A002310686C
:1046800000B1037001B10B70002011607047000091
:10469000F40000202DE9F7478BB04FF000080646E4
:1046A00002F01F05C0F8008005F01E0269460CA844
:1046B000FFF7A2FB00281BD107A8069068460C99BB
:1046C00000F0B6F915F01C0F5DD04FF0010960B194
:1046D00004280DD16846FFF7F4FD002808D145F005
:1046E0000805059C280738D45CE0680703D5082036
:1046F0000EB0BDE8F087059CF4B3E07A10F0110F1E
:104700004ED128074ED5A08A678B84F8148084F890
:10471000158084F81A8084F81B8084F81C8084F843
:104720001D8084F81E8084F81F80009960F31F4765
:1047300081F804900098D0F82CA047B13946009831
:1047400000F0B8FB0028D3D100987F1EC760514607
:10475000009800F0E1FA0028CAD184F80B8000F03C
:104760002CFAA0734FEA1021E1734FEA1041217433
:104770004FEA1060607400E012E0009945F02005F7
:1047800081F804900EE00028B2D1059C14B1E07AC3
:10479000C10601D50420ABE7A90703D5C00701D0A6
:1047A0000720A5E70098C06AF06105983062B571EE
:1047B000A18A608B61F31F403061207FD4F81D1007
:1047C00040EA0120C6E90280FF21F171C6F8188095
:1047D000009830600098C088B080002088E770B5ED
:1047E00004468188006800F0B3FC00280ED1A1794E
:1047F0008A060BD548060ED52068012304F1240152
:104800004078A269FFF74AFE08B1012070BDA07987
:1048100020F04000A071E169206800F07DFA0028D6
:10482000F4D1256AE87A40F02000E872207B2877EE
:10483000A089000A6877E068000CA877E068000E9D
:10484000E877207CA876208A000AE8762069000CA8
:1048500028752069000E687500F0AFF9A875010A87
:10486000E975010C2976000E6876A07920F0200009
:10487000A0712168012008712068BDE8704000F037
:104880000BBC2DE9F05F4FF0000A0F46C3F800A003
:104890000446818899461646006800F059FC0028B5
:1048A00003D1A079010602D50220BDE8F09F800760
:1048B00001D40720F9E7E16804F1240B8A198A4240
:1048C0006FD3A7E02268A0685189B0FBF1F301FB28
:1048D000130100297FD1E37991788B420DD3C0B1C8
:1048E00010466169FFF786FB00285AD001283BD0AB
:1048F000411C65D0606184F807A0A079400615D5F9
:104900002068012359464078A269FFF7C7FD80BBA4
:1049100008E020690028E9D100211046FFF76AFB72
:104920002061E1E7A07920F04000A0716169206872
:10493000FFF754FBC0B1E1790D1820684289B6FB3E
:10494000F2F8B8F1000F2DD0827801EB0803934202
:1049500001D9A2EB010808F0FF0340782A46394646
:10496000FFF79CFD28B905E0A07940F08000A07118
:104970009AE725E0A169481B40450AD221684A8987
:1049800000FB0271584600F0B7F9A07920F0400012
:10499000A071E0794044E0712068458905FB08F585
:1049A0002EE03AE0A269AA4211D0D4E90212914263
:1049B0000DD2407801232A465946FFF735FD30B124
:1049C000A07940F08000A07101206EE703E0A561AE
:1049D000E079401CE0712068A2684189B2FBF1F0E7
:1049E00001FB10200D1AB54200D935462044243071
:1049F0002A46394600F080F9A07940F04000A071C5
:104A0000A0682F442844A060D9F800004119761B03
:104A1000C9F80010002E7FF455AFD4E90201884296
:104A200000D9E060A07940F02000A07100203CE7B0
:104A300073B50446019801E0401C019001782029DB
:104A4000FAD001782F2901D05C2901D1401C0190B6
:104A50000025A56001980078202805D20021204675
:104A6000FFF762FC65617CBD01A92046FFF70EFBE4
:104A70000028F8D100212046FFF756FCF8B921693B
:104A8000206800F049F9D0B961690A782AB1CA7A78
:104A900012070ED40A23A26903E004200FE05B1E74
:104AA00006D311F8015B12F8016BAD1BF7D000E0E3
:104AB0002DB100212046FFF781FB0028DFD0A1693E
:104AC000C97A01F0040128B10428CCD10029CAD147
:104AD00005207CBD0029FCD16069C17AC906F7D5E3
:104AE000818A408B61F31F40A060BDE72DE9F04152
:104AF00004460D46022902D3E069A84202D80120EB
:104B0000BDE8F0812078276A012805D0AEB20228DE
:104B100029D0032840D136E0608905EB5506B6FB65
:104B2000F0F0C119204600F0F7F8A8BB6089411EDB
:104B30003140761CB6FBF0F0214491F83080C11969
:104B4000204600F0E9F838BB6089401E3040204420
:104B500090F8301048EA0120E90701D00009CFE7BA
:104B6000C0F30B00CCE760894008B1FBF0F0C1193D
:104B7000204600F0D1F878B96089401E00EA46006E
:104B80002044008EBCE760898008B1FBF0F0C119B9
:104B9000204600F0C1F810B14FF0FF30B0E7608957
:104BA000401E00EA8600204490F83010D0F8310012
:104BB00041EA002020F07040A2E70020704700008A
:104BC00088B004A8FBF732FF0120FBF729FF05207E
:104BD0008DF80C0000248DF80D408DF80E40012555
:104BE0008DF80F5003A8FBF797FE01210420FBF777
:104BF000E1FE6802019003208DF8090002208DF883
:104C000008008DF80A408DF80B5001A93248FBF7D7
:104C1000B9FD69070020FBF7ABFF00F023FA00F0B5
:104C2000C1F90120FBF7BEFF0020FBF7BBFF02200C
:104C3000FBF7B8FF0320FBF7B5FF0120FBF7E2FF0E
:104C40000020FBF7DFFF0220FBF7DCFF0320FBF770
:104C5000D9FF2248FBF7EAFE204864210725406877
:104C6000B0FBF1F0B0F1807F0AD220F07F414FF02D
:104C7000E020491E41611A4AF021117084610561EA
:104C8000FCF784F91748047017480570FBF7AAFA77
:104C90001648FBF7A3FB01210020FBF7BFFF0F4ADB
:104CA0001348843A0090134B0121A2F59660FCF75B
:104CB0002FFE0120FBF79AFF0020FBF797FF022051
:104CC000FBF794FF0320FBF791FF04498439A1F51A
:104CD0009660FDF7E1FBF8E7000802402C06002093
:104CE00023ED00E00000002092000020002201409F
:104CF00044000020DC00002004E000BF11F8013B6C
:104D000000F8013B521EF9D27047C9B201E000F829
:104D1000011B521EFBD270472DE9F041C56A0F46B8
:104D20000446BD422BD0217904F13008D9B1607816
:104D300001232A464146FFF7B1FBE0B9002020716C
:104D4000A169206A0844A8420DD9E67809E0A06963
:104D50000123054460782A464146FFF79FFB761EF3
:104D6000F6B2012EF3D857B1607801233A46414696
:104D7000FFF75AFB10B10120BDE8F081E762002087
:104D8000FAE72DE9F05F17460D460446022902D3E3
:104D9000E069A84202D80220BDE8F09F2178D4F84B
:104DA000208007F0FF094FF0010B01290AD0C7F35B
:104DB000072AAEB202293BD0032952D0022084F840
:104DC00004B0E9E7608905EB5506B6FBF0F1414414
:104DD0002046FFF7A1FF0028F1D16089401E304036
:104DE00020443030E90703D0017869F31F1100E057
:104DF0003946017084F804B06089761CB6FBF0F186
:104E000041442046FFF788FF0028D8D16189491E18
:104E1000314021443031EA0702D0C7F3071205E0E0
:104E20000A78C7F3032302F0F0021A430A70C6E7B8
:104E300060894008B5FBF0F141442046FFF76CFF64
:104E40000028BCD16289521E02EA4602224482F83E
:104E500030906189491E01EA4601214481F831A060
:104E6000ADE760898008B5FBF0F141442046FFF7CB
:104E700053FF0028A3D16289521E02EA860222440F
:104E800082F830906289521E02EA8602224482F839
:104E900031A061893A0C491E01EA8601214481F85A
:104EA000322061893A0E491E01EA8601214481F8C7
:104EB000332084E72DE9F0410E460746022918D336
:104EC000F869B04215D900254FF001081DE03146C0
:104ED0003846FFF70BFE04001AD0012C09D0601CE5
:104EE00009D0002231463846FFF74BFF05000FD1AD
:104EF00003E002250CE001250AE03869411C03D0DB
:104F0000401C386187F805802646F869B042DED833
:104F10002846BDE8F0810000214910B50968204A03
:104F2000121F1268002303608380C1F3035303EB55
:104F30008303C1F3034404EB43030370C1F3003361
:104F400003EB8303C1F3032404EB43034370C1F376
:104F5000011401F00F0304EB840403EB440383709A
:104F6000C1F34231C170C2F3015101EB8101C2F3BF
:104F7000034303EB41010171C2F3023101EB8101F3
:104F8000C2F3032303EB4101417102F00F01C2F3AD
:104F9000021202EB820201EB4201817110BD00009E
:104FA000042800402A490868C0064FD429480268EE
:104FB00042F0805202602848026842F48072026027
:104FC00024483430026842F001020260026892070D
:104FD000FCD520483030026842F48032026002681A
:104FE00022F480320260026822F440720260026899
:104FF00042F400720260026842F400420260144807
:10500000CA2218300260532202600A6842F080020D
:105010000A600A685206FCD50D4BF9221B1D1A6066
:105020000E4A1A600A4B0E4A083B1A601B1F4FF4C7
:10503000A8121A60064A121F136843F04003136057
:105040000A6822F080020A60FF21016070470000B8
:105050000C2800404038024000700040F9007F00FA
:10506000308513000A48016841F080510160094809
:10507000016841F48071016005483030016841F4F5
:1050800080310160016821F48031016070470000C7
:1050900040380240007000402DE9F04104460021F4
:1050A000FFF73AFE050050D12078032846D16079F9
:1050B000F0B3002604F130004FF400723146074689
:1050C000E662FFF722FE552084F82E02AA2084F81B
:1050D0002F02522084F8300084F83100612084F8D7
:1050E0003200412184F83310722284F8142284F8AB
:1050F000152284F8161284F81702206984F8180221
:10510000010A84F81912010C84F81A12000E84F8AE
:105110001B02E06884F81C02010A84F81D12010CCD
:10512000000E84F81E1284F81F026078012300E04C
:1051300004E039466269FFF7B1F9667100226078D0
:105140001146FFF751F900B101252846BDE8F0816D
:1051500010B520B1027812B1C2888A4201D009206C
:1051600010BD4078FFF792F9C007F9D0032010BDB9
:1051700000000600010001000100000000100020F6
:105180000040008008000000080000000800000047
:1051900008000000808182838485868788898A8BC5
:1051A0008C8D8E8F90919293949596979899AD9BB4
:1051B0008C9DAE9FA021A2A3A4A5A6A7A8A9AAAB37
:1051C000ACADAEAFB0B1B2B3B4B5B6B7B8B9BABBA7
:1051D000BCBDBEBFC0C1C2C3C4C5C6C7C8C9CACB97
:1051E000CCCDCECFD0D1D2D3D4D5D6D7D8D9DADB87
:1051F000DCDDDEDFC0C1C2C3C4C5C6C7C8C9CACBF7
:10520000CCCDCECFD0D1D2D3D4D5D6F7D8D9DADB46
:10521000DCDDDE9F00401F0000A00F0000D0070073
:1052200000E8030000F4010000FA0000007D000027
:10523000803E0000401F0000A00F000000000000A2
:1052400000800040002000100008004000200010F6
:10525000000800040002000078520008000000204E
:10526000F80000007E3D000870530008F8000020A0
:10527000283400008E3D00080000BA410000000004
:10528000000000000000000000000000000100001D
:105290000000000000000000007A030A0000000087
:1052A00000000000010203040607080900000000D6
:1052B00000206572726F722E6373760051270008AA
:1052C0007526000885260008A72700081127000872
:1052D000A32700083B2700083D2700088126000877
:1052E00073260008A1270008A5270008A9270008A1
:1052F0003F270008AD270008552700083927000878
:10530000AB2700080200000000000000000002407F
:10531000000C0240000C0240000C0240000C024055
:10532000000000000102030401020304060708094B
:105330000000000011140008E7120008000000003F
:10534000000000000000000000000000000000005D
:1053500000000000151E0008DD1D00089D19000852
:10536000391A0008010300000000000000000000DE
:040000050800018965
:00000001FF
