:020000040000FA
:1000000080A000204D98000071360000913600005D
:1000100095360000993600009D3600000000000073
:10002000000000000000000000000000A1360000F9
:10003000A336000000000000A5360000733E00005B
:1000400067980000679800006798000067980000B4
:1000500067980000915D0000E35C00007F5C000099
:100060006798000067980000679800006798000094
:100070006798000067980000679800006798000084
:100080006798000067980000679800006798000074
:100090006798000067980000679800006798000064
:1000A0006798000067980000679800006798000054
:1000B0007F5D000067980000B15C00006798000059
:1000C0006798000067980000679800006798000034
:1000D0006798000067980000C70800006798000054
:1000E0006798000067980000679800006798000014
:1000F0006798000067980000679800006798000004
:1001000067980000679800006798000067980000F3
:100110006798000067980000113C00006798000095
:1001200067980000679800006798000067980000D3
:1001300067980000679800006798000067980000C3
:10014000679800006798000067980000875D0000CE
:1001500067980000679800006798000067980000A3
:100160006798000067980000679800006798000093
:100170006798000067980000679800006798000083
:100180006798000067980000DFF80CD00FF024FE9D
:1001900000480047611E000080A00020CA20FE49E0
:1001A0000860532008607047FF20FB4908607047D3
:1001B000F0B504460D461E46002000BF0A2792FBFC
:1001C000F7F707F00F0101EB8107A2EB470707F0F4
:1001D0000F0340EA015040EA03400A2795FBF7F776
:1001E00007F0010101EB8107A5EB470707F00F03BB
:1001F00040EA013040EA03200A2794FBF7F707F0B2
:10020000030101EB8107A4EB470707F00F0340EA66
:100210000110184306F0070740EA4730DE4F203F41
:100220003860F0BD70B503460C46002000BF0A26BA
:1002300093FBF6F606F0030101EB8106A3EB4606FD
:1002400006F00F0540EA015040EA05400A2694FBFB
:10025000F6F606F0070101EB8106A4EB460606F070
:100260000F0540EA013040EA05200A2692FBF6F627
:1002700006F0070101EB8106A2EB460606F00F052A
:1002800040EA01102843C44E243E306070BDC3488C
:10029000006840F08050C1490860C148006840F4DF
:1002A0008070BF490860BD483030006840F480303D
:1002B000BA49303108600846006820F48030086090
:1002C00070472DE9F0410025B3481838006810F058
:1002D000100F01D0BDE8F081B048006840F08050B8
:1002E000AE490860AE48006840F48070AC490860D0
:1002F000AA483430006840F00100A8493431086051
:1003000000BFA6483430006810F0020FF9D0A348AF
:100310003030006840F48030A04930310860084631
:10032000006820F4803008600846006820F44070BF
:1003300008600846006840F40070086008460068DD
:1003400040F40040086094481C38006840F04000C9
:1003500091491C390860081D006820F08000091DC3
:100360000860FFF721FF4AF2A551022007F0A3F928
:100370000121880409F02CF900240026002702201E
:1003800007F0A6F9874908800121880409F020F9BF
:10039000BE208549088000BF04E08448205C844971
:1003A0000855641C804800888442F6D3BE207E49EC
:1003B0000880002404E07F48205C7D490855641CC7
:1003C000794800888442F6D37948008942F20F7157
:1003D000884202DD03207649088175480089764904
:1003E00008807348007910B901207149087170487C
:1003F0004089632802DD03206D4948816C48C0892B
:100400006B49098A884203D100206949C881088262
:100410006748C089B0F57A7F02DB14206449C8813F
:100420006348008AB0F57A7F02DB32206049088297
:100430005F48C08910B914205D49C8815C48008AB2
:1004400010B932205A4908823A20574908800024BE
:1004500006E05848204490F8BE0058490855641CEE
:10046000514800888442F4D3002054490870097828
:10047000642901DD012100E00021084302D00120B0
:100480004E4908704D48408842F20F71884202DDA3
:1004900000204A49488049484088494908804748DF
:1004A0008088632802DD032044498880434800890E
:1004B000B0F57A7F02DB1420404908813F4800896B
:1004C00010B914203D4908813C484089B0F57A7F35
:1004D00002DB3220394948813848408910B932203E
:1004E000364948813548807B012802DD01203349A7
:1004F00088733248C07B012802DD01202F49C87370
:100500002E48008AB0F5FA6F01DD012000E00020DE
:100510002A49098A09B9012100E00021084303D0D2
:100520004FF47A702549088200BF00BFD2E610B5AB
:10053000194B203B19681B1F1A6800230360838036
:100540008371C1F3035303EB8303C1F3034404EB4F
:1005500043030370C1F3003303EB8303C1F30324AC
:1005600004EB4303437001F00F03C1F3011404EBE8
:10057000840403EB44038370C1F34233C370C2F3BA
:10058000015303EB8303C2F3034404EB43030371FE
:10059000C2F3023316E00000242800404038024035
:1005A00000700040000000200200002000400240D7
:1005B000148A002000000E0874000020D28A002057
:1005C0007E00002003EB8303C2F3032404EB430308
:1005D000437102F00F03C2F3021404EB840403EB33
:1005E0004403837110BD00001CB510200090012051
:1005F0008DF8040000208DF806008DF807008DF8B6
:1006000005006946FE4806F001FA1CBD1CB54FF412
:100610008070009001208DF804008DF80600002005
:100620008DF807008DF805006946F64806F0EEF9EA
:100630008020009001208DF804008DF80600002035
:100640008DF807008DF805006946EE4806F0DEF9E2
:100650001CBD002100BF01E000BF491C8142FBD34B
:100660007047E8481030006810F0800F01D100207A
:1006700070470120FCE7E3481030006810F4807FE9
:1006800001D1002070470120FCE730B50446002569
:100690000023012C16D18020DA491831088003206C
:1006A000FFF7D7FF00E05B1CFFF7DBFF012800D15D
:1006B00000E00020022B01D2012100E000210842CD
:1006C000F1D115E08020CF491A3108800320FFF7CF
:1006D000C0FF00E05B1CFFF7C4FF012800D100E071
:1006E0000020022B01D2012100E000210842F1D1BB
:1006F00030BD30B5044600250023012C16D1000280
:10070000C049183108800320FFF7A3FF00E05B1CFD
:10071000FFF7B1FF012800D100E00020022B01D239
:10072000012100E000210842F1D116E04FF4807071
:10073000B4491A3108800320FFF78BFF00E05B1CEF
:10074000FFF799FF08B9012000E00020022B01D239
:10075000012100E000210842F1D130BD00B50020A8
:10076000FFF793FF0020FFF7C4FF00BD10B5002482
:100770000020FFF78AFF0120FFF7BBFF00BF04E066
:100780000320FFF766FF601CC4B2032CF8DB0120D6
:10079000FFF77BFF10BD10B500240120FFF775FFA8
:1007A0000120FFF7A6FFFFF75CFF0446012C0AD1EA
:1007B00095480078401C944908709448007810B916
:1007C0000120924908700020FFF793FF204610BDDA
:1007D00030B50446002500BF13E014F0800F03D1AC
:1007E0000020FFF752FF02E00120FFF74EFF01203B
:1007F000FFF77FFF0020FFF77CFF6006040E681CF8
:10080000C5B2082DE9DBFFF7C6FF30BD30B50024C7
:10081000002500BF16E00120FFF737FF0120FFF79A
:1008200068FFFFF71EFF20B96006040E04F0FE0407
:1008300003E06006040E44F001040020FFF759FFB6
:10084000681CC5B2082DE6DB204630BD10B5044655
:10085000012C03D10020FFF718FF02E00120FFF771
:1008600014FF0120FFF745FF0020FFF742FF10BDF6
:1008700030B505460024FFF771FFD020FFF7A8FF31
:100880000020FFF7A5FFFFF771FF6420FFF7E1FEEF
:10089000FFF764FFD120FFF79BFF00BF0BE0FFF7DE
:1008A000B5FF5B490855681EA04202D00120FFF742
:1008B000CDFF601CC4B2AC42F1DB0020FFF7C6FFE5
:1008C000FFF754FF30BD10B540F22551514807F0F5
:1008D000FCFB28B3002440F225514E4807F02CFCC5
:1008E0004D48007800B110BD4A4807F02CFBC4B257
:1008F0003A2C02D10020494908800D2C06D14748E6
:100900000088474908800120434908704548434909
:100910000988445441480088401C4049088000BF71
:1009200040F226613B4807F0D0FBA8B340F22661B5
:10093000384807F001FC3C4800883C490988884257
:1009400007DD3B48394A1288815C324807F0F7FAE4
:1009500015E03548008835490988884204D10D21C1
:100960002C4807F0ECFA0AE000220821244806F09F
:10097000CDF8012240F22551264807F06BFB2B48A9
:100980000088B0F5FA7F02DB00202849088027485C
:100990000088401C2549088000BFA4E700B59BB033
:1009A0000121244808F014FE0121880208F054FEB9
:1009B0004FF080600290204803902048049000206F
:1009C000059002200690002007904FF48060089068
:1009D0004000099080000A9040110B9040020C905A
:1009E00000200D9001200E9000200F90109002A981
:1009F000134805F0DFFD0121114805F015FE21E047
:100A0000000C024000040240B200002090000020D0
:100A1000208B0020004400404E000020A000002059
:100A20009C000020380700209A0000209E00002033
:100A30002C090020040040004C22014096000020B8
:100A4000106402400420009003208DF80400002070
:100A50008DF807006946FE4805F0D8FF2020009079
:100A600003208DF8040000208DF807006946F8483F
:100A700005F0CCFF0020119012901390149011A853
:100A800005F0F8FA0020159001208DF858008DF837
:100A9000590000201790199002208DF8680015A9C0
:100AA000EC4805F0B8FA072301220F21E94805F0C8
:100AB0003DFB072302220C21E64805F037FB01210C
:100AC000E44805F0DDFB0121E24805F0CEFB012101
:100AD000E04805F0EBFA1BB000BD00B59BB001216A
:100AE000DD4808F075FD0121480208F0B5FD4FF022
:100AF00080600290D748B4380390D8480490002012
:100B0000059002200690002007904FF48060089026
:100B10004000099080000A9040110B9040020C9018
:100B200000200D9001200E9000200F90109002A93F
:100B3000CB4805F03FFD0121C94805F075FD0420B3
:100B4000009003208DF8040000208DF8070069460E
:100B5000BF4805F05BFF0220009003208DF80400E1
:100B600000208DF807006946B94805F04FFF0020C6
:100B7000119012901390149011A805F07BFA0020A8
:100B8000159001208DF858008DF85900002017901D
:100B9000199002208DF8680015A9B24805F03BFABB
:100BA000072301220C21AF4805F0C0FA07230222D7
:100BB0000B21AC4805F0BAFA0121AA4805F060FB08
:100BC0000121A84805F051FB0121A64805F06EFA65
:100BD0001BB000BD00B587B00121480408F02BFD13
:100BE0000121082008F0F4FC072205219E4805F0A9
:100BF00098FF072206219C4805F093FF20200590CE
:100C000002208DF8180000208DF81A0002208DF8BF
:100C1000190005A9944805F0F9FE4020059002202E
:100C20008DF8180005A9904805F0F0FE4FF4165015
:100C300001900020ADF80800ADF80A00ADF80C00F6
:100C4000ADF810000C20ADF80E0001A9874807F0A0
:100C5000C3F80121854807F047F907B000BDF0B59A
:100C60008348006840F080008149086000BF8048E8
:100C7000006810F0400FFAD00020022306240D2552
:100C8000072600BF0A2795FBF7F707F00F0101EBD6
:100C90008107A5EB470707F00F0240EA015040EA41
:100CA00002400A2794FBF7F707F0010101EB8107E7
:100CB000A4EB470707F00F0240EA013040EA0220A8
:100CC0000A2793FBF7F707F0030101EB8107A3EB7A
:100CD000470707F00F0240EA0110104340EA463090
:100CE000634F083F3860002000230024002500BF28
:100CF0000A2693FBF6F606F0030101EB8106A3EB4F
:100D0000460606F00F0240EA015040EA02400A2679
:100D100094FBF6F606F0070101EB8106A4EB46060C
:100D200006F00F0240EA013040EA02200A2695FB55
:100D3000F6F606F0070101EB8106A5EB460606F084
:100D40000F0240EA011010433E1F3060381D00685A
:100D500040F04000391D0860081D006820F0800048
:100D6000091D0860FF20424918310860F0BD704736
:100D700010B5044621463F4806F028FF00BF8021F9
:100D80003C4806F05AFF0128F9D010BD002100BFF1
:100D900001E000BF491C8142FBD3704710B50446F7
:100DA00000220121344805F0B1FE34480068FFF705
:100DB000EDFF04F57060FFF7DBFF30480068FFF7D8
:100DC000E5FF012211462C4805F0A0FE2C480068E2
:100DD000FFF7DCFF00220221274805F097FE274895
:100DE0000068FFF7D3FF04F57060FFF7C1FF2348E9
:100DF0000068FFF7CBFF012202211F4805F086FEA5
:100E00001F480068FFF7C2FF002204211A4805F0BE
:100E10007DFE1A480068FFF7B9FF04F57060FFF720
:100E2000A7FF16480068FFF7B1FF0122042112480E
:100E300005F06CFE12480068FFF7A8FF00220821A9
:100E40000D4805F063FE0D480068FFF79FFF19E0AD
:100E500000080240002201400400400096000020EB
:100E60001064024000210140000C02400044004098
:100E70000C28004000300140000002402400002007
:100E80002800002004F57060FFF772FFF848006842
:100E9000FFF77CFF01220821F64805F037FEF648EF
:100EA0000068FFF773FF10BD014600204A1E06D000
:100EB000012A06D0022A06D0032A08D105E0012023
:100EC00007E0022005E0042003E0082001E0002004
:100ED00000BF00BF704700B587B00121084608F089
:100EE00077FB0121080308F0B7FB684605F0D6FD43
:100EF0000F20009001208DF8040000208DF80600DE
:100F000001208DF8070003208DF805006946D948B7
:100F100005F07CFDE020009002208DF80400032005
:100F20008DF8050000208DF8060002208DF80700DE
:100F30006946D04805F06AFD05221146CD4805F006
:100F4000F0FD05220621CB4805F0EBFD0522072127
:100F5000C84805F0E6FDC94806F0B0FC02A806F056
:100F60009EFD4FF48270ADF80A004FF40060ADF8BA
:100F70000C008010ADF812001820ADF8140000200D
:100F8000ADF8160002A9BD4806F0BEFC0121BB4821
:100F900006F09BFD4FF48071B84806F0C5FD07B020
:100FA00000BD2DE9F04106460C469046002500277D
:100FB0003046FFF779FF05460DB9BDE8F081002204
:100FC0002946AC4805F0A2FDA9480068FFF7DEFEFF
:100FD00040F60140FFF7CCFEA5480068FFF7D6FEBB
:100FE00001222946A34805F091FDA3480068FFF7B8
:100FF000CDFE002229469F4805F088FD9C480068E8
:10100000FFF7C4FE04F6FF2188B2FFF7B1FE98484F
:101010000068FFF7BBFE01222946964805F076FDE1
:1010200095480068FFF7B2FE00222946914805F076
:101030006DFD8F480068FFF7A9FE40F60F20FFF70F
:1010400097FE8B480068FFF7A1FE012229468948D8
:1010500005F05CFD88480068FFF798FE00BFACE72C
:1010600070B50646002500243046FFF71DFF0546F3
:1010700005B970BD01241DE0002229467D4805F018
:1010800045FD7B480068FFF781FE012101EB04214B
:1010900088B2FFF76DFE76480068FFF777FE012201
:1010A0002946744805F032FD73480068FFF76EFE6C
:1010B000601CC4B2092CDFDB00BFDAE72DE9F04188
:1010C00006460024002700253046FFF7EDFE0546C2
:1010D0000DB9BDE8F08101241DE0002229466548D4
:1010E00005F014FD62480068FFF750FE002101EB97
:1010F000042188B2FFF73CFE5D480068FFF746FE1A
:10110000012229465B4805F001FD5B480068FFF7B6
:101110003DFE601CC4B2092CDFDB00BFD9E72DE91E
:10112000FE4F8046894615464FF0000A4F46002480
:101130004FF0010B0026002000904046FFF7B4FE60
:101140008246BAF1000F01D1BDE8FE8F4C4800780D
:1011500080451FD1002205214046FFF722FF0022D3
:101160005146444805F0D2FC41480068FFF70EFEA6
:1011700040F2FF50FFF7FCFD3D480068FFF706FE18
:10118000012251463B4805F0C1FC3B480068FFF78F
:10119000FDFD04E0002203214046FFF702FF092D78
:1011A00021D2DFE805F00506090C1014171A1D00FE
:1011B000CAE70A20009019E06420009016E04FF47E
:1011C0007A70009012E042F2107000900EE02D480C
:1011D00000900BE02C48009008E02C48009005E0BF
:1011E0002B48009002E02A48009000BF00BF009802
:1011F00087424FD3002251461E4805F087FC1C4809
:101200000068FFF7C3FD40F24F10FFF7B1FD18482B
:101210000068FFF7BBFD01225146164805F076FC39
:1012200015480068FFF7B2FD02241DE00022514678
:10123000104805F06BFC0E480068FFF7A7FD002181
:1012400001EB042188B2FFF793FD09480068FFF71E
:101250009DFD01225146074805F058FC06480068EC
:10126000FFF794FD601CC4B2681C8442DEDB6BE7B0
:10127000240000200000024028000020003001402F
:1012800092000020A086010040420F008096980046
:1012900000E1F5052C460CE00A2097FBF0F100FB7D
:1012A000117001A908550A2097FBF0F087B2601E63
:1012B000C4B2002CF0DC012436E001A8005DFE4938
:1012C0000E5C281B012802D106F18000C6B27E2EDA
:1012D00001D1012000E0002010EA0B0F01D0002610
:1012E00001E04FF0000BAC4201D106F07F06002276
:1012F0005146F24805F00AFCF1480068FFF746FD48
:1013000006EB042188B2FFF733FDED480068FFF7D4
:101310003DFD01225146E94805F0F8FBE948006827
:10132000FFF734FD601CC4B2681C8442C5DB00BFFB
:101330000AE72DE9F05F81460D4617461E464FF03D
:101340000008C2464846FFF7AFFD8046B8F1000FDF
:1013500001D1BDE8F09F002204210846FFF721FEDD
:10136000D948007800287DD100224146D34805F0B5
:10137000CDFBD3480068FFF709FD0A2095FBF0F08C
:1013800020B94FF48070FFF7F3FC09E00A2095FBC9
:10139000F0F0C949085C00F580742046FFF7E8FCCE
:1013A000C7480068FFF7F2FC01224146C34805F038
:1013B000ADFBC4480068FFF7E9FC00224146BF4886
:1013C00005F0A4FBBE480068FFF7E0FC0A2095FB8F
:1013D000F0F100FB1150B849095CF00100F5007014
:1013E000084484B22046FFF7C3FCB5480068FFF705
:1013F000CDFC01224146B14805F088FBB1480068A8
:10140000FFF7C4FC00224146AC4805F07FFBAC4826
:101410000068FFF7BBFC0A2097FBF0F0AB49095CC2
:1014200006F540700C182046FFF7A2FCA44800689F
:10143000FFF7ACFC01224146A04805F067FBA1483C
:101440000068FFF7A3FC002241469C4805F05EFBC4
:101450009B480068FFF79AFC0A2097FBF0F100FB1D
:10146000117000E013E09949085C00F580642046A3
:10147000FFF77EFC92480068FFF788FC0122414696
:101480008E4805F043FB8F480068FFF77FFC8E48CD
:10149000007801287DD18E4880894FF47A7190FBC5
:1014A000F1F201FB120084B28A480078012806D1CB
:1014B0008948C08890FBF1F201FB120084B20A2037
:1014C00094FBF0F084B2002241467C4805F01EFBFC
:1014D0007B480068FFF75AFC40F26710FFF748FCB2
:1014E00077480068FFF752FC01224146734805F037
:1014F0000DFB74480068FFF749FC002241466F4825
:1015000005F004FB6E480068FFF740FC4FF40070E4
:10151000FFF72EFC6A480068FFF738FC01224146BD
:10152000664805F0F3FA67480068FFF72FFC64206F
:1015300094FBF0F100FB114084B2002241465F4869
:1015400005F0E4FA5E480068FFF720FC0A2094FBEF
:10155000F0F000F00F005D49085C00F5407B584654
:10156000FFF706FC56480068FFF710FC01224146D1
:10157000524805F0CBFA53480068FFF707FC0A20F1
:1015800094FBF0F100FB114084B2002241464B482D
:1015900000E021E005F0BAFA49480068FFF7F6FBE1
:1015A0000A2094FBF0F100FB114000F00F004749C6
:1015B000085C00F5806B5846FFF7DAFB404800688E
:1015C000FFF7E4FB012241463C4805F09FFA3D4805
:1015D0000068FFF7DBFB00BF3B48007802287DD1A5
:1015E0003B484089642190FBF1F201FB120084B278
:1015F00038480078012806D13748808890FBF1F2FE
:1016000001FB120084B2002241462C4805F07EFA0C
:101610002B480068FFF7BAFB40F20F10FFF7A8FB5A
:1016200027480068FFF7B2FB01224146234805F036
:101630006DFA24480068FFF7A9FB002241461F48C5
:1016400005F064FA1E480068FFF7A0FB4FF4007035
:10165000FFF78EFB1A480068FFF798FB012241460E
:10166000164805F053FA17480068FFF78FFB64200F
:1016700094FBF0F100FB114084B2002241460F4878
:1016800005F044FA0E480068FFF780FB0A2094FB3F
:10169000F0F000F00F000D49085C00F5407B584663
:1016A000FFF766FB06480068FFF770FB0122414622
:1016B000024805F02BFA12E058000020000002401A
:1016C00024000020280000203B01002065000020AD
:1016D000148A00204A010020D28A00202EE0FE4811
:1016E0000068FFF753FB0A2094FBF0F100FB114068
:1016F00084B200224146F94805F008FAF84800682B
:10170000FFF744FB0A2094FBF0F100FB114000F0CE
:101710000F00F449085C00F5806B5846FFF728FB82
:10172000EF480068FFF732FB01224146EB4805F025
:10173000EDF9E9480068FFF729FB00BF00BF08E6A4
:101740002DE9F04F85B083460D4691461C464FF07B
:10175000000AE5A207CA02AB07C3002604FB05F096
:10176000E449086020460EF0C5F9019048460EF0A5
:10177000C1F9804628460EF0BDF9414600900EF0B2
:10178000C9F8074601990EF08FF8DB490860084652
:1017900000680EF018FA0022D84BCDE900010EF0D7
:1017A000F9F807460EF022FAD349086008460068A7
:1017B0000EF0DCF9D249087008460078D14908706B
:1017C0005846FFF771FB8246BAF1000F02D105B00F
:1017D000BDE8F08F002204210120FFF7E2FBC8489A
:1017E0000078A04201DD012000E000204D4501DB32
:1017F000012100E0002108437ED01C2C67D100228B
:101800005146B64805F082F9B5480068FFF7BEFAC0
:101810004FF48070FFF7ACFAB1480068FFF7B6FAF2
:1018200001225146AD4805F071F9AB480068FFF759
:10183000ADFA00225146A94805F068F9A8480068A9
:10184000FFF7A4FA4FF40070FFF792FAA44800687B
:10185000FFF79CFA01225146A04805F057F99E482F
:101860000068FFF793FA002251469C4805F04EF9B4
:101870009B480068FFF78AFA4FF44070FFF778FA48
:1018800097480068FFF782FA01225146934805F015
:101890003DF991480068FFF779FA002251468F48D8
:1018A00005F034F98E480068FFF770FA4FF4816054
:1018B000FFF75EFA8A480068FFF768FA012251468E
:1018C000864805F023F984480068FFF75FFA202C6A
:1018D00067D100225146814805F018F98048006818
:1018E000FFF754FAE000FFF743FA7D480068FFF77E
:1018F0004DFA0122514600E054E0784805F006F91F
:1019000075480068FFF742FA00225146734805F017
:10191000FDF873480068FFF739FA2001FFF728FA4D
:101920006F480068FFF732FA012251466B4805F014
:10193000EDF869480068FFF729FA00225146674828
:1019400005F0E4F866480068FFF720FA4FF44070AD
:10195000FFF70EFA62480068FFF718FA01225146B5
:101960005E4805F0D3F85C480068FFF70FFA0022E4
:1019700051465A4805F0CAF859480068FFF706FA78
:101980004FF49060FFF7F4F955480068FFF7FEF94F
:1019900001225146514805F0B9F84F480068FFF759
:1019A000F5F914E756480078072802DD9DF8106025
:1019B00009E053490878C11700EB5171C910A0EB39
:1019C000C10102AA565C00225146444805F09EF827
:1019D00043480068FFF7DAF906F58070FFF7C8F9A9
:1019E0003F480068FFF7D2F9012251463B4805F015
:1019F0008DF839480068FFF7C9F941480078082890
:101A000001DA002615E03E48007808383C490870A5
:101A100008460078072802DD9DF8106009E0384983
:101A20000878C11700EB5171C910A0EBC10102AADF
:101A3000565C00225146294805F068F8284800689D
:101A4000FFF7A4F906F50070FFF792F92448006843
:101A5000FFF79CF901225146204805F057F81E482F
:101A60000068FFF793F926480078082801DA002675
:101A700015E02348007808382149087008460078A6
:101A8000072802DD9DF8106009E01D490878C1179C
:101A900000EB5171C910A0EBC10102AA565C0022F3
:101AA00051460E4805F032F80D480068FFF76EF910
:101AB00006F54070FFF75CF909480068FFF766F922
:101AC00001225146054805F021F803480068FFF758
:101AD0005DF90B48007817E0280000200000024064
:101AE0002400002065000020000103070F1F3F7F36
:101AF000FF00000018000020200000200000E03F50
:101B00001C00002094000020082801DA002615E0BF
:101B1000FE4800780838FD49087008460078072814
:101B200002DD9DF8106009E0F8490878C11700EB64
:101B30005171C910A0EBC10102AA565C00225146A6
:101B4000F34804F0E3FFF3480068FFF71FF906F5D8
:101B50008060FFF70DF9EF480068FFF717F90122E1
:101B60005146EB4804F0D2FFEB480068FFF70EF94E
:101B700000BF2CE62DE9FE4306460C4690469946EA
:101B80000025AFF29C0207CA8DE807000027E34852
:101B90000078844201D1BDE8FE83DC480078DF494B
:101BA00008703046FFF780F9054605B9F3E70022D3
:101BB0002946D74804F0AAFFD6480068FFF7E6F8A0
:101BC00004F5807188B2FFF7D3F8D2480068FFF7B8
:101BD000DDF801222946CE4804F098FFCE4800687F
:101BE000FFF7D4F800222946C94804F08FFFC948FE
:101BF0000068FFF7CBF804F5007188B2FFF7B8F87A
:101C0000C4480068FFF7C2F801222946C04804F022
:101C10007DFFC1480068FFF7B9F800222946BC489B
:101C200004F074FFBB480068FFF7B0F804F540719A
:101C300088B2FFF79DF8B7480068FFF7A7F80122C0
:101C40002946B34804F062FFB3480068FFF79EF8E6
:101C500000222946AE4804F059FFAE480068FFF75D
:101C600095F804F5806188B2FFF782F8A94800680A
:101C7000FFF78CF801222946A54804F047FFA64843
:101C80000068FFF783F800BF85E770B505460024BC
:101C90002846FFF709F9044604B970BD0022214621
:101CA0009B4804F033FF9B480068FFF76FF80F2054
:101CB000FFF75EF897480068FFF768F80120FFF724
:101CC00057F894480068FFF761F8012221469048D0
:101CD00004F01CFF90480068FFF758F800BFDCE7ED
:101CE0000EB50121102007F0A6FC684606F079FD2C
:101CF00040F2E730ADF80000642001906946884862
:101D000006F03BFD01221146854807F0D7F9362041
:101D100000F057FE0EBD1EB500BF82A41CCC8DE89E
:101D20001C00834A927940F26D1312FB03F0804B42
:101D30009A79D31702EB93739B10B2EB830307D10D
:101D40007B4B9A79D31702EB937300EBA30007E068
:101D5000774B9A79D31702EB93739B105B1C184453
:101D6000012105E04A1E1DF8022010444A1CD1B290
:101D70006F4A52798A42F5DC6D4B9A79D31702EBA0
:101D800093739B10B2EB830301D1012300E0002386
:101D9000674C6479022C01DD012400E00024234219
:101DA00000D0401C624A127910441EBD10B58AB0A2
:101DB00000240121042007F03EFC4FF4A06004F051
:101DC000ADF81E208DF8040000208DF805008DF878
:101DD000060001208DF8070001A804F0A4F80120F6
:101DE00003F0FAFF002003F0F7FF032003F0F4FFF5
:101DF000504800685049B0FBF1F0401E84B24FF6E5
:101E0000FF700390ADF808400020ADF81000ADF869
:101E10000A0002A9494806F0B0FC0121474806F033
:101E200017FD0020ADF814000120ADF8160044485D
:101E3000008807900020ADF8200005A93F4806F073
:101E400031FD00213D4806F0BAFE012202213B4847
:101E500007F034F90121394806F018FD0AB010BD29
:101E60008AB00024012003F0B7FF002003F0B4FF84
:101E7000022003F0B1FF032003F0AEFF012003F0C6
:101E8000CAFF002003F0C7FF022003F0C4FF0320B5
:101E900003F0C1FF03A807F006FB012007F0B5FA25
:101EA00005208DF81C0000208DF81D008DF81E0007
:101EB00001208DF81F0007A804F035F801218803E0
:101EC00007F0CAFB42F21070FEF760FF01210846DE
:101ED00007F07EFB0121022007F07AFB012104209C
:101EE00007F076FB0121102007F072FB4FF4007021
:101EF000089003208DF8250002208DF82400002092
:101F00008DF8260001208DF827001BE01C00002022
:101F1000000002402400002028000020940000203F
:101F2000001000401F1C1F1E1F1E1F1F1E1F1E1FF4
:101F30000C8B0020C40000207064080000080040E2
:101F40002E00002008A9FE4804F060FD4FF000516B
:101F5000002007F06BFAFEF79AF9FEF7B2F91020AD
:101F6000089001208DF824008DF8260002208DF8BD
:101F7000250008A9F34804F049FD402008900120FD
:101F80008DF824008DF8260002208DF8250008A980
:101F9000ED4804F03BFD8020089000208DF82400DF
:101FA00001208DF8260002208DF8250008A9E448BC
:101FB00004F02CFD4FF40070089000208DF82400F0
:101FC00001208DF8260002208DF8250008A9DC48A4
:101FD00004F01CFDFEF71AFBFFF7E8FE0020DB49CA
:101FE00008700720DA490870DA48DB4BDB4A012128
:101FF0000090DB4809F045FAFEF76DFF10200890CD
:1020000001208DF8240000208DF826008DF8250091
:1020100008A9CC4804F0FAFC0820089001208DF8AB
:10202000240000208DF826008DF8250008A9C64858
:1020300004F0ECFC4FF48070089001208DF824002F
:1020400000208DF826008DF8250008A9BD4804F071
:10205000DDFC1020089001208DF8240000208DF870
:1020600026008DF8250008A9B74804F0CFFC2020F1
:10207000089001208DF8240000208DF826008DF8AE
:10208000250008A9B04804F0C1FC4FF400400890B6
:1020900001208DF8240000208DF826008DF8250001
:1020A00008A9A84804F0B2FC2020089000208DF870
:1020B000240001208DF8260002208DF8250008A9B3
:1020C0009F4804F0A3FC4020089001208DF82400D4
:1020D00000208DF8260002208DF8250008A99848D8
:1020E00004F094FC4FF48070089001208DF82400D7
:1020F00000208DF8260002208DF8250008A99048C0
:1021000004F084FC4FF40060089000208DF8240057
:1021100001208DF8260002208DF8250008A98848A6
:1021200004F074FC8020089000208DF82400012029
:102130008DF8260002208DF8250008A9824804F0B9
:1021400065FCFEF72BFC0120FEF728FE10207E49DF
:1021500008832020088380027A49088308207A496E
:102160000883400177490883402075491831088069
:10217000800008800120FEF7BCFA6420FEF706FE0E
:102180000120FEF782FA6420FEF700FE00BF0DE09A
:102190000020FEF7AEFA6420FEF7F8FD0120FEF7FE
:1021A000A8FA6420FEF7F2FD601C84B2642CEFDB19
:1021B00042F21070FEF7EAFD00206A490870012023
:1021C000694908700020694908700024C7E268481E
:1021D000FEF7DCFD6448007801287CD100206149CD
:1021E0000870614908700E20FEF742FB5E480078D7
:1021F00008B9012000E000205A49097809B90121F5
:1022000000E00021084267D05A48407A5A49487293
:102210005848807A88725748C07AC8725548007BFF
:10222000087300200870487088700846807A08712A
:102230000846C07A48710846007B8871FFF76BFD3D
:102240004E4908604B48007800F00F004949097872
:10225000C1F3021101EB810100EB41004649087016
:102260004448407800F00F0042494978C1F3021118
:1022700001EB810100EB41003F4948703D48807807
:1022800000F00F003B498978C1F3011101EB810196
:1022900000EB4100384988703648007900F00F00A3
:1022A00034490979C1F3011101EB810100EB4100CF
:1022B000314908712F48407900F00F002D494979C4
:1022C000C1F3001101EB810100EB41002A49487183
:1022D0002848807901E038E23CE200F00F0025490F
:1022E0008979090901EB810100EB410022498871DC
:1022F0002048007A00F001002149C8701D48407C48
:10230000122801D1012000E000201A49897C3429DB
:1023100001D1012100E00021084238D01548807B1E
:1023200000EB80004000164988811248C07B48813C
:102330001048007C00EB800040001249C88023E078
:102340000008024000000240001002402C00002063
:1023500077010020EC000020D0010020A40600201E
:10236000F4010020B2000020900000209100002025
:10237000A0860100208B00200C8B00200C00002088
:10238000148A0020D28A0020FE48407C8880FE48C3
:10239000408A08B1012000E00020FB49498AB1F5DC
:1023A000004F01D0012100E0002108427ED0F74813
:1023B000807AF6490979884201D0012000E00020A6
:1023C000F249C97AF14A5279914201D0012100E0E3
:1023D00000210843ED49097BEC4A9279914201D0F2
:1023E000012100E000210843E0D000200090E74BED
:1023F00001901A7959799879002301F01AFCE4497F
:102400000860FFF788FCE3490968451A28460DF083
:1024100071FBE1490860084600680DF08EFBDF495A
:1024200008700020DC490860D848407A182873D02A
:10243000D548408A47F6F87188426FDDD3488078E6
:10244000D249497A884234DDD0488078CF49497AE8
:10245000401ACD49498AA1F500414843182190FB13
:10246000F1FB58460DF03DFBC7490290498AA1F5A2
:102470000041CA4A127801FB02F00DF032FB83469C
:10248000C548016858460DF00CFA824602990DF0D5
:1024900005FA81460DF097FB07460022C04B0DF070
:1024A00079FA05460DF0A2FBBB4900E01AE108608D
:1024B00085E0B648407AB5498978401AB249498AD8
:1024C000A1F500414843182190FBF1F002900DF076
:1024D00008FB8246AC49498AA1F50041AF4A12780F
:1024E00001FB02F00DF0FDFA0290AB480168029882
:1024F0000DF0D7F9834651460DF07EF981460DF077
:1025000062FB07460022A64B0DF044FA05460DF08B
:102510006DFBA149086052E04EE0FFE79B488078E0
:102520009A49497A884223DD984880789749497AC0
:10253000401A9549498A4843182190FBF1F73846DB
:102540000DF0CFFA05469049498A944A127801FB6A
:1025500002F00DF0C6FA07468F48016838460DF0C4
:102560004BF9064629460DF047F98B49086026E0ED
:102570008648407A85498978401A8349498A484380
:10258000182190FBF1F738460DF0ABFA05467E496D
:10259000498A824A127801FB02F00DF0A2FA07463E
:1025A0007D48016838460DF027F9064629460DF0AA
:1025B00075F97949086002E00020774908604FF01A
:1025C0007E51754800680DF037FB01D8012500E009
:1025D00000257449704800680DF024FB01D80120E3
:1025E00000E0002005437DD06B4800680DF0A5FA9F
:1025F000674909680844451E284601F0D4FBFEF7E8
:10260000ADF8D020FEF7E4F80020FEF7E1F85F48CF
:1026100000780A2190FBF1F201FB12005B49097876
:102620000A2291FBF2F100EB011000F07F05284631
:10263000FEF7CEF8554840780A2190FBF1F201FBF5
:102640001200524949780A2291FBF2F100EB011085
:10265000C5B22846FEF7BCF84C4880780A2190FBAA
:10266000F1F201FB1200494989780A2291FBF2F14B
:1026700000EB0110C5B22846FEF7AAF80120FEF7CC
:10268000A7F8424800790A2190FBF1F201FB120001
:102690003E4909790A2291FBF2F100EB0110C5B223
:1026A0002846FEF795F8394840790A2190FBF1F267
:1026B00001FB1200354949790A2291FBF2F100EB46
:1026C0000110C5B22846FEF783F8304880790A2108
:1026D00090FBF1F201FB12002C4989790A2291FB4F
:1026E000F2F100E020E000EB0110C5B22846FEF751
:1026F0006FF80020FEF76CF82349C97801F001005B
:10270000FEF766F821498878FEF762F81F490879D4
:10271000FEF75EF81D494879FEF75AF81B4988799B
:10272000FEF756F8FEF722F81F48007808B9012096
:1027300000E000201D49097809B9012100E00021CD
:10274000084203D000201849087006E0012016490D
:10275000087002E0012014490870601C84B2B4F5CE
:102760007A7FFFF634AD632011490871074840783D
:102770004871064800788871084600790D4908714B
:102780000B4819E0208B0020148A00200C8B0020BD
:10279000080000200C000020100000200400002091
:1027A0000000E03F000080BF90000020B200002049
:1027B000A2000020A9000020407948718748807954
:1027C00088711020864948832020488380028549EB
:1027D000488310204883082081494883400181496B
:1027E00048834020804908808000088000207F497D
:1027F00008707F4908707F48C07838B940207A490E
:10280000891E08808000891C088005E040207649E8
:1028100008808000891E0880002077490880488051
:102820007649088048807649087076490880488053
:102830007549088048807549088048807449088037
:102840004880744908807449086074490880744855
:102850000088734908800020724908807249086026
:1028600072480088714908800020714908807149C8
:102870000860714803F0B6FC704806F014FE6F481B
:1028800040686422B0FBF2F1B1F1807F00D31DE01B
:1028900021F07F40401E4FF0E022506150170F2280
:1028A000002807DA13071E0E654B00F00F052D1FD9
:1028B0005E5503E013071D0E624B1D5400BF002040
:1028C0004FF0E02290610720106100BF0020FEF76A
:1028D00065FA002204210120FEF763FB0022052196
:1028E0000220FEF75EFB002203210846FEF759FB9B
:1028F000002204210846FEF754FB0120FEF7DEFB10
:102900000220FEF7DBFB0320FEF7D8FB0420FEF7D6
:10291000D5FB0820089001208DF824008DF82600B2
:1029200002208DF8250008A9474804F06FF8FEF74B
:1029300051F901221021444804F0E8F8012208214D
:10294000414804F0E3F840481430006880F0080083
:102950003D4914310860002208213B4804F0D6F8B4
:1029600026208DF81C0000208DF81D008DF81E001B
:1029700001208DF81F0007A803F0D5FA012240F2CC
:102980002551324805F066FB012240F226612F48AE
:1029900005F060FB262000F014F8012003F043FA54
:1029A000002003F040FA022003F03DFA032003F078
:1029B0003AFAFDF719FE03E02549264808F0AAFF78
:1029C000FAE700F01F020121914042094FF0E02395
:1029D00003EB8202C2F8001170470000A200002041
:1029E00000100240000002401A0802408F00002040
:1029F0008C000020148A0020B0890020C4890020A7
:102A00004D000020D8890020EC890020008A002099
:102A10009600002070010020600100204600002088
:102A20007400002072000020780000207E0000204A
:102A30007C000020800000200022014028070020A8
:102A400018ED00E000E400E0000C0240004400400B
:102A5000A4060020F40100200CB500200190009095
:102A60007E48006840F480307C49086000BF7B48A5
:102A7000006800F4003000900198401C019000981C
:102A800018B90198B0F5A06FF1D17448006810F43E
:102A9000003F02D00120009001E00020009000984B
:102AA000012845D16D484030006840F080506B49A6
:102AB000403108606A48006840F480406849086016
:102AC00066480830006865490831086008460068B3
:102AD00040F4004008600846006840F4A0500860D8
:102AE0006048091F0860081F006840F08070091FD7
:102AF000086000BF5948006810F0007FFAD040F22B
:102B000005605949086055480830006820F0030006
:102B10005249083108600846006840F00200086029
:102B200000BF4E480830006800F00C000828F8D1BB
:102B30004A480830006820F400004849083108601D
:102B40004A484649843108604448006840F0806043
:102B50004249086000BF4148006810F0006FFAD099
:102B60000CBD10B53D48006840F001003B490860CD
:102B700000203A4908310860384800683C4908405C
:102B8000364908603B48091D0860081F006820F4AA
:102B90008020091F0860002030490C310860FFF7D1
:102BA0005BFF4FF000603449086010BD70B5002035
:102BB0000022022300240221284D08352D6805F04B
:102BC0000C0020B1042806D0082834D107E02B4D92
:102BD0002B4E356033E02B4D294E35602FE01F4DD5
:102BE0002D1D2D68C5F380541C4D2D1D2D6805F03D
:102BF0003F0154B1234DB5FBF1F5184E361D366833
:102C0000C6F3881605FB06F209E01C4DB5FBF1F58D
:102C1000124E361D3668C6F3881605FB06F20F4DB8
:102C20002D1D2D68C5F301456D1C6B00B2FBF3F53E
:102C3000134E356003E0114D114E356000BF00BFEB
:102C4000064D08352D68C5F303150F4E705D0C4D0C
:102C50002D68C5400A4E356070BD00000038024046
:102C60000070004008544007003C024080400030A3
:102C7000FFFFF6FE1030002408ED00E00024F40011
:102C8000C400002000127A00C800002010B5002106
:102C9000084603F0DDF810BD08B500214FF00060D4
:102CA00003F077F94FF4A06003F038F91C208DF899
:102CB000000000208DF8010001208DF802008DF841
:102CC0000300684603F02FF90121084606F0B3FC23
:102CD00008BD1CB504460121084606F079FC4FF4F6
:102CE000D050009003208DF8050002208DF80400DC
:102CF00000208DF806008DF807006946774803F03C
:102D000085FE0A220921754803F00BFF0A220B21D8
:102D1000724803F006FF0A220C21704803F001FFFD
:102D20004FF48060009001208DF806008DF80700B8
:102D300003208DF805006946684803F067FE0A2203
:102D40001146664803F0EDFE0121880306F084FC7D
:102D50000121802006F04DFCFFF79EFF1CBD38B519
:102D600004464FF4C06003F0D9F843208DF800000A
:102D700001208DF801008DF802008DF803006846EF
:102D800003F0D1F817208DF8000001208DF8010024
:102D900002208DF8020001208DF80300684603F040
:102DA000C2F838BD70B505460C4624B901214C481F
:102DB00003F0A8FE03E00121494803F0A5FE70BD21
:102DC0003EB5044600214FF0804005F05FFD002233
:102DD0000121880706F072F9022C02D10B20019024
:102DE00004E0012C02D142F6DF6001900520ADF82D
:102DF00000000020ADF80800ADF8020069464FF071
:102E0000804005F0BAFC0121880706F07FF9012116
:102E1000880705F01DFD01221146900706F04EF9C6
:102E20000121880705F032FD3EBD70B505460C4610
:102E30002C4805602046FFF7C3FF00BF2948006803
:102E40000028FBD100214FF0804005F01FFD70BD30
:102E500010B5044601212046FFF7E7FF10BD1CB561
:102E600004460121042006F0B3FB0120009002205B
:102E70008DF8050001208DF8040000208DF8060073
:102E80008DF807006946164803F0C0FD012114487B
:102E900003F038FEC820FFF7DBFF1CBD10B5044669
:102EA00002212046FFF7C1FF10BD10B501218807A0
:102EB00006F01BF988B10121880706F027F90948B7
:102EC000006828B107480068401E0649086004E011
:102ED00000214FF0804005F0D9FC10BD00000240F9
:102EE00000080240D8000020704710B5FE488079E5
:102EF0000A2190FBF1F03030FC490870FA488079E3
:102F00000A2190FBF1F201FB12003030F7494870C2
:102F1000F54840790A2190FBF1F03030F349887090
:102F2000F14840790A2190FBF1F201FB12003030A8
:102F3000EE49C870EC4800790A2190FBF1F030307E
:102F4000EA490871E84800790A2190FBF1F201FB97
:102F500012003030E54948712E2088716320C87115
:102F600073200872762048720120E1490870102011
:102F7000E049088320204883022002F054FF032008
:102F800002F049FF01220221DB4806F097F810BD4C
:102F9000704710B50020D64908701020D5494883E5
:102FA000202008836320D5490871032002F03BFFED
:102FB000022002F038FF002002F035FF002202213B
:102FC000CD4806F07BF810BD7047704770477047DA
:102FD000704770477047704730B50023002200F4F7
:102FE0000044B4F5004F02D10122C0F30E00012AC3
:102FF00002D130240C70491C42F2107490FBF4F49E
:1030000030340C7042F2107490FBF4F504FB15049C
:10301000A0B2491C4FF47A7490FBF4F430340C7075
:103020004FF47A7490FBF4F504FB1504A0B2491C2C
:10303000642490FBF4F430340C70642490FBF4F5B9
:1030400004FB1504A0B2491C0A2490FBF4F43034AC
:103050000C70491C42B92C240C700A2490FBF4F526
:1030600004FB1504A0B2491C00F130040C7030BD03
:1030700070B5A348007800287ED00024A1480079CC
:1030800063280AD19D4800799E4908719B48407980
:1030900048719A488079887176E29A4800790A21C5
:1030A00090FBF1F0303098490870964800790A2179
:1030B00090FBF1F201FB12003030934948703A2046
:1030C0008870904840790A2190FBF1F030308E49A9
:1030D000C8708C4840790A2190FBF1F201FB120084
:1030E0003030894908713A204871864880790A2130
:1030F00090FBF1F0303084498871824880790A2150
:1031000090FBF1F201FB120030307F49C8717B481F
:1031100000797C490871794840794871774880790D
:103120008871082079490870002079490880794918
:1031300008807948007800287ED07FE03B207349E2
:103140000978744A1288202303FB02116E4A5054F6
:103150006E4A12786F4B1B88202505FB0322521CF8
:10316000694BD1186D4A6B4B1B8832F81300FFF77F
:1031700033FF3B21654800E00AE20078654A128887
:10318000202303FB020008305F4A11545F4A127883
:10319000604B1B8805FB032209325B4BD118604A48
:1031A0005C4B1B8832F81300FFF716FF3B21574892
:1031B0000078584A1288202303FB02001030524A3C
:1031C0001154524A1278534B1B8805FB03221132CB
:1031D0004D4BD118534A4F4B1B8832F81300FFF761
:1031E000FBFE3B21494800784A4A1288202303FB12
:1031F00002001830444A1154444A1278454B1B8847
:1032000005FB03221932404BD118474A414B1B881A
:1032100032F81300FFF7E0FE3E480088401C3D49AD
:1032200008800D21394800783A4A1288202303FB90
:103230000200401E344A00E007E01154354800887F
:10324000B0F5167FFFF67AAFABE0A4E03B202F4944
:103250000978304A1288202303FB02112A4A50546D
:103260002A4A12782B4B1B88202505FB0322521C6F
:10327000254BD1182D4A274B1B8832F81300FFF736
:10328000ABFE3B2121480078224A1288202303FB11
:10329000020008301C4A11541C4A12781D4B1B882E
:1032A00005FB03220932184BD118214A194B1B8800
:1032B00032F81300FFF790FE3B2114480078154ABE
:1032C0001288202303FB020010300F4A11540F4ACA
:1032D0001278104B1B8805FB032211320A4BD118C0
:1032E000144A0C4B1B8827E00C8B0020E0000020C8
:1032F0008F0000200010024000080040A2000020C3
:1033000045000020A9000020903B00203F00002045
:10331000400000204200002034000020200B00204C
:10332000B0250020C01A0020A0300020F01200209C
:10333000282B00203820002032F81300FFF74CFE25
:103340003B21BB480078BB4A1288202303FB0200C4
:103350001830B94A1154B64A1278B64B1B8805FB8F
:1033600003221932B44BD118B44AB24B1B8832F83D
:103370001300FFF731FEAF480088401CAD490880BC
:103380000D21AB480078AB4A1288202303FB0200D2
:10339000401EA94A1154A7480088B0F5167FFFF6D1
:1033A00055AFA74807F002F901287DD10222A549AF
:1033B000A5480AF008FE002864D102F02CFDA248BE
:1033C000C1680BF04EF99A4800789A490988202381
:1033D00003FB01029D4B98499B480AF0C0FF9A48A5
:1033E0000BF034F99A4800790A2190FBF1F201FBC5
:1033F0001200303093494979884235D09448807919
:103400000A2190FBF1F030308E49087090488079A5
:103410000A2190FBF1F201FB12003030894948701B
:103420008B4840790A2190FBF1F030308549887053
:10343000874840790A2190FBF1F201FB12003030FD
:103440008049C870824800790A2190FBF1F0303041
:103450007C4908717E4800790A2190FBF1F201FB5A
:103460001200303077494871002002F0DCFC012066
:10347000784908707849087010207849088320201E
:10348000488381E008226F496F480AF09CFD0028BC
:1034900064D102F0C0FC6C48C1680BF0E2F86448EB
:1034A00000786449098800E064E0202303FB0102FE
:1034B000664B614964480AF052FF63480BF0C6F856
:1034C000634800790A2190FBF1F201FB12003030D1
:1034D0005C494979884235D05D4880790A2190FB62
:1034E000F1F0303057490870594880790A2190FB33
:1034F000F1F201FB120030305249487054484079D3
:103500000A2190FBF1F030304E49887050484079E4
:103510000A2190FBF1F201FB120030304949C870DA
:103520004B4800790A2190FBF1F030304549087191
:10353000474800790A2190FBF1F201FB120030307C
:1035400040494871002002F06EFC01204249087099
:103550001020424908832020488315E0022002F011
:103560005AFC00203C49087010203C494883202028
:10357000088309E000203749087037490870102097
:10358000364948832020088300203549087000BF51
:1035900070BD10B53348007810B101282BD124E05C
:1035A000314900200AF0FCFC50B100202A49087083
:1035B00010202A494883202008834FF0FF3010BD97
:1035C0002A48007B01280CD10020234908701020D4
:1035D000224948832020088302E0022002F01BFCDD
:1035E000FBE701201F49087006E0FFF741FD0020BE
:1035F0001C49087000E000BF00BF0020DFE710B5E5
:103600004FF4FA70FFF724FCFFF7C3FF10BD002052
:103610001149087010201149488320200883704701
:1036200001207047704700200E4908707047000065
:103630003F00002042000020903B00201836002070
:10364000F4010020E0000020648F0020B000002082
:103650000C8B0020440000208F000020001002404E
:103660004500002036010020348B00206C9800209B
:1036700010B5802006F0D8F848B1012005F040FED2
:103680000121182006F0B6F8802006F0D8F810BD09
:1036900000BFFEE700BFFEE700BFFEE700BFFEE79A
:1036A0007047704770472DE9FE4F06460C460025CF
:1036B000A94602940020F7490870012508E034F873
:1036C000150018B909F1010000F0FF09681CC5B226
:1036D0000A2DF4DBB9F1090F05D10120ED4908707D
:1036E0003046BDE8FE8F2088B04201DDA08AF8E7B1
:1036F000012559E04FF0000A34F81500B0423BDDD7
:103700000DB9A08AEDE734F8150028B9681E04F158
:10371000140131F81000E4E704F1140030F815202A
:10372000681E04F1140131F81000101A691E34F8F3
:103730001110711A484334F81520691E34F811101D
:10374000511A90FBF1F2681E04F1140131F81000D7
:1037500002EB000B58460CF0D2F90022CE4BCDE91B
:1037600000010CF017F907460CF040FA824650466B
:103770000CF0FCF980B2B4E7681E34F810000028A1
:1037800001DD012000E0002034F8151009B9012105
:1037900000E00021084205D0681E04F1140131F850
:1037A00010009EE7681CC5B20A2DA3DBE08C98E7E9
:1037B0002DE9F05F04468A464FF00009B7480088BB
:1037C00010B92046BDE8F09FB4480088012801D117
:1037D0002046F7E7B2480088B049098888421BDADA
:1037E000B04800682044AF490860AD480088401CDC
:1037F000AB490880AB4800680988B0FBF1FB58462C
:103800000CF08EF907460022A34B0CF0C3F80546D6
:103810000CF0C0F980B2D5E7A24800682044A14965
:103820000860084600689E490988B0FBF1FB5846CD
:103830000CF076F905460022974B0CF0ABF80746E2
:103840000CF0A8F91FFA80F996480068A0EB09006F
:10385000944908604846B5E72DE9F05F04468A467A
:103860004FF000099048008810B92046BDE8F09F4D
:103870008D480088012801D12046F7E78B48008851
:103880008949098888421BDA8948006820448849A8
:10389000086086480088401C844908808448006885
:1038A0000988B0FBF1FB58460CF03AF907460022B4
:1038B000794B0CF06FF805460CF06CF980B2D5E747
:1038C0007B48006820447A490860084600687749C8
:1038D0000988B0FBF1FB58460CF022F9054600229E
:1038E0006D4B0CF057F807460CF054F91FFA80F9AD
:1038F0006F480068A0EB09006D4908604846B5E7CD
:1039000002466C488089904205DA6B480088401C6A
:10391000694B188004E069480088401C674B188098
:103920006448C089644B1B8898420ADC0020624BC3
:103930001880624B18800120614B18701020614B79
:1039400018835C48008A5D4B1B88984209DC002084
:10395000594B1880594B1880594B18701020594BEF
:103960005883704702465848C088904205DA574845
:103970000088401C554B188004E055480088401CC6
:10398000534B188050480089504B1B8898420ADCE2
:1039900000204E4B18804E4B188001204D4B187064
:1039A00040204D4B188348484089494B1B8898421A
:1039B00009DC0020454B1880454B1880454B18709A
:1039C0004020454B588370470EB544A207CA8DE886
:1039D00007004548006845490968884218D04248B0
:1039E000007810F0010F07D1414842788178012317
:1039F0000420FDF79EFC06E03D48427881780023D4
:103A00000420FDF796FC384800683849086015E046
:103A100038480078012800D100E0002035490978B5
:103A2000022901D1012100E00021084306D03048DD
:103A30004278817801230420FDF77BFC2E48007832
:103A400008B9012000E000202C49097808402A49E3
:103A50000978012900D100E00021294A127811409B
:103A600008430BD027480078FDF7FAFA264800787B
:103A7000FDF7F6FA0320FDF7F3FAC8E023480088C3
:103A8000052190FBF1F201FB1200032840DD01212A
:103A90003FE00000720100200000E03F74000020C1
:103AA00072000020780000207E0000207C000020B2
:103AB00080000020148A00206C0100206E0100208C
:103AC0008C00002000000240D28A00206601002005
:103AD000680100208D000020001002400001030753
:103AE0000F1F3F7FFF000000300000205C0100201E
:103AF0000C8B00203B0100204A01002073010020B4
:103B00007401002092000020930000204600002055
:103B10000021FA480078012800D100E00020F84A8E
:103B20001278012A00D100E000221040F54A1278F4
:103B3000012A00D100E00022F14B1B780BB90123D0
:103B400000E000231A40104301420BD0EE480078F9
:103B5000FDF7B4FAED480078FDF7B0FA0320FDF761
:103B6000ADFA54E0EA48E64A127830F8121003221F
:103B7000E5480078FDF7D3FAE648E14A127830F8D4
:103B8000121003221046FDF7CAFADD48007801281A
:103B90000AD1E148037DE148028ADD484188DB48DB
:103BA0000078FDF7CDFD32E0DB48C078DA4949798D
:103BB000884216D1DA48007848B9D748037DC28ACE
:103BC000D3480188D1480078FDF7BAFD1FE0D248FC
:103BD000037D028BCE480188CC480078FDF7B0FD0C
:103BE00015E0CF48007848B9CB48037D428BC848E0
:103BF0000188C6480078FDF7A3FD08E0C648037DAC
:103C0000828BC3480188C1480078FDF799FD0EBD3D
:103C100010B50121C34805F068FA48B1FFF7D4FE9A
:103C20000121C04805F072FA0021BE4804F02EFEC2
:103C300010BD2DE9FE4106460F46DDE909450FF2AC
:103C4000E828D8E9000CD8F80880CDE901C8009030
:103C5000B848807940F26D1C10FB0CF0DFF8D8C238
:103C6000CCF80000DFF8CCC29CF806004FEAE07CFC
:103C700000EB9C7C4FEAAC0CB0EB8C0C12D1DFF863
:103C8000B4C29CF806004FEAE07C00EB9C7CDFF8B5
:103C9000A882D8F8008008EBAC0CDFF89C82C8F84A
:103CA00000C014E0DFF88CC29CF806004FEAE07C0C
:103CB00000EB9C7C4FEAAC0C0CF1010CDFF8788235
:103CC000D8F80080C444DFF87082C8F800C0012131
:103CD0000DE0481E1DF80000DFF85CC2DCF800C0F3
:103CE0006044DFF854C2CCF80000481CC1B29148CF
:103CF00040798842EDDCDFF83CC29CF806004FEAD0
:103D0000E07C00EB9C7C4FEAAC0CB0EB8C0C02D15D
:103D10004FF0010C01E04FF0000CDFF8188298F82A
:103D20000580B8F1020F02DD4FF0010801E04FF00D
:103D300000081CEA080F06D07F480068401CDFF826
:103D4000F8C1CCF800007B480079DFF8ECC1DCF862
:103D500000C06044DFF8E0C1CCF80000754890F87E
:103D600000C07548006840F2A32800FB08F00CEB87
:103D7000C010DFF8C0C19CF801C0CCEB0C1C00EBFC
:103D80008C00DFF8B0C19CF802C0CCEB4C18C8EB3B
:103D90000C2C00EB0C10DFF8A4C1CCF8000060463E
:103DA0000068BDE8FE817EB50021002200245EA6E9
:103DB00068CE8DE868003C23B0FBF3F503FB1503E8
:103DC0005C4D2B703C23B0FBF3F0B0FBF3F503FB31
:103DD0001503584D6B703C23B0FBF3F01823B0FB78
:103DE000F3F503FB1503534DAB701823B0FBF3F051
:103DF00000BF12E0CD1701EB9575AD10B1EB850555
:103E000002D14FF4B77401E040F26D14A04203D91F
:103E1000001B4B1CD9B200E000E0EBE700BF454BB4
:103E2000997101221EE0531E1DF80310414DAB791C
:103E3000DD1703EB9575AD10B3EB850501D10125B9
:103E400000E00025022A01D1012600E000263542CB
:103E500001D04B1CD9B2884203D9401A531CDAB2A4
:103E600000E000E0DFE700BF324B5A711D462871C9
:103E70007EBD2DE9FC413248006910F0800F05D16C
:103E800030480088401C2F49088004E02E480088F4
:103E9000401C2D4908802D48006810F4006F05D1A2
:103EA0002B480088401C2A49088004E029480088E3
:103EB000401C28490880102027490880164880792E
:103EC00080B92248006810F0020F05D1234800880D
:103ED000401C224908804AE021480088401C2049B3
:103EE000088044E01948006810F0020F3AD01B48DF
:103EF0000088401C1949088039E000008D0000202E
:103F00004A0100208C000020920000209300002035
:103F1000EC890020008A0020148A0020D28A002028
:103F20004C000020001000401F1C1F1E1F1E1F1FE2
:103F30001E1F1E1F0C8B002054010020500100206A
:103F400000100240420100204401002010080240FD
:103F50004601002048010020180C02408400002087
:103F600086000020FE480088401CFD490880FD486E
:103F70000079FB49098888420DDC0120FA49087064
:103F80000820FA4948834001F94908830020F44990
:103F90000880F8490880F3480079F6490988884282
:103FA0000DDC0020F04908700820F049088340012A
:103FB000EF4948830020EA490880EE490880EE482E
:103FC000006810F0800F0FD1E6480079EB490988AE
:103FD000884205DBE9480088401CE84908800CE07D
:103FE0000020E649088008E0E4480088002804DD55
:103FF000E2480088401EE1490880DF48006810F46C
:10400000007F0FD1D7480079DD490988884205DB58
:10401000DB480088401CDA4908800CE00020D849C1
:10402000088008E0D6480088002804DDD4480088CD
:10403000401ED3490880D3484088D34909880844A2
:10404000D049488008460088CF4949880844CD496E
:104050000880CE480078401CCC490870084600789B
:104060000A287DD1C7480088097890FBF1F0C8493B
:104070000880C4484088C549097890FBF1F0C449DC
:1040800048800020C1490870BE4908804880BE4869
:104090000088BF490880BC4840884880B148C07843
:1040A000B0494979884214D1AF48007840B9B8493D
:1040B0000888AC491E31FFF7F6FAB64908801CE0C3
:1040C000B3490888A7494631FFF7EDFAB14908809E
:1040D00013E0A548007840B9AD490888A1496E3180
:1040E000FFF7E1FAAB49088007E0A94908889D4934
:1040F0009631FFF7D8FAA7490880A7480078A74962
:104100000870A3494888A649FFF7CDFAA14948801D
:10411000A1480078A34908709E4908880021FFF74C
:10412000EFFB9C4948880021FFF71CFC8D48408923
:104130009D490988884206DC00209C4908809A49EC
:1041400008809A494880934800889849098888429D
:1041500003DD90480088954908808E48408800E03B
:10416000FEE392494988884203DD8A4840888F49A6
:104170004880884908880021FFF71AFB8C4908808D
:10418000844948880021FFF767FB894948807548C2
:1041900000797A49098888426ADC8648007868B9DB
:1041A00000207049C870012083490870402072497E
:1041B000083108808000891C088002E000207F49C7
:1041C00008707C480078012826D17D4800780128B5
:1041D00013D173481238C088A0F54071DE3904D17C
:1041E00000206F491239C88016E06D481238C08827
:1041F0000A306B491239C8800EE05A488089A0F510
:104200004071DE3903D100205649888104E05548C9
:1042100080890A305349888166480078022822D173
:1042200067480078012811D15D48123880886328DA
:1042300004D100205A491239888014E058481238B5
:104240008088401C5649123988800CE045484089D6
:10425000632803D100204349488104E04148408954
:10426000401C404948810020444908804449088056
:104270003C48007942490988884263DC4D4800780F
:1042800060B901203749C8704B49087040203A494D
:104290000A3108808000891E088002E0002047491A
:1042A000087044480078012822D145480078012848
:1042B00011D13B481238C08828B940F2DE30384965
:1042C0001239C88014E036481238C0880A38344998
:1042D0001239C8800CE02348808920B940F2DE30D2
:1042E0002049888104E01F4880890A381D49888157
:1042F00030480078022820D131480078012810D1B8
:1043000027481238808820B96320254912398880CF
:1043100013E0234812388088401E214912398880D2
:104320000BE01048408918B963200E49488104E029
:104330000C484089401E0B49488100200F490880E5
:104340000F490880074800791E490988884246DCE1
:104350001D4800781D49087001201B49087037E08E
:1043600086000020148A00204C000020001002402B
:104370000000024084000020100802408800002055
:104380008A000020C4890020960000204D000020F3
:10439000B0890020D889002072010020730100201C
:1043A000E48A00207401002070010020008A0020AF
:1043B000EC8900203B0100204F0000203A01002042
:1043C0004A010020420100203D0100203C01002064
:1043D0000020F9490870F9490880F9490880F9482E
:1043E0000079F749098888420EDCF7480078F749D8
:1043F00008700020F44908700120EF49087000207F
:10440000EE490880EE490880EE480079F0490988B5
:10441000884209DC0120EF4908700020EE4908704D
:10442000EB490880ED490880E6480079EB490988A6
:1044300088420ADC0020E74908700120E64908703C
:104440000020E3490880E5490880DF48007801281A
:1044500000D100E00020DD49097809B9012100E020
:10446000002108420DD0DE480078401CDC4908706D
:104470000020DC490870DA480078032801D10A20BE
:104480000870D84800780A282CD10020D549087037
:10449000D3490870FCF762F9D020FCF799F90E2097
:1044A000FCF796F9C74880890A2190FBF1F4204671
:1044B000FCF78EF9C3494889FCF78AF9CA48C088D5
:1044C0000A2190FBF1F42046FCF782F9C64988885E
:1044D000FCF77EF91220FCF77BF93420FCF778F921
:1044E000FCF744F9C048807B50B9BA48007818B945
:1044F0000020BE4908700DE00120BC49087009E0A9
:10450000B448007818B90120B849087002E00020CA
:10451000B6490870B5480078012804D1B44800783D
:10452000B449087003E0B4480078B2490870B14853
:10453000007820B14FF40040B049088303E04FF405
:104540000040AE494883AE480078B0B3AD4800782B
:10455000012809D1AC48408840F40040AB49AC4A3E
:10456000128821F8120008E0A7484088C0F30E0125
:10457000A648A74A128820F81210A6480088A64923
:10458000A34A128821F81200A2484188A348A04AF1
:10459000128820F81210A248007801280ED19A48FB
:1045A000008840F400419A4802880088401C984BDB
:1045B00018809C4820F8121052E00DE092480088C4
:1045C000C0F30E01924802880088401C904B18806E
:1045D000944820F8121043E08A480078012809D155
:1045E0008948408840F400418F48894A128820F861
:1045F000121008E084484088C0F30E008A49844ABB
:10460000128821F81200834800888849804A12885D
:1046100021F812007F48408885497D4A128821F898
:1046200012007F48007801280DD17748008840F4B7
:104630000041774802880088401C754B18807D48EF
:1046400020F812100CE070480088C0F30E02704889
:1046500001880088401C6E4B1880764820F8112095
:104660006B480088A0F54071E73903D140F2E7308C
:104670006749088070480088401C6F4908800846D8
:104680000088B0F57A7F01DD002008806B48008843
:10469000401C6A490880084600880A287ED168487C
:1046A0000068401C6649086066480088401C6549EF
:1046B00008800020624908606049088062480068FC
:1046C000401C614908604648007820B145480078A0
:1046D000401C444908705C4800685C49884202D12B
:1046E00000205949086058480088594908805948AD
:1046F0000078401C57490870084600783C282DDB9C
:104700000020087008464078401C487008464078F1
:104710003C2823DB0020487008468078401C8870C5
:1047200008468078182819D100208870084600793A
:10473000401C08710846007920280FD1012008711B
:1047400008464079401C4871084640790D2805D13B
:104750000120487108468079401C88713D480078E6
:10476000A8B92748007880F0010025490870012089
:104770003949087000202649088036488078374932
:1047800008713448407848713248007888712E4862
:10479000007810F0010F05D0012000E095E201F053
:1047A0003AFB92E20024012001F03DFB2948007809
:1047B000322855D1012054E03E0100204201002062
:1047C00044010020148A00203D0100203C0100200B
:1047D000460100203F010020400100204801002048
:1047E0003B0100203A010020D28A00204A0100202B
:1047F0008D0000208E0000208C0000200000024070
:104800003400002074010020EC89002038200020B2
:1048100038000020008A0020282B002018360020B5
:1048200073010020F0120020C01A0020B0250020E3
:10483000A0300020200B002038010020460000207E
:10484000600100207001002030000020C027090016
:10485000360000200C8B002045000020A200002024
:104860000020F7490978332901D1012100E0002116
:10487000084300D00124F3480078012800D100E06B
:104880000020012C01D1012100E00021084368D063
:10489000002600240020EC490870EA490870E84826
:1048A0008078172801D1012000E00020E4494978F0
:1048B0003B2901D1012100E00021084212D0E34848
:1048C000408A08B1012000E00020E049498AB1F5A2
:1048D000004F01D0012100E00021084202D0012058
:1048E000DB490870DA480078012803D10E20FBF775
:1048F000BFFF02E00820FBF7BBFFD248007808B9F1
:10490000012000E00020D049097809B9012100E028
:104910000021084276D0CF48007800F00F00CD4942
:104920000978C1F3021101EB810100EB4100C44998
:104930000870C848407800F00F00C6494978C1F3B4
:10494000021101EB810100EB4100BD494870C148F3
:10495000807800F00F00BF498978C1F3011101E0B0
:10496000B5E1B1E101EB810100EB4100B449887090
:10497000B848007900F00F00B6490979C1F3011178
:1049800001EB810100EB4100AD490871B14840796C
:1049900000F00F00AF494979C1F3001101EB81012B
:1049A00000EB4100A6494871AA48807900F00F0049
:1049B000A8498979090901EB810100EB4100A0496F
:1049C0008871A348007801286FD10124A148407A5A
:1049D0000872A048807A48729E48C07A88729D48C2
:1049E000007BC8720846407A0979884201D00120CC
:1049F00000E000209249897A914A5279914202D08E
:104A0000012101E05CE1002108438D49C97A8C4A0B
:104A10009279914201D0012100E00021084317D092
:104A20008D48007810B901208B4908708748408A6A
:104A300047F6F871884206DD8448408AA0F50040B8
:104A40008649088036E08148408A8449088031E000
:104A50007B48007A182829D000207F49097811B9AD
:104A600001217D4A11707949498A47F6F8729142CD
:104A70000EDD7349097AC1F11801744A528AA2F510
:104A8000004251431822B1FBF2F0744A10800BE04F
:104A90006B49097AC1F118016C4A528A51431822B4
:104AA000B1FBF2F06D4A108004E004E10020684997
:104AB0000870002468480078012828D160480078F0
:104AC0005F4949785E4DCDE90010AB782A79697964
:104AD000A879FFF7AEF8624908605C48408A47F65B
:104AE000F871884208DD5E4909685C4A1288891AB3
:104AF000481EFFF758F907E059490968574A1288D4
:104B00001144481EFFF74FF90220534908705248DC
:104B1000007802287DD1FBF721FED020FBF758FE5C
:104B20000020FBF755FE464800780A2190FBF1F281
:104B300001FB1200424909780A2291FBF2F100EBD5
:104B4000011000F07F052846FBF742FE3C48407804
:104B50000A2190FBF1F201FB1200394949780A223F
:104B600091FBF2F100EB01152846FBF731FE3448CA
:104B700080780A2190FBF1F201FB1200304989781C
:104B80000A2291FBF2F100EB01152846FBF720FE0B
:104B90000120FBF71DFE2A4800790A2190FBF1F263
:104BA00001FB1200264909790A2291FBF2F100EB80
:104BB00001152846FBF70CFE214840790A2190FB9D
:104BC000F1F201FB12001E4949790A2291FBF2F130
:104BD00000EB01152846FBF7FBFD194880790A21F7
:104BE00090FBF1F201FB1200154989790A2291FB31
:104BF000F2F100EB01152846FBF7EAFD0020FBF778
:104C0000E7FD1249C97801F00100FBF7E1FD18202A
:104C100000E037E0FBF7DCFD09490879FBF7D8FD38
:104C200007494879FBF7D4FD05498879FBF7D0FDA2
:104C3000FBF79CFD03480078A0B9012013E00000B9
:104C40000C8B002090000020B2000020148A00206D
:104C500058010020208B0020910000205A010020E4
:104C60004C0100200020FE49097809B9012100E02B
:104C70000021084203D00320FA49087002E0012015
:104C8000F9490870F748007803281CD10020F7493B
:104C90000870F548007808B9012000E00020F049CC
:104CA000097809B9012100E00021084204D0002060
:104CB000EC490870002406E00120EB49087002E08E
:104CC0000120E949087000BF00BFFEF77DFEE848FB
:104CD000007828B30020E2490870E3490870FBF728
:104CE0003DFDD020FBF774FD0820FBF771FDE14985
:104CF000C97801F00100FBF76BFDFBF737FDDA48DF
:104D0000007808B9012000E00020D549097809B9E8
:104D1000012100E00021084202D00020D44908709F
:104D2000D548007800287AD00024D44880787728A5
:104D300001D1012000E00020D049C978722901D1B9
:104D4000012100E000210840CC490979742901D1F2
:104D5000012100E000210840C84949795F2901D1BB
:104D6000012100E000210840C4498979632901D16B
:104D7000012100E000210840C049C9796F2901D113
:104D8000012100E000210840BC49097A6E2901D1C7
:104D9000012100E000210840B849497A662901D183
:104DA000012100E0002108427ED0002500260022DB
:104DB00040F22551B24803F04DF9012240F226613C
:104DC000AF4803F047F901220821AE4801F09EFEEA
:104DD00072B603F0FFF90221582003F047FA03F0FE
:104DE00006FA03F0F7F900253EE0A44905F10A00B0
:104DF000085CA5490870A14905F10B00085CA349AE
:104E000008700020A24908709F480078392807DD03
:104E10009D480078C01F0007000E087006E0FDE303
:104E2000994800780007000E994908709748007863
:104E3000392808DD954800783738954909780844BD
:104E40009349087007E09148007830389049097814
:104E500008448F4908708F4901EB65008C49097837
:104E600003F000FBA81C85B28B4800880A38A842D2
:104E7000BBDC03F0BCF9FBF771FCD020FBF7A8FC0E
:104E80000E20FBF7A5FC0120FBF7A2FC0220FBF79C
:104E90009FFC0320FBF79CFC0420FBF799FC0520FA
:104EA000FBF796FC062000E03FE0FBF791FCFBF7E8
:104EB0005DFC62B6BEB977207849087072204870F0
:104EC000742088705F20C870632008716F2048715B
:104ED0006E2088716620C8715F2008726F2048724A
:104EE0006B20887216E077206C4908707220487039
:104EF000742088705F20C870632008716F2048712B
:104F00006E2088716620C8715F2008726520487223
:104F1000722088720B206249088000206149088055
:104F20003A21574803F00BF800BF5448807877289F
:104F300001D1012000E000205049C978682901D141
:104F4000012100E0002108404C4909796F2901D175
:104F5000012100E000210840484949793F2901D159
:104F6000012100E00021084235D0002240F2255105
:104F7000434803F06FF8012240F22661404803F0F5
:104F800069F8012208213F4801F0C0FD752043491E
:104F90000870732048706F2088705F20C87061208F
:104FA0000871722048716D2088715F20C8716B2074
:104FB000087265204872792088725F20C87232209A
:104FC00008730D20364908800020364908803A21B0
:104FD0002B4802F0B4FF29488078722801D10120C3
:104FE00000E000202549C978652901D1012100E0B0
:104FF0000021084021490979732901D1012100E0EC
:10500000002108401D494979742901D1012100E09E
:105010000021084019498979612901D1012100E065
:10502000002108401549C979722901D1012100E008
:10503000002108401149097A742901D1012100E0B9
:105040000021084257D0002240F225510C4803F0BD
:1050500001F8012240F22661094802F0FBFF23E03B
:10506000B200002091000020900000205801002094
:105070004F000020148A00204E0000203807002036
:1050800000440040000C02403B0000203C00002097
:105090003D00002000000E089C0000202C0900208C
:1050A0009A0000209E00002001220821FE4801F005
:1050B0002DFD7220FD4908706520487073208870AE
:1050C0007420C87061200871722048717420887142
:1050D0005F20C8716F2008726B2048720A20F44963
:1050E00008800020F34908803A21F34802F027FFA6
:1050F000F248F3490860F3488078732801D1012011
:1051000000E00020EF49C978652901D1012100E0C4
:1051100000210840EB490979742901D1012100E0FF
:1051200000210840E74949795F2901D1012100E0C8
:1051300000210840E3498979742901D1012100E067
:1051400000210840DF49C979692901D1012100E026
:1051500000210840DB49097A6D2901D1012100E0D5
:1051600000210840D749497A652901D1012100E091
:10517000002108427ED000250026002240F2255161
:10518000CD4802F067FF012240F22661CA4802F0D2
:1051900061FF01220821C44801F0B8FCFAF7FEFFC4
:1051A000C948006840F08000C749086000BFC64891
:1051B000006810F0400FFAD040F20710C249091DF4
:1051C0000860C24808607320B849087065204870BC
:1051D000742088705F20C87074200871692048713D
:1051E0006D2088716520C8715F2008726F20487239
:1051F0006B208872B34B5B7D303BB24F3F7D303FBD
:1052000007EB870703EB4703DAB2AE4BDB7C303B9F
:10521000AC4FBF7C303F07EB870703EB4703D9B2A6
:10522000A84B5B7C303BA74F3F7C303F07EB8707A9
:1052300003EB4703D8B2FAF7F5FFA24BDB7B303B19
:10524000A04FBF7B303F07EB870703EB4703DAB282
:105250009C4B5B7B303B9B4F3F7B303F07EB870793
:1052600003EB4703D9B2974BDB7A303B954FBF7ABC
:10527000303F00E0E2E007EB870703EB4703D8B2DB
:105280000123FAF795FF8F48407D30388D49097D1D
:10529000303901EB810100EB41008D4908708948EC
:1052A000C07C30388749897C303901EB810100EBC3
:1052B0004100874948708348407C30388149097CE7
:1052C000303901EB810100EB4100814988707D4854
:1052D000C07A30387B49897A303901EB810100EBA3
:1052E00041007B4908717748407B30387549097B1C
:1052F000303901EB810100EB41007549487171487B
:10530000C07B30386F49897B303901EB810100EB7C
:1053100041006F498871FBF721FAD020FBF758FA5A
:105320000020FBF755FA6749497D3039654A127DFF
:1053300001EB021101F07F00FBF74AFA6149C97CD9
:105340003039604A927C303A01EB0210FBF740FAA8
:105350005C49497C30395B4A127C303A01EB0210DF
:10536000FBF736FA0120FBF733FA5649C97A303990
:10537000544A927A303A01EB0210FBF729FA51496C
:10538000497B30394F4A127B303A01EB0210FBF770
:105390001FFA4C49C97B30394A4A927B303A01EBBB
:1053A0000210FBF715FA0020FBF712FA4949C978F9
:1053B00001F00100FBF70CFA45498878FBF708FA81
:1053C00043490879FBF704FA41494879FBF700FAA9
:1053D0003F498879FBF7FCF9FBF7C8F93A48001F09
:1053E000006840F040003849091F0860081D006847
:1053F00020F08000091D0860FAF7D6FE3648FBF75A
:1054000096F802E03448FBF792F82E48C07A30381C
:105410002C49897A303901EB810100EB41002E499A
:1054200089788842EED10B2021490880002021494B
:1054300008803A21204802F082FD00BF2148807890
:10544000722801D1012000E000201E49C978652999
:1054500001D1012100E0002108401A4909796129A0
:1054600001D1012100E00021084016494979642951
:1054700001D1012100E0002108427DD0002240F24C
:1054800025510D4802F0E6FD012240F226610A484E
:1054900002F0E0FD01220821034801F037FB0F482C
:1054A00004884FF47A701BE0000C02402C090020A5
:1054B0009A0000209E000020004400400400FA05ED
:1054C0000CED00E0380700200C28004007017F00A9
:1054D0000C8B0020148A00207C0100203800002062
:1054E00094FBF0F03030FE4908704FF47A7094FB72
:1054F000F0F100FB114084B2642094FBF0F03030F6
:10550000F7494870642094FBF0F100FB114084B22D
:105510000A2094FBF0F03030F14988700A2094FBA7
:10552000F0F100FB114084B204F13000EC49C87086
:1055300020200871EB4880790A2190FBF1F030308F
:10554000E7494871E74880790A2190FBF1F201FBB5
:1055500012003030E2498871E24840790A2190FB1C
:10556000F1F03030DE49C871DE4840790A2190FB05
:10557000F1F201FB120000E0A9E23030D8490872D4
:10558000D84800790A2190FBF1F03030D4494872B4
:10559000D44800790A2190FBF1F201FB120030306F
:1055A000CF4988722020C872CE4880780A2190FBAB
:1055B000F1F03030CA490873CA4880780A2190FB5C
:1055C000F1F201FB12003030C5494873C5484078FC
:1055D0000A2190FBF1F03030C1498873C14840780E
:1055E0000A2190FBF1F201FB12003030BC49C87374
:1055F000BC4800780A2190FBF1F03030B8490874BB
:10560000B84800780A2190FBF1F201FB120030301B
:10561000B349487420208874B34800E029E3007837
:105620003030C87420200875B048008842F21071EC
:1056300090FBF1F201FB120084B24FF47A7094FBFC
:10564000F0F03030A64948754FF47A7094FBF0F1D1
:1056500000FB114084B2642094FBF0F03030A0498C
:105660008875642094FBF0F100FB114084B20A209D
:1056700094FBF0F030309A49C8750A2094FBF0F1A1
:1056800000FB114084B204F13000954908762020D7
:1056900048769648008842F2107190FBF1F201FBC7
:1056A000120084B24FF47A7094FBF0F030308C49E1
:1056B00088764FF47A7094FBF0F100FB114084B2CD
:1056C000642094FBF0F030308549C876642094FB68
:1056D000F0F100FB114084B20A2094FBF0F030306E
:1056E0007F4908770A2094FBF0F100FB114084B257
:1056F00004F130007A494877202088777C48008878
:1057000042F2107190FBF1F201FB120084B24FF4EF
:105710007A7094FBF0F030307149C8774FF47A70AA
:1057200094FBF0F100FB114084B2642094FBF0F094
:1057300030306B4981F82000642094FBF0F100FBCD
:10574000114084B20A2094FBF0F03030644981F8B3
:1057500021000A2094FBF0F100FB114084B204F117
:1057600030005F4981F82200202081F82300614841
:105770000078303081F82400202081F825005E4830
:105780000078303081F82600202081F827005B481F
:10579000C078303081F82800202081F8290058484E
:1057A0000078303081F82A00202081F82B005548FD
:1057B000008842F2107190FBF1F201FB120084B2FA
:1057C0004FF47A7094FBF0F03030454981F82C00AA
:1057D0004FF47A7094FBF0F100FB114084B2642026
:1057E00094FBF0F030303E4981F82D00642094FBAA
:1057F000F0F100FB114084B20A2094FBF0F030304D
:10580000374981F82E000A2094FBF0F100FB11408B
:1058100084B204F13000324981F82F00202081F851
:1058200030003848408842F2107190FBF1F201FBE1
:10583000120084B24FF47A7094FBF0F030302849B3
:1058400081F831004FF47A7094FBF0F100FB1140C5
:1058500084B2642094FBF0F03030214981F83200AA
:10586000642094FBF0F100FB114084B20A2094FB09
:10587000F0F030301A4981F833000A2094FBF0F13F
:1058800000FB114084B204F13000154981F8340066
:10589000202081F835001548008842F2107190FBF5
:1058A000F1F201FB120084B24FF47A7094FBF0F035
:1058B00030300B4981F836004FF47A7094FBF0F1E8
:1058C00000FB114084B2642094FBF0F030300449B6
:1058D00081F83700642094FBF0F100FB114013E0E5
:1058E0002C0900200C8B00204C000020EC890020AB
:1058F000008A00208E0000208F000020148A0020E3
:1059000090000020B089002084B20A2094FBF0F0BF
:105910003030FB4981F838000A2094FBF0F100FB9D
:10592000114084B204F13000F54981F8390020209B
:1059300081F83A00F348408842F2107190FBF1F28E
:1059400001FB120084B24FF47A7094FBF0F0303017
:10595000EB4981F83B004FF47A7094FBF0F100FBC7
:10596000114084B2642094FBF0F03030E44981F8B7
:105970003C00642094FBF0F100FB114084B20A204B
:1059800094FBF0F03030DE4981F83D000A2094FBB2
:10599000F0F100FB114084B204F13000D84981F8E5
:1059A0003E00202081F83F00D748008842F2107165
:1059B00090FBF1F201FB120084B24FF47A7094FB79
:1059C000F0F03030CE4981F840004FF47A7094FB0B
:1059D000F0F100FB114084B2642094FBF0F0303011
:1059E000C74981F84100642094FBF0F100FB1140AD
:1059F00084B20A2094FBF0F03030C14981F84200B3
:105A00000A2094FBF0F100FB114084B204F1300055
:105A1000BB4981F84300202081F84400BA484088FF
:105A200042F2107190FBF1F201FB120084B24FF4CC
:105A30007A7094FBF0F03030B14981F845004FF4B2
:105A40007A7094FBF0F100FB114084B2642094FB67
:105A5000F0F03030AA4981F84600642094FBF0F160
:105A600000FB114084B20A2094FBF0F03030A449CE
:105A700081F847000A2094FBF0F100FB114084B24A
:105A800004F130009E4981F84800202081F8490047
:105A90009E480078303081F84A00202081F84B0081
:105AA0009B480078303081F84C00202081F84D0070
:105AB00098480078303081F84E004F209649088091
:105AC0000020964908803A21954802F038FA954816
:105AD0008078722801D1012000E000209149C97826
